:1080000038010120B1A00000212A010085A0000054
:1080100085A0000085A0000085A0000085A00000CC
:10802000000000000000000000000000759C00003F
:1080300085A0000000000000159C000085A0000045
:10804000FD9C0000FD9C0000FD9C0000FD9C0000CC
:10805000FD9C0000FD9C0000FD9C0000FD9C0000BC
:10806000FD9C0000FD9C0000FD9C0000FD9C0000AC
:10807000FD9C0000FD9C0000FD9C0000FD9C00009C
:10808000FD9C0000FD9C0000FD9C0000FD9C00008C
:10809000FD9C0000FD9C0000FD9C0000FD9C00007C
:1080A000FD9C0000FD9C0000FD9C0000FD9C00006C
:1080B000FD9C0000FD9C0000FD9C0000FD9C00005C
:1080C000FD9C0000FD9C0000FD9C0000FD9C00004C
:1080D000FD9C0000FD9C0000FD9C0000FD9C00003C
:1080E000FD9C0000FD9C0000FD9C0000FD9C00002C
:1080F000FD9C0000FD9C0000FD9C0000FD9C00001C
:10810000FD9C0000FD9C0000FD9C0000FD9C00000B
:10811000FD9C0000FD9C0000FD9C0000FD9C0000FB
:10812000FD9C0000FD9C0000FD9C0000FD9C0000EB
:10813000FD9C0000FD9C0000FD9C0000FD9C0000DB
:04814000FD9C0000A2
:1081440053B94AB9002908BF00281CBF4FF0FF31BA
:108154004FF0FF3000F00CB8ADF1080C6DE904CE1F
:1081640000F008F8DDF804E0DDE9022304B070470C
:10817400704700BF2DE9F04786468C460846089EA6
:10818400154674461946002B40F0C1808542B2FA68
:1081940082F245D94AB1C2F1200300FA02FC9540AB
:1081A40094402EFA03F343EA0C0C4FEA154EA8B29E
:1081B400230CBCFBFEF80EFB18CC08FB00F943EAC9
:1081C4000C43994528D9EB1808F1FF3704D2994597
:1081D40002D9A8F102072B44A3EB0903A4B2B3FB11
:1081E400FEFC0EFB1C330CFB00F044EA0344A042EB
:1081F40014D92C190CF1FF3304D2A04202D9ACF1EA
:1082040002032C44241A43EA07401EB1D44000233D
:1082140034607360BDE8F0874746DDE76346F1E705
:1082240092BB431B01214FEA154EAFB2200CB3FBA6
:10823400FEFC0EFB1C330CFB07F840EA0343984595
:1082440061D9EB180CF1FF3004D2984502D9ACF196
:1082540002002B44A3EB0803A4B2B3FBFEFC0EFB09
:108264001C330CFB07F744EA0344A7424DD92C19ED
:108274000CF1FF3304D2A74202D9ACF102032C441F
:10828400E41B43EA0040C0E7C2F120039540944058
:1082940020FA03F12EFA03F34FEA154E9040AFB2E1
:1082A4000343B1FBFEFC0EFB1C10190C0CFB07F87E
:1082B40041EA0041884522D969180CF1FF3004D203
:1082C400884502D9ACF102002944A1EB08019BB214
:1082D400B1FBFEFC0EFB1C110CFB07F743EA014348
:1082E4009F420ED9EB180CF1FF3104D29F4202D900
:1082F400ACF102012B44DB1B41EA004193E76046E9
:10830400E3E76146F7E76046A4E76346B8E78342DC
:1083140006D916B9002108467CE7C6E900E0F9E76A
:10832400B3FA83F78FB9834201D3724508D8BEEB01
:10833400020460EB030301209C461EB9002169E797
:108344003846FAE7C6E9004CF8E7C7F1200CBB4011
:108354000EFA07F522FA0CF42EFA0CF1BA401C437B
:1083640020FA0CF3B8404FEA144901431FFA84FE83
:10837400B3FBF9F809FB18300B0C08FB0EFA43EABF
:1083840000439A4540D9E31808F1FF3004D29A45D6
:1083940002D9A8F102002344A3EB0A0389B2B3FB78
:1083A400F9F809FB183308FB0EFE41EA03418E4538
:1083B4002CD9611808F1FF3304D28E4502D9A8F1F3
:1083C4000203214443EA0040A1EB0E01A0FB029802
:1083D4004145CE46434602D306D14D4504D2013829
:1083E400B9EB020E68EB0403002EA7D0B5EB0E0226
:1083F40061EB030101FA0CFC22FA07F3F9404CEAA1
:108404000303C6E9003199E74046C5E74346D9E787
:10841400034613F8012B002AFBD1181A01387047C0
:1084240008B5002002F0D6FB002304494B60CB6062
:1084340001238B60BDE8084000F04ABC98CA0020C4
:1084440010B590B0044602464021684605F03CFC55
:1084540028B1214605480AF002F910B010BD6A4659
:10846400214603480AF0FBF8F7E700BFC7510100B3
:10847400F451010008B519480AF0F1F800214FF44D
:10848400803008F07BFF16480AF0E9F803F0AAF9F7
:10849400014620B113480AF0E2F8002008BDFFF7B6
:1084A400BFFF11480AF0DBF810480AF0D8F810486A
:1084B4000AF0D5F80F48FFF7C3FF0F480AF0CFF8CA
:1084C4000E48FFF7BDFF0E480AF0C9F80D48FFF744
:1084D400B7FF0D48FFF7B4FFDFE700BF14520100F8
:1084E4003452010054520100845201008B520100A5
:1084F400A4520100AC510100B7520100CA5201005C
:10850400D6520100E9520100F652010010B50024D0
:108514004FF0FF334FF0FF32144807F005FA144BC5
:10852400D3E8AF2F7AB10134042C03F12003F7D13F
:108534000AF0AAFA17234FF0FF3403600B4807F040
:10854400C3FA204610BDD3E8EF0F0130C3E8E10FB2
:108554000029F8D10748630100EB4411C2504A6076
:108564000C3318440BF0BFFEE8E700BF40C70020FF
:10857400B0CA0020A8CA002010B404461046094B13
:10858400620103EB44149950606040B1C46834B193
:108594000C32134410BC40F205120AF04FB810BC60
:1085A400704700BFA8CA002030B50D49400100F152
:1085B40008030B44D3E8AF2F82B1541ED3E8EF5F16
:1085C400954204D1C3E8EC4FBCF1000FF6D1F1D1D0
:1085D400012A01BF00230A180B50536030BD00BFAD
:1085E400A8CA0020014B1B68184700BF80C50020A3
:1085F400014B1860704700BF80C5002007B50B46CB
:10860400002102460091034800F088FC03B05DF8A5
:1086140004FB00BFE985000070B50C46002934D086
:1086240002680B1F9B1AD90823F0070313445D88C3
:10863400E8070DD4AF23154A154916480AF0C4F9C2
:10864400214615480AF0C0F9AF2110480AF0B5F9DF
:1086540010460AF01BF8084432F83060801B81424F
:108664000BD0B723094A0D490A480AF0ADF921464F
:108674000B480AF0A9F9B721E7E725F001055D8069
:108684001046BDE870400AF0BEB870BD0F5301003B
:1086940030530100415301005E5301009653010021
:1086A400BC5301002DE9F8434B1E0B400F46144602
:1086B400066810D0C1F1000909EA01094A46591EA9
:1086C400042A28BF042219420CD11F46E4B900250C
:1086D4002846BDE8F883042913D8BDE8F8431146B9
:1086E4000AF0C2B82C494FF4A2732C4A2C480AF061
:1086F4006BF92C480AF068F94FF4A27127480AF084
:108704005CF999460422E1E7B368B3EBD40FDED9F0
:1087140004F10B013944891A3046C9080AF00CF8EF
:1087240080460028D3D009F1040505EBC0057B1E63
:1087340035441D447F423D40A5EB09052C442B1FC5
:1087440007349B1B24F00704A41BB0EBD30F4FEAA0
:10875400D3074FEAE40408D201463A4630460AF009
:1087640038F84146304609F096FF3946304609F05C
:108774008DFF3844844207D2304622460AF029F855
:108784002146304609F087FF06EBC706738843F09D
:10879400010373809CE700BFF85301000F530100ED
:1087A4004153010013540100B2F5802F2DE9F0412B
:1087B4000ED33C4940F2EB133B4A3C480AF004F91F
:1087C4003B480AF001F940F2EB1137480AF0F5F89A
:1087D400042A0CD837494FF4F973334A33480AF062
:1087E400F3F835480AF0F0F84FF4F971EDE7043A7C
:1087F400CD1D8E1825F0070526F00706761B172ECB
:108804004FEAD6070CD82D4940F2FB13264A2748D5
:108814000AF0DAF828480AF0D7F840F2FB11D4E756
:10882400B7FA87F44FF00008C4F12002C4F124041D
:10883400A4000734E408631CBB420560AF60C5F8BC
:108844000C800CD91E494FF40373174A17480AF0D9
:10885400BBF819480AF0B8F84FF40371B5E741467C
:10886400920005F110000BF08EFE630043F001034B
:108874006B803B1B05EBC4025900A5F800805180B6
:10888400AA1925F83440A2F80280AB5305EBC703BC
:108894005A88214642F001025A802846BDE8F04138
:1088A40009F0F9BE305401000F5301004153010097
:1088B400465401005D5401007E54010097540100A8
:1088C400C05401002DE9F84F0446A38B084619074C
:1088D400154612D4022803F0070164D1204609F09A
:1088E400ECFF88B10138042800F23481DFE810F08D
:1088F4005B0032018100D100010101280CBF43F06B
:10890400100143F02001A1831434204606F0C4FF73
:10891400002840F09B819849C223984A98480AF05D
:1089240053F82146B0E003F00702501F01281ED877
:108934000020062A2768C4E9000014D13A4603E05F
:10894400E08B0130E0831268002AF9D123F0070399
:1089540043F002022046A28309F0AFFF90B342F035
:108964002002A2832EE023F007039AB2F2E7042A3E
:1089740033D123F007039AB22046A28309F09DFF66
:1089840010B142F02002A283A38B03F007098945AA
:1089940040F0EA80A18BCA0640F14F8121F0100318
:1089A400A38301F00701D4F81880A38BB8F1000F5A
:1089B400B9DA0022276823F00703C4E9002243F050
:1089C4000103A383A38B03F00709894540F0CD80FD
:1089D400002FDFD00026B24644E06A4940F21B1360
:1089E400694A674809F0F0FF40F21B11664809F034
:1089F400E4FF49B165494FF4AB73634A604809F039
:108A0400E3FF4FF4AB71F1E723684BB9604940F2DF
:108A140057135D4A5A4809F0D7FF40F25711E5E76A
:108A240023691E684EB95B494FF4AD73564A5448E6
:108A340009F0CAFF4FF4AD71D8E70F4688464FF0EE
:108A44000609A38B23F0070343F006039BB2A38319
:108A5400A268002A40F08B80002F40F08B80002E0B
:108A640098D0BA4643F0080304F1140B5846A38384
:108A740006F012FF002840F097803F49C2233F4A86
:108A84003F4809F0A1FF5946434809F09DFFC22120
:108A9400AEE0022909D0414940F25D133A4A384810
:108AA40009F092FF40F25D11A0E7E78B4FB13C491A
:108AB4004FF4AF73344A324809F086FF4FF4AF7174
:108AC40094E723695E684EB9324940F261132E4A35
:108AD4002B4809F079FF40F2611187E7A38BB84670
:108AE40023F0070343F004039BB24FF00409A3836C
:108AF400AEE7012909D02B494FF4B273224A20482A
:108B040009F062FF4FF4B27170E723684BB9204952
:108B140040F265131C4A1A4809F056FF40F26511E9
:108B240064E723699E684EB91A494FF4B473164A30
:108B3400134809F049FF4FF4B47157E70027A38B9A
:108B4400B84623F0070343F005039BB24FF0050931
:108B5400A3837DE70B4940F26B130B4A084809F0E5
:108B640033FF40F26B1141E70027002670E74FF016
:108B7400010A77E7924675E7BB5501008E5501005F
:108B8400415301001F6F0100EB5401000D5501001A
:108B9400195501003C550100D255010053550100FF
:108BA400695501007855010085F31188BFF36F8F73
:108BB400BAF1000F1ED1002F2FD116B1204626493D
:108BC400B0474FF02003EFF3118583F31288BFF30E
:108BD4006F8F584606F052FE38BB94231F4A204933
:108BE400204809F0F1FE59461F4809F0EDFE942192
:108BF4001A48FCE6A1680029DDD00D680029DAD006
:108C040043464A462046D1F804A0D0471DB12B68FC
:108C140029461D46F2E72B46FAE7394643464A46BB
:108C240020463F6809F075FEC5E7584606F042FE47
:108C3400A38B23F00803A383ACE68B067FF564AE15
:108C440021F02003A38301F0070147E685F311888F
:108C5400BFF36F8FBDE8F88F718C00008E55010053
:108C6400E755010041530100FC550100F8B50446E5
:108C74000D4600F114064FF02003EFF3118783F340
:108C84001288BFF36F8F304606F0F8FD68B994235D
:108C94000B4A0C490C4809F097FE31460B4809F081
:108CA40093FE9421064809F088FE304606F002FE41
:108CB400A5613A462046BDE8F8400121FFF702BE0F
:108CC4008E550100E755010041530100FC55010098
:108CD4002DE9F04704460F4609F00BFE051E67DB3D
:108CE40004F114094FF02003EFF3118A83F312887F
:108CF400BFF36F8F484606F0C1FD804660B99423E8
:108D0400374A3849384809F05FFE4946374809F080
:108D14005BFE9421324840E0484606F0CBFD4FF616
:108D2400FF72E38BA68B934206F0070643D0022E14
:108D340013D135460133E383484606F0ADFD0028E0
:108D44003FD1C223264A2A49274809F03DFE494615
:108D5400284809F039FEC221DCE7062E13D8DFE8E3
:108D640006F0092D1212090409006FF085054FF071
:108D74000008E1E700233B60636883B9C4E9007736
:108D840086B13546F3E71C4917484FF4E4731B4A90
:108D940009F01AFE4FF4E471184809F00EFE1F6042
:108DA4006760EDE7524602212046FFF78BFD35460A
:108DB4002846BDE8F0876FF00A05D8E76FF0040590
:108DC400D5E78AF31188BFF36F8FB8F1000FEFD0A6
:108DD400002332463946204609F09BFDE8E700BFF0
:108DE4008E550100E755010041530100FC55010077
:108DF400BB550100D255010078550100EB54010028
:108E040008B54268034602F00302022A81600AD0D0
:108E1400032A4FF0000103D0012A0AD1596006E069
:108E24001868596008BD186800225A6058B90020B3
:108E3400F8E7064906484523064A09F0C5FD4521D9
:108E4400044809F0BAFD08F0FBFEF0E71F6F0100CB
:108E54004153010014560100F0B5024601680A2787
:108E64000020074E0B461C780131355D6D0701D497
:108E74001360F0BD07FB0043A3F13000F2E700BF2D
:108E8400866F01002DE9F84F15469A46D378224A99
:108E94006F2B12F803B080460F460BF0030B29D05A
:108EA40024D8582B0CBF10260A26DDF82890324609
:108EB400002340463946FFF743F9092AD4B21ED8A5
:108EC4003034B045E4B277F1000709F8014D01D31D
:108ED400D14511D82B789B0605D5082E15D1AB7832
:108EE40043F00803AB704846BDE8F88F03F0F7037E
:108EF400702BD7E70826D8E780460F46D7E7BBF1A3
:108F0400010F0CBF37345734DBE7102EEBD1AB78AD
:108F140043F01003E6E700BF866F01002DE9F04F30
:108F24008A4616461C46002597B00390307808B947
:108F340028464AE3731C2528049307D05146039B13
:108F440098470028C0F241830135F0E1182200213E
:108F540010A80BF018FB7378252B00F0A3800023D6
:108F640098469E469C461846711C0F4611F8012BE4
:108F74002B2A00F0C68000F2BD80202A00F0C480B5
:108F8400232A00F0C4802BB19DF8483043F04003FD
:108F94008DF84830B8F1000F05D09DF8483043F003
:108FA40020038DF84830BEF1000F05D09DF84830FD
:108FB40043F010038DF84830BCF1000F05D09DF844
:108FC400483043F008038DF8483028B19DF8483004
:108FD40043F004038DF848309DF8483003F0440111
:108FE400442903D16FF386138DF848309DF8483037
:108FF4002A2A43F0800309978DF8483040F08C808A
:109004009DF8493043F001038DF849307B1C1A78F0
:109014002E2A0CBF012100219DF8492061F3410251
:109024008DF849200CD15A1C09925A782A2A40F00A
:1090340083809DF84920023342F004028DF84920D0
:109044001A786C2A00F0A48000F28680682A00F066
:109054008C806A2A00F0A5804C2A00F0AA801A4667
:1090640012F8013B782B04928DF84B309DF849207F
:1090740000F217816D2B00F2A980692B00F2118197
:10908400572B00F2BE80412B03D0453B022B00F24C
:10909400088104229DF84A3062F302038DF84A30B5
:1090A4000123CAE0B21C04928DF84B309DF849307C
:1090B400D90740F1FD8054F8048BB8F1000F07DAAA
:1090C4009DF84820C8F1000842F004028DF84820B9
:1090D4005A0740F1F68054F804BBBBF1000F80F24C
:1090E400F5809DF849306FF341038DF849304FF016
:1090F400FF3BEBE02D2A0DD0302A7FF444AF01234F
:1091040033E74FF0010C30E74FF0010E2DE74FF03D
:1091140001082AE7012028E709A8FFF79DFE099B1B
:10912400BB423FF474AF9DF848201390C00F60F326
:1091340041028DF848206AE709A8FFF78DFE9DF8E3
:1091440048301490C3F3400242EAD07262F3410300
:109154008DF84830099B73E7742A26D07A2A7FF465
:109164007EAF06219DF849200CE05A78682A9DF8C4
:10917400492006D1012161F3C6028DF8492002334A
:109184006DE7022161F3C6028DF84920013366E7D9
:109194005A786C2A9DF8492001D10421EBE7032178
:1091A400F0E705219DF84920ECE707219DF84920C7
:1091B400E8E7BDF8482022F4F04222F0020242F42B
:1091C400804242F00202ADF84820DFE76E3BD9B29C
:1091D40001238B4040F282410B4238D113F0240F1B
:1091E40052D1DF075DD503219DF84A3061F30203B4
:1091F4008DF84A3002F07803A3F140004342434122
:109204001BE00120A3F15801C9B200FA01F111F4E5
:10921400624F7FF43EAF40F6010739421DD111F48D
:10922400043F3ED09DF84A3060F3020302F0780216
:10923400402A8DF84A3034D000239DF84820C2F3E8
:1092440040010B4363F341028DF848202EE70221CD
:109254009DF84A3061F30203E8E702209DF84A10C2
:1092640002F0780260F30201402A8DF84A1002BF2E
:109274009DF8481041F001018DF84810632BDBD1B3
:10928400131E18BF0123D8E703219DF84A3012F0BA
:10929400780F61F302038DF84A3014BF01230023D1
:1092A400CBE79DF8483043F001038DF84830C3E71D
:1092B4009DF94820002AACBF4FF0FF38DDF84C8000
:1092C40006E79F077FF513AFDDF850B00023CDE923
:1092D40013339DF84A309DF8491003F00703012B1E
:1092E400C1F3C30133D1CB1E042B04D8DFE803F050
:1092F400214646212100236801294FEAE372CDE982
:1093040010321CD19DF94030DA17CDE91032043403
:109314009DF8483013F0030750D032465146049B61
:10932400039809F033FB0028C0F24F810544049EE2
:10933400FCE554F8043BDA17CDE91032E8E70229DA
:10934400E5D11AB243F3C033CDE91023DFE7022B92
:1093540024D1CB1E042B04D8DFE803F01810101816
:10936400180001294FF0000254F8043B14D00229DC
:10937400CDE91032CCD19BB21093C9E7073424F065
:109384000704F4E80223CDE91023C1E754F8043BB1
:10939400109300231193BBE7DBB2CDE7042B08D174
:1093A400073424F00704D4E900230834CDE910235A
:1093B400AEE7032BACD154F8043BDDE79DF84B003A
:1093C4007828B4D862281DD825283FF4B7AD58288A
:1093D400ADD1DDE910010DF13E03009312AA0AABF1
:1093E400FFF750FDBBF1000F814680F29880B9F180
:1093F400000F9CD00DF13E06A6EB0903002F50D0C0
:1094040001334EE06338152891D801A252F820F0B8
:1094140095940000F9940000339300003393000006
:109424003393000033930000F99400003393000059
:1094340033930000339300003393000083950000BE
:109444001D95000045950000339300003393000000
:109454006D940000339300001D95000033930000C9
:10946400339300001D950000BBF1000FDDF8409020
:109474000ADB594648460BF0B6F8B9F1000F3FF441
:1094840056AF09EB000676E04846FEF7C1FFF8E761
:10949400109B00278DF8283001230DF129060DF1CA
:1094A40028099DF84A1011F01002069200F08180FC
:1094B4000233139A134405924A0644BF14995B1865
:1094C400B8F1000F40F38E80A8EB03089DF84830F4
:1094D4005807C3F3800B00F18580590678D53FB156
:1094E40051463846039B984700286EDB5F4601359A
:1094F40030236EE01E075ABFC3F300135F012B270E
:10950400DDE91023002BBFF664AF524263EB430343
:109514002D27CDE910235CE700275AE700279DF8A3
:1095240048100DF13E03A3EB09036FF386119B452D
:109534008DF848107FF65BAFABEB0303139356E74C
:10954400109880B30DF13E060AAB0021009612AAD2
:10955400FFF798FCBDF84A30BBF1000F03F0EF03AE
:1095640043F4F04343F010038146ADF84A30D5DAB2
:1095740000283FF4DCAE0027A6EB090391E7109B1B
:1095840007293FF6D4AEDFE801F00C04060C080806
:109594000C0C1D70CBE61D80C9E6EA17C3E9005226
:1095A400C5E61D60C3E6314E07460523A6F105094D
:1095B40077E7080748BF01337BE71846079351460E
:1095C400039B98470028079B04DA17B0BDE8F08F87
:1095D4002023C346594600290BF1FF3BEDDC4544EB
:1095E400D8466D1A37B151463846039B9847002830
:1095F400EBDB01359DF84A30DA0601D41B0706D5AA
:1096040051463020039B98470028DEDB0135069B3A
:109614003BB151469DF84B00039B98470028D4DB8F
:109624000135059F2F4406E051463020039B98479F
:109634000028CADB01357B1B002BF5DC33464A4688
:109644005146039809F0A2F90028BEDB0544A8445A
:10965400A8EB0503002B7FF76AAE51462020039B3D
:1096640098470028B1DB0135F2E700BF3C56010002
:109674004FF02002EFF3118382F31288BFF36F8F50
:109684000121044AC2F8401583F31188BFF36F8F98
:10969400002070470090034020B1034B800143F049
:1096A40001031847704700BFD04C010009F0C1BE48
:1096B4002DE9F84305464FF02003EFF3118683F3B9
:1096C4001288BFF36F8F204806F0D8F868B9942346
:1096D4001E4A1F491F4809F077F91B491E4809F023
:1096E40073F99421194809F068F94FF00C091648E8
:1096F40006F0E0F8194B1A4F1C68DFF868807CB953
:10970400114806F0C9F8C8B9C223104A16491148CD
:1097140009F05AF90C49154809F056F9C221E1E754
:10972400D4E90123002D18BF13462BB198F810205B
:1097340009FB02F2B85C98472468E0E786F31188D5
:10974400BFF36F8FBDE8F88328CB00208E5501004E
:10975400E755010041530100FC55010048CB0020AE
:109764003CCB0020D4D10020BB550100D2550100D0
:10977400012270B5164B1C7C04F01F039A40D043A1
:10978400144B610903EB8103D3E8EF1F01EA0005E1
:10979400C3E8E65F002EF7D10A4213D00E4B0F4DFB
:1097A4008BB10C236343EA185178E85C09F026F97D
:1097B4000020FFF77DFF0C235C4300232A192B5163
:1097C400C2E9013370BD83F31188BFF36F8FEFE7F4
:1097D400D4D1002050CB0020012A01003CCB002032
:1097E4002DE9F041454B07461D7C4FF02003EFF374
:1097F400118883F31288BFF36F8F414806F03EF857
:1098040068B994233F4A4049404809F0DDF83C498F
:109814003F4809F0D9F894213A4809F0CEF80C24CD
:109824006C43374806F046F83A4B3B4E195D1A191B
:10983400B9B107CA06EB040C8CE8070000221A55DC
:109844002F4806F029F80446B0B9C2232D4A3349FB
:109854002E4809F0B9F82A49314809F0B5F8C2216F
:10986400DAE73946284600F065F80028E8D007C84A
:10987400344484E80700E3E788F31188BFF36F8F6B
:109884000C236B43F218F35CABB37B1C0FD04FF487
:10989400004C0021D2F808E022480023EEFB0C0122
:1098A400214AFEF74DFC0121381A01F065FF06F04C
:1098B40077FF0120FFF7FCFE1C4B6A0903EB8203D0
:1098C400012205F01F018A40D3E8EF0F1043C3E8DB
:1098D400E10F0029F8D1164B33B10C236B43F21876
:1098E4005178F05C09F07EF8FFF742FF06F0C4FF00
:1098F4002046BDE8F0811C46FAE700BFD4D1002021
:109904002CCB00208E550100E75501004153010086
:10991400FC55010030CB00203CCB0020BB5501009E
:10992400D25501003F420F0040420F0050CB0020AF
:10993400E92901002DE9F04F85B00E4603A900F096
:1099440043F84FF4004704464FF0000B1B4B039DB4
:10995400D3F800A0431E1BB203EB4303DFF860807F
:1099640005EB830524B9A146484605B0BDE8F08F50
:10997400C446594668680023E0FB07C1114A6046A3
:10998400FEF7DEFBC44659460190A8680023E0FBBD
:1099940007C10C4A6046FEF7D3FBBAF1FF3FA94664
:1099A40001D0824505D9731CDED0019B1844B04216
:1099B400DAD9013CA4B20C3DD4E700BF84C5002031
:1099C4003F420F0040420F0008B9024B0B600020D9
:1099D400704700BFD84C01002DE9F04105460E4602
:1099E40017461D4CDFF8748044452BD91C49DD23F0
:1099F4001C4A1D4808F0E8FF1C4808F0E5FFDD217B
:109A04000FE02368AB4200D0D3B9A36863B9184907
:109A1400E323144A144808F0D7FF164808F0D4FF8B
:109A2400E321104808F0C9FF3A46314628469847D2
:109A340030B13A4631462846E368BDE8F04118475C
:109A44001034D1E7DDD309F01FF86A2303604FF027
:109A5400FF30BDE8F08100BFD44B0100E44B0100AE
:109A640037570100E95601004153010064570100D2
:109A74001D570100E656010008B548B90B491323E8
:109A84000B4A0C4808F0A0FF1321094808F095FF81
:109A9400094B1A683AB109491423054A054808F0E4
:109AA40093FF1421F1E7186008BD00BFC7570100F8
:109AB4008C5701004153010054CB0020CB570100C7
:109AC400014910220A60704710ED00E072B6404070
:109AD40080F31188BFF36F8FBFF34F8F30BF62B62F
:109AE400BFF36F8F704700BF72B6494081F311888E
:109AF400BFF34F8F20BF80F3118862B6704700BF59
:109B040040B2002807DB01234109034A00F01F008B
:109B1400834042F82130704700E100E0054B4209E0
:109B240053F82220012300F01F0003FA00F0104034
:109B3400704700BF00E100E038B54B1C072B04461A
:109B44000D460FD95B23104A1049114808F03CFF19
:109B5400294610480723224608F036FF5B210A48AD
:109B640008F02BFF40B20028ACBF00F160400A4A65
:109B74004FEA4313DBB2ABBF00F5614000F00F00C6
:109B840080F80033135438BDF95701002F580100F1
:109B9400415301004A58010014ED00E030BFFFF7C3
:109BA400FDBF00BF0B4A08B50B4B22F07F029A6041
:109BB400BFF34F8FBFF36F8FD3F8882022F4700266
:109BC400C3F8882005F072FB07F04AFD00F062FA42
:109BD40005F0ACFB0080000000ED00E0094A0A49F2
:109BE400936809689867D96708494B6843F08053BC
:109BF4004B60002383F31188BFF36F8F9368D86F92
:109C0400704700BFD4D100203051010000ED00E0C6
:109C140015498A6882F881E04FF030001044EFF370
:109C2400098C80E8F01F202080F31288BFF36F8F27
:109C34000E4F4FF000668A698A603E6092F981E0B7
:109C4400906F0023936780F3118802F1300090E84D
:109C5400F01F8CF3098802F1000004B508F0E5FE5A
:109C6400BDE8044070470000D4D1002004ED00E0BA
:109C74001EF0040F0CBFEFF30880EFF30980816935
:109C840011F8021C0229FFD001B508F0BFFE01BD86
:109C940042F8203C009B0D4942F81C3C019B21F0FA
:109CA400010142F8183C029B42F8081C42F8143C9B
:109CB4004FF0807342F8043C002383674FF43C4325
:109CC400203A0265C0F88030704700BF7D2601004D
:109CD400084B9860836E83F30B88104681F30988E0
:109CE400002163B681F31188BFF36F8F0022002334
:109CF40008F0C2FCD4D1002001B572B60B4A5069F9
:109D040000281EBF002151610AF0DEFA62B6EFF3AB
:109D14000580A0F110004FEAC0000549014409C9BB
:109D24009847BDE80140034908470000D4D100200A
:109D3400AC4901003D9D0000044B99689869884234
:109D440003D003494FF080520A607047D4D10020F9
:109D540004ED00E0154B9A6A12F0007F9A6A14BF72
:109D64001E201D2012F0807F9A6A18BF1F2012F453
:109D7400801F9A6A18BF022012F4002F9A6A18BF33
:109D8400212012F4802F9A6A18BF222012F4003F77
:109D94009A6A18BF232012F4803F9A6A18BF2420BD
:109DA4006FEA02426FEA12429A62704700ED00E0E5
:109DB40010B5194B0246986A9C6A10F4805F14BF70
:109DC4001720162014F4006F9C6A18BF1820A405ED
:109DD40009D5986B986A000404D51AB19A6A22F4DA
:109DE40000429A6219200C4B9A6A12F4806F9A6AA4
:109DF40018BF1A20D2050CD49B6A13F4005F18BF55
:109E04001C20054A936A43F47F43936200230B703A
:109E140010BD1B20F5E700BF00ED00E010B5264B98
:109E24000246986A9C6A10F0100F14BF112010208B
:109E340014F0080F9C6A18BF1220A40709D5586BA8
:109E4400986A000604D51AB19A6A22F080029A62CE
:109E54001320194B9A6A12F0010F9A6A18BF142042
:109E640012F0200F9A6A18BF1520D20602D49B6AFA
:109E74009B0712D5104B9B6ADC060ED50F4940F2A6
:109E840061130F4A0F4808F09FFD0F4808F09CFD2E
:109E940040F261110A4808F090FD074B9A6A920655
:109EA40042BF5A6A22F400525A629A6A42F0FF028E
:109EB4009A6200230B7010BD00ED00E0C45801004D
:109EC4008A580100415301000E590100F0B55E4B60
:109ED40004465D688BB00023C5F3080583F311883D
:109EE400BFF36F8F02F07F43B3F17F4F0DD112F0B8
:109EF40001030AD1560603D4100703D4012603E054
:109F0400520700D50C46002674B9504940F23E432E
:109F14004F4A504808F058FD4F4808F055FD40F2AC
:109F24003E414B4808F049FD00228DF80720EA1E07
:109F3400032A30D8DFE802F002797D5C424AD16A14
:109F440011F0020127D1D36A002B76DBD36A5B00C0
:109F54005ED55369A16943F480735361BFF34F8F96
:109F6400BFF36F8F536931F8021C23F4807353617C
:109F7400BFF34F8FBFF36F8F4DF60273994209D031
:109F8400936ADBB233B301200DF10701FFF746FFFB
:109F9400034600E023689DF80720CAB902AD04F126
:109FA40020072A4620686168083403C2BC4215466B
:109FB400F7D1099A002E42D0C2F3080121B96FEA01
:109FC40052226FEA42220992184602A908F01CFDA7
:109FD4000BB0F0BD936A13F47F4F05D001200DF14F
:109FE4000701FFF7E5FED3E7936AB3F5803F02D399
:109FF400FFF7B0FECCE719494FF44473144A1548EF
:10A0040008F0E2FC164808F0DFFC4FF4447188E7DE
:10A0140012494FF445730E4A0E4808F0D5FC114816
:10A0240008F0D2FC4FF445717BE700200DF10701E5
:10A03400ACE700200DF10701D3E70B46ABE722F4B0
:10A04400FF7222F00102BEE700ED00E07259010048
:10A054008A58010041530100855901001F6F010016
:10A06400C3590100E7590100044B5A6942F0100238
:10A074005A615A6942F480625A61704700ED00E007
:10A08400EFF30880EFF3098101B57246FFF71EFF75
:10A0940001BD00BF002320210348C2180133412B16
:10A0A40082F80013F9D1704700E100E0002080F34A
:10A0B4001488BFF36F8F002080F30A8880F30B8825
:10A0C400FFF7F4FA00200E490860BFF34F8F0D48E4
:10A0D40080F3088800F03EF8202080F311880A48B5
:10A0E4004FF40061401880F30988EFF314800221D3
:10A0F400084380F31488BFF36F8FFFF753FD00000C
:10A1040094ED00E038010120F8EB0020BFF34F8FFD
:10A114000549064BCA6802F4E0621343CB60BFF3FF
:10A124004F8F00BFFDE700BF00ED00E00400FA051B
:10A13400002318460649D1F89020C2F3072293421F
:10A1440000DB7047C1F89830C1F8A0000133F6E78E
:10A1540000ED00E010B572B6002484F31388FFF715
:10A16400E7FF23464FF0FF300C4A03F1200101338F
:10A17400102B42F82100F8D100234FF0FF30074A9A
:10A1840003F160010133102B42F82100F8D162B6CB
:10A19400BFF34F8FBFF36F8F10BD00BF00E100E02E
:10A1A400084B9B6883420BD1EFF3058343B1064B05
:10A1B4005A6842F080525A605A6A22F400425A6243
:10A1C40007F016B9D4D1002000ED00E01FB5094C0A
:10A1D400094A23460121094800F0EAF800230393C1
:10A1E400074B0121E41A01A80193029400F004F939
:10A1F40004B010BD0000042080C50020D84C01002C
:10A20400F8C7002010B50C7A0B6804F01F0223F085
:10A214001F031A43CB68640923F01F03054943EA6B
:10A22400440343F00103C1F89800C1F89C20C1F82D
:10A23400A03010BD00ED00E02DE9F04F0F461446AC
:10A2440006464FF000084E4D85B0B84580F2948024
:10A25400D6F80490B9F1000F36D0B9F11F0F40F2CF
:10A26400898019F01F0F40F08580D6F800A01AF0FD
:10A274001F0F7FD1504608F0DEFB834609EB0A002E
:10A28400013808F0D8FB834574D11BF1160F71D047
:10A294005C456FDDC5F898B0D5F89C10C5F898B04A
:10A2A400D5F8A03021F01F0143F01F0AD6E900328F
:10A2B4001A44994202F1FF391ED1CA4508D13146E8
:10A2C4005FFA8BF008F0C0FB08F101080C36BCE71C
:10A2D4003146C5F898B0D5F89C3022F01F0203F03F
:10A2E4001F031343C5F89C30E0B208F0ADFB10F136
:10A2F400160F3FD0441CE7E7C5F898B0D5F8A02066
:10A30400013B23F01F0302F01F021343CA453146E9
:10A31400E0B2C5F8A030E8D008F096FB10F1160FB3
:10A3240028D0C5F898B0D5F89C209DF808300AF1DB
:10A33400FF3A62F304038DF80830D5F8A0309DF895
:10A3440008205B0863F347128DF80820D6E9003231
:10A354001344009323F01F03411C5344A3EB09034C
:10A36400C8B223F01F030F28039303D86946FFF7ED
:10A3740049FFBFE76FF01504204605B0BDE8F08F34
:10A3840000ED00E00522044BC3F89420BFF34F8F87
:10A39400BFF36F8F704700BF00ED00E0BFF35F8F26
:10A3A4000022024BC3F89420704700BF00ED00E088
:10A3B40038B50C4D0C462A78FFF73EFF287016304E
:10A3C4000FD14FF48D73084A0849094808F0FCFA84
:10A3D4002146084808F0F8FA4FF48D71024808F055
:10A3E400ECFA38BD3AD200201B5A01001F6F01005D
:10A3F40041530100525A01002DE9F74F314E89466D
:10A4040005464FF00008B3462F4FC84502DB03B0A2
:10A41400BDE8F08FD5F804A0BAF1000F4CD029683C
:10A424000846019108F007FB019904460AEB010074
:10A43400013808F000FB84424FF01402234B15D07E
:10A4440002FB08F36FF015024BF803204FF49573E9
:10A454001F4A2049204808F0B7FA49461F4808F027
:10A46400B3FA4FF495711A4808F0A7FA14F1160FCD
:10A474003460EBD01978A142E8DD02FB08B0C7F8DC
:10A484009840C7F89840D7F89C4000F10801007B39
:10A4940064F304000871D7F8A0000C79400860F355
:10A4A40047140C71D7F89C1021F01F017160D7F884
:10A4B400A01021F01F01316108F1010814360C3598
:10A4C400A3E700BF58CB002000ED00E03AD2002003
:10A4D4001B5A01001F6F0100415301007E5A010005
:10A4E40038B51F4D2C68102C10D940F251131D4A59
:10A4F4001D491E4808F068FA214610221C4808F03D
:10A5040063FA40F25111174808F057FA0020FFF798
:10A5140045FF184B184AC3F8C020844217D1174B83
:10A524001C70FFF72FFF134BD3F89030C3F30723AE
:10A53400102B13D0124940F2BB130A4A0B4808F0FF
:10A5440043FA104808F040FA40F2BB11DBE76968AF
:10A5540001EB0011FFF756FE0130DEE7002038BDA5
:10A56400E44C01001B5A01001F6F0100415301001C
:10A57400AD5A010000ED00E0AAFF44003AD20020E9
:10A58400E15A0100325B010008B50B4BC3F10053E3
:10A5940003F58023B3F5006F0CD208498023084AE1
:10A5A400084808F011FA084808F00EFA8021044817
:10A5B40008F003FA002008BD38450120835B010040
:10A5C400535B010041530100CA5B0100014B186059
:10A5D400704700BF88C5002010B5074C2368C21817
:10A5E4000648C0F1005101F580218A4236BF22603D
:10A5F4004FF0FF30C01810BD6CCB0020384501204F
:10A6040010B558B909490A484FF4D373094A08F0F8
:10A61400DBF94FF4D371074808F0CFF94FF0FF325C
:10A62400BDE810404FF0FF3305F07EB9525C0100E5
:10A6340041530100535B010008B558B90749084864
:10A644004FF4E173074A08F0BFF94FF4E17105488C
:10A6540008F0B3F9BDE8084005F036BA525C0100D1
:10A6640041530100535B010008B570B90D494FF423
:10A6740007730D4A0D4808F0A7F90D4808F0A4F92E
:10A684004FF40771084808F098F90122036802FAA8
:10A6940001F10C33D3E8EF0F0843C3E8E20F002ABB
:10A6A400F8D108BDE65C0100EC5C010041530100F7
:10A6B400E656010008B570B90E4940F23A230E4A35
:10A6C4000E4808F081F90E4808F07EF940F23A216C
:10A6D400094808F072F9012303FA01F1C943026839
:10A6E40002F10C03D3E8EF0F0840C3E8E20F002A9D
:10A6F400F8D108BDE65C0100EC5C010041530100A7
:10A70400E656010002460B46014805F00DB900BFAC
:10A7140068C70020014805F0D7B900BF68C700200A
:10A7240010B503680021044693F8202008F0C3F90B
:10A7340078B90221236883F82010236893F8203025
:10A744008B423ED1062A3CD108212046FFF7B2FFB6
:10A754002FE00921204608F0AEF90028E9D00A21AB
:10A76400204608F0A8F92368C0F10600C0B283F8B7
:10A774002000236893F82010814222D10629E1D1D8
:10A78400062A1ED0DA6982B91B6973B90D494FF4E0
:10A794007E630D4A0D4808F017F90D4808F014F9C6
:10A7A4004FF47E61084808F008F908212046FFF7B5
:10A7B4005BFF2368DB6923B92046BDE8104008F03D
:10A7C40083B910BD1B5D0100BC5C01004153010055
:10A7D400E656010010B570B910494FF40B73104AD6
:10A7E400104808F0F1F8104808F0EEF84FF40B7137
:10A7F4000B4808F0E2F8012303FA01F103680C3373
:10A80400D3E8EF2F42EA0100C3E8E40F002CF7D1AC
:10A81400114214BF0120002010BD00BFE65C0100FE
:10A82400EC5C010041530100E6560100F8B54FF01D
:10A83400FF304FF0FF31FFF765FF154C154FBC4259
:10A8440025461FD9144941F2AD13144A144808F09F
:10A85400BBF8144808F0B8F841F2AD110F4808F0FD
:10A86400ACF82B6804341B689E68002EE7D033686C
:10A87400002BE4D009212846FFF7ACFF28463368B3
:10A884009847DCE7EDD3BDE8F840FFF743BF00BFCE
:10A89400C0C70020C4C700204C5D0100BC5C01009F
:10A8A400415301006457010038B50F4C0F4DAC42C1
:10A8B40018D90F4941F2DF130E4A0F4808F084F803
:10A8C4000E4808F081F841F2DF110A4808F075F8E3
:10A8D4000321204608F0EFF810B9204608F000F9EB
:10A8E4000434E4E7F4D338BDC0C70020C4C7002053
:10A8F4004C5D0100BC5C0100415301006457010040
:10A9040037B540230C460A490093411A49110546BC
:10A914002346084A084808F01DF9011E05DA2846AE
:10A92400234603B0BDE83040184703B030BD00BF34
:10A9340084CB0020C52B010034490100C9B2012990
:10A9440008B509D9084909487A23094A08F03CF8A6
:10A954007A21074808F031F80C22036901FB02331D
:10A96400986C00F0070008BDE05D01004153010050
:10A97400A35D010070B5C9B2012903690BD9194956
:10A98400194840F25D13194A08F01EF840F25D11AF
:10A99400164808F012F84FF02004EFF3118584F301
:10A9A4001288BFF36F8F0C2606FB0134A46C14F0DD
:10A9B400C00408D0A24206D085F31188BFF36F8F7C
:10A9C4004FF0FF3070BD012206FB01339A6485F31A
:10A9D4001188BFF36F8F436803EBC1035B6898472B
:10A9E4000020EFE7E05D010041530100A35D010099
:10A9F40070B50D4606490446411A491140220548DE
:10AA0400FFF7B8FF2B4601462046BDE870401847C3
:10AA140084CB00203449010070B500220121044692
:10AA24000520FFF789F80F4801F08AFF0E4B984282
:10AA340015D101F0A9FF26690C49304607F07FFFC4
:10AA440000280BDB0125B5642469084904F12000C2
:10AA540007F075FF002801DB0020656570BD6FF00D
:10AA64000400FBE7A9AA00000000AD0B0C4D010097
:10AA740001460C2300224B4370B50848C4184833E0
:10AA84001844D4E91056226408F051F82DB1324626
:10AA94002B46BDE870400248184770BD84CB0020A7
:10AAA40034490100012808B506D0032808D098B914
:10AAB4000F4B9B6C5B0719D1BDE80840FFF7D8BF6B
:10AAC4000C4940F26E230C4A0C4807F07DFF40F21B
:10AAD4006E21094807F071FF064940F27223064AC5
:10AAE400064807F071FF40F27221F2E708BD00BF8B
:10AAF40084CB00201F6F0100A35D010041530100BE
:10AB040008B54FF02003EFF3118183F31288BFF3EC
:10AB14006F8F114A136843F002001060DA0708D4FB
:10AB240081F31188BFF36F8FBDE80840012001F065
:10AB340051BF0A4BD3F80C24D3F80C34D307EFD508
:10AB4400074807F0F4FF81F31188BFF36F8FBDE866
:10AB540008400020FFF78CBFDCCB002000500040F1
:10AB6400CCCB00207FB500220123CDE9022304AB26
:10AB7400CDE90433094A6B46CDF800D0CDF804D0B2
:10AB840008F017F8002805DB4FF4804200236846DC
:10AB940005F070F907B05DF804FB00BFDD2B010080
:10ABA40010B54FF02003EFF3118483F31288BFF341
:10ABB4006F8F074A136823F00201DB07116002D488
:10ABC400012001F069FF84F31188BFF36F8F10BD7A
:10ABD400DCCB0020024BC0B203EB4010704700BF37
:10ABE40084CB00202DE9F041012206464149D1E8F9
:10ABF400EF3FC1E8E02F0028F9D1A3B93E493F480F
:10AC04004B60CB608A60FEF763F800280BDA3C499E
:10AC14004FF40C733B4A3C4807F0D6FE4FF40C71DA
:10AC2400384807F0CAFE5EB3731E012B58D8012EB4
:10AC340006D1364BD3F81C3403F00303022B1FD088
:10AC440009F037FB0546E8B9314B1B78D3B1022232
:10AC540007462E4BC3F808232C4CDFF8B880D4F8F1
:10AC64001834D4F81824D20316D503F00303022BA6
:10AC740001D0012E10D175B387F31188BFF36F8F04
:10AC8400BDE8F0814FF02003EFF3118783F31288BE
:10AC9400BFF36F8F0125DFE7C5B13846FEF724FF08
:10ACA400D4F81835DBB2012BD9D1D4F80421002A09
:10ACB400D5D00022C4F80421D4F804210222C4F817
:10ACC40018252022C8F88021A360C8E7002121208C
:10ACD40006F054FBE4E702220C4BC3F80423CFE74D
:10ACE4000D4940F24223074A074807F06DFE40F23F
:10ACF400422195E780CB002070CB0020A4CB00201C
:10AD0400045E0100A35D01004153010000500040B6
:10AD1400F0E6002000E100E01F6F010008B50748DD
:10AD240009F0A6FA38B10648FFF750FC0448FDF7CD
:10AD34005FFC002008BD6FF01200FBE77C490100B6
:10AD440049AD00000A2838B50446074D04D1AB6864
:10AD54000D2128465B689847AB6803485B68E1B2FD
:10AD64009847204638BD00BF7C49010010B50369EF
:10AD740061B920492A23204A204807F025FE2048AB
:10AD840007F022FE2A211C4807F017FE486850B934
:10AD94001C492B23184A194807F016FE1A4807F0D5
:10ADA40013FE2B21EFE75868F8B1884219D19C684B
:10ADB4000868A142586000D19860002008602AB158
:10ADC4005A680A609A68596002B99960002010E0D4
:10ADD400814206D10868206098688142EDD19C6068
:10ADE400EBE7044600680028F2D1002AE8D16FF0AE
:10ADF400150010BD6A5E01002E5E01004153010082
:10AE0400735E0100825E0100945E010030B540680B
:10AE140001F01F04057BB2F5001F85B044EA451418
:10AE240005D1204602F04CF9002005B030BD0025C4
:10AE3400B2F5800FCDE9025514D1B3F1007F0CBFF8
:10AE4400042305238DF8083000232046194602AA5E
:10AE540001F040FF264B984246D10121204602F0E2
:10AE6400C5F8E1E7B3F1C06F22D0B3F1007F14BF9E
:10AE7400012302238DF808308368CB40D907E3D43B
:10AE8400B2F1A07FE0D1630906D14FF0FF3204F0A4
:10AE94001F03DA40D2070DD41649174840F247235E
:10AEA400164A07F091FD40F24721144807F085FD4A
:10AEB4000323DFE7124A803352F82330DB07C3D47D
:10AEC4000DF107052946204602F02AF80D4B984259
:10AED40001D00395B8E7284602F082F8044B984263
:10AEE400F7D06FF00B00A0E76FF015009DE700BFEF
:10AEF4000000AD0BDE5E010041530100AB5E0100BA
:10AF0400002584400400AD0B10B502F059F8044646
:10AF140068B902F02DF8084B98420AD12146074837
:10AF240001F0F8FF224605213120FEF705FE00203E
:10AF340010BD6FF00400FBE70000AD0B45AF00004F
:10AF4400430970B507D1124B596821B101250C682A
:10AF5400104E854001B970BD8A682A4010D04B68F4
:10AF640063B90D494D230D4A0D4807F02DFD0D48D9
:10AF740007F02AFD4D21094807F01FFD3046984788
:10AF84001CB1236821461C46E4E72346FAE700BFC8
:10AF9400E0CB00204C490100015F01002E5E01005E
:10AFA40041530100945E01002DE9FF41D0F8048073
:10AFB40001F01F0598F80C30144645EA43150F4676
:10AFC40028460DF1030101F0ABFF14F4403F06469F
:10AFD40015D1284602F09EF8484B9E4270D19DF848
:10AFE400030001F0F7FFB0426AD045496A23454A9D
:10AFF400454807F0E9FC6A21424807F0DEFC0023DB
:10B004002846194602AACDE9023301F063FE3B4B00
:10B01400984204D06FF0150004B0BDE8F081864278
:10B024000DD19DF8030001F0D5FFB04207D034499B
:10B034007C23344A344807F0C7FC7C21DCE7A603B0
:10B044004CD540F206332340B3F5837F19D00CD896
:10B05400062B17D004D8ABB1022BDBD1042311E0AB
:10B06400B3F5807FD6D101230CE040F20222934253
:10B0740028D0B3F5407F27D0B3F5007FCAD102238F
:10B0840000E007238DF8043084F48033C3F30043D5
:10B09400E0068DF805304CBF0323C4F340132103AD
:10B0A4008DF8063012D50123D8F80420BB409360F4
:10B0B4000022284601A901F0B5FE104B9842A9D1FF
:10B0C4000020A9E70523DDE70323DBE7620341BF93
:10B0D4000123D8F80420BB40D360E9E7E3064FF02E
:10B0E40000034CBF0324C4F340141A46284601A9A4
:10B0F4008DF8044001F0EEFDDFE700BF0000AD0B6A
:10B10400395F01000D5F01004153010008B5026879
:10B11400530904D14FF0FF33D340DB070BD4074965
:10B12400074840F24723074A07F04EFC40F2472104
:10B13400044807F042FC044808BD00BFDE5E01007D
:10B1440041530100AB5E010000258440F0B54B790A
:10B15400012B26D0032B21D110258B79032B1DD154
:10B16400CE790EB1012E19D10A7912B1022A15D164
:10B174000E220B684468B3F5164F276867D02DD8A4
:10B18400B3F5165F66D016D8B3F5966F64D00AD8B7
:10B19400B3F5967F63D0B3F5167F63D06FF0850067
:10B1A40054E00025D9E7B3F5166F5ED0B3F5965F8A
:10B1B400F4D1384B3CE0B3F5E14F59D007D8B3F59F
:10B1C400615F57D0B3F5964FE8D1334B30E047F683
:10B1D4001224A342E2D14FF4000329E0B3F5613F06
:10B1E4004AD013D8B3F5963F49D009D84DF6C024B8
:10B1F400A34246D0B3F5614FD0D14FF46B0317E0AF
:10B20400B3F5E13FCAD14FF0EB7311E0B3F5612F11
:10B214003AD008D8214CA34239D0B3F5E12FBDD19F
:10B224004FF0E86304E01E4CA342B7D14FF08053C3
:10B234000469C7F82435436835431B682A43C3F8B7
:10B244006C25231D03C983E803000020F0BD4FF4DF
:10B254001D03EDE7134BEBE74FF49E23E8E74FF4B0
:10B26400A033E5E74FF41C33E2E74FF41D23DFE797
:10B274000D4BDDE70D4BDBE74FF06C73D8E70C4B60
:10B28400D6E74FF46503D3E74FF07063D0E74FF090
:10B294008063CDE700B0130000A04E0090D00300FF
:10B2A40040420F000050270000C0750000F03A0033
:10B2B40000903A012DE9F74380460022012108203D
:10B2C400FEF73AFC0820FEF71BFC0021D8F80470B6
:10B2D400D8F810603C6801AAC4F80015C6F80080CC
:10B2E400D7F80C90484607F0B3FC051E5CDB019BC5
:10B2F400D9F800201979186807F0BDFC051E53DB46
:10B304004046311DFFF722FF054600284CD17B68DB
:10B31400990722D506F11C0001F00EFC264B984239
:10B3240046D1337F14F10C0F43F00043C4F8A0312D
:10B334000BD12249224840F24E23224A07F044FB13
:10B3440040F24E211F4807F038FBC4F88C3001232B
:10B35400327F93401C4AC2F804350823C4F80035F0
:10B364003B7A53B9C4F81031D4F81031B369C4F836
:10B3740034350123C4F8383523607B689A075CBFF1
:10B384004FF48073C4F804337B68DB0644BF4FF486
:10B394008003C4F804337369C4F844350023C4F843
:10B3A40048350123A360E360284603B0BDE8F08379
:10B3B4006FF00405F8E700BF0000AD0B915F0100DA
:10B3C40041530100595F010000700140F8B5044683
:10B3D4000D46076908F06DFFB0B9214B1B789BB18E
:10B3E4006426606807F0AAFD00BB012008F023F87A
:10B3F400013EF6D10021212005F0C0FFF0E781F3E2
:10B404001188BFF36F8FF5E74FF02003EFF311813D
:10B4140083F31288BFF36F8F60680E4607F08EFDCA
:10B4240090B981F31188BFF36F8FEDE74FF02003DC
:10B43400EFF3118183F31288BFF36F8F60680E46B8
:10B4440007F07CFD0028DAD07B6901221D702046BC
:10B45400796907F0B3FC86F31188BFF36F8FF8BDE9
:10B46400F0E6002070B40E4922F07F46D1E90034A2
:10B47400D01AC31844F10004C1E90034A6F500133E
:10B48400B3F5400F09D2074B1B681A0A1B069C1917
:10B49400054B42F10005C3E9004570BC06F092BAC1
:10B4A40008C80020F4CB002010C800200D4B1868F9
:10B4B400010A0006BFF35F8F0B4BD3F8043518184D
:10B4C40041F10001B3F5801F0AD2084BD3E90023F0
:10B4D400904271EB030303D210F1807041F100013B
:10B4E400704700BFF4CB00200050014010C800207A
:10B4F4002DE9F7432E4BD3F8042390070BD5D3F84B
:10B50400042142B10022C3F804212A4AD3F80431A9
:10B51400136801331360264AD2F80433D90327D5BC
:10B52400254BD3E8EF1F21F00100C3E8E40F002C02
:10B53400F7D1CB0702D4D2F84031CBB100251C4C53
:10B54400C4F84051D4F84031FFF7B0FF4FF0200366
:10B55400EFF3118283F31288BFF36F8F174BD3E994
:10B564000267B042B94106D282F31188BFF36F8FEC
:10B5740003B0BDE8F0834FF0FF38D3E900104FF07B
:10B58400FF391D60C3E902894FF48033C4F848339E
:10B59400C4F84051D4F8403182F31188BFF36F8F5F
:10B5A4000029E5D0009032463B4628468847DFE72D
:10B5B40000500140F4CB0020ECCB0020F8C7002061
:10B5C4002DE9F84F04460D46434FD7E8EF8F28F096
:10B5D4000103C7E8E23F002AF7D14FF480393F4E18
:10B5E400C6F80893BFF35F8FBFF36F8FFFF75EFF5B
:10B5F400A04271EB050308F0010840D2384B201A31
:10B6040065EB0101984271F1000148D2354BD3E951
:10B6140002239D4208BF94423AD04FF0000C24F01C
:10B624007F40834603216FF0020EC6F84893C6F8A4
:10B6340040C1D6F84031DFF8B0A02BF07F43C6F804
:10B644004035C6F84493D6F80425AEEB02035B44B8
:10B6540023F07F4353451BD9D6F840315BB1D6F86C
:10B664000425131A23F07F43B3F5000F10D9C6F84D
:10B6740040C1D6F8403101EB020B0131DDE71B4B31
:10B68400D3E8EF1F41F00101C3E8E21F002AF7D11C
:10B69400144B174AC3E902451A6000225A60B8F1F4
:10B6A400000F16D0D7E8EF3F43F00103C7E8E23FAD
:10B6B400002AF7D14FF48032084BC3F804230B4B14
:10B6C400D3E8AF3FDB0742BF4FF40012094BC3F886
:10B6D4000021BDE8F88F00BFF0CB002000500140EE
:10B6E40001008000F8C70020FDFF7F00ECCB0020A4
:10B6F40069B4000000E100E070B54FF0FF300025B0
:10B704004FF0FF31164C174B0226C4F80833C4F827
:10B714004833154BC4F80855C3E902014FF480338C
:10B724004FF40012C4F80433104B0121C4F804632D
:10B734001520C3F880212A46FEF7FEF91520FEF7EE
:10B74400DFF901230A4AA36000212360094813603A
:10B75400FFF736FF3046FFF745FA284670BD00BFB5
:10B764000050014003000F00F8C7002000E100E092
:10B77400F0CB0020FFFF7F00431C10B51DD0012833
:10B784001DDD104A104B9042D4BF04461C46FFF7FF
:10B794008DFE0E4AD2E90031C01AB0F5000F28BF61
:10B7A4000024094A0444944228BF1446E01841F195
:10B7B4000001BDE81040FFF703BF034CE7E7012495
:10B7C400E5E700BFFEFF7F00FFFF7F0008C8002001
:10B7D40008B5FFF76BFE024B1B68C01A08BD00BF1B
:10B7E40008C8002070B5002201212A20FEF7A4F920
:10B7F4000E4803F0FFFB05460D4C0E4EB44212D921
:10B804000D4980230D4A0E4807F0DEF80D4807F075
:10B81400DBF88021094807F0D0F8D4E90031284644
:10B8240098470834EAE7F8D3284670BD004E010073
:10B83400BC700100C4700100E15F0100AF5F010052
:10B844004153010064570100F0B50F4B01461A68DB
:10B854000E4B0B25002618461F46B84201D3013D66
:10B8640004D11846013A19605A60F0BD04688C424C
:10B87400FBD03CB14468141BA642BCBF0346264619
:10B884000830EAE70346ECE7A0CC0020ACCC00206B
:10B894000020054BC3E90000044BD3E8EF2FC3E8B5
:10B8A400E10F0029F9D17047A4CC0020A0CC0020DE
:10B8B4002DE9F04788B005460E4608F0D6FC20B9BD
:10B8C4006FF06D0008B0BDE8F08708F08BFD3368B9
:10B8D4000446002B0F4604D105F016FC6FF00A0055
:10B8E400F0E7BCBF4FF0FF3333600122002101A811
:10B8F40008F017FDE84607954FF02003EFF3118A8F
:10B9040083F31288BFF36F8F05F06CFDFFF79CFF84
:10B91400DFF818914268D9F800309A426DD10023BB
:10B92400434D00936B68002B6ED1C5E900888AF300
:10B934001188BFF36F8F33685A1C6AD04FF4004EDE
:10B9440040F2E730002123EAE37C4FF47A720023CB
:10B95400CCFB0E01FCF7F4FB02460B4601A804F0F5
:10B9640089FA4FF02003EFF3118A83F31288BFF3AF
:10B974006F8F00222B685BB1434554D10099002A94
:10B984004BD16A6829609A4200D169600023009310
:10B9940005F028FDFFF758FFD9F8003043608AF31B
:10B9A4001188BFF36F8F08F060FC002888D03568D9
:10B9B4006B1C27D008F016FD4FF47A7EA0FB0E32E4
:10B9C4000EFB0121A4FB0E420EFB0722DB0BE40B52
:10B9D40043EA414344EA42441B1B4FEAD1314FEA54
:10B9E400E57C61EBD231ED1A6CEB010CBCF1000F7C
:10B9F400B8BF002535602DB970E743608AF311881C
:10BA0400BFF36F8F00205DE7C3F80080C5F80480A2
:10BA14008DE74FF0FF321346A0E711606968994241
:10BA240008BF6A60B2E71A461B68A4E7A0CC0020EE
:10BA3400A4CC002010B5041E0DDCDF23084A0949FC
:10BA4400094806F0C1FF2146084806F0BDFFDF2182
:10BA5400034806F0B2FF07F017F8046010BD00BFFA
:10BA64000660010037600100415301004460010099
:10BA740070B50368124C2BB1A34203D304F1A8059B
:10BA8400AB4217D30F4D2B78062B0CD90E49F32359
:10BA94000E4A0F4806F098FF0E4806F095FFF32172
:10BAA4000A4806F08AFF5E1C03EB430304EBC3045D
:10BAB4002E7004600068BDE8704008F032BC00BF1E
:10BAC400F8CB00205DD200206B600100066001000D
:10BAD400415301007460010008B528B10B4A90423B
:10BAE40002D3A83290420CD30949FE23094A0A48DA
:10BAF40006F06AFF094806F067FFFE21054806F0D4
:10BB04005CFFBDE8084004F071B900BFF8CB002029
:10BB14009A600100066001004153010020620100A7
:10BB240070B5054628B1194B984202D3A833984200
:10BB34000ED317494FF48473164A174806F044FF8E
:10BB4400164806F041FF4FF48471124806F035FFA1
:10BB54004B1C17D021EAE1744FF4004640F2E73061
:10BB640000214FF47A720023C4FB0601FCF7E8FAC3
:10BB740002460B46284604F07DF9002818BF6FF0F2
:10BB84000A0070BD4FF0FF321346F3E7F8CB0020F4
:10BB94009A60010006600100415301002062010027
:10BBA40038B505460A4BD3E8EF1F0131C3E8E21F5D
:10BBB400002AF8D1074B1C6804B938BDE369AB42CD
:10BBC40000D015B9201D04F011F92468F4E700BF72
:10BBD400A0CC0020A4CC0020014600220023014870
:10BBE40008F05DBBFCCC00200146014803F0D6BC44
:10BBF400FCCC0020014600220023014808F04FBB82
:10BC040014CD00200146014803F0C8BC14CD002027
:10BC140008B54FF480620649064808F038FBBDE8D1
:10BC240008404FF402520449044808F030BB00BFF6
:10BC34005ED20020FCCC0020E884002014CD00203B
:10BC440010B5044B1C6804B910BD201D04F0CEF8D7
:10BC54002468F8E7A4CC002001281ED0B0F58D7F1D
:10BC640023D14B1E142B20D8DFE803F00C0C0C0C52
:10BC74000C0C1F1F1F1F1F0C0C0C1F1F0B0F11136D
:10BC840015000F210020116070471021FAE71121DF
:10BC9400F8E71221F6E71321F4E7372905DC132925
:10BCA40006DC0229EED00429ECD04FF0FF307047B7
:10BCB400A1F11403232BF8D801A050F823F000BFFE
:10BCC40089BC000089BC0000AFBC0000AFBC000010
:10BCD400AFBC000089BC0000AFBC0000AFBC0000DA
:10BCE400AFBC0000AFBC000089BC000089BC0000F0
:10BCF40089BC0000AFBC0000AFBC0000AFBC0000BA
:10BD0400AFBC0000AFBC0000AFBC0000AFBC000083
:10BD1400AFBC0000AFBC0000AFBC0000AFBC000073
:10BD2400AFBC0000AFBC0000AFBC0000AFBC000063
:10BD3400AFBC0000AFBC000089BC000089BC00009F
:10BD440089BC000089BC000089BC000089BC0000DB
:10BD54004FF0FF32064B00201A609A611A639A640E
:10BD64001A669A67C3F89020C3F8A820704700BFEA
:10BD740030CD00200B490346087880B90A49097878
:10BD840039B1A2F5807102290AD9A2F58872012A73
:10BD940006D9013B022B8CBF0020012070470020F4
:10BDA400704700BFDFD60020DED6002070B4002329
:10BDB40018250168084C05FB03F2A658B14206D1C8
:10BDC400B0F906100832A01870BC05F039BF013371
:10BDD400082BF0D170BC704730CD00202DE9F04F16
:10BDE40014460E4600218BB00546202202A81F46A9
:10BDF400019108F0C8FB5CB163680293E3680493A3
:10BE0400A368039323690593E36903B1089302AC20
:10BE14004FF0FF324FF0FF33344807F091FA3146C8
:10BE24002246284601AB02F00DF9064648B9804681
:10BE340081464FF0180A019D38604DB9019807F00A
:10BE44008EFD2A4807F07EFA30460BB0BDE8F08F2D
:10BE5400502008F068FB0446002840D0C0F8009049
:10BE6400C0F81C902B684360AB68C3606B68836048
:10BE7400EB680361D5F804B0BBF1010F14D10820BD
:10BE840008F051FBA06138B3082363616B691A8918
:10BE9400A0F800B04280DB684360B8F1000F21D104
:10BEA4003C60A046ED69C8E7BBF1020F09D008F079
:10BEB40033FB6FF00506386807F077F900233B6021
:10BEC400BCE7182008F02FFBA06128B1C4F814A027
:10BED400696907F077F9E0E7204608F01DFB6FF089
:10BEE4000906E8E7C8F80040DBE700BF54C70020B4
:10BEF4002DE9F347074690460C4679B300231A46CA
:10BF0400C868834234D1802A71D800254FF0FF32AB
:10BF14004FF0FF33384807F013FAA946374EE36869
:10BF24009D422CD300263546DFF8D0A0B14511DD63
:10BF340085B96368384601932368A9EB0602009328
:10BF44000AEB0601434607F06AF9051EEEDD2E44AE
:10BF5400B145EEDC284807F0F5F905E006F094FD5C
:10BF640016234FF0FF350360284602B0BDE8F08782
:10BF7400A16801EBC301496801330A44C1E7A3681E
:10BF840006EB090003EBC50253F83510526808F0BC
:10BF9400EDFAA3684FEAC50A53445B680135994436
:10BFA400BDE7A3684FEAC60A03EBC6035B683BB16F
:10BFB4004FF00009A36803EB0A025268914504D3C9
:10BFC4000136E3689E42ECD3CEE753F80A10636867
:10BFD40049440193236838460093A2EB090243467F
:10BFE40007F01DF9011E05DB89440D44E2E7002634
:10BFF4003546E6E70D46B7E77CC700205ED600204D
:10C004004FF0FF324FF0FF3370B505460B4807F091
:10C0140097F9002318200A4A00FB03F156588C189C
:10C02400013605D15550054807F08CF9204670BDFE
:10C034000133082BF0D10024F5E700BF2CC7002002
:10C0440030CD002038B5094D04464FF0FF32284664
:10C054004FF0FF3307F074F900234FF0FF32C4E9C7
:10C0640000232846BDE8384007F06CB92CC70020EF
:10C074002DE9F0438BB007460C461546FCF746FA0B
:10C084000646002E38681EDB04B315B32B686A46D7
:10C09400082B14BF242310230DF1040900934946EF
:10C0A40007F0DDFDB0F100080ADBFFF7A9FF074642
:10C0B40090B906F0E9FC0C230360404602F06AFAEA
:10C0C4003046FCF771FA4FF0FF3618E02246A146DD
:10C0D400E5E72A46A946E2E764B15DB1D9F8043040
:10C0E400012B10D108222A60BDF80C202380049B68
:10C0F40062806360394630460D4AFCF73DFA3046AB
:10C104000BB0BDE8F083022B06D1182320462B6028
:10C1140001A907F057F8EDE706F0B6FC86230360A3
:10C12400404602F037FA3846FFF78CFFC8E700BFF5
:10C13400304E010010B50446094B0A4A18600368E2
:10C144000948DA61FDF798FC23680C33D3E8EF1F44
:10C1540041F00801C3E8E21F002AF7D110BD00BF77
:10C164002CCD00207DC20000284E0100F0B5A1F5C1
:10C174008173046887B0032B57D8DFE803F00240CB
:10C1840077530127D2E9016113683A4AB3F90430BD
:10C194000492ADF814308DF816703368994204D1C6
:10C1A40006F072FC0C23036014E000F10805284635
:10C1B40008F0A8F92B4600223946306805F0FEFC49
:10C1C4000823204600933C22394604AB02F022FBAC
:10C1D400044610B14FF0FF340EE03368143333607B
:10C1E400CDE90200284602AA03A908F090F9039BAE
:10C1F400002B18BF6FF07704204607B0F0BDD2E9DA
:10C2040000421368143313600023CDE9033303AAF7
:10C2140004A9083008F07BF9049B0BB1039BE3806D
:10C224000024E9E713684360FAE7032912D00429DC
:10C2340018D1156835F4804303D006F025FC162385
:10C24400036004212046C5F3803207B0BDE8F04006
:10C2540007F04DBF2046002207F049FF840304F491
:10C264008044C9E706F010FC16239CE76FF05E04D7
:10C27400C2E700BFB1BD00002DE9F0410D1E074625
:10C28400904612DA04F08CFA1C4E012333704246B5
:10C29400384625F04041FDF79FFB002333700446E8
:10C2A40004F0EAFA2046BDE8F0816B0003D504F0FF
:10C2B40077FA134EE9E7FCF729F9041E09DB29464E
:10C2C4004246384607F05EFB051E05DA2046FCF7B9
:10C2D4006BF94FF0FF34E5E7FFF792FE014638B9FA
:10C2E40006F0D2FB0C230360284602F053F9EDE775
:10C2F4002046044AFCF740F9D4E700BFDFD600200B
:10C30400DED60020304E010008B5024801F08AFC58
:10C31400002008BDADC300002DE9F8431A4E1B4FA1
:10C32400DFF86C8000220023304603F0F5FC05465C
:10C33400F8B9BDE8F883237ADA070AD49B0708D44E
:10C34400216819B1484608F05AF910B148466368A3
:10C3540098470C34BC4210D90E4960230E4A0F484A
:10C3640006F032FB0E4806F02FFB60210A4806F067
:10C3740024FB0C4C05F10409ECE7DCD329464046C8
:10C3840003F00CF9CEE700BFA4C70020DCC60020F0
:10C3940000C700207D620100516201004153010089
:10C3A40064570100D0C600202DE9F041044638BB93
:10C3B40024493623244A254806F006FB3621224820
:10C3C40006F0FBFA2F7AFA070AD4296819B1204635
:10C3D40008F015F920B1BB0710D520466B689847C3
:10C3E4000C35454511D91A493923174A174806F01F
:10C3F400EBFA184806F0E8FA3921E0E70126EFE7FE
:10C404000026154DDFF85480EBE7DBD3BEB12046A0
:10C41400FBF7FEFF0022411D0023114807F03FFFF8
:10C42400054660B12146043008F0C2F829460D489B
:10C4340007F06CFFBDE8F0410B4803F075BFBDE8A1
:10C44400F08100BF9D62010051620100415301006F
:10C454007D62010064570100D0C60020DCC60020C4
:10C4640000C70020A4C70020C8C500200248836874
:10C474009B6A03B1184770477C49010038B5054DE4
:10C48400441E14F8011F01B938BDAB6801485B684C
:10C494009847F6E77C49010010B5094C4FF48051E8
:10C4A4002346084A204601F00FFC2046FFF7E6FF2A
:10C4B4000022054B1A70BDE81040FFF7D7BF00BF3C
:10C4C400E1D60020C4510100E1E600200122F0B5CC
:10C4D4002B4B85B01A702B4807F0CAFE002845D0B4
:10C4E40007F080FF4FF47A72A0FB020302FB0133D2
:10C4F400244DC00BAE6840EA4344B368B3B1284648
:10C504009847074690B9B36C002B34D11E491F4895
:10C5140003F08AFE00234FF4806200931C490A232F
:10C524001C4803F007FFFFF7A1FF21E007F05AFFC3
:10C534004FF47A72A0FB020302FB0131C30B43EAFE
:10C5440041431B1BB3F5FA7F10D8AF68BB69002BBE
:10C55400FCD0012228460DF10F0198470028F5D19F
:10C5640000214FF4A47004F009FFC6E76FF00D0733
:10C57400384605B0F0BD0246074902489847C5E76A
:10C58400E2E600207C4901009DC40000F4CD0020B7
:10C59400F8E7002018C80020A1C50000F7B504463C
:10C5A40083685B6C03B19847A3685B6BC3B9454E62
:10C5B400454D3378C3B9A3689B692BB1012220464A
:10C5C4000DF10701984778B19DF80730082B01D089
:10C5D4007F2B0BD12B68002BEBD0013B2B60E8E7C2
:10C5E400204698470028E2D103B0F0BD37480278CE
:10C5F400002A48D10A2B24D00D2B14D0002B42D171
:10C60400334B1B78002BD4D100222F49314B0F68B8
:10C614000A601946DA55027013F8012B202A42D811
:10C62400002AF9D1C5E72A4A1278012AECD0264A11
:10C634001068411CB1F5805FBBD2264F11603B549A
:10C64400B7E7234A1778022FDED01F49032F0A6861
:10C6540013D1204F6AB107EB020C1CF801CCBCF1DA
:10C664000D0FD1D0501CB0F5805FA2D2BB5408602E
:10C674009FE73B7001230B609BE7501CB0F5805F84
:10C6840097D2144FF2E72F68791CB1F5805F90D2EE
:10C69400DFF840C0222B0CF80730296089D182F0E2
:10C6A4000102027085E70B78002B82D00A48836868
:10C6B400DB6A03B19847012308490948337007F03E
:10C6C40052FE76E7E1E60020F0CD0020E0D600201F
:10C6D400E2E60020E1D600207C490100F4CD0020F0
:10C6E40018C8002008B548B90549064801F0A0FA61
:10C6F400BDE808400449034801F09ABA08BD00BFE8
:10C70400D1620100C4510100F06201002DE9F04141
:10C714001F46154B044693F800800D461646A2B0FA
:10C72400B8F1000F15D1684606F083F93A46314650
:10C734002846289BA0470446684606F07BF9B8F1D2
:10C74400000F02D0094803F0BFF9204622B0BDE82B
:10C75400F0814FF0FF324FF0FF33044803F0E4F868
:10C764000028E0D01F24F0E7F0E6002090C7002066
:10C7740070B5302692B006AB05460C463246002111
:10C78400184607F000FFCDE90454CDE9020654B180
:10C79400012304AA009200210448019302AA00F094
:10C7A40007F812B070BD2046FBE700BF000100404F
:10C7B40030B401F50045B5F5803F039C0DD243EA42
:10C7C4000405FF2D09D844EA0324134644EA014230
:10C7D400014630BC0348FFF799BF6FF0800030BCBE
:10C7E400704700BF117C000070B501250268B2FAE1
:10C7F40082F3C3F11F03DBB205FA03F422EA040453
:10C80400D0E8EF6F964204D1C0E8EC4FBCF1000FC2
:10C81400F6D1EBD101480B7070BD00BF0000AD0B29
:10C8240010B50368CB40DB0710D401238B400268AA
:10C8340043EA0201D0E8EF4F944204D1C0E8EC1F70
:10C84400BCF1000FF6D1F2D1014810BD0148FCE75C
:10C854000000AD0B0400AD0BF7B5344B044658B1E2
:10C86400012827D032493348D823334A06F0ACF89C
:10C87400D821314806F0A1F80222C3F80823C3F8EE
:10C884000401D3F8042101220746DA60012342F2AD
:10C894001075264E8DF80730BCB1012C33D02449D5
:10C8A400244840F24733254A06F08EF840F24731D7
:10C8B4002248DFE70022C3F80803C3F80021D3F8B5
:10C8C40000210DF107075860E0E78FB1D6F818345E
:10C8D40003F003033B70D6F81834DA0311D59DF83E
:10C8E400070001280DD106F0A6FD013DD4D108E0D2
:10C8F400D6F81834D90304D5012006F09CFD013D77
:10C90400F6D103B0F0BD3FB1D6F80C3403F0010307
:10C914003B70D6F80C34E0E7D6F80C34DB03F0D5E2
:10C92400012006F088FD013DF6D1EAE70050004001
:10C934001F6F01004153010016630100536301009E
:10C9440008B558B90A490B4840F215130A4A06F0CB
:10C954003BF840F21511084806F02FF8074B1A79F6
:10C9640022B90122186006481A7108BD0548FCE77F
:10C9740087630100415301001663010004CE0020C7
:10C984000000AD0B0C00AD0B08B50D4B1B795BB96A
:10C994000C490D484FF497730C4A06F015F84FF400
:10C9A40097710A4806F009F80520FDF7B7F810B9A1
:10C9B4000520FDF7A5F80122054BC3F8182508BD8D
:10C9C40004CE002095630100415301001663010069
:10C9D4000050004008B52A4B1B795BB929494FF434
:10C9E400B473294A294805F0EFFF4FF4B47126487F
:10C9F40005F0E3FF264B58B1012837D025494FF401
:10CA0400D373214A214805F0DFFF4FF4D371EEE7D9
:10CA1400D3F81824D3F81814C90311D502F003036A
:10CA2400022B1CD11A4AC2F818350023C2F804316B
:10CA3400D2F804310223C2F80433012393600DE0D9
:10CA4400D3F81424D2070FD5D3F81C2402F0030220
:10CA5400013A012A05D80222C3F8042308BD012B98
:10CA640002D00020FFF7F8FE0123DBE70022C3F821
:10CA74000021D3F80021C3F804031860EEE700BFD7
:10CA840004CE0020956301001663010041530100A8
:10CA9400005000401F6F010008B5094B1B795BB9BA
:10CAA4000849094840F2AD13084A05F08DFF40F2E9
:10CAB400AD11064805F081FFBDE80840FFF7CCBE84
:10CAC40004CE002095630100415301001663010068
:10CAD40010B5174BD3F8002152B10020C3F8000160
:10CAE400D3F800210122C3F80823124B1B6898478E
:10CAF4000F4BD3F804218AB10022C3F80421D3F8E0
:10CB04000421D3F81824D3F8181402F00302012ADC
:10CB14004FF0020103D1C3F818159A6010BDC3F891
:10CB24000813044B0120BDE810401B68184700BFE0
:10CB34000050004004CE002001460148FFF754BED7
:10CB4400D8C50020034B083033F81000C0F3401060
:10CB5400704700BFDCC50020044B083033F81000D8
:10CB640010F01C0018BF0120704700BFDCC5002076
:10CB7400034B083033F81000C0F34000704700BF87
:10CB8400DCC5002070B50D4C00F1080334F81330F7
:10CB94000546DA050E4607D5C3F3432304EBC30267
:10CBA400526854F833309847A3682BB1314628466D
:10CBB400E268BDE87040184770BD00BFDCC50020C6
:10CBC40010B5184A083032F81030D9051DD5C3F312
:10CBD400432123F4F85322F81030002002F10E040C
:10CBE40034F8023F13F4807F03D0C3F34323994204
:10CBF4000BD001302028F3D100230B4842F8313008
:10CC0400FFF70EFE094B984200D110BD08490948B0
:10CC14004FF49973084A05F0D7FE4FF4997106480A
:10CC240005F0CBFEDCC5002030C600200000AD0BB3
:10CC3400395F010041530100C863010038B5024661
:10CC4400FFF780FF0B4C02F1080560B1002134F8B6
:10CC540015305B0B9B0003F1804303F54433C3F8A9
:10CC64001015C3F810151046FFF7AAFF002324F887
:10CC7400153038BDDCC5002008B5026801461046F1
:10CC840006F0DBFB58B90E4940F247230D4A0E4823
:10CC940005F09AFE40F247210A4805F08EFE02F0A4
:10CCA4001F0352090B6009D008494FF41373054A56
:10CCB400054805F089FE4FF41371EDE7044808BDFB
:10CCC400DE5E0100AB5E0100415301001F6F0100F5
:10CCD40000258440F0B5044617461D4685B0D9B1F9
:10CCE40006F0B7FB00BB0B46CDE900008DF80E0043
:10CCF4008DF80F000DF10F020DF10E01204606F024
:10CD0400B3FB444A04F1080132F8113023F0020362
:10CD140043F0010322F811306FB320463E787A685D
:10CD2400FFF726FF10B1DAB13B4826E0394804F199
:10CD3400080C30F81C1021F02001C904C90C20F89B
:10CD44001C106AB1032EEFD87B681F78BA0002F179
:10CD5400804202F5443296B9C2F81065C2F81065F3
:10CD64002C4A04F1080132F8113023F01C0343EA81
:10CD7400860322F8113015BB284805B0F0BDD2F85F
:10CD8400103541EA473123F00303C2F81035D2F8D5
:10CD9400103541F0200123F4473323F44073C2F8E3
:10CDA40010352302D2F810E503F4F85343EA06439E
:10CDB40043EA0E03C2F8103520F81C10D0E72046D1
:10CDC400D5E90067FFF7FCFE002ED5D0114DD5E95B
:10CDD4000023964201D19F4219D011480DF10F0151
:10CDE400FFF702FD0D4B9842C7D19DF80F2005EBCC
:10CDF400C20304F108005F6035F8103045F8326072
:10CE040043EA422343F4807325F81030B4E7002248
:10CE1400EDE700BFDCC500200400AD0B0000AD0B46
:10CE240030C60020F0B50446154685B021B3FFF79F
:10CE34009FFE20B92046FFF785FE002861D12046D9
:10CE4400FFF78AFE10B14B78012B5AD001238DF8DD
:10CE54000F3000234A1CCDE9001320468B1C0DF132
:10CE64000F0106F001FB284A04F1080132F81130E1
:10CE740043F0030322F8113015B9244805B0F0BD7E
:10CE84002046FFF775FE00283BD095F800C000232C
:10CE940061461D4E04F1080736F81700890020F09A
:10CEA400200001F18041C00401F54431C00CC1F8F7
:10CEB400103526F81700C1F810356A78002ADCD03E
:10CEC400D1F81035AD7823F4981323F4F853C1F84E
:10CED4001035D1F810E5230203F4F853120402F4D8
:10CEE400403243EA0E0313432A0502F4801240EA57
:10CEF4004C30134340F02000C1F8103526F81700D9
:10CF0400BBE70348BAE700BFDCC500200000AD0B57
:10CF14000400AD0B014BC3E902017047DCC50020DE
:10CF2400024608B559B90C490C4840F235230C4A5D
:10CF340005F04AFD40F23521094805F03EFDFFF7B2
:10CF440001FE38B1074B083233F8123006485B0B48
:10CF54000B7008BD0548FCE706640100415301005D
:10CF6400C8630100DCC500200000AD0B0400AD0B5C
:10CF740038B50F4C94F85850BDB94022294604F1F5
:10CF8400100007F000FB3120FCF7BAFD094B0A48FA
:10CF9400C3F87C51D3F87C214FF00042C3F804233A
:10CFA400012384F85830636538BD0448FCE700BFAA
:10CFB400DCC50020001003400000AD0B0500AD0BE4
:10CFC400034B93F85800003818BF0120704700BF86
:10CFD400DCC5002001460148FFF722BC2CC6002016
:10CFE40001460148FFF700BC2CC6002037B50446B3
:10CFF400FFF7B2FD58B92B4940F2DF332A4A2B48D8
:10D0040005F0E2FC40F2DF31274805F0D6FC20466B
:10D01400FFF798FD264A04F10805E0B12046FFF722
:10D02400A7FDC0B932F81520224C520B9300E050F2
:10D03400E05803F1804303F54433D3F8100540F07E
:10D044000100C3F8100521B1012393401A4AC2F824
:10D05400043303B030BD49B9184940F2EE33124AE3
:10D06400124805F0B1FC40F2EE31CDE732F815304C
:10D07400C3F38203042B11D0052B11D001A8019412
:10D08400FFF7FAFD019B0169D94001F0010102316A
:10D09400204603B0BDE8304006F033BA0321F7E779
:10D0A4000221F5E710640100C86301004153010047
:10D0B400DCC500200011034000100340256401007A
:10D0C40008B50246FFF73EFDC8B11046FFF750FD14
:10D0D400A8B90E4B083233F8123001225B0B9A4088
:10D0E4000B499B0003F18043C1F8082303F5443343
:10D0F400D3F8102522F00302C3F8102508BD00213F
:10D10400BDE80840104606F0FCB900BFDCC50020AD
:10D114000010034013B50D4B00F1080233F8123030
:10D124000446DB0710D5FFF7CBFF2046FFF786FD4B
:10D1340001A80194FFF7A0FD0222019B803340F86F
:10D144002320034802B010BD0248FBE7DCC50020E1
:10D154000000AD0B0400AD0B2DE9F04F00250122BA
:10D164002C46564B5648574985B01E6836B1D0F800
:10D17400046316421EBF1C601E68154304338B42B1
:10D184004FEA4202F1D1DFF83881D8F87C3183B11B
:10D194004D4F3B6A02933B624FF00109029C74B904
:10D1A400C8F87C41D8F87C313B6A02933B62002B7F
:10D1B400F2D10124002D68D105B0BDE8F08F94FAB6
:10D1C400A4F4B4FA84F4414A04F1080332F8136075
:10D1D400E00802AB1B5C04F00701B20809FA01F194
:10D1E40023EA0103019202AA135403A80394FFF74C
:10D1F40043FD039B019A803350F82330C6F3820B1E
:10D20400C3F3014A53075E4622D559462046FFF729
:10D21400B9FC03A80394FFF72FFD039B5FFA8AFA76
:10D22400803350F82330C3F301439A4507D10021DA
:10D23400204606F066F95146204606F062F903A836
:10D244000394FFF719FD039B09FA03F30362A5E7AF
:10D25400BAF1020F0CD10321204606F052F90BF06B
:10D264000503012BEBD131462046FFF78BFCE6E7A3
:10D274000221204606F045F9BBF1030FF3D0BAF1C1
:10D28400030FDCD1BBF1020FECE795FAA5F3B3FA77
:10D2940083F304FA03F29B0003F1804303F5443360
:10D2A400D3F81005D3F81015C0F30420C1F30141DD
:10D2B40025EA0205FFF766FC7CE700BF0011034086
:10D2C400001003402011034000258440DCC50020E9
:10D2D40070B5084C0E462379154643B92A20FCF74D
:10D2E4000FFC0123044823712660A56070BD034828
:10D2F400FCE700BF0CCE00200000AD0B0C00AD0B12
:10D3040038B548B918494523184A194805F05CFB53
:10D314004521164805F051FB164B1B79012B07D00C
:10D3240015494623114A124805F04EFB4621F0E701
:10D334000023124A50F8234003F5A2710133082B4D
:10D3440042F82140F6D100230C4A00F11C0103F5F8
:10D35400B27451F8045F0133082B42F82450F6D11B
:10D36400036CC2F8043338BD776401003C640100E7
:10D37400415301000CCE00208064010000A0024053
:10D3840008B51B490B79012B09D01A491A485823AF
:10D394001A4A05F019FB5821184805F00EFB002322
:10D3A4004FF0FF30164AC2F81035C2F81435C2F8EF
:10D3B4001835C2F81C35C2F82035C2F82435C2F835
:10D3C4002835C2F82C35C2F89035C2F89435C2F825
:10D3D4009835C2F89C35C2F8A035C2F8A435C2F815
:10D3E400A835C2F8AC35C2F808030B7108BD00BFFC
:10D3F4000CCE002080640100415301003C64010014
:10D4040000A0024008B5094B1B79012B09D008493B
:10D4140008486B23084A05F0D7FA6B21064805F043
:10D42400CCFA064A8340C2F8043308BD0CCE00206F
:10D4340080640100415301003C64010000A00240EB
:10D4440008B5094B1B79012B09D0084908487123F9
:10D45400084A05F0B9FA7121064805F0AEFA064A01
:10D464008340C2F8083308BD0CCE0020806401005C
:10D47400415301003C64010000A00240F8B50126BC
:10D484000027124B124DD3F80C4304B9F8BD94FA9B
:10D49400A4F0B0FA80F006FA00F3072824EA0304A3
:10D4A4000BDD0C490C4840F2E7130C4A05F08CFAEA
:10D4B40040F2E711094805F080FA094B82009F50B9
:10D4C4002B68002BE1D0A9689847DEE700A0024052
:10D4D4000CCE0020DF64010041530100AD64010063
:10D4E40000A1024070B503680446033BDBB2042B81
:10D4F40003D8094A52F823502DB9A06808B100F0A6
:10D5040025F8002070BD06F062F821682B46BDE8BE
:10D514007040090C184700BF704E0100014B9B6915
:10D52400184700BF38C60020014B1B68184700BFCE
:10D5340038C60020014B5B68184700BF38C600207E
:10D54400014BDB68184700BF38C60020014B5B69FC
:10D55400184700BF38C60020014B9B68184700BF1E
:10D5640038C60020014B5B6A184700BF38C600204C
:10D57400014B9B6A184700BF38C60020014B1B684B
:10D58400D868704718CE0020002330B510490A68C7
:10D594001468A3420BD100234A6811688B4215D04A
:10D5A40002EBC304A468A04208D00133F6E702EBFF
:10D5B400C305AD68A84201D00133EAE702EBC30218
:10D5C400536823F0FF0343F00303536030BD00BFEF
:10D5D40038CE0020002230B50B4B19680C689442F9
:10D5E4000FD001EBC2039D68A8420BD14FF0030298
:10D5F4000433D3E8CF1F002903D1C3E8C02F002888
:10D60400F7D130BD0132EAE730CE00202DE9F041F8
:10D61400002506460F462846DFF864803368AB428F
:10D6240001D8BDE8F08106EBC5046368DBB2012BC9
:10D6340017D16268B8F80030B3EB124F11D1022F42
:10D64400A06810D1FFF74EFF90B9636823F0FF0381
:10D6540043F0030363600120B8F800300133A8F8F5
:10D6640000300135DAE70168090C05F059FFEBE7F2
:10D674000128F0D1636823F0FF0343F00203E9E7D4
:10D6840034D2002038B5074D01212868FFF7BEFFCA
:10D69400022104466868FFF7B9FF0028F4D1002C82
:10D6A400F2D138BD38CE002070B5072868D8DFE83D
:10D6B40000F00B674F674B67400401F01DFD03202A
:10D6C400BDE87040FEF76CBA03202E4BD3F8144625
:10D6D400D3F818662C4B1D78187001F0E3FC2B4B23
:10D6E400EDB21868FEF7F8F9012D1CD1284B9C42C5
:10D6F40010D009D8023B9C420FD001339C420FD07A
:10D70400244B1C600020DBE7234B9C42F8D16FF0D4
:10D714000C04F5E76FF00B04F2E76FF01504EFE784
:10D724006FF08504ECE73146C4F30B0001F0AEFC66
:10D73400E8E70222144B00201A7001F0B3FC134BEB
:10D744001868FEF7C9F9DDE7FFF79CFF0220B7E789
:10D754000D4B1A78012AD0B20ED1104A1168104A22
:10D764008C6854604968116000221A7001F09AFCB8
:10D77400064B1868FEF7B0F9FFF784FF01209FE716
:10D7840070BD00BF00A00240E4E6002020CE0020CF
:10D794002200010034CE0020323001001CCE0020D3
:10D7A40038CE002070B5164B42681B6822F0FF0289
:10D7B40042F00202C31A42601248134A0168C3F3DA
:10D7C4008913D2E8DF4F651CC2E8D65F002EF8D17A
:10D7D40001EBC3014A6892B242EA04424A60026819
:10D7E400032002EBC302536823F0FF0343F0010359
:10D7F400536005F04CFC0122044BDA6070BD00BF9D
:10D8040028CE002030CE002036D2002000A00240D6
:10D814000A23F7B54FF47A750C4E0D4F0193316816
:10D82400386805F0AFFE044640B905F032FC40B953
:10D83400012001A9FEF73CF86E30F0D1204603B078
:10D84400F0BD0198684305F022FCE8E724CE0020EF
:10D854002CCE0020054B1B782BB9054B1968054BC2
:10D86400186805F08FBE0020704700BFE3E6002073
:10D8740028CE002030CE00202DE9F04F95B038227C
:10D884000021064603A806F07EFE02230493082323
:10D8940006932023089304230D93102340250F930C
:10D8A40080230122CDE91153D523002155480B9241
:10D8B4001393FEF7DDF80546002840F09F800246EA
:10D8C40051493079FFF704FD03A8FFF719FD3468C7
:10D8D4006268B2F59D6F40F089806169E3680B442A
:10D8E400E16903F59D630B44B3F5003F7ED82068DE
:10D8F400294606F048FE33681C68D3F81C9004F5EA
:10D904003A72019204F16007404A04F1A40804F158
:10D91400200BB9F1000F5CD1C2F800B000254FF024
:10D92400010A2570657084F802A0E57033684046EA
:10D934001B69636033685B69C4F814B0A360344B3B
:10D94400C4F81890C3F80080324BE7601F600823C6
:10D95400C4F8108084F8A43088F8015088F8025084
:10D9640088F8035084F860307D70BD70FD7005F058
:10D97400F1FD384605F0EEFD274B04F53A721A60C6
:10D98400264B04F1E8021A603168254B1960254BD7
:10D994002549C3F81046C3F81456244B244C1D8063
:10D9A400244B25601D80244B83F800A0234B029553
:10D9B4001D611B690293029B124B1868FEF7B0F8B5
:10D9C400C8B92468A4B91E4B1C70204615B0BDE824
:10D9D400F08F9B6904F14009636433684846DB694E
:10D9E400C2F800B0236401F06BFB97E76FF01504F5
:10D9F400FFF7C6FCE9E76FF07304F9E76FF02D0455
:10DA0400E3E700BF20CE0020ADD600001CCE0020EE
:10DA140030CE00202CCE002028CE002024CE0020A2
:10DA240018CE002000A00240F049020036D20020A7
:10DA340034CE002034D20020E4E60020005600401A
:10DA4400E3E6002070B5164B42681B6822F0FF0223
:10DA540042F00102C31A42601248134A0168C3F338
:10DA64008913D2E8DF4F651CC2E8D65F002EF8D1D7
:10DA740001EBC3014A6892B242EA04424A60026876
:10DA8400032002EBC302536823F0FF0343F00103B6
:10DA9400536005F0FCFA0122044B5A6070BD00BFCC
:10DAA40024CE00202CCE002036D2002000A002403C
:10DAB40010B5FFF7ADFE012400220321047081702C
:10DAC4004270C270FFF7BEFF054B1C7005F055FD98
:10DAD400BDE81040034B47F230511868FEF720B8F8
