:020000040000FA
:10800000F00A012065CC0000977E010039CC000009
:1080100039CC000039CC000039CC000039CC00004C
:1080200000000000000000000000000081C500000A
:1080300039CC000000000000EDC4000039CC000085
:1080400025C6000025C6000025C6000025C6000084
:1080500025C6000025C6000025C6000025C6000074
:1080600025C6000025C6000025C6000025C6000064
:1080700025C6000025C6000025C6000025C6000054
:1080800025C6000025C6000025C6000025C6000044
:1080900025C6000025C6000025C6000025C6000034
:1080A00025C6000025C6000025C6000025C6000024
:1080B00025C6000025C6000025C6000025C6000014
:1080C00025C6000025C6000025C6000025C6000004
:1080D00025C6000025C6000025C6000025C60000F4
:1080E00025C6000025C6000025C6000025C60000E4
:1080F00025C6000025C6000025C6000025C60000D4
:1081000025C6000025C6000025C6000025C60000C3
:1081100025C6000025C6000025C6000025C60000B3
:1081200025C6000025C6000025C6000025C60000A3
:1081300025C6000025C6000025C6000025C6000093
:1081400025C60000FFFFFFFF81F0004102E000BFF5
:1081500083F0004330B54FEA41044FEA430594EA07
:10816000050F08BF90EA020F1FBF54EA000C55EA42
:10817000020C7FEA645C7FEA655C00F0E2804FEA13
:108180005454D4EB5555B8BF6D420CDD2C4480EAF5
:10819000020281EA030382EA000083EA010180EA25
:1081A000020281EA0303362D88BF30BD11F0004F73
:1081B0004FEA01314FF4801C4CEA113102D04042A9
:1081C00061EB410113F0004F4FEA03334CEA1333E4
:1081D00002D0524263EB430394EA050F00F0A780FC
:1081E000A4F10104D5F1200E0DDB02FA0EFC22FAF7
:1081F00005F2801841F1000103FA0EF2801843FAEB
:1082000005F359410EE0A5F120050EF1200E012ADB
:1082100003FA0EFC28BF4CF0020C43FA05F3C01819
:1082200051EBE37101F0004507D54FF0000EDCF192
:10823000000C7EEB00006EEB0101B1F5801F1BD33B
:10824000B1F5001F0CD349085FEA30004FEA3C0C3F
:1082500004F101044FEA445212F5800F80F09A8035
:10826000BCF1004F08BF5FEA500C50F1000041EB39
:10827000045141EA050130BD5FEA4C0C404141EB3D
:108280000101013C28BFB1F5801FE9D291F0000F38
:1082900004BF01460020B1FA81F308BF2033A3F1E7
:1082A0000B03B3F120020CDA0C3208DD02F1140CDE
:1082B000C2F10C0201FA0CF021FA02F10CE002F119
:1082C0001402D8BFC2F1200C01FA02F120FA0CFC12
:1082D000DCBF41EA0C019040E41AA2BF01EB04515B
:1082E000294330BD6FEA04041F3C1CDA0C340EDC59
:1082F00004F11404C4F1200220FA04F001FA02F39C
:1083000040EA030021FA04F345EA030130BDC4F159
:108310000C04C4F1200220FA02F001FA04F340EA4E
:108320000300294630BD21FA04F0294630BD94F0FF
:10833000000F83F4801306BF81F480110134013DE6
:108340004EE77FEA645C18BF7FEA655C29D094EA57
:10835000050F08BF90EA020F05D054EA000C04BFD5
:108360001946104630BD91EA030F1EBF00210020C0
:1083700030BD5FEA545C05D14000494128BF41F05F
:10838000004130BD14F580043CBF01F5801130BDC3
:1083900001F0004545F0FE4141F470014FF000004E
:1083A00030BD7FEA645C1ABF194610467FEA655CFF
:1083B0001CBF0B46024650EA013406BF52EA0335A1
:1083C00091EA030F41F4002130BD00BF90F0000F8F
:1083D00004BF0021704730B54FF4806404F13204CB
:1083E0004FF000054FF0000150E700BF90F0000F84
:1083F00004BF0021704730B54FF4806404F13204AB
:1084000010F0004548BF40424FF000013EE700BF7A
:1084100042004FEAE2014FEA31014FEA02701FBF0A
:1084200012F07F4393F07F4F81F06051704732F03C
:108430007F4208BF704793F07F4F04BF41F4002193
:10844000704730B54FF4607401F0004521F00041F1
:108450001CE700BF50EA010208BF704730B54FF07B
:1084600000050AE050EA010208BF704730B511F07C
:10847000004502D5404261EB41014FF4806404F1B4
:1084800032045FEA915C3FF4D8AE4FF003025FEA3A
:10849000DC0C18BF03325FEADC0C18BF033202EBBE
:1084A000DC02C2F1200300FA03FC20FA02F001FA18
:1084B00003FE40EA0E0021FA02F11444BDE600BFBB
:1084C00070B54FF0FF0C4CF4E06C1CEA11541DBF6A
:1084D0001CEA135594EA0C0F95EA0C0F00F0DEF835
:1084E0002C4481EA030621EA4C5123EA4C5350EA1A
:1084F000013518BF52EA033541F4801143F480136B
:1085000038D0A0FB02CE4FF00005E1FB02E506F0FB
:108510000042E0FB03E54FF00006E1FB03569CF050
:10852000000F18BF4EF0010EA4F1FF04B6F5007F56
:1085300064F5407404D25FEA4E0E6D4146EB0606C8
:1085400042EAC62141EA55514FEAC52040EA5E5051
:108550004FEACE2EB4F1FD0C88BFBCF5E06F1ED8FB
:10856000BEF1004F08BF5FEA500E50F1000041EB32
:10857000045170BD06F0004646EA010140EA0200DF
:1085800081EA0301B4EB5C04C2BFD4EB0C0541EA01
:10859000045170BD41F480114FF0000E013C00F316
:1085A000AB8014F1360FDEBF002001F0004170BD3A
:1085B000C4F10004203C35DA0C341BDC04F1140453
:1085C000C4F1200500FA05F320FA04F001FA05F2DF
:1085D00040EA020001F0004221F0004110EBD370AC
:1085E00021FA04F642EB06015EEA430E08BF20EAD8
:1085F000D37070BDC4F10C04C4F1200500FA04F37B
:1086000020FA05F001FA04F240EA020001F000410C
:1086100010EBD37041F100015EEA430E08BF20EA7F
:10862000D37070BDC4F1200500FA05F24EEA020EC7
:1086300020FA04F301FA05F243EA020321FA04F0F6
:1086400001F0004121FA04F220EA020000EBD370AD
:108650005EEA430E08BF20EAD37070BD94F0000FAD
:108660000FD101F00046400041EB010111F4801FE1
:1086700008BF013CF7D041EA060195F0000F18BF92
:10868000704703F00046520043EB030313F4801FCE
:1086900008BF013DF7D043EA0603704794EA0C0F88
:1086A0000CEA135518BF95EA0C0F0CD050EA41069E
:1086B00018BF52EA4306D1D181EA030101F000411B
:1086C0004FF0000070BD50EA410606BF1046194643
:1086D00052EA430619D094EA0C0F02D150EA01364F
:1086E00013D195EA0C0F05D152EA03361CBF104690
:1086F00019460AD181EA030101F0004141F0FE412F
:1087000041F470014FF0000070BD41F0FE4141F4B2
:10871000780170BD70B54FF0FF0C4CF4E06C1CEAB2
:1087200011541DBF1CEA135594EA0C0F95EA0C0F67
:1087300000F0A7F8A4EB050481EA030E52EA033522
:108740004FEA013100F088804FEA03334FF0805543
:1087500045EA131343EA12634FEA022245EA111570
:1087600045EA10654FEA00260EF000419D4208BF21
:10877000964244F1FD0404F5407402D25B084FEACE
:108780003202B61A65EB03055B084FEA32024FF47A
:1087900080104FF4002CB6EB020E75EB030E22BFD7
:1087A000B61A754640EA0C005B084FEA3202B6EB97
:1087B000020E75EB030E22BFB61A754640EA5C0046
:1087C0005B084FEA3202B6EB020E75EB030E22BFD6
:1087D000B61A754640EA9C005B084FEA3202B6EBD7
:1087E000020E75EB030E22BFB61A754640EADC0096
:1087F00055EA060E18D04FEA051545EA16754FEAF8
:1088000006164FEAC30343EA52734FEAC2025FEA15
:108810001C1CC0D111F4801F0BD141EA00014FF0A4
:1088200000004FF0004CB6E711F4801F04BF014375
:108830000020B4F1FD0C88BFBCF5E06F3FF6AFAE91
:10884000B5EB030C04BFB6EB020C5FEA500C50F121
:10885000000041EB045170BD0EF0004E4EEA1131A4
:1088600014EB5C04C2BFD4EB0C0541EA045170BDAB
:1088700041F480114FF0000E013C90E645EA060EEF
:108880008DE60CEA135594EA0C0F08BF95EA0C0F1D
:108890003FF43BAF94EA0C0F0AD150EA01347FF465
:1088A00034AF95EA0C0F7FF425AF104619462CE73C
:1088B00095EA0C0F06D152EA03353FF4FDAE10469F
:1088C000194622E750EA410618BF52EA43067FF4F0
:1088D000C5AE50EA41047FF40DAF52EA43057FF480
:1088E000EBAE12E74FEA4102B2F1E04324BFB3F529
:1088F000001CDCF1FE5C0DD901F0004C4FEAC00217
:108900004CEA5070B2F1004F40EB830008BF20F0FA
:108910000100704711F0804F21D113F13872BCBFB4
:1089200001F00040704741F480114FEA5252C2F109
:108930001802C2F1200C10FA0CF320FA02F018BF52
:1089400040F001004FEAC1234FEAD32303FA0CFCA5
:1089500040EA0C0023FA02F34FEA4303CCE77FEA34
:10896000625307D150EA01331EBF4FF0FE4040F47E
:108970004000704701F0004040F0FE4040F400002D
:10898000704700BF53B94AB9002908BF00281CBF6F
:108990004FF0FF314FF0FF3000F00CB8ADF1080C94
:1089A0006DE904CE00F0CEF8DDF804E0DDE9022345
:1089B00004B07047704700BF4FF0FF3C06E000BFB7
:1089C0004FF0010C02E000BF4FF0010C4DF804CD58
:1089D0004FEA410C7FEA6C5C4FEA430C18BF7FEA18
:1089E0006C5C1BD001B050EA410C0CBF52EA430C46
:1089F00091EA030F02BF90EA020F0020704710F1C6
:108A0000000F91EA030F58BF994208BF90422CBF54
:108A1000D8176FEAE37040F0010070474FEA410C4D
:108A20007FEA6C5C02D150EA013C07D14FEA430C6B
:108A30007FEA6C5CD6D152EA033CD3D05DF8040BDC
:108A4000704700BF8446104662468C46194663460E
:108A500000E000BF01B5FFF7B7FF002848BF10F1E5
:108A6000000F01BD4DF808EDFFF7F4FF0CBF01202A
:108A700000205DF808FB00BF4DF808EDFFF7EAFFA6
:108A800034BF012000205DF808FB00BF4DF808ED61
:108A9000FFF7E0FF94BF012000205DF808FB00BF56
:108AA0004DF808EDFFF7CEFF94BF012000205DF8E0
:108AB00008FB00BF4DF808EDFFF7C4FF34BF0120ED
:108AC00000205DF808FB00BF4FEA410C7FEA6C5CB8
:108AD00002D150EA013C0AD14FEA430C7FEA6C5CB8
:108AE00002D152EA033C02D14FF0000070474FF030
:108AF000010070474FEA410212F5001215D211D55C
:108B00006FF47873B3EB625212D94FEAC12343F08A
:108B1000004343EA505311F0004F23FA02F018BF0C
:108B2000404270474FF00000704750EA013005D1D5
:108B300011F0004008BF6FF0004070474FF0000098
:108B4000704700BF2DE9F04786468C460846089ED0
:108B5000154674461946002B40F0C1808542B2FA92
:108B600082F245D94AB1C2F1200300FA02FC9540D5
:108B700094402EFA03F343EA0C0C4FEA154EA8B2C8
:108B8000230CBCFBFEF80EFB18CC08FB00F943EAF3
:108B90000C43994528D9EB1808F1FF3704D29945C1
:108BA00002D9A8F102072B44A3EB0903A4B2B3FB3B
:108BB000FEFC0EFB1C330CFB00F044EA0344A04215
:108BC00014D92C190CF1FF3304D2A04202D9ACF114
:108BD00002032C44241A43EA07401EB1D440002368
:108BE00034607360BDE8F0874746DDE76346F1E730
:108BF00092BB431B01214FEA154EAFB2200CB3FBD1
:108C0000FEFC0EFB1C330CFB07F840EA03439845BF
:108C100061D9EB180CF1FF3004D2984502D9ACF1C0
:108C200002002B44A3EB0803A4B2B3FBFEFC0EFB33
:108C30001C330CFB07F744EA0344A7424DD92C1917
:108C40000CF1FF3304D2A74202D9ACF102032C4449
:108C5000E41B43EA0040C0E7C2F120039540944082
:108C600020FA03F12EFA03F34FEA154E9040AFB20B
:108C70000343B1FBFEFC0EFB1C10190C0CFB07F8A8
:108C800041EA0041884522D969180CF1FF3004D22D
:108C9000884502D9ACF102002944A1EB08019BB23E
:108CA000B1FBFEFC0EFB1C110CFB07F743EA014372
:108CB0009F420ED9EB180CF1FF3104D29F4202D92A
:108CC000ACF102012B44DB1B41EA004193E7604613
:108CD000E3E76146F7E76046A4E76346B8E7834207
:108CE00006D916B9002108467CE7C6E900E0F9E795
:108CF000B3FA83F78FB9834201D3724508D8BEEB2C
:108D0000020460EB030301209C461EB9002169E7C1
:108D10003846FAE7C6E9004CF8E7C7F1200CBB403B
:108D20000EFA07F522FA0CF42EFA0CF1BA401C43A5
:108D300020FA0CF3B8404FEA144901431FFA84FEAD
:108D4000B3FBF9F809FB18300B0C08FB0EFA43EAE9
:108D500000439A4540D9E31808F1FF3004D29A4500
:108D600002D9A8F102002344A3EB0A0389B2B3FBA2
:108D7000F9F809FB183308FB0EFE41EA03418E4562
:108D80002CD9611808F1FF3304D28E4502D9A8F11D
:108D90000203214443EA0040A1EB0E01A0FB02982C
:108DA0004145CE46434602D306D14D4504D2013853
:108DB000B9EB020E68EB0403002EA7D0B5EB0E0250
:108DC00061EB030101FA0CFC22FA07F3F9404CEACB
:108DD0000303C6E9003199E74046C5E74346D9E7B2
:108DE00010F8012B11F8013B012A28BF9A42F7D055
:108DF000D01A7047034613F8012B002AFBD1181A2A
:108E000001387047000000002DE9F04F82461646F9
:108E10001C4600259FB00391307810B9284600F019
:108E200085BD731C2528069306D00399D0470028DA
:108E3000C0F27C8501351BE21822002110A811F038
:108E40005EFC7378252B00F0BA80002398469E467E
:108E50009C461846711C0F4611F8012B2B2A00F076
:108E6000DD8000F2D480202A00F0DB80232A00F08D
:108E7000DB802BB19DF8483043F040038DF848303B
:108E8000B8F1000F05D09DF8483043F020038DF86D
:108E90004830BEF1000F05D09DF8483043F0100374
:108EA0008DF84830BCF1000F05D09DF8483043F0F4
:108EB00008038DF8483028B19DF8483043F004038A
:108EC0008DF848309DF8483003F04401442903D11F
:108ED0006FF386138DF848309DF848302A2A43F006
:108EE00080030E978DF8483040F0A3809DF84930FC
:108EF00043F001038DF849307B1C1A782E2A0CBFF1
:108F0000012100219DF8492061F341028DF849209B
:108F10000CD15A1C0E925A782A2A40F09A809DF859
:108F20004920023342F004028DF849201A786C2A55
:108F300000F0BB8000F29D80682A00F0A3806A2ABE
:108F400000F0BC804C2A00F0C18013F8012B782A75
:108F500006938DF84B2000F201816D2A00F2C38048
:108F6000692A00F2FB80572A00F2DA80412A04D0F5
:108F7000A2F14503022B00F2F18004219DF84A3052
:108F800002F0DF02A2F1410761F302037A429DF889
:108F900049107A4162F3C7110A068DF84A308DF8FC
:108FA0004910CBB200F1198103F07802182A40F081
:108FB00003816FF3C6038DF849300023F2E0B21C41
:108FC00006928DF84B309DF84930D90740F1078162
:108FD00054F8042B002A049208DA9DF8482042F045
:108FE00004028DF84820049A524204925A0740F134
:108FF000FE8054F8047B002F80F2FD809DF84930FC
:109000006FF341038DF849304FF0FF37F3E02D2A1D
:109010000DD0302A7FF42DAF01231CE74FF0010C57
:1090200019E74FF0010E16E74FF0010813E7012092
:1090300011E70EA802F0FAFA0E9BBB423FF45DAFB7
:109040009DF848201390C00F60F341028DF848202E
:1090500053E70EA802F0EAFA9DF848301490C3F3E3
:10906000400242EAD07262F341038DF848300E9B11
:109070005CE7742A26D07A2A7FF467AF06219DF830
:1090800049200CE05A78682A9DF8492006D1012130
:1090900061F3C6028DF84920023356E7022161F3DD
:1090A000C6028DF8492001334FE75A786C2A9DF8A3
:1090B000492001D10421EBE70321F0E705219DF8C8
:1090C0004920ECE707219DF84920E8E7BDF8482052
:1090D00022F4F04222F0020242F4804242F0020204
:1090E000ADF84820DFE76E3AD3B201229A4040F251
:1090F00082431A429DF8493037D112F0240F5FD1D4
:10910000D1072BD503219DF84A2003F07803A3F162
:10911000400061F3020243428DF84A20434141E09E
:109120000120A2F15801C9B200FA01F111F4624F15
:109130007FF423AF40F6010319429DF849301AD15C
:1091400011F4043F0AD09DF84A2060F3020203F0B4
:109150007803402B8DF84A207FF42FAF9DF84830DC
:1091600043F001038DF8483027E702219DF84A209B
:1091700061F30202EBE702209DF84A1003F0780346
:1091800060F30201402B8DF84A1002BF9DF8481091
:1091900041F001018DF84810632A7FF40EAF003BC7
:1091A00018BF01239DF84820C2F340010B4363F32D
:1091B00041028DF8482006E713F0380FCED1FCE6C7
:1091C00003219DF84A2013F0780F61F3020214BFC7
:1091D000012300238DF84A20E4E70123E2E79DF90B
:1091E0004820002AACBF4FF0FF32139AFDE69F07DC
:1091F0007FF50AAF149F00239DF84A20CDE9133371
:1092000002F00703042B9DF8493007D1980705D4D5
:109210009DF949100029ACBF06270D2702F007026F
:10922000012AC3F3C30333D1DA1E042A04D8DFE8CA
:1092300002F02146462121002268012B4FEAE2710B
:10924000CDE910211CD19DF94020D117CDE9102185
:1092500004349DF848209107079250D0324650467A
:10926000069B03990EF038FD0028C0F25F83054489
:10927000069ED1E554F8042BD117CDE91021E8E77B
:10928000022BE5D111B242F3C032CDE91012DFE773
:10929000022A24D1DA1E042A04D8DFE802F01810CA
:1092A00010181800012B4FF0000154F8042B14D0B3
:1092B000022BCDE91021CCD192B21092C9E707342C
:1092C00024F00704F4E80201CDE91001C1E754F8E5
:1092D000042B109200221192BBE7D2B2CDE7042AF0
:1092E00008D1073424F00704D4E900010834CDE99B
:1092F0001001AEE7032AACD154F8042BDDE79DF84A
:109300004BB0BBF1780FB3D8BBF1570F49D8BBF1C5
:10931000250F00F09180BBF1240FA9D9BBF1410FBB
:1093200003D0ABF14503022BA2D8DDE91013002BCB
:10933000C0F23781079A160700F13681C2F300198F
:109340004FEA4919C3F30A50C3F31303002840F04E
:109350002E8151EA030614BF01260026DB0243EAF0
:109360005153C902BBF1460F40EA010E43EAE07CCB
:1093700008BF4FF0660B5EEA0C0CCDE90C1300F051
:109380009C81002E40F04A810D9BA0F2FE3843F0F4
:1093900000430D930020DDE90C1306464FF0050C49
:1093A00056E1ABF1580120293FF662AF01A050F819
:1093B00021F000BF41950000719200007192000001
:1093C0007192000071920000719200007192000091
:1093D00071920000719200002B93000071920000C6
:1093E000C5940000D99400002B9300002B9300003B
:1093F0002B93000071920000D9940000719200003C
:109400007192000071920000719200007B95000043
:109410004195000047950000719200007192000094
:109420003F9400007192000041950000719200008D
:10943000719200004195000058460399F6E4002F10
:10944000109E3BDB3946304611F0F3FA002E3FF414
:109450000FAF4FF000093718BB1B9DF84A2012F0E0
:109460001001059100F05782023312F04002DDF83E
:109470004C80089218BF149A434418BF9B18049A52
:10948000CDF81C80002A40F36182D31A04939DF822
:1094900048305807C3F3800B00F15882590640F159
:1094A0004882B9F1000F07D048460399D0470028F9
:1094B000C0F23C82D946013530233BE23046FFF70B
:1094C00099FCC6E7109B4FF000098DF85C300DF158
:1094D0005D07012317AEC0E7079B1A0754BFC3F30C
:1094E00000194FF02B09DDE9102358BF4FEA491945
:1094F000002B06DA4FF02D09524263EB4303CDE90E
:109500001023DDE910010DF17503009312AA17ABCA
:1095100002F0A2F80646002F0CDB9DF848200DF162
:1095200075039B1B6FF386129F428DF8482001D96B
:10953000FB1A1393002E3FF49BAE0DF175075BE011
:109540004FF00009DDE71098002800F0DF810DF1F1
:1095500075030093002117AB12AA02F07DF8BDF845
:109560004A30064603F0EF0343F4F04343F01003A0
:109570004FF00009ADF84A30CDE7109A072B3FF6BF
:1095800077AEDFE803F00C04060C08080C0C15702D
:109590006EE615806CE6EB17C2E9005368E61560CD
:1095A00066E64FF02D09CDE64FF02B09CAE640F2F2
:1095B000FF76B0422FD1A0480BF10102D2B2825CFB
:1095C0000B4302F003021ED1012A0BBF492369237A
:1095D0004E216E210CBF462266228DF85C309DF82C
:1095E00048308DF85D106FF386138DF85E208DF88E
:1095F00048300DF15F0717AEBB1BB9F1000F3FF408
:109600002CAF013329E7012A15BF6E234E236121B8
:1096100041211A46E1E70026A0E6013849185B41DE
:10962000002BFADACDE90C13AEE6490841EAC37122
:109630005B08B3F1333F404608F10108F5D200F171
:10964000020801200CFB03FEA1FB0C13013E734436
:1096500018F1020FE9DB08B1CDE90C13DDE90C319B
:10966000B8F1000F2CDCC8F10400A0F1200C08F1C7
:109670001C08C34001FA08F821FA0CFCC1400BF0A9
:10968000DF0043EA0803472843EA0C0338D1F01C03
:1096900001DBB7422ADAABF10202002F5FFA82FB4C
:1096A0007BDD9DF84800013F820676D43A1E18BF44
:1096B0000122059207F101082CE04FF0000869E64D
:1096C000023341F100010CA808F1FF380136CDE961
:1096D0000C310EF0D2FADDE90C31DB1849410029DA
:1096E00008F1FF38F9DACDE90C31B7E79DF84820E9
:1096F000BF1B90064FD43A1E18BF0122059204E00A
:109700000022BBF1660F0592D4D117EB06084FF08B
:10971000660B44D4B8F1100FA8BF4FF010089FEDAE
:10972000447B10208DED0E7B0B90DDE90E02B8F12D
:10973000000F37D1C01842EB0103B3F1805F41D273
:10974000CDE90C03079BBBF1660F03F0200340F04B
:10975000BC80002E41DC30218DF85C10002B6DD1D7
:10976000002F40F3B4812E238DF85D3086B1734213
:10977000BB42A8BF3B46002B1393A7EB0307D4BF04
:10978000002301239DF84A1063F345118DF84A1018
:109790000DF15E0839E00022B0E7002289E74FF0C2
:1097A0000008BCE7400840EAC2705208CDE90E024A
:1097B0000EA8CDE9083108F1FF380EF05EFADDE9B8
:1097C0000831B2E7400840EAC3705B08CDE90C03FA
:1097D0000CA80EF052FA0136B4E70DF15C080B99B3
:1097E000002909DD0BA90CA807930EF05EFA013ED3
:1097F000079B08F8010BF2D113969BB9002F40F399
:1098000064812E2108F8011B0026002F1FDD0B9B11
:10981000002B1CDD0BA90CA80EF047FA013F08F83D
:10982000010BF2E72E2308F8013BEDE7AFF30080D0
:1098300000000000000000082CE001002E238DF83D
:109840005D30002EA4D0002F91DC0DF15E08059B49
:10985000002B4ED1149747460BF0DF03452B23D145
:10986000002EBABF76422D232B23632EC8BF64215E
:109870007B70C4BFB6FBF1F301FB13664FF00A0126
:10988000C8BF03F13000B6FBF1F3D2BFBA1CFA1C1B
:10989000B87087F800B0174603F1300001FB13637E
:1098A000303307F8020B5370139B002B2CDC149BF6
:1098B000002BD4BF002301239DF84A2063F38612B6
:1098C00000238DF84A203B7095E60BA90CA807935E
:1098D0000EF0EBF9079B30288DF85C0018BF06F1FD
:1098E000FF3613B9002F40F3F2802E238DF85D3040
:1098F0004EE7474617F8013C08F1FF38302BF8D007
:109900002E2B08BF4746A7E70123D5E7714F8146B5
:1099100005237E1FA1E5110748BF0133A5E51846C1
:1099200009930399D0470028099B05DA1FB0BDE8C9
:10993000F08F2023DDF810B05A46002A0BF1FF3BD0
:10994000EDDC049BCDF810B02B449D1AB9F1000F4B
:1099500005D048460399D0470028E7DB0135089B2E
:10996000002B77D09DF94930002B28DB3346DFF8F8
:10997000689118789B4619F80020013352073FD4AC
:109980009DF84A30AE1B98065E4407D44246002A32
:1099900008F1FF383BDC079B33449E1A9BF800001C
:1099A0002E280AD10399D0470028BFDBB8F1000F59
:1099B00006F1010631DC0BF1010B5D4638E0B146E2
:1099C00099F80000C846702809F1010913D1AE1BAF
:1099D000149D46443544AB1B002B33DC3B464246CA
:1099E000504603990EF078F900289FDB3044049E1E
:1099F0000546064464E00399D0470028E0DA95E77D
:109A000005930399D0470028059BB2DA8EE73020F2
:109A10000399D0470028B9DA88E730200399D04766
:109A200008F1FF38C0E70399D0470028FFF67EAF62
:109A30002878A84619F8003001355907F3D4A6EB69
:109A40000B06C5E730200399D0470028FFF66EAF1C
:109A50000136C0E79DF84A30DA0601D41B0706D567
:109A600030200399D0470028FFF660AF0135059BF1
:109A70003BB103999DF84B00D0470028FFF656AF45
:109A80000135A84406E030200399D0470028FFF6AE
:109A90004DAF0135A8EB0503002BF4DC3B46324605
:109AA000504603990EF018F90028FFF63FAF2844FE
:109AB0009DE720200399D0470028FFF637AF0135F6
:109AC000731B002BF5DCFFF7D3BB1E46BFE60DF181
:109AD0005D08BCE65AC201002DE001000000000054
:109AE000F0B52DED028B002504238BB00E46074602
:109AF000CDE908550593002800F0CC80002900F03E
:109B0000C980062108A80FF0D6F8044678B1664B44
:109B10000390CDE9015301222B4628466349009565
:109B20000FF01DFA20460BB0BDEC028BF0BD0146D4
:109B300008AA38460FF0A6F8044670B15C4B0390B3
:109B4000CDE901532B4600950122184657490FF0E5
:109B500006FA08A80FF0D9F8E4E7012104AA08A83A
:109B60000FF085F9044610B1524B0390E8E7049CCE
:109B7000ACB1042C18D0052C0CBF0923FF23337083
:109B8000032105AB06AA08A80FF09DF9044668B1A9
:109B9000494B039002930023CDE90033D4E700231F
:109BA00034707360B360BDE70723E8E7059B0146A7
:109BB00028336B4403F8100C022206A80CF012FAAA
:109BC0003378C0B2072B20D0092B11D10F283AD9F6
:109BD0006FF015030393394B02930023CDE9003353
:109BE0000122184631490FF0BAF96FF01504B0E7B9
:109BF000334B2046CDE901430094234602222B49F2
:109C00000FF0ADF96FF07F04A3E70F28E0D89FEDC8
:109C10002D8A2D4B33F81000D8B1FEF7E7FB20A3B7
:109C2000D3E90023FEF74CFCFEF75CFE04217060D4
:109C300005AB06AA08A805910FF045F9044650B1F6
:109C4000224B0390A6E7224B9FED228A33F81000A7
:109C5000E2E72148EAE7059B014628336B4403F815
:109C6000100C022206A80CF0BDF9C0B20F2806D9CC
:109C70001A4B0390CDE9014300942346B0E701302D
:109C8000C0B207EE900AF8EEE77A67EE887AC6ED82
:109C9000027A5EE76FF0150444E700BFAFF300807F
:109CA0007B14AE47E17A2440E4D301001CB60100E6
:109CB0000DD4010039D401005BD40100AFD4010000
:109CC00087D401000AD7A33F34BE0100D3D40100DA
:109CD00014BE01000AD723400AD7A340FED40100D6
:109CE0002DE9F0472DED028B04469FED498B4A4E3E
:109CF00084B04FF02003EFF3118783F31288BFF392
:109D00006F8FD4F8C8508DB9022104F1E00010F033
:109D1000BBF9002843D100238DED008B3946029317
:109D200004F1D0023D480BF059F9E2E7D4F8CC2019
:109D30002B689542C4F8C83008BFC4F8CC30D4F8BA
:109D4000E03043F00203C4F8E030EB6823F0040392
:109D500043F00103EB606B6887F31188BFF36F8FEB
:109D6000284698474FF02003EFF3118983F31288B8
:109D7000BFF36F8FEB68990723F0010219D4EA60F3
:109D8000D4F8E03023F00203C4F8E03089F31188FE
:109D9000BFF36F8FDB05ACD40BF01EF8A9E704F11D
:109DA000D80500220121284610F081FA0028F8D1B8
:109DB000B1E7306823F00303EB600028E0D0002710
:109DC000BA46D0F800800028DAD0426801469542B1
:109DD0000BD1016897B972683160824200D171601D
:109DE00040F808AB0AF0D2FC3946B8F1000F0BD0AE
:109DF000D8F8002040460F469046E4E73960726884
:109E0000824208BF7760EBE74246F3E7AFF300809A
:109E1000FFFFFFFFFFFFFFFF14D70020AFEC002084
:109E20002DE9F04F476A97B08346209E08910C9227
:109E3000129355EC104B8DED000B7FB910200BF0F9
:109E400003FB0246CBF8240020B9A74BEA21A74820
:109E50000DF0FAFAC0E901770760C760DBF824303B
:109E6000196859B15A680123584693404A608B607B
:109E70000CF042FADBF8243000221A602B1EB7BF28
:109E800023F00043002301220193A8BF3360019F08
:109E9000974BB8BF3260BB4319D142F20F73129A8D
:109EA0001360C7F31303234300F0DB85219B53B9F1
:109EB000904B21E0904B03930833219A1360039851
:109EC00017B0BDE8F08F8B4B03930333F5E79DED9F
:109ED000007B0022002351EC170B8DED0A7BFEF76F
:109EE000C1FD804650B10123129A1360219B13B12A
:109EF000824B219A1360824B0393E0E7C7F30A5623
:109F000014AA15A958469DED0A0B0CF07DFC029091
:109F1000002E76D00B9BA6F2FF36CDF84C80C3F313
:109F2000130343F07F53DDE90A0143F4401319465C
:109F30000022744BFEF70CF965A3D3E90023FEF76A
:109F4000BFFA65A3D3E90023FEF704F904460D46E2
:109F50003046FEF74BFA62A3D3E90023FEF7B0FACE
:109F600002460B4620462946FEF7F4F804460D4605
:109F7000FEF7C0FD00220746002320462946FEF7D3
:109F80007BFD40B13846FEF731FA22462B46FEF7FC
:109F900069FD00B9013F162F52D85B4B03EBC70395
:109FA000DDE90A01D3E90023FEF766FD002849D068
:109FB000013F00231193149B9B1B5A1E4CBFC3F1FE
:109FC00001030023079245BF0693002306930793DE
:109FD000002F39DB079B10973B440793002309931D
:109FE000089B092B66D8052BC5BF043B0024012420
:109FF0000893089B023B032B67D8DFE803F02D3A58
:10A000003859DDE914631E4406F23243202BC9BFE0
:10A01000C3F14003C3F120039F4006F21243D8BFAF
:10A0200004FA03F006F1FF36C4BF24FA03F347EA4B
:10A030000300FEF7CBF90122A1F1F873139276E742
:10A040000123B7E71190B6E7069BDB1B06937B4223
:10A05000099300231093C3E700230D930C9B002B5F
:10A0600056DC012399461A4604930C920CE0012316
:10A07000F3E700230D930C9BFB1803F101090493F4
:10A080004B46012BB8BF0123DBF82400002104223A
:10A0900002F114059D423FD9416058460CF0ECF89E
:10A0A000039000283BD1194B02464FF4D571CEE600
:10A0B0000123DFE7012400230D9408934FF0FF33C1
:10A0C0000022994604931223CFE701230D93F5E76D
:10A0D00061436F63A787D23FB3C8608B288AC63FAE
:10A0E000FB799F501344D33F68E101007FE10100F9
:10A0F0000000F07F64E101005BE1010073D3010027
:10A1000072D301000000F83F20B70100F3E1010025
:10A110000C9B99460493B7E701315200B8E7DBF88E
:10A120002430B9F10E0F039A1A606FD8002C6DD04D
:10A13000002F36DD07F00F02A04BF8054FEA271479
:10A1400003EBC20393ED007B8DED0E7B17D59C4B8B
:10A1500004F00F044FF00308D3E90823DDE90A01F6
:10A16000FEF7D8FACDE90001954D5CB9DDE90E2383
:10A17000DDE90001FEF7CEFACDE900012BE04FF05A
:10A180000208F1E7E10709D508F10108DDE90E0150
:10A19000D5E90023FEF794F9CDE90E0164100835E6
:10A1A000E3E700F007817C42844B854D4FF00208C5
:10A1B00004F00F02241103EBC203DDE90A01D3E925
:10A1C0000023FEF77DF90023CDE90001002C40F0CB
:10A1D000E580002BD0D1119BDDE90045002B00F07C
:10A1E0004C810022774B20462946FEF745FC00288B
:10A1F00000F04381B9F1000F00F03F81049B002B78
:10A2000000F3E480DDE90A34CDE90034159B002B2E
:10A2100002DB0E2F40F342820D9A002A40F0678243
:10A22000099C0025DDF81880B8F1000F0DD0079BC0
:10A23000002B0ADD4345069AA8BF4346D21AA8EB75
:10A2400003080692079AD31A0793099B0BB30D9B39
:10A25000002B00F0A682002C00F0A18229462246A5
:10A2600058460CF073F9029A0146054658460CF020
:10A27000C3F80299064658460CF03EF8099B1B1B92
:10A28000099300F09182099A314658460CF05EF924
:10A290000290012158460CF099F8109B0446002BBF
:10A2A00000F084821A46014658460CF04FF9089B8C
:10A2B0000446012B03DC009B002B00F07C8200266F
:10A2C000236904EB8303186910F0C6FCC0F1200079
:10A2D0001096079B184410F01F0000F09182C0F107
:10A2E0002003042B40F38182C0F11C00069B034431
:10A2F00080440693079B03440793069B002B05DDD0
:10A300001A46029958460CF07BF90290079B002BE5
:10A3100005DD21461A4658460CF072F90446119B99
:10A32000002B00F076822146029810F0E4FC002811
:10A3300080F26F8200230A22029958460BF0FEFF3A
:10A340000D9B7E1E0290002B00F05C8200232946AC
:10A350000A2258460BF0F2FF049B0546002B03DC53
:10A36000089B022B00F35E82B8F1000F05DD294641
:10A37000424658460CF044F90546109B002B00F06D
:10A38000D082696858460BF077FF0746002840F0F6
:10A390007F820D4B024640F2EA2158E5E20706D5DE
:10A3A00008F10108D5E90023FEF78AF801236410BB
:10A3B00008350BE74FF002080DE700BF20B701009A
:10A3C000F8B601000000F03FF3E101002046002252
:10A3D000AC4B2946FEF774F87E1E08F10108049C78
:10A3E000CDE900014046FEF701F8DDE90023FEF764
:10A3F00067F8A54B0022FDF7ADFEA1F15073CDE942
:10A400000E010F93002C3BD10022A04BDDE900018F
:10A41000FDF79EFE02460B46CDE90023DDE90E2343
:10A42000FEF748FB002840F05781DDE90E2101F1DD
:10A430000043DDE90001FEF71FFB00283FF4E2AE18
:10A44000002425460C9BDDF80CA0DE434FF00008ED
:10A45000214658460BF050FF002D00F0A980B8F1BE
:10A46000000F05D0A84503D0414658460BF044FFE5
:10A47000294658460BF040FF9AE03E464C46B1E76D
:10A48000834B03EBC40353E90201039B1C440D9B64
:10A49000002B4AD002460B4600207E49FEF73AF9CF
:10A4A000DDE90E23FDF754FEDDF80CA0CDE90E0129
:10A4B000DDE90001FEF71EFB0546FDF797FF0246AA
:10A4C00030350B46DDE90001FDF742FE0AF8015B7D
:10A4D00002460B46CDE90001DDE90E01FEF7EAFA7E
:10A4E000002865D100206C49DDE90023FDF730FE2E
:10A4F00002460B46DDE90E01FEF7DCFA002840F0CB
:10A500000D81A24500F0EA8000225E4BDDE90E01DC
:10A51000FDF7D6FF00225B4BCDE90E01DDE900011E
:10A52000FDF7CEFFCDE90001C2E7DDE90E23FDF71F
:10A53000C7FFA046DDF80CA0CDE90E01DDE9000162
:10A54000FEF7D8FA0546FDF751FF024630350B46B7
:10A55000DDE90001FDF7FCFD0AF8015B02460B4650
:10A56000A245CDE900234FF0000223D1494BDDE99C
:10A570000E01FDF7EFFD02460B46DDE90001FEF797
:10A5800099FA002840F0CA8000204249DDE90E23F4
:10A59000FDF7DEFD02460B46DDE90001FEF76CFA31
:10A5A00070B1C24608F1FF381AF8013C302BF8D0E0
:10A5B000374655E0334BFDF783FFCDE90001BDE79A
:10A5C000DDE90A34CDE90034159B002BFFF628AEF7
:10A5D0000E2F3FF725AE2E4B03EBC70393ED007B09
:10A5E0000C9B002B8DED047B02DAB9F1000F64D0D7
:10A5F000DDF80CA0DDE90045DDE90423204629460D
:10A60000FEF788F8FEF776FA0646FDF7EFFEDDE97D
:10A610000423FDF755FF0246204606F130040B46A1
:10A620002946FDF795FD0AF8014B039C02460B46AF
:10A63000AAEB0404A14540F08280FDF78BFD04469F
:10A640000D46DDE90423FEF735FA002865D12046E2
:10A650002946DDE90423FEF705FA08B1F3075CD4C7
:10A66000029958460BF048FE002301378AF8003063
:10A67000129B1F60219B002B3FF421ACC3F800A06C
:10A680001DE400BF0000244000001C4000001440F6
:10A6900020B701000000E03F0000F03FA24B03EBB9
:10A6A000C70393ED007B0C9B002B8DED047B9FDAA1
:10A6B000B9F1000F9CDC7FF4C3AE00229B4BDDE9B7
:10A6C0000401FDF7FDFEDDE90023FEF7E9F904468C
:10A6D00000287FF4B5AE3E462546B4E0DDE90A34F5
:10A6E000CDE90034159B002B01DB0E2FD6DD089A37
:10A6F000012A36DC139A82B303F23343099CDDF856
:10A700001880069A012158461A440692079A1A445C
:10A7100007920BF05BFE054686E53E4653469A4699
:10A7200013F8012D392A06D1039A9A42F7D1302223
:10A73000039901360A701A7801321A7038E700223C
:10A740007B4BFDF7BDFE0022002304460D46FEF7BD
:10A7500089F900283FF450AF82E7149BC3F1360318
:10A76000CCE709F1FF34099BA34208DBB9F1000FE4
:10A77000A3EB04040EDBDDF818804B46C1E7099B10
:10A78000109AE31A0994DDF8188000241A444B4605
:10A790001092B6E7069BA3EB09080023B1E7029EDF
:10A7A00071E5099A029970E5029672E5089B012B02
:10A7B00017DC009BABB9019BC3F313039BB9019B4F
:10A7C00023F00046360D360536B1069B01260133CF
:10A7D0000693079B01330793109B002B7FF470AD0A
:10A7E0001096012075E50026F6E73FF486AD1C3390
:10A7F000069A1A4498440692079A1A4407927CE5EE
:10A800000346F4E7049B002B2BDC089B022B09DC9E
:10A8100027E0B9F1000F1DDC089B022B1ADD3E4634
:10A82000CDF81090049B002B7FF40CAE214605223E
:10A8300058460BF083FD01460446029810F05BFA7F
:10A8400000287FF7FFADDDF80CA0312301360AF8B0
:10A85000013BFBE50D9B3E46CDF81090002B7FF4AD
:10A8600083AD039F2146029810F034F9039B00F159
:10A870003009049A07F8019BFB1A9A4240F3CB80F7
:10A8800000230A22029958460BF058FD0290E9E78E
:10A890002A6905F10C010C30023292000FF022FF00
:10A8A0000122394658460BF0ABFE039BA8460546ED
:10A8B00003F1010ADDE9032313440793009B03F02E
:10A8C000010309930AF1FF3321460298049310F023
:10A8D00001F94146069000F13009029810F00BFA98
:10A8E0002A462146074658460BF0F6FEC268014646
:10A8F00002B358460BF000FD002F3ADA012202990C
:10A9000058460BF07DFE2146029010F0F4F9002825
:10A9100003DC29D119F0010F26D0B9F1390F1DD16F
:10A9200032E02846C1E700BF20B701000000144014
:10A93000000024400A90029810F0DDF90A990C906A
:10A9400058460BF0D9FC0C9A5ABB089B53B9099B8B
:10A9500043B9B9F1390F17D0002F05DD069B03F17C
:10A96000310901E0002F2ADADDF810A00AF8019B76
:10A970006EE5089B3B4304D1009B03F00103002BD1
:10A98000BCD0B9F1390F36D1049F392307F8013B08
:10A99000BA46013F1AF8013C392B5AD001333B70BB
:10A9A00056E5002F06DB089B3B4306D1009B03F0D6
:10A9B000010313B9002AA1DCD6E7002AE1DC079BDA
:10A9C00057460AF8019C53452ED000230A220299CB
:10A9D00058460BF0B3FCA84502904FF000034FF02F
:10A9E0000A02414658460BD10BF0A8FC80460546AA
:10A9F0000AF1010A66E7DDF810A009F10109B5E7DF
:10AA00000BF09CFC2946804600230A2258460BF096
:10AA100095FC0546ECE7049B4FF00008002BCCBFEB
:10AA20001F460127039B1F440122029958460BF041
:10AA3000E7FD2146029010F05EF90028A8DC02D163
:10AA400019F0010FA4D1BA4617F8013D302BFAD006
:10AA5000FEE4039BBB429BD13123039A0136137062
:10AA6000F6E4219B002B7FF425AA014BFFF744BAA3
:10AA70005BE101000122014B1A7070473ED70020B4
:10AA8000012807B5024604D003280ED003B05DF8B4
:10AA900004FBE821124808F077FD0028F6D11148A0
:10AAA00003B05DF804EB09F071BE53200FF0E6FD32
:10AAB000019018B90C480CF016FEE7E7022253216A
:10AAC00008F062FD18B101980FF0D1FDDEE7002219
:10AAD0000023064801A909F0BDFC0028F3D1D5E701
:10AAE000B8CA002044CA002054BE010014CA002085
:10AAF00001210346084A10681279914002691268E0
:10AB0000114218BF83F0010313B18368DB68184753
:10AB100083681B69FBE700BF80C5002070B5044651
:10AB200000680FF065F938B923681A4819680CF005
:10AB3000DAFD4FF0FF3070BD4FF4803120460CF04D
:10AB40006BFD01462579206839B102682B46124811
:10AB50000CF0C9FD6FF00100EDE701230169AB4086
:10AB6000096882680B4214BF4FF000734FF0806396
:10AB7000966929464FF0A072B0470028DBD02268C2
:10AB800001462379054812680CF0ADFD6FF0020014
:10AB9000D1E700BF78BE01009EBE0100C7BE010024
:10ABA00038B50446006860B10FF022F92368054605
:10ABB00040B901461A680E480CF095FD4FF0FF3081
:10ABC000256038BD002BFCD04FF4003120460CF03E
:10ABD00023FD0028F5D02268014623790548126834
:10ABE0000CF081FD00236FF001002360E9E700BF56
:10ABF000FDBE010030BF010010B5114C20460BF026
:10AC000031F820460F4C0CF06EFD4FF47A700CF0CA
:10AC100018FD20460BF026F820460CF064FD4FF49A
:10AC20007A700CF00EFD08480BF01CF807480CF089
:10AC30005AFDBDE810404FF47A700CF002BD00BF21
:10AC400064BF010069BF01006EBF010073BF010056
:10AC50002DE9FF41FFF7D0FF4FF4FA600CF0F1FC53
:10AC6000A3480CF040FDA348FFF758FF014638B158
:10AC7000A1480CF038FD0024204604B0BDE8F08166
:10AC80009E499F4B9F484B6040238B608368DB69E4
:10AC90000BB1012298479C48FFF782FF014608B19B
:10ACA0009A48E6E7FFF724FF99480CF01CFD03F0F3
:10ACB00095F903F0AFF9974C2378C3B10025964876
:10ACC00025700CF010FD0120FFF712FF00214FF45A
:10ACD00000400AF003F92846FFF70AFF03F07EF967
:10ACE000044638B101468D480CF0FDFCC4E70AF07B
:10ACF00073F8E1E70EF02BF940B91F2005F00CF9CD
:10AD000068B187480CF0EFFC864803E086480CF0F9
:10AD1000EAFC86480CF0E7FC4FF0FF34ACE78448CF
:10AD200008F0F6FE08B18348ECE71F2008F0C2FEE9
:10AD300008B18148E6E7012008F034FE10B17F48F1
:10AD40000CF0D1FC4FF4FA7008F086FE08B17C4894
:10AD5000D8E70A2008F052FE08B17A48D2E708F096
:10AD600085FD054608B17848CCE708F0F3FD774843
:10AD70000CF0B9FC0FF0E8FA4FF47A74A0FB04323F
:10AD800004FB0121724EDB0B43EA4143C90BC6E9C8
:10AD90000031704C704F4FF0FF334FF0FF32022103
:10ADA0006C480AF087FAE36803F4FE13B3F5004F2A
:10ADB0005ED120690023002209F00EFD0346002821
:10ADC00056D1DFF8B8C14FF00C0E02460146E046FE
:10ADD000BCF8520068B19CF85C00013110F0020F21
:10ADE0001CBF0132D2B2000748BF0133C9B248BF0D
:10ADF000DBB2BEF1010E0CF10C0CE9D1387810B9C0
:10AE000056480CF070FC98F85030190702D5544899
:10AE10000CF069FC98F85030DA0602D551480CF075
:10AE200062FC98F850305B0702D54F480CF05BFC91
:10AE300098F8500010F0010033D001203870FFF76F
:10AE400057FE0FF081FA4FF47A72A0FB020302FB67
:10AE50000131D8E90223C00B40EA4140C90BC6E9E1
:10AE60000001CDE900234148D8E900230CF03BFC68
:10AE7000236A03F4FE13B3F5802F09D1606A002220
:10AE8000002303A909F03EFB10B903980FF0EFFB74
:10AE9000E3686FF39433E360236A6FF394332362C0
:10AEA00079E73870FFF724FE0FF04EFA4FF47A720C
:10AEB000A0FB020302FB0131C30B43EA4143D6E985
:10AEC0000002C90B181A61EB020100234FF47A72D9
:10AED000FDF758FD014626480CF005FC254A6B1C81
:10AEE000DDB203F00303D15C23480CF0FCFBBFE7A9
:10AEF00079BF0100E8B701008FBF010070CF0020CB
:10AF000075AA00000CB3010080C50020A7BF010096
:10AF1000BCBF01003ED70020D6BF0100E7BF010043
:10AF20005CC001003DC1010017C0010040C001002C
:10AF300081AA000084C00100A5C00100C2C00100B8
:10AF4000DEC00100FBC001001BC1010030C10100D7
:10AF5000B0CA002088C500203FD7002062C1010090
:10AF60008AC10100A9C10100C9C10100F4C10100E9
:10AF700008C2010034C2010024C20100B8CA002086
:10AF80002DE9F04F91B0009302F004030293C2F355
:10AF9000C2030133840705460E46DDF8688003923C
:10AFA000059340F0BD81041D30B1072909D86FF029
:10AFB0001B0011B0BDE8F08F01F00706341DC6F18B
:10AFC0000806009B4FF000094FF0040A591E4FF08D
:10AFD000FF334F460193CB465346CDF810900DB149
:10AFE000009820600598002800F3EB809948009AAB
:10AFF000824203D398488242C0F0E380039AA4EBD4
:10B00000050E92074FEA9E0000F106810F2F00F215
:10B01000B480002D00F0088107F140020DEB020C16
:10B02000019A0CF8200C0CF8102C049801300490B4
:10B03000EAE07A2860D84B280ED847285CD829281F
:10B040002FD8252855D057D820287DD02338D0F1A7
:10B05000000B4BEB000B77E0A0F14C0CBCF12E0F7A
:10B060004AD8DFE80CF071494949494949494949F9
:10B0700049494C49494949494949495A494C4C5A15
:10B080005A5A714C6E497149184C18494983804C81
:10B0900049494C49800000204FF0000B4FF0040A52
:10B0A00039E00122A0F12A0C5FFA8CFC02FA0CFCB8
:10B0B0001CEA0E0F48D11CF062502ED11CEA020B84
:10B0C00042D0013C5444CAF1000C04EA0C04002DA7
:10B0D00061D0A3EB050CA4446645FFF468AF0028DB
:10B0E00068D1042B47D158F8043B2360042304346F
:10B0F0002AE0019A013A01924FF0000B24E011F886
:10B10000010C6C2834D1002011F8023C83466C2BD2
:10B11000C4D14FF0080A5346D3E708F1070828F0D6
:10B120000708073424F00704F8E802AB35B10698A5
:10B130002044B0423FF63BAFC4E900AB4FF0000BF8
:10B1400008344FF0080A534611F8010F002878D050
:10B15000BBF1000F7FF46DAF2528F5D14FF0010B47
:10B16000019B013301934FF0040AECE7584693E743
:10B1700000208346A5E7082B02D06FF0150018E7E2
:10B1800008F1070828F00708B8EC027B84ED007B83
:10B1900008230834D8E768B9042B02D108F1040861
:10B1A000A4E7082BE9D108F1070828F0070808F1FF
:10B1B0000808EDE705980138059058F8040B009051
:10B1C0000DE7039A900720D54FF0010CA4EB050E74
:10B1D0004FEA9E00BEF5007FCFD20F2FCDD8F5B13C
:10B1E00007F140020DEB020E019AC0B20EF8200CDE
:10B1F0000EF8102CBCF1000F3FF417AF60F07F0089
:10B200000EF8200C09F101090137C5F108024FF6CB
:10B21000DA7E0434069297E74FF0000CDAE7BCF1CF
:10B22000000F01D00136EFE7029A0236002AEBD177
:10B230000098CDE90631FDF7DDFDDDE90631064474
:10B24000E2E7631BB3F5806F97D23DB9A6F108041E
:10B25000E018AEE668B20100FCE20100029A9B0829
:10B2600028602B709DF81030C2B1EB7085F8029009
:10B27000B9F1000F05D0002208A8C5F1010C9742D2
:10B280000ED14FF0000AC5F101030DF12008019322
:10B290000DF1300B574512D1601B8AE66B70E5E764
:10B2A00010F8013B190608D504EB0C0E764503F0A7
:10B2B0007F03FFF47CAE04F8013B0132DFE7B9F114
:10B2C000000F03D098F90020002A17DB029BD3B1AE
:10B2D0001AF80B2004F8012B0022019B9818204437
:10B2E0008642FFF464AE98F80000009904F8010B60
:10B2F000204603920FF0F6F9039A14440AF1010A6A
:10B3000008F10108C6E798F8002055F822300093AC
:10B31000029B009845F82230FDF76CFD421CDCE7EB
:10B320006FF00D0045E600BF10B500244FF0FF336D
:10B330004FF0FF32144809F03FF9144BD3E8AF2F18
:10B340007AB10134042C03F12003F7D10CF052FE42
:10B3500017234FF0FF3403600B4809F0A7F920468C
:10B3600010BDD3E8EF0F0130C3E8E10F0029F8D199
:10B370000748630100EB4411C2504A600C33184483
:10B380000EF0EEFDE8E700BF9CC9002084CF00204E
:10B390007CCF002010B4044610460A4B620103EB38
:10B3A00044149950606048B1C4683CB10C321344F5
:10B3B0005DF8044B40F205120CF084B95DF8044BC3
:10B3C000704700BF7CCF002030B50D49400100F12F
:10B3D00008030B44D3E8AF2F82B1541ED3E8EF5FCC
:10B3E000954204D1C3E8EC4FBCF1000FF6D1F1D186
:10B3F000012A01BF00230A180B50536030BD00BF63
:10B400007CCF0020014B1860704700BFB0C5002002
:10B410002DE9F047058B04462807904611D40229F0
:10B4200005F0070540F0CD8020460CF03DFB78B1DB
:10B430000138218B042811D8DFE800F0C3106D8596
:10B44000950001290CBF45F0100545F02005258326
:10B4500088F31188BFF36F8FBDE8F08701F0070A0A
:10B46000AA4500F0A6800027B9463E46A368002BF7
:10B4700000F0BD8041F00801218388F31188BFF3FB
:10B480006F8FA168002900F0BB800D68002900F0D3
:10B49000B780334652462046D1F80480C047002D7D
:10B4A00076D02B6829461D46F0E701F007035A1FA6
:10B4B000012A1BD8002221F00701062B276889B238
:10B4C000C4E9002209D13B4603E0628B013262836A
:10B4D0001B68002BF9D141F00201204621830CF0BA
:10B4E000E3FA00287BD041F0200177E0042B0AD159
:10B4F00021F0070189B2204621830CF0D5FA10B162
:10B5000041F020012183218B01F0070AAA4550D088
:10B510000027B946AAE7236921F0070141F0060197
:10B52000062DD3F8009021832DD1B9F1000F40D022
:10B5300041F00801218388F31188BFF36F8F204603
:10B540003949C84729E021F00701236941F0040186
:10B5500089B2042DD3F804902183E6D000274FF060
:10B56000040A3E4682E721F00701236941F0050104
:10B5700089B2052DD3F808902183D6D000274FF04B
:10B58000050A3E4672E700274FF0060A3E466DE781
:10B590002B4687E7B9F1000FD1D14FF02003EFF32D
:10B5A000118883F31288BFF36F8F238B23F0080376
:10B5B0002383258BEA062ED525F01003238305F07F
:10B5C00007056669218B002EBFF66FAF0023276841
:10B5D000C4E9003321F0070141F001012183218BEF
:10B5E0004FF0000901F0070AAA457FF43FAF002F92
:10B5F0009BD041F00801218388F31188BFF36F8F3E
:10B60000002FC7D03D6839463346524620460CF0DD
:10B6100077FA2F46F4E7AB067FF51AAF25F0200343
:10B62000238305F00705FFE62D7B0100F0B50246F8
:10B6300001680A270020074E0B461C780131355D52
:10B640006D0701D41360F0BD07FB0043A3F1300088
:10B65000F2E700BF2DE001002DE9F84F15469A46AC
:10B66000D378224A6F2B12F803B080460F460BF0B6
:10B67000030B29D024D8582B0CBF10260A26DDF83E
:10B6800028903246002340463946FDF77BF9092AC7
:10B69000D4B21ED83034B045E4B277F1000709F8CF
:10B6A000014D01D3D14511D82B789B0605D5082E25
:10B6B00015D1AB7843F00803AB704846BDE8F88F6E
:10B6C00003F0F703702BD7E70826D8E780460F462C
:10B6D000D7E7BBF1010F0CBF37345734DBE7102E2F
:10B6E000EBD1AB7843F01003E6E700BF2DE001009B
:10B6F0004FF02002EFF3118382F31288BFF36F8FB4
:10B700000121044AC2F8401583F31188BFF36F8FFB
:10B71000002070470090034020B1034B800143F0AC
:10B7200001031847704700BFF0B6010005F0C0BC28
:10B730002DE9F84F81462F480F460CF0FBFA0646DC
:10B7400070B92D4C0546A0464FF0010BDFF8ACA0B8
:10B75000544507D3B9F1000F02D04FF0010AE5B903
:10B76000BDE8F88F237B73B12368DB680BB12046FB
:10B77000984723681B6943B9636804222046196807
:10B7800000F0C4F801361034E2E72046984700285C
:10B79000F2D00BFA06F31D43F4E7A94695FAA5F497
:10B7A000B4FA84F40AFA04F3260108EB04146FEAED
:10B7B000030B25EA0305237B63B158F806301B69A8
:10B7C00093B94644736804222046196809EA0B09B4
:10B7D00000F09CF8002DE1D127B14FF4A4700021B6
:10B7E00009F07CFB4D46BAE7204698470028F1D186
:10B7F000E7E700BF04D00020A4B60100B4B6010002
:10B80000014B53F820007047F0B7010008B503461C
:10B8100008462BB1044A136000F07CFA002008BDF2
:10B820006FF01500FBE700BFB4C500200023054AF8
:10B830004FF400411370044A04481360044A136033
:10B84000FFF7E4BF40D70020FCCF0020317D01008E
:10B8500000D0002070B50B4D297841B90120FFF7C9
:10B8600067FF094C094EB44202D301232B7070BD0F
:10B8700063685B791BB1236820469B689847103446
:10B88000F1E700BF40D70020A4B60100B4B6010024
:10B8900010B5044606480CF04DFA3CB1054BD3E810
:10B8A000EF1F0139C3E8E21F002AF8D110BD00BF25
:10B8B000FCCF002000D0002070B50A4B05461B6865
:10B8C0009847094C094EA860B44200D370BD636824
:10B8D0005B7923B12368294620461B6898471034BA
:10B8E000F2E700BFB4C50020A4B60100B4B6010061
:10B8F000044A054B9B1AB1EBD30F34BF52F8310009
:10B9000000207047B4B50100A4B60100084B10B484
:10B91000C31A44681B110133237143689A710122D1
:10B920004368196043685A715DF8044B0CF020BA03
:10B93000A4B601002DE9F04F85B002AF0446D7E967
:10B940000EA90E46934698463D6BBAF1000F33D0D0
:10B95000C7F80490CDF800901021534600207A6B70
:10B96000FFF70EFB0146154A04F007040BF0070B26
:10B97000E40044EA8B1402EA4122144344EA0554E9
:10B9800017350D4425F00705ADEB050D02ADBAF1F5
:10B99000000F07D0CDF8009053467A6B05F11000E8
:10B9A000FFF7EEFA43462246314628460CF0E3F90B
:10B9B0000C37BD46BDE8F08F5146D4E700FE0F00BE
:10B9C0000EB403B503AB53F8042B014604480193AE
:10B9D0000CF013FA02B05DF804EB03B0704700BF3F
:10B9E000A97D0100CA0605D48B064CBF0249034954
:10B9F000FFF7E6BF704700BF7EDD01007DDD01007F
:10BA00002DE9F04F8BB09A46DDE915739DF850B0E3
:10BA10000693179B04460D46189E08920593BBF1AA
:10BA2000000F00F0858006F00103099306F008037B
:10BA300007930CF09EF906F002090246002847D051
:10BA400020468449FFF7BCFF8046B9F1000F08D0BB
:10BA500016F0440F3ED12A4620467F49FFF7B0FF3B
:10BA60008044099B53B17D4B204653F82B207C4BDF
:10BA70007C49002A08BF1A46FFF7A2FF079B002B4C
:10BA800054D0794B204653F82B207849FFF798FF84
:10BA90000546089B2BB11A4620467549FFF790FFD3
:10BAA0000544BAF1000F05D0524620467149FFF710
:10BAB00087FF05444544002F48D1059B002B4ED1FC
:10BAC000F30700F1C08031462046FFF78BFFB4E05A
:10BAD0008046BAE7684B18680028C1D0674B4FF41E
:10BAE0007A791B684FF46161B5FBF3F5B5FBF0F3B0
:10BAF00000FB135509FB05F5B3FBF1F2B5FBF0FEB6
:10BB00004FF03C0C01FB123100FB1E55B1FBFCF366
:10BB100009FB05F5B5FBF0F50CFB13112046009170
:10BB2000CDE901E55649FFF74BFF99E7079DB0E7DF
:10BB3000BAF1010F06D1002F65D1059B002B7CD0F7
:10BB400000250CE0002FF8D04E485DE04E483B4603
:10BB500022464E490BF085FD059B002B69D0DFF88E
:10BB60004081DFF84091059F3146102F204628BFC5
:10BB700010274FF0000AFFF735FF554546DC069BBE
:10BB8000494620461A78FFF71BFF4FF0010A1AF0CA
:10BB9000070F03D141462046FFF712FF57453CD916
:10BBA000069B4946204613F80A20FFF709FF0AF1D1
:10BBB000010ABAF1100FEAD14FF0000A20463449C9
:10BBC000FFF7FEFE5246069B20469A5C314B995C7D
:10BBD00011F0970F08BF2E222F49FFF7F1FE0AF14F
:10BBE000010ABAF1100F1DD01AF0070F03D1414618
:10BBF0002046FFF7E5FE57455246E4D84146204629
:10BC0000FFF7DEFEEBE720485D46A0E74146204611
:10BC1000FFF7D6FE0AF1010AAFE720461F49FFF7FA
:10BC2000CFFEC4E7069B3B440693059BDB1B0593B5
:10BC300099D1BBF1000F7FF443AF20460BB0BDE8B4
:10BC4000F04F0CF0E1B82046054A0649FFF7B8FE70
:10BC500039E700BF71C2010075C2010000B80100E0
:10BC60006CC20100A7CF010014B801009AC2010004
:10BC7000A0C20100A4C201000CD0002008D0002006
:10BC80007EC20100C57D0100A97D0100FB7D010090
:10BC9000B3C201002DE00100D5D00100AFC2010008
:10BCA000B1C20100A9C201002DE9F0410F884B6823
:10BCB00005460C4690468E6886B0C7F382175BB186
:10BCC000134A9B1A43F3CF0100291FDB2078C0F3EE
:10BCD000C200FFF70DFE0346214651F8102B608885
:10BCE000C2F34A22002A01EB020408BF0021C0F37C
:10BCF0000B10CDE90308CDE9011400223146284696
:10BD00000097FFF77DFE06B0BDE8F0810023E3E772
:10BD1000B4B5010000210123064A904206D8064A24
:10BD200001B901231360054B1860704701214008D9
:10BD30005B00F2E740420F0008D000200CD000204A
:10BD4000014B00201960704724D0002007B50B4834
:10BD50000DF107010CF066F830B99DF807100129C4
:10BD600002D1064800F018FA0122054B05481A7066
:10BD70000CF04AF803B05DF804FB00BF44B30100C7
:10BD800042D7002044B8010010B5064B0C46186895
:10BD9000FFF736FD2146BDE8104003460F2202485A
:10BDA000184700BF24D0002044B80100F8B50D4664
:10BDB0000446064F4618B44201D12846F8BD14F88F
:10BDC000011BBB6801485B689847F4E744B3010076
:10BDD0002DE9F84305464FF02003EFF3118683F376
:10BDE0001288BFF36F8F4FF00C090D4B0D4F1C687D
:10BDF000DFF834802CB986F31188BFF36F8FBDE86C
:10BE0000F883D4E90123002D18BF13462BB198F80D
:10BE1000102009FB02F2B85C98472468EAE700BFEB
:10BE200044D0002038D00020E8D6002070B5084D5E
:10BE3000084E2C68013C002C02DA00232B6070BDF8
:10BE400056F82400012100F0A7F9013CF3E700BFF8
:10BE500028D000201CC900207FB50BAB05930393AD
:10BE6000054B0122029300231846CDE90033FFF76A
:10BE700061FD07B05DF804FBEFC20100012270B55F
:10BE8000164B1C7C04F01F039A40D043144B6109ED
:10BE900003EB8103D3E8EF1F01EA0005C3E8E65F87
:10BEA000002EF7D10A4213D00E4B0F4D8BB10C234D
:10BEB0006343EA185178E85C0BF032FF0020FFF78B
:10BEC00087FF0C235C4300232A192B51C2E901335D
:10BED00070BD83F31188BFF36F8FEFE7E8D60020C2
:10BEE0004CD00020217D010038D000202DE9F04FFA
:10BEF0006E4B06461D7C89B04FF02003EFF311888E
:10BF000083F31288BFF36F8F0C246C43684B694F27
:10BF1000195D1A19002970D007CA07EB040C8CE8C8
:10BF2000070000221A5588F31188BFF36F8F0C2386
:10BF30006B43FA18FB5C002B00F0A980731C10D037
:10BF40004FF400400021D2F808C05B4C0023ECFB0A
:10BF500000415A4A2046FCF715FD0121301A01F034
:10BF6000EFFFDFF87081D8E8EF4F013CC8E8E34FFE
:10BF7000002BF8D1C2469CB90C236B43FB5C012B10
:10BF80000ED007A808F018F81C235843DFF848B172
:10BF90001C38CBF80040079C0444079B9C4237D2D6
:10BFA00008F0E2FE0120FFF713FF454B6A0903EB9F
:10BFB0008203012205F01F018A40D3E8EF0F1043EE
:10BFC000C3E8E10F0029F8D13E4B33B10C235D43A8
:10BFD0007B195978785D0BF097FEDAE8EF3F5A1C31
:10BFE000CAE8E12F0029F8D10BB9FFF71FFFFFF7CF
:10BFF00045FF08F0CDFE01204AE00146284600F04A
:10C000006DF800288FD007C83C4484E807008AE711
:10C0100020460DF0EDFE002845D020460BF00BFF2A
:10C02000002840D120460BF016FF00283BD12046C7
:10C030000BF009FF0646B0BB0146204600F0ACF805
:10C0400020F02003783381462DD010F1860F2AD0BE
:10C05000002820DA0120246800F092F81A4B01220F
:10C06000CDE90409CDE9016330463346174903940D
:10C070000096FFF7F1FEFFF7D9FE0C236B43FE5449
:10C08000D8E8EF3F0133C8E8E23F002AF8D10020AA
:10C0900009B0BDE8F08FDBF800300D4A42F82340CC
:10C0A0000133CBF800301C3C77E700BFE8D6002016
:10C0B0002CD0002038D000203F420F0040420F001B
:10C0C0004CD00020097D0100EFC2010084B60100C0
:10C0D0001CC90020B8C5002028D000202DE9F04F51
:10C0E00085B00E4603A900F043F84FF4004704461C
:10C0F0004FF0000B1B4B039DD3F800A0431E1BB257
:10C1000003EB4303DFF8648005EB830524B9A14604
:10C11000484605B0BDE8F08FC4465946686800231C
:10C12000E0FB07C1104A6046FCF72CFCC4465946A8
:10C130000190A8680023E0FB07C10B4A6046FCF7AA
:10C1400021FCBAF1FF3FA94601D0824505D9731CF5
:10C15000DED0019B1844B042DAD9013CA4B20C3DB8
:10C16000D4E700BFBCC5002040420F003F420F0093
:10C1700008B9024B0B600020704700BF54B80100A3
:10C1800003289ABF024B53F820000248704700BFB3
:10C1900054B801007FDD010070B5846903460D4687
:10C1A0008CB30BF058FE88BB1D48227A465CB24225
:10C1B0002FD01C48405C90422ED11846E268904730
:10C1C000002811DA022D0DD0032D0CD110F1860FAD
:10C1D00008D0231DD3E8EF1F41F00201C3E8E21F9E
:10C1E000002AF7D1267270BD022D267201D00020E0
:10C1F000F9E70434D4E8EF3F23F00203C4E8E23F58
:10C20000002AF4D0F6E76FF05700ECE74FF0FF306C
:10C21000E9E76FF07700E6E76FF08500E3E700BF3E
:10C220003BC3010037C301002DE9F04105460E462E
:10C230001746104CDFF84080444507D30BF0DAFE78
:10C240006A2303604FF0FF30BDE8F0812368AB4202
:10C2500000D063B93A4631462846A368984730B1C2
:10C260003A4631462846E368BDE8F04118471034A5
:10C27000E2E700BFA4B50100B4B50100014B1860AE
:10C28000704700BF50D00020014910220A6070475B
:10C2900010ED00E072B6404080F31188BFF36F8F5D
:10C2A000BFF34F8F30BF62B6BFF36F8F704700BFD1
:10C2B00072B6494081F31188BFF34F8F20BF80F3DE
:10C2C000118862B6704700BF2DE9F04780460D46E1
:10C2D0008CB0002977D000248B68012205934B682D
:10C2E000204604930B683B4903933B4BCDE9004444
:10C2F000029323460BF0B7FD6B69012205932B696E
:10C3000020460493EB6833490393344B0094CDE902
:10C31000014323460BF0A7FDEB6901220393304B49
:10C320002046CDE901432B49234600940BF09BFDA9
:10C330002F462646DFF8B490DFF898A0D7ED0B7AA9
:10C34000FCEEE77AE31C0993CDED0A7AD7ED0A7A81
:10C35000FCEEE77AA31C0793CDED087AD7ED097AB6
:10C36000FCEEE77A631C0593CDED067AD7ED087AEB
:10C370000023FCEEE77ACDE90294CDED047A0122A8
:10C3800051461846CDE9006604340BF06CFD102CC4
:10C3900007F11007D2D12B6E01220393114B0D49E7
:10C3A000CDE901630023009618460BF05CFDAB69F4
:10C3B000012203930C4B0749CDE90163002300964A
:10C3C00018460BF050FD294640460CB0BDE8F0473A
:10C3D00007F006BE7CB60100C1C30100F0C3010036
:10C3E0001FC4010071C4010080C401002EC40100FB
:10C3F00040B2002807DB01234109034A00F01F0077
:10C40000834042F82130704700E100E0054B4209CB
:10C4100053F82220012300F01F0003FA00F010401F
:10C42000704700BF00E100E040B2002801F10101C7
:10C43000ACBF00F16040064B4FEA4111C9B2ABBF3F
:10C4400000F5614000F00F0080F8001319547047A8
:10C4500014ED00E030BFFFF7FDBF00BF144A08B580
:10C46000144B22F07F029A60BFF34F8FBFF36F8FA0
:10C47000D3F8882022F47002C3F88820D3F88820EB
:10C4800042F4A002C3F888204FF04042C3F834229F
:10C49000BFF34F8FBFF36F8F0023E1EE103A07F029
:10C4A00041FE08F0ADFD00F0D1FB07F07BFE00BFC0
:10C4B0000080000000ED00E0094A0A49936809681D
:10C4C0009867D96708494B6843F080534B60002355
:10C4D00083F31188BFF36F8F9368D86F704700BFE5
:10C4E000E8D6002074BD010000ED00E022498A6812
:10C4F00082F8C1E04FF030001044EFF3098C80E87F
:10C50000F01F1EF0100F03D102F1800080EC108AA2
:10C51000202080F31288BFF36F8F184F4FF0006612
:10C52000CA698A603E6092F9C1E0906F0023936708
:10C5300080F311881EF0100F03D00023E1EE103AB3
:10C5400003E002F1800090EC108AEFF3148323F0F3
:10C55000040383F31488BFF36F8F02F1300090E877
:10C56000F01F8CF3098802F1000004B50BF09AFC6F
:10C57000BDE8044070470000E8D6002004ED00E06C
:10C580001EF0040F0CBFEFF30880EFF30980816900
:10C5900011F8021C0229FFD001B50BF074FC01BD9B
:10C5A00042F8203C009B0D4942F81C3C019B21F0C5
:10C5B000010142F8183C029B42F8081C42F8143C66
:10C5C0004FF0807342F8043C002383674FF43C43F0
:10C5D000203A0265C0F8C030704700BF0177010003
:10C5E0000023E1EE103AEFF3148323F0040383F306
:10C5F0001488BFF36F8FBFF36F8F094B9860836E02
:10C6000083F30B88104681F30988002163B681F318
:10C610001188BFF36F8F002200230BF071F800BF69
:10C62000E8D6002001B572B60B4A906900281EBFFB
:10C63000002191610DF085FC62B6EFF30580A0F159
:10C6400010004FEAC0000549014409C99847BDE8F8
:10C650000140034908470000E8D600207CB30100F0
:10C6600065C60000044B9968D869884203D0034925
:10C670004FF080520A607047E8D6002004ED00E0D9
:10C68000F0B50024414B85B00293074623460E4681
:10C6900001222046CDE900443D490BF007FC3D4B0B
:10C6A0009B6ADD066FD53C4B2046CDE90143012254
:10C6B0002346374900940BF0F9FB1120354B9B6A58
:10C6C0001C070AD5354B0122029300233049184636
:10C6D000CDE900330BF0EAFB12202E4DAB6A99072F
:10C6E0001FD500242E4B0122029320462346CDE97C
:10C6F000004427490BF0DAFB6B6BAA6A12060FD5D0
:10C700000393284B0122CDE90143204623462049CB
:10C7100000940BF0CBFB1FB1AB6A23F08003AB623C
:10C7200013201C4B9B6ADD070AD51F4B0122029385
:10C73000002317491846CDE900330BF0B7FB14204E
:10C74000144B9B6A9C060AD5184B012202930023C6
:10C750000F491846CDE900330BF0A8FB15200D4B0F
:10C760009A6AD10658BF9A6A9A6A920642BF5A6A72
:10C7700022F400525A629A6A42F0FF029A6200233F
:10C78000337005B0F0BD102098E700BFAEC40100C3
:10C790007CB6010000ED00E0C4C40100F7C4010054
:10C7A0000AC5010022C5010038C5010057C50100B6
:10C7B000F0B50024434B85B00293074623460E464E
:10C7C00001222046CDE900443F490BF06FFB3F4B6F
:10C7D0009B6ADB0465D53E4B2046CDE9014301222F
:10C7E0002346394900940BF061FB1720374B9B6AB5
:10C7F0001D050AD5374B0122029300233249184602
:10C80000CDE900330BF052FB1820304DAB6A9C058C
:10C810001FD50024304B012220460293CDE900446D
:10C82000234629490BF042FBAB6BAA6A10040FD5D3
:10C8300003932A4B0122CDE9014320462346224996
:10C8400000940BF033FB1FB1AB6A23F40043AB62DF
:10C8500019201E4B9B6A59050AD5214B01220293D0
:10C86000002319491846CDE900330BF01FFB1A20AD
:10C87000164A936A13F4807315D01A4B012202935F
:10C88000002311491846CDE900330BF00FFB1B20A4
:10C890000E4A936A43F47F4393620023337005B0DA
:10C8A000F0BD1620A2E7926A9204F1D50E4A18460E
:10C8B000CDE901320449012200930BF0F7FA1C2064
:10C8C000E6E700BF86C501007CB6010000ED00E090
:10C8D0009CC50100F7C40100ADC50100C6C501003B
:10C8E000DBC50100F6C5010057C501001FB50024D6
:10C8F0003E4B3F490293012223462046CDE90044A6
:10C900000BF0D4FA3B4B9B6A99016DD53A4B20460C
:10C91000CDE9014301222346354900940BF0C6FAC4
:10C920001E20344B9B6ADA010AD5344B0122029354
:10C9300000232F491846CDE900330BF0B7FA1F202A
:10C940002C4B9B6ADB020AD52D4B0122029300235C
:10C9500027491846CDE900330BF0A8FA0220254BF1
:10C960009B6A1C030AD5274B01220293002320490E
:10C970001846CDE900330BF099FA21201D4B9B6A34
:10C9800059030AD5204B0122029300231849184667
:10C99000CDE900330BF08AFA2220164B9B6A9A03EA
:10C9A0000AD51A4B01220293002311491846CDE9FA
:10C9B00000330BF07BFA23200E4B9B6ADB030AD576
:10C9C000134B01220293002309491846CDE9003395
:10C9D0000BF06CFA2420074A936A6FEA03436FEA6C
:10C9E0001343936204B010BD1D209AE70EC60100E8
:10C9F0007CB6010000ED00E026C6010039C601004A
:10CA000053C601007DC601009BC60100C0C60100DF
:10CA1000DAC601002DE9F043754B0546D3F80480D2
:10CA2000894614460026A3B0C8F3080786F3118888
:10CA3000BFF36F8F02F07F43B3F17F4F25D112F028
:10CA4000010322D1510603D422070DD401260DE0A3
:10CA5000684A1846CDE901326749012200930BF07C
:10CA600025FA14F0040400D04D4600264FF00009CA
:10CA7000FB1E8DF81F90092B00F2A080DFE803F069
:10CA8000079498909E9E9E9E9E9C3546EEE75B4B3B
:10CA90000122CDE90193002357491846544FCDF8A0
:10CAA00000900BF003FA8DF81F90FC6A14F002045A
:10CAB00005D0534BCDE90193CDF8009006E0FB6A19
:10CAC000002B0BDA4F4B0094CDE9014300230122E8
:10CAD000184649490BF0EAF9002430E0FB6A5B0094
:10CAE000FAD5494B0122CDE901432046234642496C
:10CAF00000940BF0DBF97B69AA6943F480737B61D6
:10CB0000BFF34F8FBFF36F8F7B6932F8022C23F492
:10CB100080737B61BFF34F8FBFF36F8F4DF602734E
:10CB20009A4226D12B6820460393384B0094CDE9D6
:10CB300001430122234630490BF0B8F92C689DF8D7
:10CB40001F309BB96822294608A80DF0CBFD0F9B2A
:10CB5000002E47D0C3F3080222B96FEA53236FEACD
:10CB600043230F93204608A9FFF7AEFB23B0BDE88F
:10CB7000F083BB6ADBB22BB101200DF11F01FFF77F
:10CB80007FFD0FE0BB6A13F47F4F05D001200DF14C
:10CB90001F01FFF70DFE05E0BB6AB3F5803F9BD395
:10CBA000FFF7A4FE0446CAE700200DF11F01E6E7E7
:10CBB00000200DF11F01ECE7154B7BE7154A18F437
:10CBC000F87F154B18BF1346103FCDE90337134BC1
:10CBD00001220293002308491846CDE900330BF0E7
:10CBE00065F979E723F4FF7323F00103B9E700BF88
:10CBF00000ED00E033C701007CB6010056C701001C
:10CC00006DC701008EC701009CC70100BBC70100B2
:10CC1000D7C701001AC7010005C70100FBC7010003
:10CC2000044B5A6942F010025A615A6942F4806218
:10CC30005A61704700ED00E0EFF30880EFF30981DF
:10CC400001B57246FFF7E6FE01BD00BF00232021BB
:10CC50000348C2180133412B82F80013F9D1704701
:10CC600000E100E0002080F31488BFF36F8F002004
:10CC700080F30A8880F30B88FEF758FD00200E49E8
:10CC80000860BFF34F8F0D4880F3088800F03EF82E
:10CC9000202080F311880A484FF40061401880F387
:10CCA0000988EFF314800221084380F31488BFF34E
:10CCB0006F8FFFF7D3FB000094ED00E0F00A012036
:10CCC000B0F10020BFF34F8F0549064BCA6802F44C
:10CCD000E0621343CB60BFF34F8F00BFFDE700BF9F
:10CCE00000ED00E00400FA05002318460649D1F8DB
:10CCF0009020C2F30722934200DB7047C1F89830BE
:10CD0000C1F8A0000133F6E700ED00E010B572B6FF
:10CD1000002484F31388FFF7E7FF23464FF0FF302A
:10CD20000C4A03F120010133102B42F82100F8D105
:10CD300000234FF0FF30074A03F160010133102B4D
:10CD400042F82100F8D162B6BFF34F8FBFF36F8F67
:10CD500010BD00BF00E100E0084B9B6883420BD18F
:10CD6000EFF3058343B1064B5A6842F080525A6094
:10CD70005A6A22F400425A6208F0D0B8E8D600207D
:10CD800000ED00E01FB5094C094A2346012109487E
:10CD900000F018F900230393074B0121E41A01A8BE
:10CDA0000193029400F018F904B010BD00000420B3
:10CDB00080C5002064B80100B0CA002010B50C7A0C
:10CDC0000B6804F01F0223F01F031A43CB686409A9
:10CDD00023F01F03054943EA440343F00103C1F86C
:10CDE0009800C1F89C20C1F8A03010BD00ED00E013
:10CDF0000F281FB504460FD9094B03900293002357
:10CE000001221846CDE9003306490BF096F86FF081
:10CE10001504204604B010BDFFF7D0FFF9E700BFAE
:10CE200012C801002CB601002DE9F04F89461446C6
:10CE300006464FF00008544D89B0C8452DDAD6F8A3
:10CE400004A0BAF1000F4AD0BAF11F0F17D91AF097
:10CE50001F0F14D1D6F800B01BF01F0F0FD158468A
:10CE60000BF062F807460AEB0B0001380BF05CF898
:10CE7000874216D06FF01507444B039702E0444BEE
:10CE8000CDF80C800293002301221846CDE900332F
:10CE900040490BF052F86FF01504204609B0BDE888
:10CEA000F08F17F1160FE7D0BC42E5DDC5F898709A
:10CEB000D5F89C10C5F89870D5F8A03021F01F0166
:10CEC00043F01F0BD6E900321A44994202F1FF3AAF
:10CED0001DD1D34507D13146F8B20BF03EF808F129
:10CEE00001080C36A9E73146C5F89870D5F89C3092
:10CEF00022F01F0203F01F031343C5F89C30E0B279
:10CF00000BF02BF810F1160FC5D0441CE7E7C5F85D
:10CF10009870D5F8A020013B23F01F0302F01F02F8
:10CF20001343D3453146E0B2C5F8A030E8D00BF04A
:10CF300014F810F1160FAED0C5F89870D5F89C20F3
:10CF40009DF818300BF1FF3B62F304038DF81830A5
:10CF5000D5F8A0309DF818205B0863F347128DF8D0
:10CF60001820D6E900321344049323F01F035B44D6
:10CF7000A3EB0A03013023F01F0304A9C0B20793F7
:10CF8000FFF736FFBEE700BF00ED00E05BC8010021
:10CF900038C801002CB601000522044BC3F89420C8
:10CFA000BFF34F8FBFF36F8F704700BF00ED00E0FE
:10CFB000BFF35F8F0022024BC3F89420704700BF7D
:10CFC00000ED00E010B5034C2278FFF72DFF207034
:10CFD00010BD00BF43D700202DE9F74F294D8A46E9
:10CFE00006464FF00008AB46274FD0451BDAD6F86F
:10CFF0000490B9F1000F3FD03168084601910AF062
:10D0000093FF0199044609EB010001380AF08CFFF7
:10D0100084424FF014021D4B08D002FB08F36FF05E
:10D0200015024BF8032003B0BDE8F08F14F1160F82
:10D030002C60F8D01978A142F5DD02FB08B0C7F8E2
:10D040009840C7F89840D7F89C4000F10801007B51
:10D0500064F304000871D7F8A0000C79400860F36D
:10D0600047140C71D7F89C1021F01F016960D7F8A4
:10D07000A01021F01F01296108F1010814350C36B8
:10D08000B3E700BF54D0002000ED00E043D70020FC
:10D0900038B50E4D2C68102C15D80020FFF788FFEE
:10D0A0000B4B0C4AC3F8C020844205D10A4B002028
:10D0B0001C70FFF771FF38BD696801EB0011FFF7C5
:10D0C0007DFE0130F0E74FF0FF30F4E770B801006B
:10D0D00000ED00E0AAFF440043D70020014B186098
:10D0E000704700BFC4C50020F8B506460D460024B1
:10D0F000064FAC4208DA3B6898470A28305504F1DD
:10D10000010401D00D28F4D12046F8BDC0C500208F
:10D11000F8B50D46094F461EC0F10104A3199D4202
:10D1200001DC2846F8BD73780A2B02D10D203B683C
:10D1300098473B6816F8010F9847EFE7C4C50020F1
:10D1400008B505210148FFF7E3FFFEE77EC80100AF
:10D1500010B5074C2368C2180648C0F1005101F50C
:10D1600080218A4236BF22604FF0FF30C01810BDC8
:10D1700068D000201819012002460B46014807F02C
:10D180001BBA00BFD8C90020014807F08FBA00BF02
:10D19000D8C90020F8B54FF0FF304FF0FF31FFF74E
:10D1A000EBFF0C4C0C4EB442274603D3BDE8F840CD
:10D1B000FFF7EABF54F8040B03689D68002DF2D016
:10D1C0002B68002BEFD009210AF09EFF38462B6810
:10D1D0009847E8E774CA002078CA002038B5074CA1
:10D1E000074DAC4200D338BD032120460AF038FF7A
:10D1F00010B920460AF09AFF0434F2E774CA0020FE
:10D2000078CA0020084B70B5C31A0D4607499B1019
:10D2100004465943402206480AF0CCFF2B460146FB
:10D220002046BDE87040184780D00020B76DDBB6BF
:10D23000F0B20100402373B50B4C0093041B0B4666
:10D240000D460A49A41061430646094A09480AF0F6
:10D25000DDFF011E05DA30462B4602B0BDE8704006
:10D26000184702B070BD00BF80D00020B76DDBB69C
:10D2700077820100F0B2010070B50022012104465E
:10D280000520FFF7D1F80F4803F0B2FF0E4B98428C
:10D2900015D103F0BDFF26690C4930460AF055FC54
:10D2A00000280BDB012535642469084904F11C00C2
:10D2B0000AF04BFC002801DB0020E56470BD6FF034
:10D2C0000400FBE705D300000000AD0B98B8010097
:10D2D00001460C2300224B4370B50848C418403364
:10D2E0001844D4E90E56A2630AF051FF2DB132461C
:10D2F0002B46BDE870400248184770BD80D0002022
:10D30000F0B2010010B1012804D07047034B1B6C30
:10D310005B0701D1FFF7DCBF704700BF80D0002062
:10D3200008B54FF02003EFF3118183F31288BFF3A8
:10D330006F8F114A136843F002001060DA0708D4B7
:10D3400081F31188BFF36F8FBDE80840012003F01F
:10D350006FBF0A4BD3F80C24D3F80C34D307EFD5A6
:10D3600007480AF014FF81F31188BFF36F8FBDE8FF
:10D3700008400020FFF7ACBFD0D000200050004094
:10D38000C0D000207FB500220123CDE9022304ABE9
:10D39000CDE90433094A6B46CDF800D0CDF804D06E
:10D3A0000AF062FF002805DB4FF480420023684644
:10D3B00007F012FA07B05DF804FB00BF9782010086
:10D3C00010B54FF02003EFF3118483F31288BFF3FD
:10D3D0006F8F074A136823F00201DB07116002D444
:10D3E00001200BF034FE84F31188BFF36F8F10BD62
:10D3F000D0D000202DE9F041012207463549D1E87F
:10D40000EF3FC1E8E02F0028F9D133B93249334862
:10D410004B60CB608A600AF0ABFB7B1E012B28D8E7
:10D42000012F06D12E4BD3F81C3403F00303022B3B
:10D430001FD00CF079FD0546E8B92A4B1B78D3B113
:10D4400002220646264BC3F80823254CDFF89880B5
:10D45000D4F81834D4F81824D20316D503F00303F3
:10D46000022B01D0012F10D175B386F31188BFF3C1
:10D470006F8FBDE8F0814FF02003EFF3118683F347
:10D480001288BFF36F8F0125DFE7C5B13046FEF785
:10D490000FFFD4F81835DBB2012BD9D1D4F8042111
:10D4A000002AD5D00022C4F80421D4F80421022295
:10D4B000C4F818252022C8F88021A360C8E70021FD
:10D4C000212007F00BFDE4E70222054BC3F80423FB
:10D4D000CFE700BF7CD000206CD000209CD0002083
:10D4E00000500040AEEC002000E100E008B5074825
:10D4F0000CF07EFC38B10648FFF7F0FD0448FDF75C
:10D5000081FF002008BD6FF01200FBE744B301006B
:10D5100015D500000A2838B50446074D04D1AB687C
:10D520000D2128465B689847AB6803485B68E1B209
:10D530009847204638BD00BF44B3010030B540686D
:10D5400001F01F04057BB2F5001F85B044EA4514C5
:10D5500005D1204604F032F9002005B030BD002589
:10D56000B2F5800FCDE9025514D1B3F1007F0CBFA5
:10D57000042305238DF8083000232046194602AA0B
:10D5800003F052FF1C4B984233D10121204604F096
:10D59000D1F8E1E7B3F1C06F20D0B3F1007F14BF41
:10D5A000012302238DF808308368CB40D907E3D4E8
:10D5B000B2F1A07FE0D1114A04F01F03803352F88A
:10D5C0002330DB07D8D40DF107052946204604F0A7
:10D5D0005DF80B4B984203D00395CDE70323E1E7B9
:10D5E000284604F0A1F8044B9842F5D06FF00B00E8
:10D5F000B3E76FF01500B0E70000AD0B00258440E5
:10D600000400AD0B10B504F07FF8044668B904F0CF
:10D6100053F8084B98420AD12146074804F030F8E5
:10D62000224605213120FEF7FFFE002010BD6FF0DD
:10D630000400FBE70000AD0B3DD60000430970B5C8
:10D6400007D10B4B596821B101250C68094E854063
:10D6500001B970BD8A682A4002D030464B689847AD
:10D660001CB1236821461C46F2E72346FAE700BFB7
:10D67000D4D000200CB301002DE9FF41476801F030
:10D680001F053B7B144645EA43150E4628460DF11F
:10D69000030103F0FBFF14F4403F80460BD1284602
:10D6A00004F0B4F83C4B984503D19DF8030004F016
:10D6B00035F800200CE000232846194602AACDE9DF
:10D6C000023303F0B1FE344B984204D06FF01500E2
:10D6D00004B0BDE8F081804503D19DF8030004F05B
:10D6E0001DF8A30349D540F206332340B3F5837FE9
:10D6F00019D00CD8062B17D004D8ABB1022BE5D12A
:10D70000042311E0B3F5807FE0D101230CE040F267
:10D710000222934226D0B3F5407F25D0B3F5007F97
:10D72000D4D1022300E007238DF8043084F4803341
:10D73000C3F30043E0068DF805304CBF0323C4F368
:10D74000401321038DF8063010D501237A68B340C9
:10D7500093600022284601A903F012FF0E4B984265
:10D76000A7D0B3E70523DFE70323DDE7620341BF6B
:10D7700001237A68B340D360EBE7E3064FF0000380
:10D780004CBF0324C4F340141A46284601A98DF85F
:10D79000044003F049FEE1E70000AD0B2DE9F04144
:10D7A00001273F4E00EB8101814202D10020BDE8FC
:10D7B000F081056805F07F03C5F343247F2B4FEA12
:10D7C000154508BF4FF0FF33192D66D8DFE805F087
:10D7D0000D161B1E212D1E6565656531516565653C
:10D7E000656565656565545C5F62C2F80C3503F07C
:10D7F0001F0507FA05F5B560012502E0C2F81435EA
:10D800000025AC461CE0C2F80835F0E7C2F8103538
:10D81000F6E70025C2F8083503F01F0C07FA0CFCE8
:10D82000C6F80CC04FF0010C0AE0C2F80C35012517
:10D83000F2E7C2F80835002CE2D100250624AC46F8
:10D8400050F804EB24020EF40058B8F1000F1CBF8E
:10D850004FF0000C0125CEF3C11E44EA8E0403F004
:10D860001F0344EA0C0444EA4504803346F823408D
:10D870009AE7C2F80C35DEE7C2F860350568C5F3F3
:10D880008035002DD3D0B2E7C2F86435F6E7C2F890
:10D890006835F3E7C2F86C35F0E76FF0850086E78E
:10D8A000002584407FB50BAB05930393054B012204
:10D8B000029300231846CDE90033FEF73BF807B08A
:10D8C0005DF804FB29C90100F0B54B79012B26D086
:10D8D000032B21D110258B79032B1DD1CE790EB1CD
:10D8E000012E19D10A7912B1022A15D10E220B6824
:10D8F0004468B3F5164F276867D02DD8B3F5165F87
:10D9000066D016D8B3F5966F64D00AD8B3F5967F73
:10D9100063D0B3F5167F63D06FF0850054E0002527
:10D92000D9E7B3F5166F5ED0B3F5965FF4D1384BF7
:10D930003CE0B3F5E14F59D007D8B3F5615F57D05C
:10D94000B3F5964FE8D1334B30E047F61224A342AB
:10D95000E2D14FF4000329E0B3F5613F4AD013D878
:10D96000B3F5963F49D009D84DF6C024A34246D01E
:10D97000B3F5614FD0D14FF46B0317E0B3F5E13F3E
:10D98000CAD14FF0EB7311E0B3F5612F3AD008D84C
:10D99000214CA34239D0B3F5E12FBDD14FF0E8635C
:10D9A00004E01E4CA342B7D14FF080530469C7F87E
:10D9B0002435436835431B682A43C3F86C25231D6F
:10D9C00003C983E803000020F0BD4FF41D03EDE719
:10D9D000134BEBE74FF49E23E8E74FF4A033E5E762
:10D9E0004FF41C33E2E74FF41D23DFE70D4BDDE777
:10D9F0000D4BDBE74FF06C73D8E70C4BD6E74FF4D9
:10DA00006503D3E74FF07063D0E74FF08063CDE755
:10DA100000B0130000A04E0090D0030040420F0061
:10DA20000050270000C0750000F03A0000903A0155
:10DA30002DE9FF418046002201210820FEF7F4FC79
:10DA40000820FEF7D5FC0021D8F80470D8F8106043
:10DA50003C68C4F80015C6F80080F8680AF018FEA3
:10DA6000051E1BDB4046311DFFF72EFF0546A8B9FA
:10DA70007B68990723D506F11C0003F04DFC244B6D
:10DA800098420FD0234B2846CDE9015300952B46F1
:10DA900001222149FFF706FF6FF00405284604B074
:10DAA000BDE8F081337F43F00043C4F8A031C4F8EF
:10DAB0008C300123327F9340184AC2F80435082382
:10DAC000C4F800353B7A53B9C4F81031D4F810319A
:10DAD000B369C4F834350123C4F8383523607B6852
