:1080000018E10020D1980000D5F60000A5980000E6
:10801000A5980000A5980000A5980000A59800006C
:108020000000000000000000000000003D9500007E
:10803000A598000000000000DD940000A598000055
:10804000C1950000C1950000C1950000C1950000D8
:10805000C1950000C1950000C1950000C1950000C8
:10806000C1950000C1950000C1950000C1950000B8
:10807000C1950000C1950000C1950000C1950000A8
:10808000C1950000C1950000C1950000C195000098
:10809000C1950000C1950000C1950000C195000088
:1080A000C1950000C1950000C1950000C195000078
:1080B000C1950000C1950000C1950000C195000068
:1080C000C1950000C1950000C1950000C195000058
:1080D000C1950000C1950000C1950000C195000048
:1080E000C1950000C1950000C1950000C195000038
:1080F000C1950000C1950000C1950000C195000028
:10810000C1950000C1950000C1950000C195000017
:10811000C1950000C1950000C1950000C195000007
:10812000C1950000C1950000C1950000C1950000F7
:10813000C1950000C1950000C1950000C1950000E7
:04814000C1950000E5
:1081440053B94AB9002908BF00281CBF4FF0FF31BA
:108154004FF0FF3000F00CB8ADF1080C6DE904CE1F
:1081640000F008F8DDF804E0DDE9022304B070470C
:10817400704700BF2DE9F04786468C460846089EA6
:10818400154674461946002B40F0C1808542B2FA68
:1081940082F245D94AB1C2F1200300FA02FC9540AB
:1081A40094402EFA03F343EA0C0C4FEA154EA8B29E
:1081B400230CBCFBFEF80EFB18CC08FB00F943EAC9
:1081C4000C43994528D9EB1808F1FF3704D2994597
:1081D40002D9A8F102072B44A3EB0903A4B2B3FB11
:1081E400FEFC0EFB1C330CFB00F044EA0344A042EB
:1081F40014D92C190CF1FF3304D2A04202D9ACF1EA
:1082040002032C44241A43EA07401EB1D44000233D
:1082140034607360BDE8F0874746DDE76346F1E705
:1082240092BB431B01214FEA154EAFB2200CB3FBA6
:10823400FEFC0EFB1C330CFB07F840EA0343984595
:1082440061D9EB180CF1FF3004D2984502D9ACF196
:1082540002002B44A3EB0803A4B2B3FBFEFC0EFB09
:108264001C330CFB07F744EA0344A7424DD92C19ED
:108274000CF1FF3304D2A74202D9ACF102032C441F
:10828400E41B43EA0040C0E7C2F120039540944058
:1082940020FA03F12EFA03F34FEA154E9040AFB2E1
:1082A4000343B1FBFEFC0EFB1C10190C0CFB07F87E
:1082B40041EA0041884522D969180CF1FF3004D203
:1082C400884502D9ACF102002944A1EB08019BB214
:1082D400B1FBFEFC0EFB1C110CFB07F743EA014348
:1082E4009F420ED9EB180CF1FF3104D29F4202D900
:1082F400ACF102012B44DB1B41EA004193E76046E9
:10830400E3E76146F7E76046A4E76346B8E78342DC
:1083140006D916B9002108467CE7C6E900E0F9E76A
:10832400B3FA83F78FB9834201D3724508D8BEEB01
:10833400020460EB030301209C461EB9002169E797
:108344003846FAE7C6E9004CF8E7C7F1200CBB4011
:108354000EFA07F522FA0CF42EFA0CF1BA401C437B
:1083640020FA0CF3B8404FEA144901431FFA84FE83
:10837400B3FBF9F809FB18300B0C08FB0EFA43EABF
:1083840000439A4540D9E31808F1FF3004D29A45D6
:1083940002D9A8F102002344A3EB0A0389B2B3FB78
:1083A400F9F809FB183308FB0EFE41EA03418E4538
:1083B4002CD9611808F1FF3304D28E4502D9A8F1F3
:1083C4000203214443EA0040A1EB0E01A0FB029802
:1083D4004145CE46434602D306D14D4504D2013829
:1083E400B9EB020E68EB0403002EA7D0B5EB0E0226
:1083F40061EB030101FA0CFC22FA07F3F9404CEAA1
:108404000303C6E9003199E74046C5E74346D9E787
:10841400034613F8012B002AFBD1181A01387047C0
:1084240001210346084A10681279914002691268D2
:10843400114218BF83F0010313B18368DB68184746
:1084440083681B69FBE700BF80C5002070B5354C0D
:10845400204607F09EFD002861D04FF48031324859
:1084640006F018FE00285AD12369A5681B684FF04E
:10847400A07213F0400F14BF4FF000734FF08063ED
:1084840006212046AE69B047002848D12749284B29
:108494004B6040238B60EB6913B10122204698475F
:1084A400244C206818B107F074FDC0B9206002F0B4
:1084B400CFF8014600B3204806F004FE0120FFF780
:1084C400AFFF00214FF4003005F01AFC0020FFF745
:1084D400A7FF00214FF4003005F012FCEEE72368FB
:1084E400002BE4D04FF40031204606F0D3FD0028E1
:1084F400DDD000232360DAE702F0C6F80120FFF79D
:108504008FFF00214FF4004005F0FAFB0020FFF735
:1085140087FF00214FF4004005F0F2FBEEE7002056
:1085240070BD00BFC40A0100D80D0100F0C80020CE
:10853400C3F0000080C5002024110100014B1B681A
:10854400184700BF88C5002007B50B460021024626
:108554000091034800F076F903B05DF804FB00BF16
:10856400418500002DE9F047058B04462807904615
:1085740011D4022905F0070540F0CD80204606F00D
:1085840082FF78B10138218B042811D8DFE800F08C
:10859400C3106D85950001290CBF45F0100545F009
:1085A4002005258388F31188BFF36F8FBDE8F0871A
:1085B40001F0070AAA4500F0A6800027B9463E4606
:1085C400A368002B00F0BD8041F00801218388F3EB
:1085D4001188BFF36F8FA168002900F0BB800D687C
:1085E400002900F0B780334652462046D1F8048073
:1085F400C047002D76D02B6829461D46F0E701F0D0
:1086040007035A1F012A1BD8002221F00701062B59
:10861400276889B2C4E9002209D13B4603E0628B92
:10862400013262831B68002BF9D141F0020120461C
:10863400218306F028FF00287BD041F0200177E059
:10864400042B0AD121F0070189B22046218306F0C8
:108654001AFF10B141F020012183218B01F0070A98
:10866400AA4550D00027B946AAE7236921F007019B
:1086740041F00601062DD3F8009021832DD1B9F1E4
:10868400000F40D041F00801218388F31188BFF323
:108694006F8F20463949C84729E021F00701236933
:1086A40041F0040189B2042DD3F804902183E6D06B
:1086B40000274FF0040A3E4682E721F007012369B0
:1086C40041F0050189B2052DD3F808902183D6D055
:1086D40000274FF0050A3E4672E700274FF0060ACE
:1086E4003E466DE72B4687E7B9F1000FD1D14FF035
:1086F4002003EFF3118883F31288BFF36F8F238B6A
:1087040023F008032383258BEA062ED525F01003D6
:10871400238305F007056669218B002EBFF66FAF32
:1087240000232768C4E9003321F0070141F0010167
:108734002183218B4FF0000901F0070AAA457FF439
:108744003FAF002F9BD041F00801218388F31188AB
:10875400BFF36F8F002FC7D03D683946334652466A
:10876400204606F0BCFE2F46F4E7AB067FF51AAFB1
:1087740025F02003238305F00705FFE60FF500002D
:10878400F0B5024601680A270020074E0B461C7804
:108794000131355D6D0701D41360F0BD07FB004363
:1087A400A3F13000F2E700BFCF1401002DE9F84F28
:1087B40015469A46D378224A6F2B12F803B08046A6
:1087C4000F460BF0030B29D024D8582B0CBF1026CE
:1087D4000A26DDF828903246002340463946FFF742
:1087E400AFFC092AD4B21ED83034B045E4B277F1D4
:1087F400000709F8014D01D3D14511D82B789B0608
:1088040005D5082E15D1AB7843F00803AB70484664
:10881400BDE8F88F03F0F703702BD7E70826D8E7F5
:1088240080460F46D7E7BBF1010F0CBF37345734EE
:10883400DBE7102EEBD1AB7843F01003E6E700BF83
:10884400CF1401002DE9F04F8A4616461C46002538
:1088540097B00390307808B928464AE3731C25285A
:10886400049307D05146039B98470028C0F24183E4
:108874000135F0E11822002110A807F071FE737889
:10888400252B00F0A380002398469E469C4618465C
:10889400711C0F4611F8012B2B2A00F0C68000F240
:1088A400BD80202A00F0C480232A00F0C4802BB1AC
:1088B4009DF8483043F040038DF84830B8F1000F7C
:1088C40005D09DF8483043F020038DF84830BEF1C0
:1088D400000F05D09DF8483043F010038DF8483060
:1088E400BCF1000F05D09DF8483043F008038DF823
:1088F400483028B19DF8483043F004038DF84830DF
:108904009DF8483003F04401442903D16FF38613E2
:108914008DF848309DF848302A2A43F0800309979F
:108924008DF8483040F08C809DF8493043F00103C5
:108934008DF849307B1C1A782E2A0CBF01210021A6
:108944009DF8492061F341028DF849200CD15A1C4D
:1089540009925A782A2A40F083809DF849200233EC
:1089640042F004028DF849201A786C2A00F0A480A1
:1089740000F28680682A00F08C806A2A00F0A580C4
:108984004C2A00F0AA801A4612F8013B782B049274
:108994008DF84B309DF8492000F217816D2B00F2C1
:1089A400A980692B00F21181572B00F2BE80412B64
:1089B40003D0453B022B00F2088104229DF84A3083
:1089C40062F302038DF84A300123CAE0B21C049218
:1089D4008DF84B309DF84930D90740F1FD8054F8AB
:1089E400048BB8F1000F07DA9DF84820C8F100089D
:1089F40042F004028DF848205A0740F1F68054F8FA
:108A040004BBBBF1000F80F2F5809DF849306FF391
:108A140041038DF849304FF0FF3BEBE02D2A0DD098
:108A2400302A7FF444AF012333E74FF0010C30E7E1
:108A34004FF0010E2DE74FF001082AE7012028E747
:108A440009A8FFF79DFE099BBB423FF474AF9DF854
:108A540048201390C00F60F341028DF848206AE764
:108A640009A8FFF78DFE9DF848301490C3F3400227
:108A740042EAD07262F341038DF84830099B73E7F0
:108A8400742A26D07A2A7FF47EAF06219DF84920E5
:108A94000CE05A78682A9DF8492006D1012161F337
:108AA400C6028DF8492002336DE7022161F3C60244
:108AB4008DF84920013366E75A786C2A9DF84920DD
:108AC40001D10421EBE70321F0E705219DF84920BA
:108AD400ECE707219DF84920E8E7BDF8482022F497
:108AE400F04222F0020242F4804242F00202ADF867
:108AF4004820DFE76E3BD9B201238B4040F282412C
:108B04000B4238D113F0240F52D1DF075DD5032176
:108B14009DF84A3061F302038DF84A3002F078037D
:108B2400A3F14000434243411BE00120A3F158015B
:108B3400C9B200FA01F111F4624F7FF43EAF40F67E
:108B4400010739421DD111F4043F3ED09DF84A304B
:108B540060F3020302F07802402A8DF84A3034D0E0
:108B640000239DF84820C2F340010B4363F3410204
:108B74008DF848202EE702219DF84A3061F3020364
:108B8400E8E702209DF84A1002F0780260F302013F
:108B9400402A8DF84A1002BF9DF8481041F00101A7
:108BA4008DF84810632BDBD1131E18BF0123D8E7BF
:108BB40003219DF84A3012F0780F61F302038DF817
:108BC4004A3014BF01230023CBE79DF8483043F01B
:108BD40001038DF84830C3E79DF94820002AACBF53
:108BE4004FF0FF38DDF84C8006E79F077FF513AFA1
:108BF400DDF850B00023CDE913339DF84A309DF8D9
:108C0400491003F00703012BC1F3C30133D1CB1E79
:108C1400042B04D8DFE803F0214646212100236811
:108C240001294FEAE372CDE910321CD19DF940309D
:108C3400DA17CDE9103204349DF8483013F00307F5
:108C440050D032465146049B039806F0F5FC0028A8
:108C5400C0F24F810544049EFCE554F8043BDA1746
:108C6400CDE91032E8E70229E5D11AB243F3C03363
:108C7400CDE91023DFE7022B24D1CB1E042B04D82B
:108C8400DFE803F018101018180001294FF0000253
:108C940054F8043B14D00229CDE91032CCD19BB254
:108CA4001093C9E7073424F00704F4E80223CDE95C
:108CB4001023C1E754F8043B109300231193BBE73E
:108CC400DBB2CDE7042B08D1073424F00704D4E940
:108CD40000230834CDE91023AEE7032BACD154F8BC
:108CE400043BDDE79DF84B007828B4D862281DD8F2
:108CF40025283FF4B7AD5828ADD1DDE910010DF1B9
:108D04003E03009312AA0AABFFF750FDBBF1000F1C
:108D1400814680F29880B9F1000F9CD00DF13E0697
:108D2400A6EB0903002F50D001334EE06338152819
:108D340091D801A252F820F0BD8D0000218E0000D0
:108D44005B8C00005B8C00005B8C00005B8C000083
:108D5400218E00005B8C00005B8C00005B8C0000AB
:108D64005B8C0000AB8E0000458E00006D8E000011
:108D74005B8C00005B8C0000958D00005B8C000018
:108D8400458E00005B8C00005B8C0000458E00006B
:108D9400BBF1000FDDF840900ADB5946484607F066
:108DA40014FCB9F1000F3FF456AF09EB000676E06E
:108DB4004846FFF72DFBF8E7109B00278DF8283075
:108DC40001230DF129060DF128099DF84A1011F02F
:108DD4001002069200F081800233139A1344059224
:108DE4004A0644BF14995B18B8F1000F40F38E8013
:108DF400A8EB03089DF848305807C3F3800B00F133
:108E04008580590678D53FB151463846039B98472B
:108E140000286EDB5F46013530236EE01E075ABF23
:108E2400C3F300135F012B27DDE91023002BBFF6EA
:108E340064AF524263EB43032D27CDE910235CE773
:108E440000275AE700279DF848100DF13E03A3EBD5
:108E540009036FF386119B458DF848107FF65BAFCD
:108E6400ABEB0303139356E7109880B30DF13E0662
:108E74000AAB0021009612AAFFF798FCBDF84A300D
:108E8400BBF1000F03F0EF0343F4F04343F010038E
:108E94008146ADF84A30D5DA00283FF4DCAE00272D
:108EA400A6EB090391E7109B07293FF6D4AEDFE850
:108EB40001F00C04060C08080C0C1D70CBE61D8098
:108EC400C9E6EA17C3E90052C5E61D60C3E6314EA0
:108ED40007460523A6F1050977E7080748BF0133CC
:108EE4007BE7184607935146039B98470028079B46
:108EF40004DA17B0BDE8F08F2023C3465946002991
:108F04000BF1FF3BEDDC4544D8466D1A37B15146B1
:108F14003846039B98470028EBDB01359DF84A301F
:108F2400DA0601D41B0706D551463020039B984727
:108F34000028DEDB0135069B3BB151469DF84B0012
:108F4400039B98470028D4DB0135059F2F4406E096
:108F540051463020039B98470028CADB01357B1B10
:108F6400002BF5DC33464A465146039806F064FB71
:108F74000028BEDB0544A844A8EB0503002B7FF7BB
:108F84006AAE51462020039B98470028B1DB013587
:108F9400F2E700BF661101004FF02002EFF31183E6
:108FA40082F31288BFF36F8F0121044AC2F840157F
:108FB40083F31188BFF36F8F002070470090034044
:108FC40020B1034B800143F001031847704700BFF1
:108FD400D00D010006F0F2BD2DE9F84305464FF02F
:108FE4002003EFF3118683F31288BFF36F8F4FF0E2
:108FF4000C090D4B0D4F1C68DFF834802CB986F337
:109004001188BFF36F8FBDE8F883D4E90123002DE5
:1090140018BF13462BB198F8102009FB02F2B85C74
:1090240098472468EAE700BF18C900200CC900204B
:1090340078CE002070B5084D084E2C68013C002CF9
:1090440002DA00232B6070BD56F82400012100F0E1
:109054006FF9013CF3E700BFFCC80020AAC600205A
:10906400012270B5164B1C7C04F01F039A40D043B8
:10907400144B610903EB8103D3E8EF1F01EA0005F8
:10908400C3E8E65F002EF7D10A4213D00E4B0F4D12
:109094008BB10C236343EA185178E85C06F0F0FACC
:1090A4000020FFF799FF0C235C4300232A192B515E
:1090B400C2E9013370BD83F31188BFF36F8FEFE70B
:1090C40078CE002020C9002085F600000CC90020BD
:1090D4002DE9F347634B07461D7C4FF02003EFF364
:1090E400118883F31288BFF36F8F0C246C435E4B9B
:1090F4005E4E195D1A1900296FD007CA06EB040CDD
:109104008CE8070000221A5588F31188BFF36F8F8B
:109114000C236B43F218F35C002B00F09E807B1C45
:1091240010D04FF400400021D2F808C0504C002366
:10913400ECFB00414F4A2046FFF702F80121381AA0
:1091440001F04AFA4C4FD7E8EF4F013CC7E8E34F30
:10915400002BF8D1B9469CB90C236B43F35C012B6B
:109164000ED001A803F0BCFE1C235843DFF80CA169
:109174001C38CAF80040019C0444019B9C4237D22D
:1091840004F004FD0120FFF727FF3D4B6A0903EBC0
:109194008203012205F01F018A40D3E8EF0F104338
:1091A400C3E8E10F0029F8D1364B33B10C236B43EC
:1091B400F2185178F05C06F057FAD9E8EF3F5A1CE0
:1091C400C9E8E12F0029F8D10BB9FFF733FFFFF706
:1091D40047FF04F0EFFC012040E00146284600F080
:1091E40055F8002890D007C8344484E807008BE77A
:1091F400204606F0CEFE08B3204606F047FAE8B94A
:10920400204606F053FAC8B9204606F047FA8046CD
:10921400A0B90146204600F08BF820F020037833F3
:109224000CD010F1860F09D0002809DBDAF80030E1
:10923400154A42F823400133CAF800301C3C9CE72D
:10924400FFF7F8FE0C236B4306F80380D7E8EF3FE3
:109254000133C7E8E23F002AF8D1002002B0BDE89C
:10926400F08700BF78CE002000C900200CC9002080
:109274003F420F0040420F008CC50020FCC8002074
:1092840020C900206DF60000AAC600202DE9F04F89
:1092940085B00E4603A900F043F84FF40047044696
:1092A4004FF0000B1B4B039DD3F800A0431E1BB2D1
:1092B40003EB4303DFF8608005EB830524B9A14683
:1092C400484605B0BDE8F08FC44659466868002397
:1092D400E0FB07C1114A6046FEF732FFC446594617
:1092E4000190A8680023E0FB07C10C4A6046FEF722
:1092F40027FFBAF1FF3FA94601D0824505D9731C67
:10930400DED0019B1844B042DAD9013CA4B20C3D32
:10931400D4E700BF90C500203F420F0040420F0039
:1093240008B9024B0B600020704700BFE00D01003C
:1093340070B5846903460D468CB306F0B7F988BB53
:109344001D48227A465CB2422FD01C48405C9042B1
:109354002ED11846E2689047002811DA022D0DD06C
:10936400032D0CD110F1860F08D0231DD3E8EF1F75
:1093740041F00201C3E8E21F002AF7D1267270BD52
:10938400022D267201D00020F9E70434D4E8EF3F1F
:1093940023F00203C4E8E23F002AF4D0F6E76FF0BA
:1093A4005700ECE74FF0FF30E9E76FF07700E6E7AE
:1093B4006FF08500E3E700BF911101008D110100FA
:1093C400014910220A60704710ED00E072B6404077
:1093D40080F31188BFF36F8FBFF34F8F30BF62B636
:1093E400BFF36F8F704700BF72B6494081F3118895
:1093F400BFF34F8F20BF80F3118862B6704700BF60
:1094040040B2002807DB01234109034A00F01F0092
:10941400834042F82130704700E100E0054B4209E7
:1094240053F82220012300F01F0003FA00F010403B
:10943400704700BF00E100E040B2002801F10101E3
:10944400ACBF00F16040064B4FEA4111C9B2ABBF5B
:1094540000F5614000F00F0080F8001319547047C4
:1094640014ED00E030BFFFF7FDBF00BF0B4A08B5A5
:109474000B4B22F07F029A60BFF34F8FBFF36F8FC5
:10948400D3F8882022F47002C3F8882003F07AFD10
:1094940004F0C8FC00F00EFA03F0B4FD00800000F4
:1094A40000ED00E0094A0A4993680968586799671A
:1094B40008494B6843F080534B60002383F31188C1
:1094C400BFF36F8F9368986F704700BF78CE00200A
:1094D400A810010000ED00E015498A6882F87DE0DB
:1094E4004FF030001044EFF3098C80E8F01F202087
:1094F40080F31288BFF36F8F0E4F4FF000668A69B6
:109504008A603E6092F97DE0506F0023536780F3D8
:10951400118802F1300090E8F01F8CF3098802F101
:10952400000004B506F0DBF8BDE804407047000015
:1095340078CE002004ED00E01EF0040F0CBFEFF322
:109544000880EFF30980816911F8021C0229FFD019
:1095540001B506F0B5F801BD42F8203C009B0C496A
:1095640042F81C3C019B21F0010142F8183C029B8B
:1095740042F8081C42F8143C4FF0807342F8043C53
:10958400002343674FF43C43203A0265C3677047A6
:10959400E3F00000084B9860436E83F30B88104699
:1095A40081F30988002163B681F31188BFF36F8FBB
:1095B4000022002305F093FD78CE002001B572B699
:1095C4000B4A506900281EBF0021516106F092FD2C
:1095D40062B6EFF30580A0F110004FEAC000054920
:1095E400014409C99847BDE8014003490847000000
:1095F40078CE0020FC0A010001960000044B996813
:109604009869884203D003494FF080520A6070473A
:1096140078CE002004ED00E0154B9A6A12F0007F2A
:109624009A6A14BF1E201D2012F0807F9A6A18BF08
:109634001F2012F4801F9A6A18BF022012F4002F10
:109644009A6A18BF212012F4802F9A6A18BF222028
:1096540012F4003F9A6A18BF232012F4803F9A6ADA
:1096640018BF24206FEA02426FEA12429A627047DE
:1096740000ED00E010B5194B0246986A9C6A10F49C
:10968400805F14BF1720162014F4006F9C6A18BF63
:109694001820A40509D5986B986A000404D51AB15A
:1096A4009A6A22F400429A6219200C4B9A6A12F4C4
:1096B400806F9A6A18BF1A20D2050CD49B6A13F4DF
:1096C400005F18BF1C20054A936A43F47F439362EA
:1096D40000230B7010BD1B20F5E700BF00ED00E078
:1096E40010B51C4B0246986A9C6A10F0100F14BF08
:1096F4001120102014F0080F9C6A18BF1220A40730
:1097040009D5586B986A000604D51AB19A6A22F0F2
:1097140080029A6213200F4B9A6A12F0010F9A6A20
:1097240018BF142012F0200F9A6A18BF1520D4060F
:1097340058BF9B6A074B9A6A920642BF5A6A22F440
:1097440000525A629A6A42F0FF029A6200230B7036
:1097540010BD00BF00ED00E0F0B54A4B04465B6865
:1097640000258BB0C3F3080385F31188BFF36F8F13
:1097740002F07F40B0F17F4F16D1D60714D45506BE
:1097840003D4100704D4012504E012F0040200D02D
:109794000C4600250022033B8DF80720032B05D837
:1097A400DFE803F02462665F2C46F3E700239DF8AC
:1097B4000720CAB902AE04F1200732462068616866
:1097C400083403C2BC421646F7D1099A002D53D07F
:1097D400C2F3080121B96FEA52226FEA42220992C8
:1097E400184602A905F06AFF0BB0F0BD254BDA6AF2
:1097F4009107DBD4DA6A002AD8DBDA6A5200D5D5BD
:109804005A69A16942F480725A61BFF34F8FBFF362
:109814006F8F5A6931F8021C22F480725A61BFF3C7
:109824004F8FBFF36F8F4DF60272914201D12368BF
:10983400BDE79A6AD2B232B101200DF10701FFF7F8
:109844004FFF0346B3E79A6A12F47F4F05D0012015
:109854000DF10701FFF70EFFF3E79B6AB3F5803FB5
:10986400A4D3FFF7D9FEECE700200DF10701E6E7EA
:1098740000200DF10701EDE722F4FF7222F001024E
:10988400ADE700BF00ED00E0044B5A6942F010025E
:109894005A615A6942F480625A61704700ED00E0EF
:1098A400EFF30880EFF3098101B57246FFF754FF27
:1098B40001BD00BF002320210348C2180133412BFE
:1098C40082F80013F9D1704700E100E0002080F332
:1098D4001488BFF36F8F002080F30A8880F30B880D
:1098E400FFF778FB00200E490860BFF34F8F0D4847
:1098F40080F3088800F03EF8202080F311880A489D
:109904004FF40061401880F30988EFF314800221BA
:10991400084380F31488BFF36F8FFFF7A7FD00009F
:1099240094ED00E018E10020D8D30020BFF34F8F5E
:109934000549064BCA6802F4E0621343CB60BFF3E7
:109944004F8F00BFFDE700BF00ED00E00400FA0503
:10995400002318460649D1F89020C2F30722934207
:1099640000DB7047C1F89830C1F8A0000133F6E776
:1099740000ED00E010B572B6002484F31388FFF7FD
:10998400E7FF23464FF0FF300C4A03F12001013377
:10999400102B42F82100F8D100234FF0FF30074A82
:1099A40003F160010133102B42F82100F8D162B6B3
:1099B400BFF34F8FBFF36F8F10BD00BF00E100E016
:1099C400084B9B6883420BD1EFF3058343B1064BED
:1099D4005A6842F080525A605A6A22F400425A622B
:1099E40004F0AEB978CE002000ED00E01FB5094CBC
:1099F400094A23460121094800F0EAF800230393A9
:109A0400074B0121E41A01A80193029400F0EAF83B
:109A140004B010BD0000042080C50020E00D01004A
:109A240010C7002010B50C7A0B6804F01F0223F055
:109A34001F031A43CB68640923F01F03054943EA53
:109A4400440343F00103C1F89800C1F89C20C1F815
:109A5400A03010BD00ED00E02DE9F04F0F46144694
:109A640006464FF000084E4D85B0B84580F294800C
:109A7400D6F80490B9F1000F36D0B9F11F0F40F2B7
:109A8400898019F01F0F40F08580D6F800A01AF0E5
:109A94001F0F7FD1504605F028FE834609EB0A00CC
:109AA400013805F022FE834574D11BF1160F71D0E5
:109AB4005C456FDDC5F898B0D5F89C10C5F898B032
:109AC400D5F8A03021F01F0143F01F0AD6E9003277
:109AD4001A44994202F1FF391ED1CA4508D13146D0
:109AE4005FFA8BF005F00AFE08F101080C36BCE7BA
:109AF4003146C5F898B0D5F89C3022F01F0203F027
:109B04001F031343C5F89C30E0B205F0F7FD10F1D4
:109B1400160F3FD0441CE7E7C5F898B0D5F8A0204D
:109B2400013B23F01F0302F01F021343CA453146D1
:109B3400E0B2C5F8A030E8D005F0E0FD10F1160F52
:109B440028D0C5F898B0D5F89C209DF808300AF1C3
:109B5400FF3A62F304038DF80830D5F8A0309DF87D
:109B640008205B0863F347128DF80820D6E9003219
:109B74001344009323F01F03411C5344A3EB090334
:109B8400C8B223F01F030F28039303D86946FFF7D5
:109B940049FFBFE76FF01504204605B0BDE8F08F1C
:109BA40000ED00E00522044BC3F89420BFF34F8F6F
:109BB400BFF36F8F704700BF00ED00E0BFF35F8F0E
:109BC4000022024BC3F89420704700BF00ED00E070
:109BD40010B5034C2278FFF73FFF207010BD00BF83
:109BE400C4CE00202DE9F74F294D8A4606464FF092
:109BF4000008AB46274FD0451BDAD6F80490B9F1DC
:109C0400000F3FD031680846019105F06EFD0199BF
:109C1400044609EB0100013805F067FD84424FF06A
:109C240014021D4B08D002FB08F36FF015024BF829
:109C3400032003B0BDE8F08F14F1160F2C60F8D0A8
:109C44001978A142F5DD02FB08B0C7F89840C7F8BF
:109C54009840D7F89C4000F10801007B64F30400AD
:109C64000871D7F8A0000C79400860F347140C7110
:109C7400D7F89C1021F01F016960D7F8A01021F0DB
:109C84001F01296108F1010814350C36B3E700BF40
:109C940024C9002000ED00E0C4CE002038B50E4DEC
:109CA4002C68102C15D80020FFF788FF0B4B0C4AAA
:109CB400C3F8C020844205D10A4B00201C70FFF772
:109CC40071FF38BD696801EB0011FFF7ABFE01308D
:109CD400F0E74FF0FF30F4E7EC0D010000ED00E099
:109CE400AAFF4400C4CE002010B5074C2368C21854
:109CF4000648C0F1005101F580218A4236BF226036
:109D04004FF0FF30C01810BD38C9002018E70020FC
:109D1400084B70B5C31A0D4607499B1004465943B6
:109D24004022064805F02FFD2B4601462046BDE89B
:109D34007040184750C90020B76DDBB6A80A01006F
:109D4400402373B50B4C0093041B0B460D460A4984
:109D5400A41061430646094A094805F041FD011E65
:109D640005DA30462B4602B0BDE87040184702B011
:109D740070BD00BF50C90020B76DDBB651F80000BC
:109D8400A80A010070B50022012104460520FFF74E
:109D940053FB0F4801F0AAFA0E4B984215D101F07B
:109DA400B5FA26690C49304605F0BDFB00280BDBEB
:109DB400012535642469084904F11C0005F0B3FB4E
:109DC400002801DB0020E56470BD6FF00400FBE7B0
:109DD400159E00000000AD0B140E010001460C237B
:109DE40000224B4370B50848C41840331844D4E9E2
:109DF4000E56A26305F0B4FC2DB132462B46BDE8E5
:109E040070400248184770BD50C90020A80A0100DC
:109E140010B1012804D07047034B1B6C5B0701D1C0
:109E2400FFF7DCBF704700BF50C9002008B54FF0F2
:109E34002003EFF3118183F31288BFF36F8F114A6C
:109E4400136843F002001060DA0708D481F3118824
:109E5400BFF36F8FBDE80840012001F06BBA0A4BD5
:109E6400D3F80C24D3F80C34D307EFD5074805F006
:109E740077FC81F31188BFF36F8FBDE808400020A1
:109E8400FFF7ACBFA0C900200050004090C90020DB
:109E94001FB500220123CDE902236B46084ACDF801
:109EA40000D0CDF804D005F0CAFC002805DB4FF43F
:109EB40080420023684603F005FB05B05DF804FB0F
:109EC4006FF8000010B54FF02003EFF3118483F313
:109ED4001288BFF36F8F074A136823F00201DB0770
:109EE400116002D4012005F06DFE84F31188BFF3E4
:109EF4006F8F10BDA0C900202DE9F0410122074653
:109F04003549D1E8EF3FC1E8E02F0028F9D133B952
:109F1400324933484B60CB608A6005F017FB7B1EE7
:109F2400012B28D8012F06D12E4BD3F81C3403F073
:109F34000303022B1FD006F0D2F80546E8B92A4BDA
:109F44001B78D3B102220646264BC3F80823254CBE
:109F5400DFF89880D4F81834D4F81824D20316D52E
:109F640003F00303022B01D0012F10D175B386F344
:109F74001188BFF36F8FBDE8F0814FF02003EFF33A
:109F8400118683F31288BFF36F8F0125DFE7C5B114
:109F94003046FFF729FAD4F81835DBB2012BD9D1B2
:109FA400D4F80421002AD5D00022C4F80421D4F81E
:109FB40004210222C4F818252022C8F88021A360B5
:109FC400C8E70021212003F09BFEE4E70222054BB1
:109FD400C3F80423CFE700BF4CC900203CC90020CC
:109FE4006CC9002000500040D6D2002000E100E0FF
:109FF40030B5406801F01F04057BB2F5001F85B041
:10A0040044EA451405D1204601F052FC002005B075
:10A0140030BD0025B2F5800FCDE9025514D1B3F15E
:10A02400007F0CBF042305238DF80830002320464D
:10A03400194602AA01F072FA1C4B984233D101214D
:10A04400204601F0F1FBE1E7B3F1C06F20D0B3F19A
:10A05400007F14BF012302238DF808308368CB40AE
:10A06400D907E3D4B2F1A07FE0D1114A04F01F0371
:10A07400803352F82330DB07D8D40DF10705294685
:10A08400204601F07DFB0B4B984203D00395CDE7AE
:10A094000323E1E7284601F0C1FB044B9842F5D0C5
:10A0A4006FF00B00B3E76FF01500B0E70000AD0BE5
:10A0B400002584400400AD0B10B501F09FFB04465D
:10A0C40068B901F073FB084B98420AD1214607484E
:10A0D40001F050FB224605213120FFF7ADF90020A5
:10A0E40010BD6FF00400FBE70000AD0BF5A000000D
:10A0F400430970B507D10B4B596821B101250C6890
:10A10400094E854001B970BD8A682A4002D03046A4
:10A114004B6898471CB1236821461C46F2E7234646
:10A12400FAE700BFA4C90020C40A01002DE9FF41D9
:10A13400476801F01F053B7B144645EA43150E466C
:10A1440028460DF1030101F01BFB14F4403F804647
:10A154000BD1284601F0D4FB3C4B984503D19DF824
:10A16400030001F055FB00200CE0002328461946AB
:10A1740002AACDE9023301F0D1F9344B984204D05C
:10A184006FF0150004B0BDE8F081804503D19DF85F
:10A19400030001F03DFBA30349D540F206332340FD
:10A1A400B3F5837F19D00CD8062B17D004D8ABB1E4
:10A1B400022BE5D1042311E0B3F5807FE0D1012324
:10A1C4000CE040F20222934226D0B3F5407F25D022
:10A1D400B3F5007FD4D1022300E007238DF80430C7
:10A1E40084F48033C3F30043E0068DF805304CBF9C
:10A1F4000323C4F3401321038DF8063010D5012343
:10A204007A68B34093600022284601A901F032FA2B
:10A214000E4B9842A7D0B3E70523DFE70323DDE71E
:10A22400620341BF01237A68B340D360EBE7E306DE
:10A234004FF000034CBF0324C4F340141A462846CD
:10A2440001A98DF8044001F069F9E1E70000AD0BC4
:10A254000123834070B5DC430B4AD2E8EF1F01EAC7
:10A264000405C2E8E65F002EF7D14FF48032824045
:10A274000648C0F80823BFF35F8FBFF36F8F0B420C
:10A2840014BF0120002070BDB4C90020005001405B
:10A2940070B40E4922F07F46D1E90034D01AC318B5
:10A2A40044F10004C1E90034A6F50013B3F5400FEE
:10A2B40009D2074B1B681A0A1B069C19054B42F16D
:10A2C4000005C3E9004570BC03F082BE20C700202E
:10A2D400B8C9002028C70020D9B101230D4A834002
:10A2E400D2E8EFCF4CEA030CC2E8E1CF0029F7D162
:10A2F4004FF48033084A8340C2F80433074BD3E851
:10A30400AF3FC340DB0742BF4FF40012044BC3F816
:10A3140000217047B4C9002000500140B0C900209A
:10A3240000E100E00D4B1868010A0006BFF35F8FDF
:10A334000B4BD3F80435181841F10001B3F5801F15
:10A344000AD2084BD3E90023904271EB030303D2F2
:10A3540010F1807041F10001704700BFB8C90020BE
:10A364000050014028C700202DE9F74F16461F462C
:10A374000446FFF76DFF0090FFF7D4FFB04271EB86
:10A38400070350D2384B301A67EB0101984271F140
:10A39400000165D2354B03EB0413D3E902239F423A
:10A3A40008BF964249D04FF48039314909FA04F97B
:10A3B400204626F07F4BC1F8489305F0B9FA4FF0D8
:10A3C400030A584604F15005AD00ADB205F18045CD
:10A3D40004F5A873274A05F5A8350193DDF804C0F0
:10A3E40020F07F4341F82C30C1F84493D1F8048520
:10A3F400A0EB0800033820F07F4090421DD9286864
:10A4040060B1D1F80485A8EB0B0020F07F40B0F5D3
:10A41400000F12D9204605F08BFA164A0AEB080001
:10A424000AF1010ADAE70123134AA340D2E8EF0F45
:10A434001843C2E8E10F0029F8D100250B490C9814
:10A44400230101EB0412C850C2E902670D9B53605B
:10A4540020460099FFF740FF284603B0BDE8F08F7F
:10A464006FF01505F4E700BF0100800010C700205D
:10A4740000500140FDFF7F00B0C9002073B50025E6
:10A484004FF0FF304FF0FF31184C194B0226C4F83F
:10A494000833C4F84833174BC4F80855C3E902011C
:10A4A4004FF480334FF40012C4F80433124B0121EB
:10A4B400C4F804631520C3F880212A46FEF7BCFFC4
:10A4C4001520FEF79DFF01230C4AA360236013604F
:10A4D4000B4B0C4A0093284600230195FFF744FFD9
:10A4E4003046FFF709FD284602B070BD0050014018
:10A4F40003000F0010C7002000E100E0B4C90020F1
:10A5040095A20000FFFF7F002DE9F7432E4BD3F8FF
:10A51400042390070BD5D3F8042142B10022C3F8D9
:10A5240004212A4AD3F80431136801331360264AFC
:10A53400D2F80433D90327D5254BD3E8EF1F21F0F4
:10A544000100C3E8E40F002CF7D1CB0702D4D2F802
:10A554004031CBB100251C4CC4F84051D4F84031F3
:10A56400FFF7E0FE4FF02003EFF3118283F312882C
:10A57400BFF36F8F174BD3E90267B042B94106D2DC
:10A5840082F31188BFF36F8F03B0BDE8F0834FF0FF
:10A59400FF38D3E900104FF0FF391D60C3E9028989
:10A5A4004FF48033C4F84833C4F84051D4F84031F0
:10A5B40082F31188BFF36F8F0029E5D000903246F3
:10A5C4003B4628468847DFE700500140B8C90020D1
:10A5D400B0C9002010C70020431C13B521D00128A6
:10A5E40021DD124A124B9042D4BF04461C46FFF7A9
:10A5F40099FE104B0E49D3E90023801AB0F5000FE1
:10A6040028BF002404448C4228BF0C4600200A4979
:10A61400A2180190009143F10003FFF7A5FE02B0D8
:10A6240010BD034CE3E70124E1E700BFFEFF7F0018
:10A63400FFFF7F0020C7002095A2000008B5FFF7A8
:10A6440071FE024B1B68C01A08BD00BF20C7002062
:10A6540070B5002201212A20FEF7EEFE074802F021
:10A66400E9FA0546064C074EB44201D3284670BDAC
:10A67400D4E90031284698470834F5E7880E0100EC
:10A684001C1601002416010037B50E4C0E4DAC42C9
:10A6940012D30E490E480DF1060201F0A7FE01285F
:10A6A40005D1BDF8063013B10A4801F053FE02F09B
:10A6B40007FB002003B030BDD4E9003098470834CC
:10A6C400E5E700BF2416010024160100D51101009E
:10A6D400E0110100E9110100F0B50F4B01461A68C1
:10A6E4000E4B0B25002618461F46B84201D3013DE8
:10A6F40004D11846013A19605A60F0BD04688C42CE
:10A70400FBD03CB14468141BA642BCBF034626469A
:10A714000830EAE70346ECE72CCA002038CA0020D8
:10A724000020054BC3E90000044BD3E8EF2FC3E836
:10A73400E10F0029F9D1704730CA00202CCA00204B
:10A744002DE9F04786B005460E4605F01FFC20B9FA
:10A754006FF06D0006B0BDE8F08705F0ADFE33681C
:10A764000446002B0F4604D103F048FA6FF00A00A8
:10A77400F0E7BCBF4FF0FF3333600122002101A892
:10A7840005F040FDE84605954FF02003EFF3118AEC
:10A7940083F31288BFF36F8F03F0CCFAFFF79CFFAB
:10A7A400DFF818914268D9F800309A426DD100233D
:10A7B400434D00936B68002B6ED1C5E900888AF382
:10A7C4001188BFF36F8F33685A1C6AD04FF4004E60
:10A7D40040F2E730002123EAE37C4FF47A7200234D
:10A7E400CCFB0E01FDF7ACFC02460B4601A802F0BF
:10A7F40069FE4FF02003EFF3118A83F31288BFF34D
:10A804006F8F00222B685BB1434554D10099002A15
:10A814004BD16A6829609A4200D169600023009391
:10A8240003F088FAFFF758FFD9F8003043608AF341
:10A834001188BFF36F8F05F0A9FB002888D0356815
:10A844006B1C27D005F038FE4FF47A7EA0FB0E3245
:10A854000EFB0121A4FB0E420EFB0722DB0BE40BD3
:10A8640043EA414344EA42441B1B4FEAD1314FEAD5
:10A87400E57C61EBD231ED1A6CEB010CBCF1000FFD
:10A88400B8BF002535602DB970E743608AF311889D
:10A89400BFF36F8F00205DE7C3F80080C5F8048024
:10A8A4008DE74FF0FF321346A0E7116069689942C3
:10A8B40008BF6A60B2E71A461B68A4E72CCA0020E6
:10A8C40030CA002070B40468094B2CB19C4203D3F5
:10A8D40003F17005AC4206D3064D2C78661C03EBDD
:10A8E40004132E700360006870BC05F08BBC00BFBD
:10A8F400BCC90020C5CE002038B505460A4BD3E8B4
:10A90400EF1F0131C3E8E21F002AF8D1074B1C688E
:10A9140004B938BD6369AB4200D015B9201D02F0FB
:10A92400B1FD2468F4E700BF2CCA002030CA00201F
:10A93400014600220023014805F0AABB88CA002072
:10A944000146014805F0AEBB88CA0020014600223A
:10A954000023014805F09CBB9CCA00200146014825
:10A9640005F0A0BB9CCA002008B54FF480620649DC
:10A97400064805F038FBBDE808404FF4025204498C
:10A98400044805F030BB00BFC6CE002088CA0020B2
:10A99400E88400209CCA002010B5044B1C6804B94C
:10A9A40010BD201D02F06EFD2468F8E730CA0020B7
:10A9B40008B5024801F0C8FC002008BD29AA00001F
:10A9C4002DE9F843134E144FDFF850800022002382
:10A9D400304602F023FD0546B8B9BDE8F883237A72
:10A9E400DA070AD49B0708D4216819B1484605F050
:10A9F400F8FD10B14846636898470C34BC42EED366
:10AA04002946404605F04EFBE0E7054C05F10409F4
:10AA1400F4E700BFFCC60020A4C60020C0C6002086
:10AA240098C600202DE9F04104460026184DDFF8B1
:10AA34006480454518D34EB32046FDF7E9FC002257
:10AA4400411D0023144805F023FB0546F0B12146BF
:10AA5400043005F08DFD2946104805F0C8FBBDE81B
:10AA6400F0410F4802F04CBE2F7AFA070AD4296845
:10AA740019B1204605F0B5FD20B1BB0704D5204629
:10AA84006B6898470C35D4E70126FBE7BDE8F081F5
:10AA940098C60020A4C60020C0C60020FCC6002022
:10AAA40094C50020094B1B5C03F00303022B08BF71
:10AAB4002038C0B2A0F14103192B04D9A0F15F03DF
:10AAC4005842584170470120704700BFCF1401001D
:10AAD400A0F12C03DBB2112B9DBF0348D84000F03A
:10AAE40001000020704700BF01400200F8B5054690
:10AAF4000024094E56F8047B3846FDF789FC394694
:10AB04000246284605F03CFD20B10134042CF1D165
:10AB14000020F8BD0120FCE7B00E01002DE9F04350
:10AB24000468A3B0237880460E4615460094002B93
:10AB340000F0CF80684B1B78062B13D10020621CD9
:10AB440000921146074612F8010BFFF7ABFF0028ED
:10AB5400F7D107B100910B1B22463146284604F079
:10AB6400B2FF46E0013B082B43D8DFE803F0644919
:10AB74005AA20D421C3F050022460021134612F83A
:10AB8400010B60B10121F9E722460021534F13461E
:10AB940012F8010B385C10F0440F40F0988001B1BA
:10ABA40000931B1BD8E7684604F028FF0022009B93
:10ABB4004A481F4613F8011B415C490710D102B1F2
:10ABC40000973B1B22463146284604F07CFF3B7825
:10ABD4003D2B07D17B783F2B0BD10237009708E040
:10ABE4000122E6E73F2B04D10137F7E7284604F0BA
:10ABF40040FF0020009BC8F8003023B0BDE8F0837C
:10AC040027463A78104604F0F0FE3B46013708B96F
:10AC1400002AF6D12246314628461B1B04F053FF76
:10AC2400DCE727463A783B46222A07F10107F1D0B0
:10AC3400002AF7D1EEE720460A2201A903F0DEFC40
:10AC44000124019B02900093009B1878292825D0A9
:10AC540020B303F10109FFF73BFFCDF8009008B9D9
:10AC6400274619E00A2201A9484603F0C7FC22AB93
:10AC7400671C03EB840444F8800C4846FDF7C8FBCA
:10AC8400DDF8049004464846FDF7C2FB844206D032
:10AC9400202FCDF8009002D03C46D5E72746BB00D4
:10ACA4003146284602AA04F031FF009B0133009389
:10ACB4009FE70A22204602A903F024FC0B460299CE
:10ACC400024600912846314604F0E8FE91E701214E
:10ACD4005DE74FF0FF3090E7C7D20020CF140100AA
:10ACE40010B50446FDF794FB012821D923781249B5
:10ACF400CA5C02F00302022A08BF203B412B17D191
:10AD04006378CA5C02F00302022A08BF203B542B7A
:10AD14000ED1A27802F0F703232B0BD0252A09D0F9
:10AD2400104604F062FE10B9B2FA82F0400910BD78
:10AD34000020FCE70120FAE7CF1401002DE9F041DF
:10AD440007460468DFF8908100293DD1207804F09B
:10AD540040FE624E054660B3062305222046604944
:10AD6400337005F00DFCF8B1052220465D4905F06D
:10AD740007FCC8B10B2220465B4905F001FC98B1E1
:10AD84000A222046594905F0FBFB68B10B222046F4
:10AD9400574905F0F5FB38B107222046554905F01F
:10ADA400EFFBB0FA80F56D0988F8005000203C6094
:10ADB4004EE098F8003053B92046FFF791FF002881
:10ADC40048D007233370F1E798F800301BB1022212
:10ADD400424B1A70EAE7002943DD224615781646ED
:10ADE4002846013204F001FE0028F7D13046FDF771
:10ADF4000FFB032830D92B463F4A515D01F0030174
:10AE0400022908BFA5F12003412B25D17378D15C19
:10AE140001F00301022908BF203B542B1CD1B37855
:10AE2400D15C01F00301022908BF203B2B2B0AD07F
:10AE3400252B11D1F378D25C02F00302022A08BF59
:10AE4400203B582B08D009226FF00100234B1A70C5
:10AE5400BDE8F0810223B5E7207804F0BAFD0028AC
:10AE640036D12278244B9B5C5B070AD42D2A08D068
:10AE74002B2A06D0222A07D10322184B01341A7038
:10AE840094E70422154BA4E7282A04D10122134B8A
:10AE940014441A708AE7104604F0A7FD88B10F49DC
:10AEA4000B78042B0AD12246144612F8010B04F045
:10AEB4009CFD0028F8D105230B7077E7082B3FF49D
:10AEC40075AF1046FFF704FE10B10822034B80E76C
:10AED4004FF0FF30BCE700BFC6D20020C7D200202D
:10AEE400081201000E1201001412010020120100C8
:10AEF4002B12010037120100CF1401002DE9F74F86
:10AF0400894616461F468046002800F09980002A8C
:10AF140000F096805368002B00F0928000241046C5
:10AF240004F090FD42463368CDF804809F4228BF68
:10AF34001F46454B1C70454B1C701146087804F0A5
:10AF440054FD2546013204460028F6D105B101918D
:10AF54000025DFF8FCB0019B1A78002A50D0AF42DC
:10AF64004ED91BF802202946120748BF013301A815
:10AF740048BF0193FFF7E2FE431C41D0023008BFF3
:10AF840000253246294601A808BFCDF80480FFF702
:10AF9400C5FD013034D0019A1078FFF799FDB0B1A6
:10AFA400507804F022FD78B10135BD4241D02946E4
:10AFB40001A8FFF7C3FE013022D03246294601A87A
:10AFC400FFF7ACFD01301BD0019B01330193019AC3
:10AFD400107804F00AFD38B301321178924608461D
:10AFE400013204F002FD0028F7D139B1084604F01B
:10AFF400F0FC18B95046FFF779FDA8B1CDF804A0CC
:10B00400019DC4B92B78CBB12846FFF76FFD00280A
:10B0140014BF00206FF00A00B9F1000F01D0C9F885
:10B02400005003B0BDE8F08F0135BD4208BF0124D4
:10B0340091E70446E4E76FF00600EDE72046EBE70E
:10B044006FF01500EDE700BFC7D20020C6D2002084
:10B05400CF14010010B50446094A0846637A00215A
:10B06400FFF74CFF10F10B0F00D040B9044804F077
:10B0740088FD637A98428CBF6FF00A00002010BDEF
:10B08400B0CA00201FB504460B4A01AB07CA83E8C7
:10B09400070021461846FFF7DDFF58B9012107488C
:10B0A4000DF1020204F055FD20B9054B9DF8020094
:10B0B4001B68984704B010BD900D0100B0CA002071
:10B0C400B8CA002008B548B90549064801F042F954
:10B0D400BDE808400449034801F03CB908BD00BF7D
:10B0E40018140100371401003A1401002DE9F0414D
:10B0F4001F46154B044693F800800D461646A2B031
:10B10400B8F1000F15D1684604F0EDFA3A4631461D
:10B114002846289BA0470446684604F0E5FAB8F19F
:10B12400000F02D0094802F03DF9204622B0BDE8E4
:10B13400F0814FF0FF324FF0FF33044802F0B8F8CB
:10B144000028E0D01F24F0E7D6D20020E8C6002073
:10B1540070B5302692B006AB05460C463246002147
:10B16400184605F0FDF9CDE90454CDE9020654B1C1
:10B17400012304AA009200210448019302AA00F0CA
:10B1840007F812B070BD2046FBE700BF0001004085
:10B1940030B401F50045B5F5803F039C0DD243EA78
:10B1A4000405FF2D09D844EA0324134644EA014266
:10B1B400014630BC0348FFF799BF6FF0800030BCF4
:10B1C400704700BF117C000070B501250268B2FA17
:10B1D40082F3C3F11F03DBB205FA03F422EA040489
:10B1E400D0E8EF6F964204D1C0E8EC4FBCF1000FF9
:10B1F400F6D1EBD101480B7070BD00BF0000AD0B60
:10B2040010B50368CB40DB0710D401238B400268E0
:10B2140043EA0201D0E8EF4F944204D1C0E8EC1FA6
:10B22400BCF1000FF6D1F2D1014810BD0148FCE792
:10B234000000AD0B0400AD0BF7B5044618B10128AE
:10B244001ED003B0F0BD0222274B0746C3F80823E3
:10B25400C3F80401D3F804210122DA60012342F285
:10B264001075214E8DF80730B4B1012CE9D187B3A4
:10B27400D6F80C3403F001033B70D6F80C3413E019
:10B284000022194B0DF10707C3F80803C3F8002186
:10B29400D3F800215860E1E78FB1D6F8183403F0F1
:10B2A40003033B70D6F81834DA03CAD59DF80700B7
:10B2B4000128C6D104F084FC013DD5D1C1E7D6F8FC
:10B2C4001834D903BDD5012004F07AFC013DF6D130
:10B2D400B7E7D6F80C34DB03B3D5012004F070FCD7
:10B2E400013DF6D1ADE700BF00500040044B1A7990
:10B2F40022B9012218601A71024870470248704747
:10B30400BCCA00200000AD0B0C00AD0B08B5052035
:10B31400FEF784F810B90520FEF772F80123034AFA
:10B32400C2F81835024A137008BD00BF005000402F
:10B33400C8D2002008B510B101282ED008BD1C4A7F
:10B34400D2F81834D2F81814C9030ED4D2F814342D
:10B35400DB0713D5D2F81C3403F00303013B012BA4
:10B3640009D80223C2F80433E8E703F00303022BED
:10B3740005D0012B02D00020FFF75EFF01230C4A09
:10B38400C2F818350023C2F80431D2F8043102237C
:10B39400C2F8043301239360D0E70022044BC3F8BE
:10B3A4000021D3F80021C3F804031860C6E700BFE6
:10B3B4000050004010B5174BD3F8002152B10020C3
:10B3C400C3F80001D3F800210122C3F80823124B6B
:10B3D4001B6898470F4BD3F804218AB10022C3F8A5
:10B3E4000421D3F80421D3F81824D3F8181402F054
:10B3F4000302012A4FF0020103D1C3F818159A6021
:10B4040010BDC3F80813044B0120BDE810401B68AD
:10B41400184700BF00500040BCCA0020064A00F094
:10B424001F0002EB8002D2F8003223F4403343EAD7
:10B434000143C2F80032704700258440034B0830B2
:10B4440033F81000C0F34010704700BFA4C50020BB
:10B4540070B50D4C00F1080334F813300546DA05D5
:10B464000E4607D5C3F3432304EBC302526854F8D2
:10B4740033309847A3682BB131462846E268BDE8CB
:10B484007040184770BD00BFA4C5002010B4124A14
:10B49400083032F81030D9051BD5C3F3432123F407
:10B4A400F85322F81030002002F10E0434F8023F61
:10B4B40013F4807F03D0C3F34323994209D00130AE
:10B4C4002028F3D1002342F83130044810BCFFF7A0
:10B4D40097BE10BC704700BFA4C50020F8C500206B
:10B4E40038B50246FFF7AAFF0B4C02F1080560B11C
:10B4F400002134F815305B0B9B0003F1804303F506
:10B504004433C3F81015C3F810151046FFF7BEFFF7
:10B51400002324F8153038BDA4C500202DE9F341DB
:10B5240004461D4609B34E4F00F1080837F8186069
:10B53400B30706D5FFF782FF18B14A4802B0BDE849
:10B54400F081494804F01F0300EB8300D0F8003277
:10B55400097823F00F0326F0020643EA810346F03C
:10B564000106C0F8003227F818609AB13C4E04F185
:10B57400080736F81710137811F0020F50680CD032
:10B584000028DAD136F8172022F01C0242EA83039D
:10B5940026F81730D5BB3548D0E721F02001C9047F
:10B5A400C90C26F817100028ECD0032BC5D8526814
:10B5B40092F800C06246920002F1804202F54432E1
:10B5C40023B9C2F81035C2F81035DBE7D2F81005FC
:10B5D40041EA4C3120F00300C2F81005D2F81005FE
:10B5E40041F0200120F4473020F44070C2F81005E7
:10B5F4002002D2F810E500F4F85040EA034040EA93
:10B604000E00C2F8100526F81710BBE72046D5E94E
:10B614000067FFF73BFF002EBDD0114DD5E9002395
:10B62400964201D19F4218D011480DF10701FFF74E
:10B63400CBFD0E4B984281D19DF8072005EBC20348
:10B6440008345F6035F8143045F8326043EA422329
:10B6540043F4807325F814309DE70022EEE700BF21
:10B66400A4C500200400AD0B002584400000AD0BF0
:10B67400F8C50020F8B5044679B33A4E00F108073E
:10B6840036F81750AB0704D4FFF7D8FE08B1364894
:10B69400F8BD15F01C0F4B7822D104F01F00DFF821
:10B6A400CCC000F1800E5CF82EC091F802E05B0083
:10B6B4002CF4E16C097843EA8E032CF0070C43EA7E
:10B6C4000C0343EA0123294943F00103803045F088
:10B6D400030541F8203026F8175022B92448D7E74B
:10B6E400012BDAD1D3E71F4E04F1080736F817000F
:10B6F4008307CCD592F800C00023614620F02000D7
:10B70400890001F18041C00401F54431C00CC1F845
:10B71400103526F81700C1F810355578002DDDD006
:10B72400D1F81035927823F4981323F4F853C1F820
:10B734001035D1F810E5230203F4F8532D0443EA3D
:10B744000E0305F4403512052B4302F4801240EA3F
:10B754004C30134340F02000C1F8103526F8170090
:10B76400BCE700BFA4C500200400AD0B0025844045
:10B774000000AD0B014BC3E902017047A4C50020D2
:10B7840008B50246FFF75AFE38B1054B083233F8C4
:10B79400123004485B0B0B7008BD0348FCE700BF84
:10B7A400A4C500200000AD0B0400AD0B38B50F4C50
:10B7B40094F85850BDB94022294604F1100004F011
:10B7C400CFFE3120FDF71CFE094B0A48C3F87C511B
:10B7D400D3F87C214FF00042C3F80423012384F8FA
:10B7E4005830636538BD0448FCE700BFA4C5002099
:10B7F400001003400000AD0B0500AD0B034B93F8A4
:10B804005800003818BF0120704700BFA4C50020AD
:10B8140001460148FFF7F4BCF4C500200146014885
:10B82400FFF7D2BCF4C50020024610B5FFF706FEB0
:10B834001B4B02F1080433F81430C8B113F00204AE
:10B8440016D118485B0B9A008450805802F180424C
:10B8540002F54432D2F8100540F00100C2F8100598
:10B8640029B1012202FA03F30F4AC2F8043310BDCE
:10B87400C3F38203042B0ED0052B0ED00B4B196996
:10B8840002F01F03D94001F0010102311046BDE866
:10B894001040FFF7C3BD0321F8E70221F6E700BF1C
:10B8A400A4C500200011034000100340002584407B
:10B8B40008B50246FFF7C2FDC0B10F4B02F1080103
:10B8C40033F81130990711D401225B0B9A400B49CC
:10B8D4009B0003F18043C1F8082303F54433D3F8F4
:10B8E400102522F00302C3F8102508BD0021BDE88D
:10B8F40008401046FFF792BDA4C500200010034085
:10B9040010B50C4B00F1080233F812300446DB0783
:10B914000DD5FFF7CDFF2046FFF7E2FD0222064BCF
:10B9240004F01F048034054843F8242010BD044863
:10B93400FCE700BFA4C50020002584400000AD0B37
:10B944000400AD0B2DE9F04F002501222C464D4B90
:10B954004D484E4985B01E6836B1D0F8046316428E
:10B964001EBF1C601E68154304338B424FEA42021B
:10B97400F1D1454FD7F87C3193B1454E0DF10C0907
:10B98400336A039333624FF0010A039870B9C7F81E
:10B994007C01D7F87C31336A03933362002BF2D1F4
:10B9A4000124002D56D105B0BDE8F08F90FAA0FB1C
:10B9B400BBFA8BFB374A0BF108034FEADB0C32F876
:10B9C40013100BF0070419F80C300AFA04F423EAF4
:10B9D400040309F80C3006EB8B03D3F80042C1F3DF
:10B9E4008202C9069046C4F3014418D5114658464C
:10B9F4000193FFF72DFD019BE4B2D3F80032C3F3AA
:10BA040001439C4207D100215846FFF707FD214618
:10BA14005846FFF703FD0AFA0BF03062B5E7022C33
:10BA24000CD103215846FFF7F9FC08F00503012B5C
:10BA3400F1D141465846FFF70BFDECE70221584689
:10BA44000192FFF7EBFC019A032AF2D0032CE2D116
:10BA54008A42EDE795FAA5F3B3FA83F304FA03F205
:10BA64009B0003F1804303F54433D3F81005D3F866
:10BA74001015C0F30420C1F3014125EA0205FFF7C4
:10BA8400E7FC8EE70011034000100340201103403F
:10BA940000258440A4C5002070B5084C0E462379C7
:10BAA400154643B92A20FDF7ABFC01230448237152
:10BAB4002660A56070BD0348FCE700BFC4CA00202F
:10BAC4000000AD0B0C00AD0B002330B50D4A50F84F
:10BAD400234003F5A2710133082B42F82140F6D12B
:10BAE4000023084A00F11C0103F5B27451F8045F05
:10BAF4000133082B42F82450F6D1036CC2F8043306
:10BB040030BD00BF00A0024000234FF0FF31134AB4
:10BB1400C2F81035C2F81435C2F81835C2F81C350D
:10BB2400C2F82035C2F82435C2F82835C2F82C35BD
:10BB3400C2F89035C2F89435C2F89835C2F89C35ED
:10BB4400C2F8A035C2F8A435C2F8A835C2F8AC359D
:10BB5400C2F80813024A1371704700BF00A00240E4
:10BB6400C4CA00200123024A8340C2F80433704748
:10BB740000A002400123024A8340C2F80833704700
:10BB840000A00240F8B5012600270B4B0B4DD3F85B
:10BB94000C4304B9F8BD94FAA4F0B0FA80F006FAA4
:10BBA40000F324EA0304064B82009F502B68002B09
:10BBB400EFD0A9689847ECE700A00240C4CA00206F
:10BBC40000A1024010B5114BD3F80443A2060AD5D4
:10BBD400D3F814213AB10020C3F81401D3F8143176
:10BBE4000B4B1B68984763060ED5084BD3F81821F6
:10BBF40052B10022C3F81821D3F81831044B0120A4
:10BC0400BDE810401B68184710BD00BF005000403D
:10BC1400D0CA002070B503680446033BDBB2042B92
:10BC240003D8094A52F823502DB9A06808B100F08E
:10BC34001FF8002070BD04F031F821682B46BDE8E0
:10BC44007040090C184700BFC00E0100014B9B69EE
:10BC5400184700BF00C60020014B1B68184700BFEF
:10BC640000C60020014BDB68184700BF00C6002057
:10BC7400014B5B69184700BF00C60020014B9B685D
:10BC8400184700BF00C60020014BDB69184700BFFE
:10BC940000C60020014B1B6A184700BF00C60020E5
:10BCA400014B1B68D8687047D4CA0020002330B504
:10BCB40010490A681468A3420BD100234A6811682A
:10BCC4008B4215D002EBC304A468A04208D0013310
:10BCD400F6E702EBC305AD68A84201D00133EAE7F9
:10BCE40002EBC302536823F0FF0343F003035360E2
:10BCF40030BD00BFF4CA0020002230B50B4B1968D8
:10BD04000C6894420FD001EBC2039D68A8420BD18A
:10BD14004FF003020433D3E8CF1F002903D1C3E853
:10BD2400C02F0028F7D130BD0132EAE7ECCA002069
:10BD34002DE9F041002506460F462846DFF86480C9
:10BD44003368AB4201D8BDE8F08106EBC5046368F3
:10BD5400DBB2012B17D16268B8F80030B3EB124F95
:10BD640011D1022FA06810D1FFF754FF90B9636876
:10BD740023F0FF0343F0030363600120B8F80030AD
:10BD84000133A8F800300135DAE70168090C03F043
:10BD940024FFEBE70128F0D1636823F0FF0343F0AD
:10BDA4000203E9E7C0CE002038B5074D0121286819
:10BDB400FFF7BEFF022104466868FFF7B9FF0028B9
:10BDC400F4D1002CF2D138BDF4CA002070B5072894
:10BDD40068D8DFE800F00B674F674B67400401F059
:10BDE4001BF80320BDE87040FEF786BD03202E4BF0
:10BDF400D3F81446D3F818662C4B1D78187000F04D
:10BE0400D9FF2B4BEDB2186803F0C0FD012D1CD1F6
:10BE1400284B9C4210D009D8023B9C420FD00133DE
:10BE24009C420FD0244B1C600020DBE7234B9C4238
:10BE3400F8D16FF00C04F5E76FF00B04F2E76FF044
:10BE44001504EFE76FF08504ECE73146C4F30B000B
:10BE540000F0A4FFE8E70222144B00201A7000F05F
:10BE6400A9FF134B186803F091FDDDE7FFF79CFF72
:10BE74000220B7E70D4B1A78012AD0B20ED1104A2E
:10BE84001168104A8C6854604968116000221A7065
:10BE940000F090FF064B186803F078FDFFF784FF6D
:10BEA40001209FE770BD00BF00A00240CAD200205D
:10BEB400DCCA002022000100F0CA00203230010058
:10BEC400D8CA0020F4CA002070B5164B42681B681B
:10BED40022F0FF0242F00202C31A42601248134ADF
:10BEE4000168C3F38913D2E8DF4F651CC2E8D65F4B
:10BEF400002EF8D101EBC3014A6892B242EA04422F
:10BF04004A600268032002EBC302536823F0FF0374
:10BF140043F00103536003F017FD0122044BDA6080
:10BF240070BD00BFE4CA0020ECCA0020C2CE0020CD
:10BF340000A002400A23F7B54FF47A750C4E0D4F5A
:10BF440001933168386803F084FE044640B903F075
:10BF54001BFD40B9012001A9FEF7F2FB6E30F0D1C0
:10BF6400204603B0F0BD0198684303F0EDFCE8E718
:10BF7400E0CA0020E8CA0020054B1B782BB9054B0A
:10BF84001968054B186803F064BE0020704700BFB1
:10BF9400C9D20020E4CA0020ECCA00202DE9F04FE9
:10BFA40095B038220021064603A804F0D9FA0223EA
:10BFB4000493082306932023089304230D9310234A
:10BFC40040250F9380230122CDE91153D52300216D
:10BFD40055480B921393FEF775FC0546002840F074
:10BFE4009F80024651493079FFF756FD03A8FFF7B9
:10BFF4006BFD34686268B2F59D6F40F089806169B9
:10C00400E3680B44E16903F59D630B44B3F5003F1A
:10C014007ED82068294604F0A3FA33681C68D3F854
:10C024001C9004F53A72019204F16007404A04F14D
:10C03400A40804F1200BB9F1000F5CD1C2F800B0E0
:10C0440000254FF0010A2570657084F802A0E570A0
:10C05400336840461B69636033685B69C4F814B095
:10C06400A360344BC4F81890C3F80080324BE760E7
:10C074001F600823C4F8108084F8A43088F80150A5
:10C0840088F8025088F8035084F860307D70BD70E1
:10C09400FD7003F0C6FD384603F0C3FD274B04F5DD
:10C0A4003A721A60264B04F1E8021A603168254B93
:10C0B4001960254B2549C3F81046C3F81456244B80
:10C0C400244C1D80244B25601D80244B83F800A044
:10C0D400234B02951D611B690293029B124B186846
:10C0E40003F056FCC8B92468A4B91E4B1C70204642
:10C0F40015B0BDE8F08F9B6904F1400963643368AF
:10C104004846DB69C2F800B0236400F069FE97E793
:10C114006FF01504FFF7F8FCE9E76FF07304F9E733
:10C124006FF02D04E3E700BFDCCA0020D1BD00009E
:10C13400D8CA0020ECCA0020E8CA0020E4CA0020C3
:10C14400E0CA0020D4CA002000A00240F049020046
:10C15400C2CE0020F0CA0020C0CE0020CAD20020E7
:10C1640000560040C9D2002070B5164B42681B68C7
:10C1740022F0FF0242F00102C31A42601248134A3D
:10C184000168C3F38913D2E8DF4F651CC2E8D65FA8
:10C19400002EF8D101EBC3014A6892B242EA04428C
:10C1A4004A600268032002EBC302536823F0FF03D2
:10C1B40043F00103536003F0C7FB0122044B5A60B0
:10C1C40070BD00BFE0CA0020E8CA0020C2CE002033
:10C1D40000A0024010B5FFF7ADFE012400220321A8
:10C1E400047081704270C270FFF7BEFF054B1C7073
:10C1F40003F02AFDBDE81040034B47F230511868A4
:10C2040003F0C6BBC9D20020DCCA002010B50A4B1B
:10C2140004461B78032B0ED0FFF78CFE58B1012186
:10C22400002201700221846042708170C270BDE8F6
:10C234001040FFF799BF10BDCAD200202DE9F34189
:10C2440005460020174688461E4603F029FD02468F
:10C2540040B915B1284603F04DFD6FF00B0002B054
:10C26400BDE8F0816FF058030024037304230560D4
:10C274000E4D037244738473C47344728472C47223
:10C28400C0F80480394603202C7003F025FD4FF0DC
:10C29400FF3301932B78B34201D10020DFE7022062
:10C2A40001A9FEF74DFA0028F4D0D8E7CBD200203C
:10C2B400F8B5054600240F4F57F8046B284631465D
:10C2C40004F08FF928B90134042CF5D14FF48030EF
:10C2D4000DE06CB1A31E012BF8D83046FCF798F89A
:10C2E4000A220021284402F06FF840EA0440F8BD15
:10C2F4002046FCE7D40E01002DE9F74300258146D2
:10C304000F461048294690461E46019302F080F9D4
:10C31400041E11DB0134204603F0EAFCC9F80000D6
:10C3240068B1334642462146019602F071F9284627
:10C334003C6003B0BDE8F0836FF01500F9E76FF0DF
:10C344000B00F6E7C80D0100014B18600020704790
:10C3540000CB00200FB47FB5089C00F031FD00280D
:10C3640039D0002C3AD0224609AB03A902A8019384
:10C37400FFF7C2FF044660B91A4E4FF0FF31306830
:10C3840003F006FB034602984BB103F0B3FC6FF0D5
:10C394000A04204604B0BDE8704004B0704702238C
:10C3A40001220399FFF74AFF044618B1306803F0ED
:10C3B400EDFAEEE70C4D2B681868FFF779FF044699
:10C3C400306803F0E3FA2B68186803F08FFC2868E0
:10C3D40003F089FCDDE74FF0FF34DAE76FF00D047A
:10C3E400D7E700BF08CB002004CB00200EB4F3B580
:10C3F400079F064600F0E4FC002842D0002E43D0FC
:10C40400002F41D03046FCF703F8451C284603F0C2
:10C414006FFC044600283AD031461E4E2A4604F0EA
:10C42400C1F84FF0FF31306803F0B2FA50B1204642
:10C4340003F060FC6FF00A04204602B0BDE8F0404F
:10C4440003B070472046022301222946FFF7F6FE77
:10C45400044690B9104D08AA2B6839461868019211
:10C4640002F008F92B68041E186808BF6FF04C042A
:10C4740003F03CFC286803F036FC306803F086FACD
:10C48400DAE74FF0FF34D7E76FF00D04D4E76FF02D
:10C494000B04D1E708CB002004CB002038B5C368D7
:10C4A4000446A72B03D0206803F020FC08E00329EE
:10C4B40008D0042921D0022902BF0122124B1A708C
:10C4C400002038BD114D2B683BB10068984700230C
:10C4D40020682B6003F00AFC06E00B4B1A78022A52
:10C4E40005D100680028F5D10020C0B2E9E7084A68
:10C4F4001060022201201A70F7E7064B1B68002B1C
:10C50400D1D000689847CEE7CBD20020FCCA0020E7
:10C5140004CB002000CB0020012210B511460748AF
:10C52400FEF7D0F9014628B9BDE8104001230522E1
:10C53400FFF784BE6FF02D0010BD00BF08CB0020B4
:10C544004FF44872002108B5084804F009F80023A4
:10C554001946074A07481370044A0133082BC2E9F5
:10C564000001916002F16402F7D108BD0CCB0020F8
:10C57400CCD200201EF1AD1B30B502460023642549
:10C58400054905FB03F460180C59944203D00133A8
:10C59400082BF6D1002030BD0CCB002038B5FFF7B6
:10C5A400EBFF0446051D284603F079FC206C08B116
:10C5B400FEF7C6F960220021284603F0D1FF014BA3
:10C5C400236038BD1EF1AD1B70B50024054D064E29
:10C5D40055F82400B04201D0FFF7E0FF1934C82C0D
:10C5E400F6D170BD0CCB00201EF1AD1B2DE9F84334
:10C5F400021E104C18BF012206460025A0464FF02B
:10C6040064090D4B0D4F1A702368BB420AD009FB15
:10C6140005831A7F66F386121A77636B13B120467B
:10C6240003F0A9FB0135082D04F16404ECD1BDE845
:10C63400F88300BF0CCB0020CCD200201EF1AD1B30
:10C644000123034A1370034A10601846704700BF61
:10C65400CDD200202CCE0020012208B5114604487A
:10C66400FEF730F9002818BF6FF02D0008BD00BF99
:10C6740030CE0020F8B548F20F03994206460D4625
:10C684003BD022D848F20D0399422FD048F20E0332
:10C6940099422FD00069FFF76FFF044608B3B5F540
:10C6A400004F1ED9A5F50045013D0B2D19D8DFE833
:10C6B40015F09000B300940094009400EE00EE0096
:10C6C4009400990018001800D20049F2040399421A
:10C6D40016D0B1F5104F24D9C068FFF74DFF0446BA
:10C6E40070BB3068B0B103F001FB13E0FFF7A8FFA3
:10C6F400C0B2F8BD03F0E3FBFAE703F0DEFBF7E7B3
:10C704000369032B06D8DFE803F0020A02070020BE
:10C71400FFF76CFF0020ECE70122654B1A70012043
:10C72400F6E70069FFF728FF04460028D9D048F24D
:10C7340081039D42D5D10146304600F0D1F84FE047
:10C7440049F202039D4200F09E8035D803F062FB5B
:10C754000746E0B91020FEF7EBF80546B8B13946B4
:10C76400102203F0FDFE33686B6073682B81718ABD
:10C77400002900F09780328A06F1140003F0C2FA0F
:10C78400E860002840F08E802846FEF7D9F830682B
:10C7940003F0ACFA204603F010FB48B1204603F046
:10C7A40039FB28B90C23A361237F63F07E0323772D
:10C7B400204603F007FB25E049F203039D4218D00D
:10C7C40049F282039D428CD10146304600F09CF828
:10C7D40006E073690BB9B3690360304603F0C1FB2B
:10C7E400054610E0037F23F0030343F003030377BC
:10C7F400F3E7037F43F0010303773069692812D11B
:10C804006823A3610025204603F00EFB10B12046E7
:10C8140003F0B1FAE8B26CE7037FF5686FF38203C3
:10C824000377706918B100F001F9A061EAE72046C6
:10C8340003F0CDFA18B9237F43F008032377204689
:10C8440003F0C5FA0028CBD0002DDCD0002120460F
:10C8540000F074F8D6E7437F013B43777369002BFC
:10C86400BBD1304603F07BFBB26943681A6042686F
:10C87400137F43F008031377436822691A614368FE
:10C8840062695A61A9E7437F01334377BAE73046C7
:10C8940003F065FB736913B9B36943609DE74FF017
:10C8A400FF33FAE72946204603F07DFAAAE700BFE2
:10C8B400CED2002008B5FFF743FEFFF7CDFE0022DD
:10C8C400054B06481A7001221146FDF7FBFF0028AC
:10C8D40018BF6FF02D0008BDCED2002034CE00204A
:10C8E40010B543690C465BB10B7F6FF304130B77F0
:10C8F400406900F09BF8034BA061186803F046F808
:10C90400002010BD34CE002010B50B7F0C466FF311
:10C9140004130B77006958B9DBB223F0280343F002
:10C9240028030B77044B186803F030F8002010BD7F
:10C9340000F07CF8A061F5E734CE00202DE9F34146
:10C94400DFF8E4800546D8F80000019103F020F8F0
:10C95400074650B1019B002B63D11023AB614FF00C
:10C96400FF37384602B0BDE8F081286CA8B1FBF768
:10C974004FFD461C304603F093F9044678B9284627
:10C9840003F035FA08B16923AB61D8F8000002F06E
:10C99400FDFF692002F0F2FFE1E73E46EAE72B687B
:10C9A400042203610023027243728372C37295F8F6
:10C9B400472005F14401013292008260143003F0F3
:10C9C400C2FDE6B13246296C206803F0EBFD6660D7
:10C9D4002B7F042043F01003224647F281012B777A
:10C9E40003F07AF9284603F002FA0028B9D1284660
:10C9F40003F0F9F940B9A8690028B2D0CAE7267053
:10CA04006670A670E670E2E7022001A9FDF798FEC1
:10CA140010F10B0F05D00028E9D00028B8BF404220
:10CA2400B8E77420B6E700BF34CE002070289ABF60
:10CA3400024B53F820000248704700BFE40E010087
:10CA4400ADBAADBAF8B5046806463CB101F470431A
:10CA5400B3F5005F04D1414BC3E900140020F8BDD5
:10CA64003F4D2B68002B6FD044F2040291420BD847
:10CA7400B1F5804F68D9A1F58041023902292AD83D
:10CA8400DFE801F04750590044F2011399422ED0D7
:10CA940044F20123994257D1324E306808B103F071
:10CAA40025F90222304B346094F851401A702F4E0D
:10CAB40014F008072B68327825D01AB90520984756
:10CAC40001233370E30702D502202B689847012025
:10CAD4002B689847C2E7234E306808B103F006F983
:10CAE4000022214B34601A7094F83D40DFE71D4E5C
:10CAF400306808B103F0FAF801221B4B34601A7055
:10CB040094F84140D3E7002ADCD0062098473770D8
:10CB1400D8E7174E306808B103F0E8F803202B6813
:10CB24003460D6E7134E306808B103F0DFF8042010
:10CB34002B683460CDE72278032A05D8DFE802F0B9
:10CB440002080A0C07209847306803F0CFF885E7FD
:10CB54000820F8E70920F6E70A20F4E748CE002089
:10CB640038CE002044CE0020CFD20020D0D20020E6
:10CB740040CE00203CCE002008B50023094A0A48D4
:10CB840013700A4A13700A4A13700A4A13700A4A45
:10CB9400136001221146FDF795FE002818BF6FF0BF
:10CBA4002D0008BDD0D2002050CE0020D2D20020CB
:10CBB400D1D20020CFD2002038CE002010B50B4CAB
:10CBC400206818B103F092F800232360084C206811
:10CBD40018B103F08BF800232360064C206818B1C9
:10CBE40003F084F800232360002010BD44CE00200D
:10CBF40040CE00203CCE002037B50125074C4FF431
:10CC0400FA70656102F0A0FE00236361019325615F
:10CC140023690193019B03B030BD00BF005600405F
:10CC2400034BD3E8EF2FC3E8E10F0029F9D1704794
:10CC340054CE002070B5044686B090B3436AABB3BB
:10CC440001221D4BD3E8EF1F002903D1C3E8E02FD5
:10CC54000028F7D12DD1606A00F09AF8FDF784FE20
:10CC6400236A02AD8DF80430144B00940FCB85E891
:10CC74000F00684602F0C9FF044650B9064655F84D
:10CC8400043B9847044620B90136042EF7D102200C
:10CC940004E0FFF7B1FFFDF77FFE0020FFF7C0FFC0
:10CCA40001E06FF00D04204606B070BD6FF015046E
:10CCB400F9E74FF0FF34F6E754CE00209C0D010055
:10CCC40030B52F4B85B01A68022A05D0032A46D006
:10CCD4004FF0FF3005B030BD0422D3E8EF1F022926
:10CCE40003D1C3E8E02F0028F7D1F1D16C46002529
:10CCF400244B0FCB84E80F0054F8043B01359847CC
:10CD0400042DF9D100F064F810B9642002F01EFE7D
:10CD140002F07DFF00F05CF850B1002000F04AF80A
:10CD2400FFF76AFFFDF738FE0020FFF779FFD1E730
:10CD3400154BD3F8F030DB070DD50A2002F006FEC0
:10CD4400EEE70A2002F002FED5F84034012BE7D1C9
:10CD5400013CF6D1E4E741F2C1240C4DF4E704228E
:10CD6400D3E8EF1F032903D1C3E8E02F0028F7D14C
:10CD7400AED1002000F01EF802F02DFFD0E700BF76
:10CD840054CE0020AC0D010000ED00E00050004046
:10CD9400014B1860704700BF58CE002007B5044B04
:10CDA400CDE900011B686846984703B05DF804FBB1
:10CDB40058CE0020014B1870704700BFD3D200201A
:10CDC400024B1878431E584258417047D3D2002072
:10CDD400024B1878C31E584258417047D3D20020E2
:10CDE4000021074B01221970064B1970064B19607C
:10CDF400064B1960064B18600648FDF763BD00BF7B
:10CE0400D4D20020D5D2002060CE002064CE0020F1
:10CE140074CE00205CCE002070B42D4B1B681969C1
:10CE240058691A7C00221A745C7C5A749C7C9A742B
:10CE3400DC7CDA741C7D1A755C7D5A759C7D032933
:10CE44009A75DC7DDA7529D0042933D001292FD1D4
:10CE54008568204E954210D101211A7A0022197258
:10CE6400597A5A72997A9A72DA7A6FF05F02DA72A0
:10CE7400194B70BC186802F089BD911C00EB81014C
:10CE84004C682178622907D0633918BF0121490011
:10CE940046F821400132DDE70121F9E7187A1972D9
:10CEA400597A5A72997A9A72DA7A6FF05F02DA7260
:10CEB40070BC7047187A1972597A5A72997A9A72B0
:10CEC400DA7A6FF05F02DA720122044B1A70EFE72C
:10CED40074CE002068CE00205CCE0020D5D2002085
:10CEE400034A044B02609B1A03489B105843704743
:10CEF400A80A0100FC0A0100B76DDBB6014B986873
:10CF04006030704778CE0020104B70B553F8204045
:10CF1400013053F82060A64200D870BDD4E9003532
:10CF24008DB12846984738B10028B8BF4042FF2841
:10CF3400A8BFFF20EB681870EA68537843F0010338
:10CF440053700834E7E79847FBE700BFAC100100D3
:10CF5400012208B5094B03201A70FFF7D5FF01F031
:10CF6400E1F80420FFF7D0FF00F02AF9FBF76EFA8E
:10CF7400034A137B23F00103137308BDD6D20020A8
:10CF8400B0C7002008B50348034A0021121A03F071
:10CF940026F808BD10C70020D8D2002000230122A3
:10CFA40070B586B0CDE904230F220193CDE9023296
:10CFB40014234FF4A0720E4D0E4E03FB00550E4980
:10CFC40006EBC016044602FB00110C4B30460095DC
:10CFD40000F09AF8737B2C7423F004037373084BEA
:10CFE400013403EBC423EE606B6006B070BD00BF78
:10CFF40078CE002030C70020D8DB00207DD200008E
:10D00400D8D3002080B50020A6B0FFF77DFF2E4BBB
:10D0140003F5006282F3088883F30A880024E0237E
:10D024002A4D2B4E85F82230EC772C766C76AC7634
:10D0340085F820406B6A274F43F4E0236B6285F840
:10D044002340FCF721FCFCF7BBF94FF0FF33AB6244
:10D05400EB62FCF723FEFCF7C9FC40F2011306ADBA
:10D064002846ADF82430CDE91F4401F03DF8B56001
:10D0740002F08EFF0120FFF747FF0220164DFFF755
:10D0840043FF00F0B3FD154BB5610593012314492B
:10D094004FF48062CDE9034328463B46CDE9014481
:10D0A400009400F031F806466A7B284622F0040218
:10D0B4006A7303F024F92046FFF770FF3A463146BD
:10D0C4002846FCF767FA00BFD8D3002000ED00E043
:10D0D40078CE002055CF0000B0C700208F14010087
:10D0E40018DD002038B5064C064DAC4201D30020B3
:10D0F40038BD2046D4E9011202F075FF1434F4E778
:10D10400ACC60020D4C600202DE9FF410E9E00F1DC
:10D11400580506730426C0E91655002504464673CF
:10D124000D9EC0E906558673D61D0C9A26F0070697
:10D13400C0E919168560C573C56602920B9A01EBA6
:10D14400060801920A9A00924246FCF705FA054B3A
:10D1540065659B6803B11B6F4046236704B0BDE857
:10D16400F08100BF78CE0020F0B5002587B005958A
:10D17400109DDDE9127604950F9D044603950E9DDE
:10D1840002950D9D01950C9D0095FFF7BDFFB6F12D
:10D19400FF3F08BFB7F1FF3F05D056EA070305D1AB
:10D1A400204600F0A3FC204607B0F0BD3A463346C3
:10D1B400024904F1180000F095FEF4E7670301004A
:10D1C4002DE9F043294C2A4D87B02646AE4204F19E
:10D1D4002C040FD300F0DAFC4FF4004640F2E7379A
:10D1E400224CDFF89090AC4220D307B0BDE8F04366
:10D1F40000F0E0BC54F8043C059354F80C3C049350
:10D2040054F8103C039354F8143C029354F8183C1B
:10D21400019354F81C3C009354E9092354E90B018D
:10D22400FFF772FF54F82C3C5E65CEE7636A5A1C24
:10D234000DD00021384623EAE373C3FB060151EA0B
:10D24400C333D4F8008004D1404600F04FFC2C34A2
:10D25400C9E74FF47A720023FAF772FF02460B46CD
:10D2640008F11800494600F03DFEF0E7040D010006
:10D27400040D01006703010008B50B4C0B4D4FF082
:10D284002002EFF3118382F31288BFF36F8F03F050
:10D29400FFF82B78606113B9FCF798F8EFE7FBF718
:10D2A40017FF0028EBD1F7E778CE0020D6D2002074
:10D2B4002DE9F341044617461E464FF02003EFF3D1
:10D2C400118883F31288BFF36F8FC368334A7BB12D
:10D2D40080689168884219D057EA060318D188F308
:10D2E4001188BFF36F8F6FF00F0002B0BDE8F081BB
:10D2F400916891F90E100133E36093682161A36092
:10D3040088F31188BFF36F8F0020EEE72169F2E7FD
:10D3140091F90E1090F90E306FF07E029942A8BF79
:10D3240019469142B8BF11468B422EDD02F0E9FE48
:10D33400054622464146CDE90076194800F060FBD7
:10D344000028E1D04FF02003EFF3118683F3128815
:10D35400BFF36F8FA068D0B1236821699C420AD0C3
:10D364004BB193F90E309942A8BF19466FF07E0372
:10D374009942B8BF194602F0C4FE40B1314608488C
:10D3840000F0A2FB6FF00A00AFE70025D1E7002D03
:10D39400F4D186F31188BFF36F8FF3E778CE0020C2
:10D3A400D7D2002038B5836804466BB3194A926813
:10D3B40093422CD1C368012B03D9013BC3600020E5
:10D3C40038BD4FF02003EFF3118583F31288BFF3C8
:10D3D4006F8F0169806802F094FE204602F0C5FF59
:10D3E400A06058B190F90E2022610022826702F0F9
:10D3F40086FF2946084800F067FBE0E7E06085F314
:10D404001188BFF36F8FDAE76FF01500D8E74FF09C
:10D41400FF30D5E778CE0020D7D2002037B51146AB
:10D424004FF02002EFF3118582F31288BFF36F8F60
:10D4340004689CB12368426823F0030394420360A8
:10D4440008BF43600121204602F0C5FE044685F36F
:10D454001188BFF36F8F204603B030BD51EA030239
:10D46400F5D000F10802CDE900131046294600F07A
:10D47400C7FA0028EFD1024B9B685C69EBE700BF59
:10D4840078CE002038B504464FF02003EFF3118521
:10D4940083F31288BFF36F8F02F067FF48B1002255
:10D4A400826702F02CFF2946BDE83840044800F0AA
:10D4B4000BBBD4E902329A4218BF0133A360F2E7EE
:10D4C400D7D2002013B54FF02004EFF3118184F379
:10D4D4001288BFF36F8F846844B1013C846081F388
:10D4E4001188BFF36F8F002002B010BD52EA03040D
:10D4F40006D181F31188BFF36F8F6FF00F00F3E74C
:10D50400CDE900230246024800F07AFAECE700BFB6
:10D51400D7D200202DE9F04F04464FF0FF384FF0EA
:10D52400FF39484E85B04FF02003EFF3118783F3A2
:10D534001288BFF36F8FD4F880508DB9022104F1A3
:10D54400980002F06BFE002843D100233946CDE950
:10D554000089029304F188023B4800F051FCE2E7A1
:10D56400D4F884202B689542C4F8803008BFC4F8EE
:10D574008430D4F8983043F00203C4F89830EB6850
:10D5840023F0040343F00103EB606B6887F3118815
:10D59400BFF36F8F284698474FF02003EFF3118BAA
:10D5A40083F31288BFF36F8FEB68990723F00102AE
:10D5B40019D4EA60D4F8983023F00203C4F8983000
:10D5C4008BF31188BFF36F8FDB05ACD400F016FB2F
:10D5D400A9E704F1900500220121284602F01FFF6B
:10D5E4000028F8D1B1E7306823F00303EB6000288A
:10D5F400E0D000273B46D0F800A00028DAD04268EB
:10D60400014695420CD101689FB97268316082422B
:10D6140000D1716040F8083BFFF734FF394600231E
:10D62400BAF1000F0BD0DAF8002050460F469246AC
:10D63400E3E739607268824208BF7760EAE75246DE
:10D64400F3E700BF9CCE0020D7D20020F8B5C36812
:10D6540004469A070F46C3F340062CD45B071AD43A
:10D664000B680BB983680B60E368DD0742BFA368EE
:10D6740002263B603D6858BF0126002D3AD01F4B5F
:10D684009B68AB420AD0D5F89830D807C3F3800220
:10D6940014D46FF0120600233B6025E002F01FFD56
:10D6A400D5F898300028F0D1D907C3F3C002F0D5DB
:10D6B40052B15B0708D46FF00F06ECE7002AFAD1E9
:10D6C400C3F3C003002BF6D100232360D5F88430C4
:10D6D40063B9C5E92044284602F0ABFDE36843F092
:10D6E4000403E3603B68A3603046F8BD1C60C5F8E2
:10D6F4008440F0E76FF01506CDE700BF78CE002038
:10D704000146014802F0B0BD50C80020F0B50446FF
:10D71400002089B0C4E920000E9D04F18800C4E90A
:10D72400220004F19000C4E924001DB328790028E4
:10D7340040F2011008BF0120C4F8980000204FF007
:10D74400FF364FF0FF37CDE90330CDE90100CDE9D5
:10D7540006672046084B0094FFF706FD25B12968AB
:10D7640011B1204602F0C1FC204609B0BDE8F040EA
:10D7740002F0BEBC0120DFE719D50000C3897F2B6E
:10D7840012D80A4B1B6863B1094B90F90E201B6831
:10D794009A4209DB437BDB0606D1064BC31A18BF4A
:10D7A400012303F0010070470023FAE7ACCE002008
:10D7B400A8CE002030C700200122044BC01A044B1D
:10D7C400C0105843034B1A54704700BF30C80020A0
:10D7D400ABAAAAAAD7D2002070B50E4B0E4C1E7C61
:10D7E400054606EB460304EBC304204602F03AFE6A
:10D7F40000220A4B28469A55FFF7C0FF48B1084B50
:10D804002046BDE870401A680649013AD31700F073
:10D8140069BB70BD78CE002030C80020D7D200206C
:10D82400ACCE0020BDD7000038B50D4D2B4653F8C3
:10D834001C4F9C4200D004B9EC68AB6838B95A7BE1
:10D84400D20604D1A26912B9DA897F2A05D89C428A
:10D8540002D02046FFF7C0FF2346AB6138BD00BFAE
:10D8640078CE002070B590F90D200146002A437B44
:10D8740004DA03F07F03437302F007FD154A4B7B80
:10D88400104663F07F034B7350F81C3F146A8342C5
:10D8940008BF002323B9C1E90004216011620CE030
:10D8A40091F90E5093F90E60B5420ED0AE420CDDE4
:10D8B4005868C1E90030016059609068BDE8704063
:10D8C400431A58425841FFF7AFBF9C42E3D01B684C
:10D8D400E0E700BF78CE002070B490F90D30427BB1
:10D8E400002B29DBD30627D183692BBB134962F0B4
:10D8F4007F0242730A4652F81C4F944218BF2346D3
:10D904000C6A23B9C0E90024206008620CE090F995
:10D914000E5093F90E60B5420AD0AE4208DD5A6843
:10D92400C0E9003210605860002070BCFFF77CBF73
:10D93400A342E7D01B68E4E770BC704778CE0020B0
:10D9440008B590F90D200146002A437B04DA03F060
:10D954007F03437302F099FC044B9868431A5842BE
:10D964005841BDE80840FFF75FBF00BF78CE0020F4
:10D9740070B515461C46064602F099FCB4F1FF3F0B
:10D9840008BFB5F1FF3F08D02A46234606F1180028
:10D994000249BDE8704000F0A5BA70BD67030100FC
:10D9A40038B54FF02003EFF3118583F31288BFF3EA
:10D9B4006F8F104B104A9C681068A04206D1FFF785
:10D9C4000BFF85F31188BFF36F8F38BD00211B7CDB
:10D9D40011600A4AD35C002BF3D02046FFF7CEFE39
:10D9E4000028EED0637BDB0602D12046FFF73AFF26
:10D9F4002046E4E778CE0020A4CE0020D7D2002031
:10DA040070B50C480C4D86680C462E601146DDE955
:10DA140004234FF02006EFF3118586F31288BFF339
:10DA24006F8F8068FFF7A4FF2046BDE87040FBF7C6
:10DA340039BD00BF78CE0020A4CE0020F8B504463E
:10DA44004FF02003EFF3118683F31288BFF36F8F37
:10DA5400437B49B2DA0619D18569BDB903F07F0366
:10DA6400437302F012FC437B164A63F07F03437353
:10DA74001346817353F81C0F984218BF0546106A69
:10DA84005DB9C4E900300460146211E00020A173A0
:10DA940086F31188BFF36F8FF8BD95F90E70B94204
:10DAA4000BD08F4209DD6B68C4E900531C606C60C5
:10DAB4000120FFF7B9FE0120EAE7A842E1D02D6872
:10DAC400DEE700BF78CE002049B9EFF3058030B916
:10DAD400054B9A699B689A4201D0FBF7E3BC81F33A
