:10800000103D01204DE3000063EC010021E300007E
:1080100021E3000021E3000021E3000021E3000050
:1080200000000000000000000000000069DC00000B
:1080300021E3000000000000D5DB000021E3000088
:108040000DDD00000DDD00000DDD00000DDD000088
:108050000DDD00000DDD00000DDD00000DDD000078
:108060000DDD00000DDD00000DDD00000DDD000068
:108070000DDD00000DDD00000DDD00000DDD000058
:108080000DDD00000DDD00000DDD00000DDD000048
:108090000DDD00000DDD00000DDD00000DDD000038
:1080A0000DDD00000DDD00000DDD00000DDD000028
:1080B0000DDD00000DDD00000DDD00000DDD000018
:1080C0000DDD00000DDD00000DDD00000DDD000008
:1080D0000DDD00000DDD00000DDD00000DDD0000F8
:1080E0000DDD00000DDD00000DDD00000DDD0000E8
:1080F0000DDD00000DDD00000DDD00000DDD0000D8
:108100000DDD00000DDD00000DDD00000DDD0000C7
:108110000DDD00000DDD00000DDD00000DDD0000B7
:108120000DDD00000DDD00000DDD00000DDD0000A7
:108130000DDD00000DDD00000DDD00000DDD000097
:048140000DDD000051
:04814400FFFFFFFF3B
:1081480081F0004102E000BF83F0004330B54FEA00
:1081580041044FEA430594EA050F08BF90EA020F6D
:108168001FBF54EA000C55EA020C7FEA645C7FEA00
:10817800655C00F0E2804FEA5454D4EB5555B8BF23
:108188006D420CDD2C4480EA020281EA030382EA94
:10819800000083EA010180EA020281EA0303362D26
:1081A80088BF30BD11F0004F4FEA01314FF4801CF9
:1081B8004CEA113102D0404261EB410113F0004F0B
:1081C8004FEA03334CEA133302D0524263EB4303C2
:1081D80094EA050F00F0A780A4F10104D5F1200E60
:1081E8000DDB02FA0EFC22FA05F2801841F10001BB
:1081F80003FA0EF2801843FA05F359410EE0A5F18F
:1082080020050EF1200E012A03FA0EFC28BF4CF0BF
:10821800020C43FA05F3C01851EBE37101F0004575
:1082280007D54FF0000EDCF1000C7EEB00006EEB82
:108238000101B1F5801F1BD3B1F5001F0CD349080C
:108248005FEA30004FEA3C0C04F101044FEA445263
:1082580012F5800F80F09A80BCF1004F08BF5FEAEA
:10826800500C50F1000041EB045141EA050130BDCA
:108278005FEA4C0C404141EB0101013C28BFB1F5DC
:10828800801FE9D291F0000F04BF01460020B1FA27
:1082980081F308BF2033A3F10B03B3F120020CDAFA
:1082A8000C3208DD02F1140CC2F10C0201FA0CF0D8
:1082B80021FA02F10CE002F11402D8BFC2F1200C3D
:1082C80001FA02F120FA0CFCDCBF41EA0C019040F3
:1082D800E41AA2BF01EB0451294330BD6FEA04043C
:1082E8001F3C1CDA0C340EDC04F11404C4F1200227
:1082F80020FA04F001FA02F340EA030021FA04F339
:1083080045EA030130BDC4F10C04C4F1200220FA8F
:1083180002F001FA04F340EA0300294630BD21FACD
:1083280004F0294630BD94F0000F83F4801306BF93
:1083380081F480110134013D4EE77FEA645C18BF87
:108348007FEA655C29D094EA050F08BF90EA020F1E
:1083580005D054EA000C04BF1946104630BD91EA16
:10836800030F1EBF0021002030BD5FEA545C05D119
:108378004000494128BF41F0004130BD14F5800458
:108388003CBF01F5801130BD01F0004545F0FE41CC
:1083980041F470014FF0000030BD7FEA645C1ABF01
:1083A800194610467FEA655C1CBF0B46024650EA38
:1083B800013406BF52EA033591EA030F41F4002164
:1083C80030BD00BF90F0000F04BF0021704730B5EA
:1083D8004FF4806404F132044FF000054FF00001BF
:1083E80050E700BF90F0000F04BF0021704730B580
:1083F8004FF4806404F1320410F0004548BF404255
:108408004FF000013EE700BF42004FEAE2014FEAA9
:1084180031014FEA02701FBF12F07F4393F07F4F84
:1084280081F06051704732F07F4208BF704793F087
:108438007F4F04BF41F40021704730B54FF460749A
:1084480001F0004521F000411CE700BF50EA01029D
:1084580008BF704730B54FF000050AE050EA010246
:1084680008BF704730B511F0004502D5404261EBB6
:1084780041014FF4806404F132045FEA915C3FF4F7
:10848800D8AE4FF003025FEADC0C18BF03325FEA94
:10849800DC0C18BF033202EBDC02C2F1200300FA45
:1084A80003FC20FA02F001FA03FE40EA0E0021FA6A
:1084B80002F11444BDE600BF70B54FF0FF0C4CF458
:1084C800E06C1CEA11541DBF1CEA135594EA0C0F0A
:1084D80095EA0C0F00F0DEF82C4481EA030621EA45
:1084E8004C5123EA4C5350EA013518BF52EA033580
:1084F80041F4801143F4801338D0A0FB02CE4FF032
:108508000005E1FB02E506F00042E0FB03E54FF061
:108518000006E1FB03569CF0000F18BF4EF0010E59
:10852800A4F1FF04B6F5007F64F5407404D25FEA55
:108538004E0E6D4146EB060642EAC62141EA555108
:108548004FEAC52040EA5E504FEACE2EB4F1FD0C4A
:1085580088BFBCF5E06F1ED8BEF1004F08BF5FEAC8
:10856800500E50F1000041EB045170BD06F000467A
:1085780046EA010140EA020081EA0301B4EB5C0427
:10858800C2BFD4EB0C0541EA045170BD41F480111F
:108598004FF0000E013C00F3AB8014F1360FDEBF44
:1085A800002001F0004170BDC4F10004203C35DA20
:1085B8000C341BDC04F11404C4F1200500FA05F3A3
:1085C80020FA04F001FA05F240EA020001F0004244
:1085D80021F0004110EBD37021FA04F642EB0601BA
:1085E8005EEA430E08BF20EAD37070BDC4F10C04E4
:1085F800C4F1200500FA04F320FA05F001FA04F2A8
:1086080040EA020001F0004110EBD37041F1000193
:108618005EEA430E08BF20EAD37070BDC4F120059E
:1086280000FA05F24EEA020E20FA04F301FA05F206
:1086380043EA020321FA04F001F0004121FA04F2AE
:1086480020EA020000EBD3705EEA430E08BF20EA7E
:10865800D37070BD94F0000F0FD101F000464000B8
:1086680041EB010111F4801F08BF013CF7D041EA3A
:10867800060195F0000F18BF704703F0004652003E
:1086880043EB030313F4801F08BF013DF7D043EA0F
:108698000603704794EA0C0F0CEA135518BF95EAC5
:1086A8000C0F0CD050EA410618BF52EA4306D1D14C
:1086B80081EA030101F000414FF0000070BD50EA6B
:1086C800410606BF1046194652EA430619D094EAF5
:1086D8000C0F02D150EA013613D195EA0C0F05D1DF
:1086E80052EA03361CBF104619460AD181EA030133
:1086F80001F0004141F0FE4141F470014FF00000EB
:1087080070BD41F0FE4141F4780170BD70B54FF085
:10871800FF0C4CF4E06C1CEA11541DBF1CEA135505
:1087280094EA0C0F95EA0C0F00F0A7F8A4EB0504E7
:1087380081EA030E52EA03354FEA013100F08880DE
:108748004FEA03334FF0805545EA131343EA1263A7
:108758004FEA022245EA111545EA10654FEA00265C
:108768000EF000419D4208BF964244F1FD0404F515
:10877800407402D25B084FEA3202B61A65EB030571
:108788005B084FEA32024FF480104FF4002CB6EB2E
:10879800020E75EB030E22BFB61A754640EA0C00AE
:1087A8005B084FEA3202B6EB020E75EB030E22BFEE
:1087B800B61A754640EA5C005B084FEA3202B6EB2F
:1087C800020E75EB030E22BFB61A754640EA9C00EE
:1087D8005B084FEA3202B6EB020E75EB030E22BFBE
:1087E800B61A754640EADC0055EA060E18D04FEA7C
:1087F800051545EA16754FEA06164FEAC30343EA1C
:1088080052734FEAC2025FEA1C1CC0D111F4801FE8
:108818000BD141EA00014FF000004FF0004CB6E7E1
:1088280011F4801F04BF01430020B4F1FD0C88BF80
:10883800BCF5E06F3FF6AFAEB5EB030C04BFB6EB8B
:10884800020C5FEA500C50F1000041EB045170BD7E
:108858000EF0004E4EEA113114EB5C04C2BFD4EBAB
:108868000C0541EA045170BD41F480114FF0000E2F
:10887800013C90E645EA060E8DE60CEA135594EAAB
:108888000C0F08BF95EA0C0F3FF43BAF94EA0C0FAE
:108898000AD150EA01347FF434AF95EA0C0F7FF423
:1088A80025AF104619462CE795EA0C0F06D152EA77
:1088B80003353FF4FDAE1046194622E750EA41065B
:1088C80018BF52EA43067FF4C5AE50EA41047FF46C
:1088D8000DAF52EA43057FF4EBAE12E74FF0FF3CD1
:1088E80006E000BF4FF0010C02E000BF4FF0010CA2
:1088F8004DF804CD4FEA410C7FEA6C5C4FEA430C1B
:1089080018BF7FEA6C5C1BD001B050EA410C0CBF69
:1089180052EA430C91EA030F02BF90EA020F0020CB
:10892800704710F1000F91EA030F58BF994208BF32
:1089380090422CBFD8176FEAE37040F001007047EF
:108948004FEA410C7FEA6C5C02D150EA013C07D146
:108958004FEA430C7FEA6C5CD6D152EA033CD3D091
:108968005DF8040B704700BF8446104662468C468B
:108978001946634600E000BF01B5FFF7B7FF0028BE
:1089880048BF10F1000F01BD4DF808EDFFF7F4FFE7
:108998000CBF012000205DF808FB00BF4DF808ED72
:1089A800FFF7EAFF34BF012000205DF808FB00BF95
:1089B8004DF808EDFFF7E0FF94BF012000205DF8B7
:1089C80008FB00BF4DF808EDFFF7CEFF94BF01206C
:1089D80000205DF808FB00BF4DF808EDFFF7C4FF65
:1089E80034BF012000205DF808FB00BF4FEA410CAE
:1089F8007FEA6C5C02D150EA013C0AD14FEA430C91
:108A08007FEA6C5C02D152EA033C02D14FF00000CD
:108A180070474FF0010070474FEA410212F500120B
:108A280015D211D56FF47873B3EB625212D94FEAAD
:108A3800C12343F0004343EA505311F0004F23FA97
:108A480002F018BF404270474FF00000704750EAEC
:108A5800013005D111F0004008BF6FF000407047A9
:108A68004FF00000704700BF4A0011D212F5001203
:108A780011D20DD56FF47873B3EB62520ED44FEA6E
:108A8800C12343F0004343EA505323FA02F07047EE
:108A98004FF00000704750EA013002D14FF0FF302C
:108AA80070474FF0000070474FEA4102B2F1E043CF
:108AB80024BFB3F5001CDCF1FE5C0DD901F0004CBD
:108AC8004FEAC0024CEA5070B2F1004F40EB83000D
:108AD80008BF20F00100704711F0804F21D113F139
:108AE8003872BCBF01F00040704741F480114FEA72
:108AF8005252C2F11802C2F1200C10FA0CF320FAFB
:108B080002F018BF40F001004FEAC1234FEAD32317
:108B180003FA0CFC40EA0C0023FA02F34FEA430381
:108B2800CCE77FEA625307D150EA01331EBF4FF00A
:108B3800FE4040F44000704701F0004040F0FE4025
:108B480040F40000704700BF7BB972B90029BEBF6E
:108B580000204FF0004106E008BF00281CBF6FF05E
:108B680000414FF0FF3000F075B8ADF1080C6DE929
:108B780004CE002909DB002B1ADB00F084F8DDF8AD
:108B880004E0DDE9022304B07047404261EB410193
:108B9800002B1BDB00F077F8DDF804E0DDE90223A9
:108BA80004B0404261EB4101524263EB430370471A
:108BB800524263EB430300F066F8DDF804E0DDE9B8
:108BC800022304B0404261EB41017047524263EB1B
:108BD800430300F058F8DDF804E0DDE9022304B0AF
:108BE800524263EB4303704753B94AB9002908BF9F
:108BF80000281CBF4FF0FF314FF0FF3000F02AB8BB
:108C0800ADF1080C6DE904CE00F03DF8DDF804E0A4
:108C1800DDE9022304B07047D0B500220B4B0646AD
:108C28000F46FFF749FCFFF71FFF0446FFF7CAFB93
:108C38000022074BFFF740FC02460B4630463946F8
:108C4800FFF782FAFFF710FF2146D0BD0000F03D84
:108C58000000F041704700BF38B5002200230446E9
:108C68000D46FFF79BFE28B920462946BDE8384047
:108C7800FFF7D2BF204605F10041FFF7CDFF404284
:108C880061EB410138BD2DE9F04786468C46084620
:108C9800089E154674461946002B40F0C18085424F
:108CA800B2FA82F245D94AB1C2F1200300FA02FCB5
:108CB800954094402EFA03F343EA0C0C4FEA154E04
:108CC800A8B2230CBCFBFEF80EFB18CC08FB00F97D
:108CD80043EA0C43994528D9EB1808F1FF3704D229
:108CE800994502D9A8F102072B44A3EB0903A4B2C2
:108CF800B3FBFEFC0EFB1C330CFB00F044EA034400
:108D0800A04214D92C190CF1FF3304D2A04202D985
:108D1800ACF102032C44241A43EA07401EB1D440A4
:108D2800002334607360BDE8F0874746DDE763469B
:108D3800F1E792BB431B01214FEA154EAFB2200C5D
:108D4800B3FBFEFC0EFB1C330CFB07F840EA0343A5
:108D5800984561D9EB180CF1FF3004D2984502D937
:108D6800ACF102002B44A3EB0803A4B2B3FBFEFC56
:108D78000EFB1C330CFB07F744EA0344A7424DD90A
:108D88002C190CF1FF3304D2A74202D9ACF102032B
:108D98002C44E41B43EA0040C0E7C2F1200395409D
:108DA800944020FA03F12EFA03F34FEA154E90404F
:108DB800AFB20343B1FBFEFC0EFB1C10190C0CFBFD
:108DC80007F841EA0041884522D969180CF1FF30BB
:108DD80004D2884502D9ACF102002944A1EB08016C
:108DE8009BB2B1FBFEFC0EFB1C110CFB07F743EA20
:108DF80001439F420ED9EB180CF1FF3104D29F4278
:108E080002D9ACF102012B44DB1B41EA004193E794
:108E18006046E3E76146F7E76046A4E76346B8E7DC
:108E2800834206D916B9002108467CE7C6E900E066
:108E3800F9E7B3FA83F78FB9834201D3724508D8AB
:108E4800BEEB020460EB030301209C461EB900211F
:108E580069E73846FAE7C6E9004CF8E7C7F1200C9D
:108E6800BB400EFA07F522FA0CF42EFA0CF1BA40C0
:108E78001C4320FA0CF3B8404FEA144901431FFA87
:108E880084FEB3FBF9F809FB18300B0C08FB0EFA4B
:108E980043EA00439A4540D9E31808F1FF3004D269
:108EA8009A4502D9A8F102002344A3EB0A0389B228
:108EB800B3FBF9F809FB183308FB0EFE41EA03413E
:108EC8008E452CD9611808F1FF3304D28E4502D99A
:108ED800A8F10203214443EA0040A1EB0E01A0FBE4
:108EE80002984145CE46434602D306D14D4504D2A9
:108EF8000138B9EB020E68EB0403002EA7D0B5EBDE
:108F08000E0261EB030101FA0CFC22FA07F3F940A7
:108F18004CEA0303C6E9003199E74046C5E74346F2
:108F2800D9E710F8012B11F8013B012A28BF9A4212
:108F3800F7D0D01A7047034613F8012B002AFBD14B
:108F4800181A0138704700002DE9F04F824616467E
:108F58001C4600259FB00391307810B9284600F0D0
:108F680085BD731C2528069306D00399D047002891
:108F7800C0F27C8501351BE21822002110A818F0E8
:108F88002EFF7378252B00F0BA80002398469E4662
:108F98009C461846711C0F4611F8012B2B2A00F02D
:108FA800DD8000F2D480202A00F0DB80232A00F044
:108FB800DB802BB19DF8483043F040038DF84830F2
:108FC800B8F1000F05D09DF8483043F020038DF824
:108FD8004830BEF1000F05D09DF8483043F010032B
:108FE8008DF84830BCF1000F05D09DF8483043F0AB
:108FF80008038DF8483028B19DF8483043F0040341
:109008008DF848309DF8483003F04401442903D1D5
:109018006FF386138DF848309DF848302A2A43F0BC
:1090280080030E978DF8483040F0A3809DF84930B2
:1090380043F001038DF849307B1C1A782E2A0CBFA7
:10904800012100219DF8492061F341028DF8492052
:109058000CD15A1C0E925A782A2A40F09A809DF810
:109068004920023342F004028DF849201A786C2A0C
:1090780000F0BB8000F29D80682A00F0A3806A2A75
:1090880000F0BC804C2A00F0C18013F8012B782A2C
:1090980006938DF84B2000F201816D2A00F2C380FF
:1090A800692A00F2FB80572A00F2DA80412A04D0AC
:1090B800A2F14503022B00F2F18004219DF84A3009
:1090C80002F0DF02A2F1410761F302037A429DF840
:1090D80049107A4162F3C7110A068DF84A308DF8B3
:1090E8004910CBB200F1198103F07802182A40F038
:1090F80003816FF3C6038DF849300023F2E0B21CF8
:1091080006928DF84B309DF84930D90740F1078118
:1091180054F8042B002A049208DA9DF8482042F0FB
:1091280004028DF84820049A524204925A0740F1EA
:10913800FE8054F8047B002F80F2FD809DF84930B2
:109148006FF341038DF849304FF0FF37F3E02D2AD4
:109158000DD0302A7FF42DAF01231CE74FF0010C0E
:1091680019E74FF0010E16E74FF0010813E7012049
:1091780011E70EA803F03AFE0E9BBB423FF45DAF29
:109188009DF848201390C00F60F341028DF84820E5
:1091980053E70EA803F02AFE9DF848301490C3F355
:1091A800400242EAD07262F341038DF848300E9BC8
:1091B8005CE7742A26D07A2A7FF467AF06219DF8E7
:1091C80049200CE05A78682A9DF8492006D10121E7
:1091D80061F3C6028DF84920023356E7022161F394
:1091E800C6028DF8492001334FE75A786C2A9DF85A
:1091F800492001D10421EBE70321F0E705219DF87F
:109208004920ECE707219DF84920E8E7BDF8482008
:1092180022F4F04222F0020242F4804242F00202BA
:10922800ADF84820DFE76E3AD3B201229A4040F207
:1092380082431A429DF8493037D112F0240F5FD18A
:10924800D1072BD503219DF84A2003F07803A3F119
:10925800400061F3020243428DF84A20434141E055
:109268000120A2F15801C9B200FA01F111F4624FCC
:109278007FF423AF40F6010319429DF849301AD113
:1092880011F4043F0AD09DF84A2060F3020203F06B
:109298007803402B8DF84A207FF42FAF9DF8483093
:1092A80043F001038DF8483027E702219DF84A2052
:1092B80061F30202EBE702209DF84A1003F07803FD
:1092C80060F30201402B8DF84A1002BF9DF8481048
:1092D80041F001018DF84810632A7FF40EAF003B7E
:1092E80018BF01239DF84820C2F340010B4363F3E4
:1092F80041028DF8482006E713F0380FCED1FCE67E
:1093080003219DF84A2013F0780F61F3020214BF7D
:10931800012300238DF84A20E4E70123E2E79DF9C1
:109328004820002AACBF4FF0FF32139AFDE69F0792
:109338007FF50AAF149F00239DF84A20CDE9133327
:1093480002F00703042B9DF8493007D1980705D48C
:109358009DF949100029ACBF06270D2702F0070226
:10936800012AC3F3C30333D1DA1E042A04D8DFE881
:1093780002F02146462121002268012B4FEAE271C2
:10938800CDE910211CD19DF94020D117CDE910213C
:1093980004349DF848209107079250D03246504631
:1093A800069B039915F02CFA0028C0F25F83054448
:1093B800069ED1E554F8042BD117CDE91021E8E732
:1093C800022BE5D111B242F3C032CDE91012DFE72A
:1093D800022A24D1DA1E042A04D8DFE802F0181081
:1093E80010181800012B4FF0000154F8042B14D06A
:1093F800022BCDE91021CCD192B21092C9E70734E3
:1094080024F00704F4E80201CDE91001C1E754F89B
:10941800042B109200221192BBE7D2B2CDE7042AA6
:1094280008D1073424F00704D4E900010834CDE951
:109438001001AEE7032AACD154F8042BDDE79DF800
:109448004BB0BBF1780FB3D8BBF1570F49D8BBF17C
:10945800250F00F09180BBF1240FA9D9BBF1410F72
:1094680003D0ABF14503022BA2D8DDE91013002B82
:10947800C0F23781079A160700F13681C2F3001946
:109488004FEA4919C3F30A50C3F31303002840F005
:109498002E8151EA030614BF01260026DB0243EAA7
:1094A8005153C902BBF1460F40EA010E43EAE07C82
:1094B80008BF4FF0660B5EEA0C0CCDE90C1300F008
:1094C8009C81002E40F04A810D9BA0F2FE3843F0AB
:1094D80000430D930020DDE90C1306464FF0050C00
:1094E80056E1ABF1580120293FF662AF01A050F8D0
:1094F80021F000BF89960000B9930000B9930000DD
:10950800B9930000B9930000B9930000B993000023
:10951800B9930000B993000073940000B993000058
:109528000D960000219600007394000073940000CB
:1095380073940000B993000021960000B9930000CD
:10954800B9930000B9930000B9930000C3960000D6
:10955800899600008F960000B9930000B993000027
:1095680087950000B993000089960000B993000020
:10957800B99300008996000058460399F6E4002F35
:10958800109E3BDB3946304618F0C3FD002E3FF4F1
:109598000FAF4FF000093718BB1B9DF84A2012F097
:1095A8001001059100F05782023312F04002DDF8F5
:1095B8004C80089218BF149A434418BF9B18049A09
:1095C800CDF81C80002A40F36182D31A04939DF8D9
:1095D80048305807C3F3800B00F15882590640F110
:1095E8004882B9F1000F07D048460399D0470028B0
:1095F800C0F23C82D946013530233BE23046FFF7C2
:109608009AFCC6E7109B4FF000098DF85C300DF10D
:109618005D07012317AEC0E7079B1A0754BFC3F3C2
:1096280000194FF02B09DDE9102358BF4FEA4919FB
:10963800002B06DA4FF02D09524263EB4303CDE9C4
:109648001023DDE910010DF17503009312AA17AB81
:1096580003F0E2FB0646002F0CDB9DF848200DF1D5
:1096680075039B1B6FF386129F428DF8482001D922
:10967800FB1A1393002E3FF49BAE0DF175075BE0C8
:109688004FF00009DDE71098002800F0DF810DF1A8
:1096980075030093002117AB12AA03F0BDFBBDF8B8
:1096A8004A30064603F0EF0343F4F04343F0100357
:1096B8004FF00009ADF84A30CDE7109A072B3FF676
:1096C80077AEDFE803F00C04060C08080C0C1570E4
:1096D8006EE615806CE6EB17C2E9005368E6156084
:1096E80066E64FF02D09CDE64FF02B09CAE640F2A9
:1096F800FF76B0422FD1A0480BF10102D2B2825CB2
:109708000B4302F003021ED1012A0BBF4923692330
:109718004E216E210CBF462266228DF85C309DF8E2
:1097280048308DF85D106FF386138DF85E208DF844
:1097380048300DF15F0717AEBB1BB9F1000F3FF4BE
:109748002CAF013329E7012A15BF6E234E2361216F
:1097580041211A46E1E70026A0E6013849185B4195
:10976800002BFADACDE90C13AEE6490841EAC371D9
:109778005B08B3F1333F404608F10108F5D200F128
:10978800020801200CFB03FEA1FB0C13013E7344ED
:1097980018F1020FE9DB08B1CDE90C13DDE90C3152
:1097A800B8F1000F2CDCC8F10400A0F1200C08F17E
:1097B8001C08C34001FA08F821FA0CFCC1400BF060
:1097C800DF0043EA0803472843EA0C0338D1F01CBA
:1097D80001DBB7422ADAABF10202002F5FFA82FB03
:1097E8007BDD9DF84800013F820676D43A1E18BFFB
:1097F8000122059207F101082CE04FF0000869E604
:10980800023341F100010CA808F1FF380136CDE917
:109818000C3114F0C6FFDDE90C31DB184941002991
:1098280008F1FF38F9DACDE90C31B7E79DF848209F
:10983800BF1B90064FD43A1E18BF0122059204E0C0
:109848000022BBF1660F0592D4D117EB06084FF042
:10985800660B44D4B8F1100FA8BF4FF010089FED65
:10986800447B10208DED0E7B0B90DDE90E02B8F1E4
:10987800000F37D1C01842EB0103B3F1805F41D22A
:10988800CDE90C03079BBBF1660F03F0200340F002
:10989800BC80002E41DC30218DF85C10002B6DD18E
:1098A800002F40F3B4812E238DF85D3086B17342CA
:1098B800BB42A8BF3B46002B1393A7EB0307D4BFBB
:1098C800002301239DF84A1063F345118DF84A10CF
:1098D8000DF15E0839E00022B0E7002289E74FF079
:1098E8000008BCE7400840EAC2705208CDE90E0201
:1098F8000EA8CDE9083108F1FF3814F052FFDDE970
:109908000831B2E7400840EAC3705B08CDE90C03B0
:109918000CA814F046FF0136B4E70DF15C080B996A
:10992800002909DD0BA90CA8079314F052FF013E8A
:10993800079B08F8010BF2D113969BB9002F40F34F
:1099480064812E2108F8011B0026002F1FDD0B9BC8
:10995800002B1CDD0BA90CA814F03BFF013F08F8F5
:10996800010BF2E72E2308F8013BEDE7AFF3008087
:109978000000000000000008677D02002E238DF81B
:109988005D30002EA4D0002F91DC0DF15E08059B00
:10999800002B4ED1149747460BF0DF03452B23D1FC
:1099A800002EBABF76422D232B23632EC8BF642115
:1099B8007B70C4BFB6FBF1F301FB13664FF00A01DD
:1099C800C8BF03F13000B6FBF1F3D2BFBA1CFA1CD2
:1099D800B87087F800B0174603F1300001FB136335
:1099E800303307F8020B5370139B002B2CDC149BAD
:1099F800002BD4BF002301239DF84A2063F386126D
:109A080000238DF84A203B7095E60BA90CA8079314
:109A180014F0DFFE079B30288DF85C0018BF06F1B4
:109A2800FF3613B9002F40F3F2802E238DF85D30F6
:109A38004EE7474617F8013C08F1FF38302BF8D0BD
:109A48002E2B08BF4746A7E70123D5E7714F81466C
:109A580005237E1FA1E5110748BF0133A5E5184678
:109A680009930399D0470028099B05DA1FB0BDE880
:109A7800F08F2023DDF810B05A46002A0BF1FF3B87
:109A8800EDDC049BCDF810B02B449D1AB9F1000F02
:109A980005D048460399D0470028E7DB0135089BE5
:109AA800002B77D09DF94930002B28DB3346DFF8AF
:109AB800689118789B4619F80020013352073FD463
:109AC8009DF84A30AE1B98065E4407D44246002AE9
:109AD80008F1FF383BDC079B33449E1A9BF80000D3
:109AE8002E280AD10399D0470028BFDBB8F1000F10
:109AF80006F1010631DC0BF1010B5D4638E0B14699
:109B080099F80000C846702809F1010913D1AE1B65
:109B1800149D46443544AB1B002B33DC3B46424680
:109B28005046039914F06CFE00289FDB3044049ED5
:109B38000546064464E00399D0470028E0DA95E733
:109B480005930399D0470028059BB2DA8EE73020A9
:109B58000399D0470028B9DA88E730200399D0471D
:109B680008F1FF38C0E70399D0470028FFF67EAF19
:109B78002878A84619F8003001355907F3D4A6EB20
:109B88000B06C5E730200399D0470028FFF66EAFD3
:109B98000136C0E79DF84A30DA0601D41B0706D51E
:109BA80030200399D0470028FFF660AF0135059BA8
:109BB8003BB103999DF84B00D0470028FFF656AFFC
:109BC8000135A84406E030200399D0470028FFF665
:109BD8004DAF0135A8EB0503002BF4DC3B463246BC
:109BE8005046039914F00CFE0028FFF63FAF2844B6
:109BF8009DE720200399D0470028FFF637AF0135AD
:109C0800731B002BF5DCFFF7D3BB1E46BFE60DF137
:109C18005D08BCE6E1410200687D0200000000002A
:109C28002DE9F04F2DED028B0F4600269BB00390D7
:109C380019461046CDE9062317F0DEFEBB4634462A
:109C48009FED738BCDE904010DF12C08DDF80C9024
:109C5800CDF820800296BBF1000F23D1002C66D0EE
:109C6800DDE90632B2F1FF3F08BFB3F1FF3F17BF8E
:109C78004FF47A724FF0FF33A3FB0232DB0B18BFAD
:109C880043EA4243CDE900734FF482723146039BA5
:109C9800029814F093FE044620461BB0BDEC028BDC
:109CA800BDE8F08FD9F80000002820DB0AAA09A92E
:109CB80002F076FE0546D0B14FF0FF324FF0FF3389
:109CC8000A9814F0A7FE1AAB019308AB00934FF45F
:109CD80081724B462946099814F070FE10F1780FEE
:109CE800824609D10A988DED068B14F095FE09F18C
:109CF80008090BF1FF3BAEE71AF1120F0A980BD1D6
:109D0800029B1BB114F088FE0124F0E7099B2E4644
:109D1800029314F081FEF7E714F07EFEBAF1000F0B
:109D2800E5DA15F049F8CAF10003036020E006AA55
:109D3800DDE90401DFF8E4A014F04FFE029408996D
:109D4800DDE90623A1EB080189100AFB01F1404671
:109D580011F0D4FB00F10B030B2B054604D82E4C55
:109D68001C4114F0010406D015F026F86D42056078
:109D78004FF0FF3490E7B946A346039DCDF8208005
:109D8800B9F1000F0ED1BBF1000F85D0002C83D1A3
:109D9800DDE9040106AA14F020FEDDE906321343CA
:109DA800CDD179E72868029B0028EB8029DB0AAA35
:109DB80009A902F0F5FD064618B92023EB80013405
:109DC8001FE04FF0FF324FF0FF330A9814F022FEE5
:109DD80008AB314640F20312009309982B4614F061
:109DE800EDFD06460A9814F017FE16F10B0F0CD07D
:109DF8001EB114F0E1FF734297E7B5F90630002B66
:109E0800DDD1083509F1FF39BAE74FF0010BF8E762
:109E180000000000000000007EF7FFFFCDCCCCCC96
:109E2800012870B50D4606D014F0C6FF162303604E
:109E38004FF0FF3070BD17F0D9FD1D4A2B686E68D2
:109E4800A3FB023402FB0644AD685B1944EBE574DE
:109E5800C50B45EA4145A5FB0256C90B02FB01614A
:109E68005B1BC0F30E0064EB0101A0FB0204C20BF4
:109E780042EA4442981A61F100010BA3D3E9002396
:109E8800FEF762FE4FF02003EFF3118483F312888C
:109E9800BFF36F8F074BC3E900019A6084F3118801
:109EA800BFF36F8F0020C5E700CA9A3B000000008F
:109EB80000CA9A3B40CD0020F0B52DED028B00255D
:109EC80004238BB00E460746CDE9085505930028B4
:109ED80000F0CC80002900F0C980062108A815F000
:109EE800BCFE044678B1664B0390CDE901530122CC
:109EF8002B4628466349009516F003F820460BB018
:109F0800BDEC028BF0BD014608AA384615F08CFE60
:109F1800044670B15C4B0390CDE901532B46009584
:109F280001221846574915F0ECFF08A815F0BFFEA6
:109F3800E4E7012104AA08A815F06BFF044610B154
:109F4800524B0390E8E7049CACB1042C18D0052CC4
:109F58000CBF0923FF233370032105AB06AA08A809
:109F680015F083FF044668B1494B03900293002320
:109F7800CDE90033D4E7002334707360B360BDE7E4
:109F88000723E8E7059B014628336B4403F8100CC8
:109F9800022206A812F060FA3378C0B2072B20D04C
:109FA800092B11D10F283AD96FF015030393394BB8
:109FB80002930023CDE9003301221846314915F0F8
:109FC800A0FF6FF01504B0E7334B2046CDE90143FD
:109FD8000094234602222B4915F093FF6FF07F046B
:109FE800A3E70F28E0D89FED2D8A2D4B33F81000FA
:109FF800D8B1FEF7F7F920A3D3E90023FEF75CFAFE
:10A00800FEF752FD0421706005AB06AA08A8059169
:10A0180015F02BFF044650B1224B0390A6E7224BC4
:10A028009FED228A33F81000E2E72148EAE7059B12
:10A03800014628336B4403F8100C022206A812F0DC
:10A048000BFAC0B20F2806D91A4B0390CDE9014389
:10A0580000942346B0E70130C0B207EE900AF8EE4C
:10A06800E77A67EE887AC6ED027A5EE76FF0150444
:10A0780044E700BFAFF300807B14AE47E17A244089
:10A08800075D02009C300200305D02005C5D02004A
:10A098007E5D0200D25D0200AA5D02000AD7A33FDE
:10A0A8004C3B0200F65D02002C3B02000AD723401D
:10A0B8000AD7A340215E02002DE9F04706460C4668
:10A0C80092B0002900F0BF800F68002F00F0BB801D
:10A0D8008D68D1F8048005F10409C1450AD8042225
:10A0E800AD49781917F0F0FFA8B90423F360A36805
:10A0F80004331DE06B1D984510D2454580F0A380C0
:10A108007B5D7819222B24D12146304612B0BDE858
:10A11800F0470CF065BE6B1D98450ED305229F498C
:10A12800781917F0D1FF30B90123F360A36805331C
:10A138000120A36088E0C145DFD804229849781936
:10A1480017F0C2FF0028D8D10223F36001237361FE
:10A15800CDE72D2B03D0A3F13002092A55D80023CF
:10A168000DF1080C67464FF0010EA8EB0505DFF866
:10A178003882019310F8012B452A3ED82A2A10D993
:10A18800A2F12B01C9B20EFA01F111EA080F01D1AF
:10A198002E2A06D101333F2B0CF8012B01D0AB42FC
:10A1A800E8D1002548336B44384601A903F8405CE0
:10A1B80011F0AEFFDDF804A059EC108BBA4542D07F
:10A1C80073A3D3E9002340464946FEF7FBFBB0B929
:10A1D800002240464946734BFEF7EAFB90B94046D9
:10A1E8004946FEF719FC0823C6E906897061F36041
:10A1F800A368AAEB070A53449AE7652AC9E76FF0F0
:10A208000040F0E74FF00040EDE75B2B58D1D4F861
:10A218000C90B9F57A7F16D209F10103E3607B5DF2
:10A228005B2B10D101352046A56015F0FAFFA36815
:10A23800984506D9FA5C5D2A09D10027C4F80C9024
:10A2480036E0013BA360002012B0BDE8F08700258E
:10A258002F46013BA360206916F017F8A84605466B
:10A26800002800F0A5804FB3C8F80000C0F80480AB
:10A27800A36820460133A36015F0D3FF2146284682
:10A28800FFF71AFF002800F09380204615F0C9FF59
:10A29800D4E90123934280F08E802268D35C2C2B72
:10A2A800D9D05D2B40F08780E368013BE3607D6097
:10A2B8002023C6E90273A368013339E70746D7E7C5
:10A2C8007B2BC0D1D4F80C90B9F57A7FBBD209F1B9
:10A2D8000103E3607B5D7B2BB5D101352046A5608A
:10A2E80015F09FFFA3689845ABD9FA5C7D2A03D186
:10A2F8000027C4F80C9047E000252F46A846013BEC
:10A30800A360206915F0C1FFA946054600284FD073
:10A31800002F4BD0C9F80000C0F80490A36820466D
:10A328000133A36015F07DFF214628460CF058FD47
:10A3380000283DD0204615F074FF2B69C5F8108021
:10A348002B62D4E90123934232D22268D25C3A2AA2
:10A358002ED101332046A36015F063FF214628461D
:10A36800FFF7AAFE20B3204615F05BFFD4E90123CE
:10A37800934220D22268D35C2C2BC2D07D2B1AD1D9
:10A38800E368013BE3607D60402392E7AFF3008020
:10A398000000C0FFFFFFDF410B7C0200AE6F020030
:10A3A800A96F02000000E0C1E57F00040746B5E799
:10A3B800002F3FF448AF38460CF0AAFE43E700BF31
:10A3C800D0B5174B57EC106B186815F05EFF0446B4
:10A3D80070B10823C0E90667C36039460EA3D3E904
:10A3E80000233046FEF7EEFA20B16FF000436361B8
:10A3F8002046D0BD0022304639460A4BFEF7D8FA2F
:10A4080010B14FF00043F2E730463946FEF704FB3F
:10A418006061EDE7AFF300800000C0FFFFFFDF41A0
:10A4280048C600200000E0C108B5024615F0C5FF87
:10A4380010B192ED060B08BD9FED010BFBE700BFC5
:10A44800000000000000F87F2DE9F0472DED028B99
:10A4580004469FED498B4A4E84B04FF02003EFF33A
:10A46800118783F31288BFF36F8FD4F8C8508DB962
:10A47800022104F1E00017F019F9002843D1002364
:10A488008DED008B3946029304F1D0023D4810F05F
:10A49800C9FEE2E7D4F8CC202B689542C4F8C8304E
:10A4A80008BFC4F8CC30D4F8E03043F00203C4F855
:10A4B800E030EB6823F0040343F00103EB606B68C2
:10A4C80087F31188BFF36F8F284698474FF0200312
:10A4D800EFF3118983F31288BFF36F8FEB68990745
:10A4E80023F0010219D4EA60D4F8E03023F0020323
:10A4F800C4F8E03089F31188BFF36F8FDB05ACD463
:10A5080010F08EFDA9E704F1D805002201212846A4
:10A5180017F01FFA0028F8D1B1E7306823F00303D9
:10A52800EB600028E0D00027BA46D0F80080002869
:10A53800DAD04268014695420BD1016897B9726832
:10A548003160824200D1716040F808AB10F00EFA19
:10A558003946B8F1000F0BD0D8F8002040460F4616
:10A568009046E4E739607268824208BF7760EBE79B
:10A578004246F3E7AFF30080FFFFFFFFFFFFFFFF57
:10A5880028E30020CF1001202DE9F04F1F469DB091
:10A5980000230C4682460F9218934FF00008984B00
:10A5A8004FF000091D682846FEF7C5FC2246834681
:10A5B800179213782B2B3BD02CD80D2B26D8082B91
:10A5C80026D8002B2FD000230D93179E3378302BDD
:10A5D80074D1737803F0DF03582B65D10D9B17A94D
:10A5E800884A5046019318AB0297009319AB12F0B2
:10A5F80055F910F00705044635D0062D1AD10F9BE2
:10A608000BB101361E6042464B4637E0202BDAD1AB
:10A618000132CDE72D2BD6D101230D93531C17936F
:10A628005378002BD1D10F9B002BECD01C60EAE7AC
:10A638000023F2E7189A3AB135211AA818F02BF935
:10A648001899504612F0FCFB013D199A042D06D8C2
:10A65800DFE805F0190322251900DDE91A89210729
:10A6680001D549F000490F9B13B1179B0F9A13604E
:10A678000D9B002BC7D0424609F1004343EC102B39
:10A688001DB0BDE8F08FDDE91A8302F2334223F4EE
:10A69800801343EA0259E2E7DFF86C91DFE76FF0D5
:10A6A80000494FF0FF38DAE7179B5A1C17925B787E
:10A6B800302BF9D0002BD6D0012300E0002300274F
:10A6C80004930A22179BCDE905770A931798067811
:10A6D800A6F13003D9B2092924D95A46294617F0D8
:10A6E800F3FC00282DD000203246059D8346034602
:10A6F800652A01D0452A13D11DB9049A024392D084
:10A708000025179C621C179262782B2A6ED02D2A7E
:10A7180072D04FF0000CA2F1300109297AD91794B0
:10A72800002699E00599013008291790D7BF0699A6
:10A7380002FB073702FB01330693059B01330593A0
:10A74800C4E7179B03EB0B02179213F80B20059B2A
:10A75800A3B383461D46A2F13003092B12D9012366
:10A76800C6E7179B01305A1C17925A78302AF8D03E
:10A77800A2F13103082B00F2EF8483460020179BD7
:10A7880005460A93303A00F1010311D09B4400EBCF
:10A79800050C2B460A21634512D12B180135082BCD
:10A7A800054419DC06990A2303FB012306930023B9
:10A7B800179A1846511C17915278CCE70598D5E797
:10A7C800082B03F1010303DC069E4E430696E2E7DD
:10A7D800102BD8BF4F43DEE70F2BDCBF0A2303FB48
:10A7E8000727E4E74FF0000B012386E74FF0000C42
:10A7F800A21C1792A2788EE74FF0010CF8E700BF71
:10A80800143B0200A03A02000000F07F179A511C86
:10A8180017915278302AF9D0A2F1310108293FF670
:10A828007FAF303A0792179A0C92179A561C1796D0
:10A838005278A2F1300EBEF1090F38D90C99761A68
:10A84800082E44F61F6603DC07998E42A8BF0E4601
:10A85800BCF1000F00D07642002D4FD10499084377
:10A868007FF401AF002B7FF4DEAE692A29D026DC05
:10A87800492A26D04E2A7FF4D6AE9B4917A817F04E
:10A8880088FE00283FF4CFAE179B1B78282B2FD1CA
:10A898001AAA964917A817F090FE052828D11B9BDD
:10A8A800DDF8688043F0FF4949F4E009DBE6079EDC
:10A8B8000A2101FB0621A1F130020792B5E76E2AB1
:10A8C800D9E78B4917A817F064FE00283FF4ABAE10
:10A8D800179B17A88749013B179317F05AFE10B921
:10A8E800179B01331793DFF81C924FF00008BAE664
:10A8F800814801F079FA59EC108BB4E6A6EB0B030A
:10A9080006982C460C93059B002B08BF2B46102D50
:10A918000593A8BF1024FDF755FD092D80468946EB
:10A9280013DC0C9B002B3FF49EAE0C9B78DD162BA2
:10A9380045DC7249424601EBC3014B46D1E90001AF
:10A94800FDF7BAFD804689468DE66C4B03EBC403E0
:10A9580053E91223FDF7B0FD804689463846FDF7D6
:10A9680031FD02460B4640464946FDF7EFFB0F2DE9
:10A9780080468946D5DD2C1B0C9B1C44002C25DC0D
:10A9880000F0A280644214F00F020AD05B4B4046EC
:10A99800494603EBC203D3E90023FDF7B7FE80461F
:10A9A8008946241100F090801F2C40F3B1802223A7
:10A9B8004FF000084FF00009CAF8003053E6C5F11F
:10A9C80025030C9A934219DA2C1B144414F00F0334
:10A9D8000AD04A49424601EBC3014B46D1E900017E
:10A9E800FDF76AFD8046894634F00F046CD0B4F553
:10A9F8009A7F41DD2223CAF8003074E7C5F10F05BC
:10AA08003E4C42464B4604EBC501D1E90001FDF737
:10AA180053FD0C9B5D1B04EBC504D4E900238FE7B1
:10AA28001633A8DBABEB0602344B4046494603EB32
:10AA3800C203D3E90023FDF769FE83E700230693E9
:10AA48002223DFF8C0904FF00008CAF800301899A8
:10AA5800504612F0F5F90699504612F0F1F90599A9
:10AA6800504612F0EDF91099504612F0E9F907999D
:10AA7800504612F0E5F9F6E5002324114046494610
:10AA88001F4F0493012C22DC0BB180468946049B9E
:10AA9800A9F154791A49424601EBC3014B46D1E961
:10AAA8000001FDF709FD174B0A4680460B40164981
:10AAB8008B429FD8A1F580118B4286BFDFF84C905E
:10AAC8004FF0FF3802F15479002304934BE0E2077A
:10AAD80004D5D7E90023FDF7EFFC0123049A64109D
:10AAE800083701320492CDE7717E02008C3A0200E9
:10AAF80051420200997E0200C14002004832020021
:10AB0800203202000000F07F0000A07CFFFFEF7FF2
:10AB180014F0100340464946AA4F18BF6A2304930D
:10AB28000023E20704D5D7E90023FDF7C5FC01237C
:10AB3800641007F10807F4D10BB180468946049BDD
:10AB480043B1C9F30A524946C2F16B03002B4EDCEC
:10AB58006A2304930022002340464946FDF714FF68
:10AB680000287FF424AF069B5046059A00932B4695
:10AB78000A9912F0CFF9109000283FF43BAF0C9BD4
:10AB8800ABEB060B002BB4BF5B46002311930C9B69
:10AB980023EAE3731393002307930593109B50460E
:10ABA800596812F00DF9069000283FF449AF109B40
:10ABB8000C301A6903F10C010232920017F0E8F820
:10ABC8001AAA19A9504649EC108BCDE90A8912F046
:10ABD8007DFC189000283FF433AF0121504612F055
:10ABE800E3F903460590D0B90023059328E71F2B06
:10ABF8000EDD342B4FF00008DBBF4FF0FF33C2F1FE
:10AC08004B024FF05C799340D8BF03EA01099FE7F4
:10AC18004FF0FF3202FA03F303EA080898E7199C99
:10AC28001A9A002CA9BF119B139BE718139EB8BF53
:10AC38001E1B049BB8BF119FE41A634B1444C2F156
:10AC48003602013C9C4280F2B0801B1B01251F2B61
:10AC5800A2EB0302CDBFC4F17F449D40002404F55C
:10AC68007F04C2BF04F57B44E23405FA04F407EB21
:10AC7800020B049B16445F451E443B46A8BF5B4637
:10AC8800B342A8BF3346002BC2BFABEB030BF61A87
:10AC9800FF1A119B002B16DD1A460599504612F033
:10ACA80043FA059000289FD00146189A504612F0A2
:10ACB80091F90E9000283FF4C3AE1899504612F04F
:10ACC800BFF80E9B1893BBF1000F71DC0C9B002B97
:10ACD80008DD139A5046069912F026FA06900028C5
:10ACE8003FF4ACAE002E08DD32460699504612F00D
:10ACF80075FA069000283FF4A1AE002F08DD3A4609
:10AD08000599504612F06AFA059000283FF498AE6B
:10AD1800069A5046189912F0CDFA079000283FF489
:10AD28008FAEC36805990E930023C36017F066FDC4
:10AD380000284BDA0E9B53EA080340F0BC80C9F3A5
:10AD48001303002B40F0B78029F000431B0D1B05AF
:10AD5800B3F1D66F40F2AF80079B5B6923B9079BBD
:10AD68001B69012B40F3A78001220799504612F076
:10AD780035FA0599079017F041FD002840F39B80AC
:10AD880029F00043049A1B0D1B05002A79D0B3F162
:10AD9800D66F6DD8B3F15C7F46D84FF000084FF0FE
:10ADA80000092223CAF8003051E6002401255EE795
:10ADB8005A461899504612F011FA1890002885D171
:10ADC8003EE600BFF831020002FCFFFFCB4640F030
:10ADD800A3800E9AC9F31303002A40D09C4A9342D9
:10ADE80058D1049B42467BB9B8F1FF3F40F08980B7
:10ADF800984B99453FF424AE974BDDF8108009EA4B
:10AE0800030303F5801922E6934B09EA0303B3F120
:10AE1800D46F16D918F101011BD18E4A91453FF420
:10AE28000FAE03F5801980468C4B404649460022F8
:10AE3800FDF742FB0B468046894603437FF407AE85
:10AE4800AFE71E0D4FF0FF31C6F16B06B1408845E4
:10AE5800E7D0002C5ED014EA0B0FE5D01EE0002BE3
:10AE68004AD1B8F1000F8BD064B314EA0B0F2BE072
:10AE7800A3F580134FF0FF386FEA13596FEA0959A9
:10AE8800D2E7A3F580134FF0FF386FEA13596FEA42
:10AE98000959DCE59CB114EA090F0CD04046494633
:10AEA800049A17F06CF9DDE90A0153EC102BFDF751
:10AEB8004DF980468946049B002BB5D1C7E515EAB4
:10AEC800080FEAE718EA050FF5D0049A4046494604
:10AED80017F055F9DDE90A0153EC102BFDF734F9A9
:10AEE8000022002304460D46FDF74EFD00287FF49E
:10AEF80054AFA046A946DEE7002CB6D115EA080FE4
:10AF0800E2E724B114EA090F3FF4A1ADC6E718EA55
:10AF1800050FF9E72A42A0E70599079817F089FC79
:10AF280000224FF0804355EC104B20462946FDF790
:10AF38003FFD00286DD00E9B002B78D1B8F1000F93
:10AF480056D1C9F31303002B59D10022444B204694
:10AF58002946FDF723FD002858D12046294600221E
:10AF6800404BFDF7A9FA04460D4605F10043089445
:10AF78000993394B0BEA03031293129A3A4B9A42FC
:10AF8800DDE9086740F0A980ABF1547949EC108BF2
:10AF980012F028FADDE9082351EC100BFDF78CFAC2
:10AFA80042464B46FDF7D2F80B462B4980462F4ABE
:10AFB800194091425CD90B9A264B9A4203D10A9BBD
:10AFC80001333FF43DADDFF88C904FF0FF3818990E
:10AFD800504611F035FF0699504611F031FF05999A
:10AFE800504611F02DFF0799504611F029FFD5E57D
:10AFF800B8F1010F03D1B9F1000F3FF4CEAE002430
:10B00800174D9FED0F7B8DED087BB2E70024154DA2
:10B01800ABE7144B204629460022FDF74DFA0E9B5C
:10B0280004460D46002BA0D0CDE90845A1E79FEDC9
:10B03800067B55EC174B8DED087B9AE7AFF3008044
:10B04800000000000000F0BF000000000000F03F1A
:10B05800FFFF0F00FFFFEF7F0000F07F0000503977
:10B068000000F03F0000E03F0000E07FFFFF9F7C12
:10B0780003F15479049B4E46002BA8D129F00043D4
:10B08800129A1B0D1B059A42A1D120462946FDF7AD
:10B09800E3FDC9F31306FDF7E1F90B46024629461D
:10B0A800204646EA0806FDF74FF80E9B04460D4673
:10B0B8001E434BD02EA3D3E90023FDF76FFC0028D5
:10B0C8007FF4C5AC204629462BA3D3E90023FDF71E
:10B0D80083FC00283FF47BAFB9E4049B13B3129BB5
:10B0E800B3F1D46F1ED82046294625A3D3E90023FF
:10B0F800FDF75EFC90B129462046FDF7B5FC012816
:10B1080038BF0120FDF75EF90E9B04460D46D3B902
:10B1180001F1004314901593DDE9146707F1D66334
:10B12800129A9F1A9DED0A0B12F05CF930463946C7
:10B1380053EC102BFDF7C0F9DDE90A23FDF706F8FB
:10B148008046894696E7CDE91445E5E70EA3D3E99D
:10B158000023FDF723FCBCE7652A3FF443AB452AEF
:10B168003FF440AB0123FFF779BB00BFAFF300808A
:10B178009535A094FFFFDF3F35E5AF350000E03F90
:10B188000000C0FFFFFFDF419535A094FFFFCF3FD0
:10B198002DE9F04F476A97B08346209E08910C929C
:10B1A800129355EC104B8DED000B7FB9102010F069
:10B1B80013FB0246CBF8240020B9A74BEA21A74885
:10B1C80012F0E6FEC0E901770760C760DBF82430BB
:10B1D800196859B15A680123584693404A608B60F0
:10B1E80011F02EFEDBF8243000221A602B1EB7BFA8
:10B1F80023F00043002301220193A8BF3360019F7D
:10B20800974BB8BF3260BB4319D142F20F73129A01
:10B218001360C7F31303234300F0DB85219B53B965
:10B22800904B21E0904B03930833219A13600398C5
:10B2380017B0BDE8F08F8B4B03930333F5E79DED13
:10B24800007B0022002351EC170B8DED0A7BFDF7E4
:10B258009BFB804650B10123129A1360219B13B1C6
:10B26800824B219A1360824B0393E0E7C7F30A5697
:10B2780014AA15A958469DED0A0B12F027F9029059
:10B28800002E76D00B9BA6F2FF36CDF84C80C3F388
:10B29800130343F07F53DDE90A0143F440131946D1
:10B2A8000022744BFCF750FF65A3D3E90023FDF798
:10B2B80003F965A3D3E90023FCF748FF04460D46CC
:10B2C8003046FDF78FF862A3D3E90023FDF7F4F8C1
:10B2D80002460B4620462946FCF738FF04460D4631
:10B2E800FDF79AFB00220746002320462946FDF772
:10B2F80055FB40B13846FDF775F822462B46FDF759
:10B3080043FB00B9013F162F52D85B4B03EBC70331
:10B31800DDE90A01D3E90023FDF740FB002849D005
:10B32800013F00231193149B9B1B5A1E4CBFC3F172
:10B3380001030023079245BF069300230693079352
:10B34800002F39DB079B10973B4407930023099391
:10B35800089B092B66D8052BC5BF043B0024012494
:10B368000893089B023B032B67D8DFE803F02D3ACC
:10B378003859DDE914631E4406F23243202BC9BF55
:10B38800C3F14003C3F120039F4006F21243D8BF24
:10B3980004FA03F006F1FF36C4BF24FA03F347EAC0
:10B3A8000300FDF70FF80122A1F1F873139276E775
:10B3B8000123B7E71190B6E7069BDB1B06937B4298
:10B3C800099300231093C3E700230D930C9B002BD4
:10B3D80056DC012399461A4604930C920CE001238B
:10B3E800F3E700230D930C9BFB1803F10109049369
:10B3F8004B46012BB8BF0123DBF8240000210422AF
:10B4080002F114059D423FD94160584611F0D8FC1D
:10B41800039000283BD1194B02464FF4D571CEE674
:10B428000123DFE7012400230D9408934FF0FF3335
:10B438000022994604931223CFE701230D93F5E7E1
:10B4480061436F63A787D23FB3C8608B288AC63F22
:10B45800FB799F501344D33FA37E0200BA7E0200BB
:10B468000000F07F9F7E0200967E0200965C02003C
:10B47800955C02000000F83F483202002E7F02006F
:10B488000C9B99460493B7E701315200B8E7DBF803
:10B498002430B9F10E0F039A1A606FD8002C6DD0C2
:10B4A800002F36DD07F00F02A04BF8054FEA2714EE
:10B4B80003EBC20393ED007B8DED0E7B17D59C4B00
:10B4C80004F00F044FF00308D3E90823DDE90A016B
:10B4D800FDF71CF9CDE90001954D5CB9DDE90E23B6
:10B4E800DDE90001FDF712F9CDE900012BE04FF08D
:10B4F8000208F1E7E10709D508F10108DDE90E01C5
:10B50800D5E90023FCF7D8FFCDE90E016410083512
:10B51800E3E700F007817C42844B854D4FF0020839
:10B5280004F00F02241103EBC203DDE90A01D3E999
:10B538000023FCF7C1FF0023CDE90001002C40F0F7
:10B54800E580002BD0D1119BDDE90045002B00F0F0
:10B558004C810022774B20462946FDF71FFA002828
:10B5680000F04381B9F1000F00F03F81049B002BEC
:10B5780000F3E480DDE90A34CDE90034159B002BA3
:10B5880002DB0E2F40F342820D9A002A40F06782B8
:10B59800099C0025DDF81880B8F1000F0DD0079B35
:10B5A800002B0ADD4345069AA8BF4346D21AA8EBEA
:10B5B80003080692079AD31A0793099B0BB30D9BAE
:10B5C800002B00F0A682002C00F0A182294622461A
:10B5D800584611F0A9FD029A01460546584611F051
:10B5E800F9FC02990646584611F02AFC099B1B1BD8
:10B5F800099300F09182099A3146584611F094FD5A
:10B6080002900121584611F0CFFC109B0446002BF4
:10B6180000F084821A460146584611F085FD089BC1
:10B628000446012B03DC009B002B00F07C820026E3
:10B63800236904EB8303186917F091F8C0F120001F
:10B648001096079B184410F01F0000F09182C0F17B
:10B658002003042B40F38182C0F11C00069B0344A5
:10B6680080440693079B03440793069B002B05DD44
:10B678001A460299584611F0B1FD0290079B002B1B
:10B6880005DD21461A46584611F0A8FD0446119BCF
:10B69800002B00F076822146029817F0AFF80028B8
:10B6A80080F26F8200230A220299584611F0EAFBC1
:10B6B8000D9B7E1E0290002B00F05C820023294621
:10B6C8000A22584611F0DEFB049B0546002B03DCDA
:10B6D800089B022B00F35E82B8F1000F05DD2946B6
:10B6E8004246584611F07AFD0546109B002B00F0A3
:10B6F800D0826968584611F063FB0746002840F07D
:10B708007F820D4B024640F2EA2158E5E20706D552
:10B7180008F10108D5E90023FCF7CEFE01236410E7
:10B7280008350BE74FF002080DE700BF483202006A
:10B73800203202000000F03F2E7F02002046002247
:10B74800AC4B2946FCF7B8FE7E1E08F10108049CA4
:10B75800CDE900014046FCF745FEDDE90023FCF792
:10B76800ABFEA54B0022FCF7F1FCA1F15073CDE92B
:10B778000E010F93002C3BD10022A04BDDE9000104
:10B78800FCF7E2FC02460B46CDE90023DDE90E2377
:10B79800FDF722F9002840F05781DDE90E2101F17B
:10B7A8000043DDE90001FDF7F9F800283FF4E2AEB7
:10B7B800002425460C9BDDF80CA0DE434FF0000862
:10B7C8002146584611F03CFB002D00F0A980B8F145
:10B7D800000F05D0A84503D04146584611F030FB6C
:10B7E8002946584611F02CFB9AE03E464C46B1E7F4
:10B7F800834B03EBC40353E90201039B1C440D9BD9
:10B80800002B4AD002460B4600207E49FCF77EFFFB
:10B81800DDE90E23FCF798FCDDF80CA0CDE90E015C
:10B82800DDE90001FDF7F8F80546FCF7DBFD024607
:10B8380030350B46DDE90001FCF786FC0AF8015BB0
:10B8480002460B46CDE90001DDE90E01FDF7C4F81B
:10B85800002865D100206C49DDE90023FCF774FC61
:10B8680002460B46DDE90E01FDF7B6F8002840F068
:10B878000D81A24500F0EA8000225E4BDDE90E0151
:10B88800FCF71AFE00225B4BCDE90E01DDE9000151
:10B89800FCF712FECDE90001C2E7DDE90E23FCF753
:10B8A8000BFEA046DDF80CA0CDE90E01DDE9000194
:10B8B800FDF7B2F80546FCF795FD024630350B4614
:10B8C800DDE90001FCF740FC0AF8015B02460B4683
:10B8D800A245CDE900234FF0000223D1494BDDE911
:10B8E8000E01FCF733FC02460B46DDE90001FDF7CB
:10B8F80073F8002840F0CA8000204249DDE90E2391
:10B90800FCF722FC02460B46DDE90001FDF746F88C
:10B9180070B1C24608F1FF381AF8013C302BF8D054
:10B92800374655E0334BFCF7C7FDCDE90001BDE7CD
:10B93800DDE90A34CDE90034159B002BFFF628AE6B
:10B948000E2F3FF725AE2E4B03EBC70393ED007B7D
:10B958000C9B002B8DED047B02DAB9F1000F64D04B
:10B96800DDF80CA0DDE90045DDE904232046294681
:10B97800FCF7CCFEFDF750F80646FCF733FDDDE991
:10B988000423FCF799FD0246204606F130040B46D5
:10B998002946FCF7D9FB0AF8014B039C02460B46E3
:10B9A800AAEB0404A14540F08280FCF7CFFB0446D3
:10B9B8000D46DDE90423FDF70FF8002865D1204680
:10B9C8002946DDE90423FCF7DFFF08B1F3075CD45F
:10B9D8000299584611F034FA002301378AF80030EA
:10B9E800129B1F60219B002B3FF421ACC3F800A0E1
:10B9F8001DE400BF0000244000001C40000014406B
:10BA0800483202000000E03F0000F03FA24B03EB89
:10BA1800C70393ED007B0C9B002B8DED047B9FDA15
:10BA2800B9F1000F9CDC7FF4C3AE00229B4BDDE92B
:10BA38000401FCF741FDDDE90023FCF7C3FF0446E0
:10BA480000287FF4B5AE3E462546B4E0DDE90A3469
:10BA5800CDE90034159B002B01DB0E2FD6DD089AAB
:10BA6800012A36DC139A82B303F23343099CDDF8CA
:10BA78001880069A012158461A440692079A1A44D1
:10BA8800079211F091FA054686E53E4653469A46D6
:10BA980013F8012D392A06D1039A9A42F7D1302298
:10BAA800039901360A701A7801321A7038E70022B1
:10BAB8007B4BFCF701FD0022002304460D46FCF7F2
:10BAC80063FF00283FF450AF82E7149BC3F13603AD
:10BAD800CCE709F1FF34099BA34208DBB9F1000F59
:10BAE800A3EB04040EDBDDF818804B46C1E7099B85
:10BAF800109AE31A0994DDF8188000241A444B467A
:10BB08001092B6E7069BA3EB09080023B1E7029E53
:10BB180071E5099A029970E5029672E5089B012B76
:10BB280017DC009BABB9019BC3F313039BB9019BC3
:10BB380023F00046360D360536B1069B0126013343
:10BB48000693079B01330793109B002B7FF470AD7E
:10BB58001096012075E50026F6E73FF486AD1C3304
:10BB6800069A1A4498440692079A1A4407927CE562
:10BB78000346F4E7049B002B2BDC089B022B09DC13
:10BB880027E0B9F1000F1DDC089B022B1ADD3E46A9
:10BB9800CDF81090049B002B7FF40CAE21460522B3
:10BBA800584611F06FF901460446029816F026FE31
:10BBB80000287FF7FFADDDF80CA0312301360AF825
:10BBC800013BFBE50D9B3E46CDF81090002B7FF422
:10BBD80083AD039F2146029816F01EFB039B00F1DC
:10BBE8003009049A07F8019BFB1A9A4240F3CB806C
:10BBF80000230A220299584611F044F90290E9E715
:10BC08002A6905F10C010C300232920016F0C0F8D6
:10BC180001223946584611F0E1FA039BA846054629
:10BC280003F1010ADDE9032313440793009B03F0A2
:10BC3800010309930AF1FF3321460298049316F091
:10BC4800EBFA4146069000F13009029816F0D6FD4D
:10BC58002A4621460746584611F02CFBC268014681
:10BC680002B3584611F0ECF8002F3ADA0122029993
:10BC7800584611F0B3FA2146029016F0BFFD00288D
:10BC880003DC29D119F0010F26D0B9F1390F1DD1E4
:10BC980032E02846C1E700BF4832020000001440E5
:10BCA800000024400A90029816F0A8FD0A990C900A
:10BCB800584611F0C5F80C9A5ABB089B53B9099B12
:10BCC80043B9B9F1390F17D0002F05DD069B03F1F1
:10BCD800310901E0002F2ADADDF810A00AF8019BEB
:10BCE8006EE5089B3B4304D1009B03F00103002B46
:10BCF800BCD0B9F1390F36D1049F392307F8013B7D
:10BD0800BA46013F1AF8013C392B5AD001333B702F
:10BD180056E5002F06DB089B3B4306D1009B03F04A
:10BD2800010313B9002AA1DCD6E7002AE1DC079B4E
:10BD380057460AF8019C53452ED000230A2202993F
:10BD4800584611F09FF8A84502904FF000034FF0B5
:10BD58000A02414658460BD111F094F88046054630
:10BD68000AF1010A66E7DDF810A009F10109B5E753
:10BD780011F088F82946804600230A22584611F017
:10BD880081F80546ECE7049B4FF00008002BCCBF78
:10BD98001F460127039B1F4401220299584611F0B0
:10BDA8001DFA2146029016F029FD0028A8DC02D1D0
:10BDB80019F0010FA4D1BA4617F8013D302BFAD07B
:10BDC800FEE4039BBB429BD13123039A01361370D7
:10BDD800F6E4219B002B7FF425AA014BFFF744BA18
:10BDE800967E0200000000009FED010B704700BF27
:10BDF800000000000000F87F08B5037863B9037AF3
:10BE080003F0FB03012B07D1044812F0F3F9BDE856
:10BE1800084003480EF0AABD08BD00BF6C3B0200F5
:10BE2800B4CA0020032807B502460ED0042829D03A
:10BE3800012812D1E8211A480DF096FC68B9194872
:10BE480003B05DF804EB0EF091BD532015F068FFC8
:10BE5800019028B9144812F0CDF903B05DF804FB3D
:10BE6800022253210DF080FC18B1019815F051FF02
:10BE7800F3E7002200230D4801A90EF0DBFB0028A0
:10BE8800F3D1EAE703220C2109480DF06DFC0028E4
:10BE9800E3D10849084803B05DF804EB15F073BC1A
:10BEA80070CB0020CCCA0020853B02006CCA002061
:10BEB80058DB002048DB002058CC002001480EF059
:10BEC80055BD00BFFCCA002008B50D4812F092F914
:10BED800152007F09BF9014620B1BDE80840094844
:10BEE80012F088B94FF0FF324FF0FF3306480EF0DA
:10BEF80063FDBDE808404FF4004000210FF012B97F
:10BF0800A93B0200C33B0200B4CA0020142008B5B4
:10BF180007F07CF9014620B1BDE80840034812F05B
:10BF280069B90348BDE8084012F064B9E53B02006E
:10BF3800093C020038B501230B4C0C4D0C48216814
:10BF48002B70D4E9012312F055F9FFF7BDFF204605
:10BF580000F058FA10B1074812F04CF9FFF7D6FF75
:10BF680000232B7038BD00BF58DB002054E30020AD
:10BF78001A3C0200593C020010B5114C204610F042
:10BF880041F820460F4C12F035F94FF47A7012F050
:10BF98006BF8204610F036F8204612F02BF94FF4D3
:10BFA8007A7012F061F8084810F02CF8074812F07F
:10BFB80021F9BDE810404FF47A7012F055B800BF6F
:10BFC8007C3C0200813C0200863C02008B3C020063
:10BFD8002DE9F04F85B0FFF7CFFF4FF4FA6012F06C
:10BFE80043F8374812F006F905F05EF9044638B10F
:10BFF8000146344812F0FEF8204605B0BDE8F08F3F
:10C00800314814F005F813F074FF044640B12F4886
:10C0180012F0F0F82E4812F0EDF84FF0FF34EBE78D
:10C028002C4806F055FD2C4B0DF108084FF4106212
:10C038002A492B480293CDF8008005238DF80C403F
:10C048000EF042FD2748284915F070FB244812F0ED
:10C058002AF808B12548DEE71F2007F0D7F820B1F5
:10C06800234812F0C7F82348D5E723480DF0ACFE63
:10C0780008B12248F5E71F200DF04CFE08B1204812
:10C08800EFE701200DF0BEFD10B11E4812F0B2F826
:10C0980000200DF06DFE08B11B48E2E70DF00CFE24
:10C0A80008B11A48DDE701200DF0D8FD08B118489D
:10C0B800D7E70DF033FD064670B31648D1E700BF49
:10C0C800913C0200A73C0200C5BE0000D73C02001C
:10C0D800003D020001BE00001C3D0200D0100120FE
:10C0E80058CC002048DB00203DBF0000283D02005E
:10C0F800453D02004B3E02002DBE00006D3D020092
:10C108008E3D0200AB3D0200C73D0200EC3D02003F
:10C11800093E0200293E02009C4812F06BF815F017
:10C1280065FC4FF47A74A0FB043204FB0121984F9C
:10C13800DB0B43EA4143C90BC7E90031954DDFF8F2
:10C14800B892DFF8B8A24FF0FF334FF0FF32022168
:10C1580090480FF0D3F9EB6803F4FE13B3F5004FE2
:10C1680040F0CD802869002200230EF025FC83468C
:10C17800002840F0C48099F80030002B40F0BF80C0
:10C1880000F01EFA002840F0BA80504612F032F84B
:10C19800814812F02FF8DFF868C25B465A465946C4
:10C1A8006446BCF8520068B19CF85C00013110F09C
:10C1B800020F1CBF0132D2B2000748BF0133C9B217
:10C1C80048BFDBB20BF1010BBBF10C0F0CF10C0CEF
:10C1D800E7D1724812F00EF894F85030180702D5DB
:10C1E8006F4812F007F894F85030D90602D56D4818
:10C1F80012F000F894F850305A0702D56A4811F046
:10C20800F9FF6A4811F0F6FF94F85030DB0740F167
:10C21800998015F0EBFB4FF47A72A0FB020302FB46
:10C228000131D4E90023C00B40EA4140C90BC7E9FA
:10C2380000015F4811F0DEFFD4E902235D4811F0E8
:10C24800D9FF2069FCF7E0F802460B465A4811F07E
:10C25800D1FF6069FCF7D8F802460B46574811F041
:10C26800C9FFE069FCF7D0F802460B46544811F0C4
:10C27800C1FF206AFCF7C8F802460B46514811F086
:10C28800B9FFE06AFCF7C0F802460B464E4811F0C9
:10C29800B1FF94F8373094F83620A18E4B4811F04E
:10C2A800A9FFA38F4A48009394F83A3094F83920AC
:10C2B80094F8381011F09EFF206CFCF7A5F80246A0
:10C2C8000B46444811F096FF606CFCF79DF8024657
:10C2D8000B46414811F08EFFA06CFCF795F802461A
:10C2E8000B463E4811F086FFE06CFCF78DF80246DD
:10C2F8000B463B4811F07EFF3A4811F07BFF2B6A52
:10C3080003F4FE13B3F5802F13D1686A00220023CB
:10C3180041460EF0E7F960B999F8003033B900F0FA
:10C328004FF918B90299304811F064FF029815F0D6
:10C33800F0FCEB686FF39433EB602B6A6FF3943384
:10C348002B6200E715F052FB4FF47A72A0FB020350
:10C3580002FB0131C30B43EA4143D7E90002C90B91
:10C36800181A61EB020100234FF47A72FCF73CFCC7
:10C3780001461E4811F03EFF1D4A731CDEB203F051
:10C388000303D15C1B4811F035FFB5E73E3E0200C0
:10C3980068CB0020B0C50020773E02007C3E02003A
:10C3A800A43E0200C33E0200E33E02000E3F02002C
:10C3B800333F02004A3F0200613F02007A3F020019
:10C3C800933F0200AE3F0200C93F0200E43F020073
:10C3D8000440020029400200404002005740020089
:10C3E8006E400200B1400200476B02008540020027
:10C3F800C2400200A140020054E30020703E020047
:10C4080070CB00202DE9F0414FF00108604E614FDC
:10C4180005464FF4167231460020C4B087F80080F4
:10C4280009F0C6F9044680B15B4B039002930023E0
:10C43800CDE9003301221846584911F025FE0023A2
:10C4480020463B7044B0BDE8F08101462C220FA87D
:10C4580015F0C5FC4FF0FF33CDE910360E93504B65
:10C46800102212934FF4006321460AA8139315F083
:10C47800B6FC02238DF828304A4B07AE0DF1680848
:10C4880093E8070086E807004022214640460B95BE
:10C4980015F0A5FC08F0DEF8002850D16422082029
:10C4A8002BA907F071FF002849DB102221462BA891
:10C4B8000FF0B8FE64221C902BA9032007F064FF3C
:10C4C80000283CDB102221462BA80FF0ABFE64228B
:10C4D8001D902BA9052007F057FF00282FDB0A2203
:10C4E80021460DF1AF000FF09DFE0A221B90214658
:10C4F8002BA88DF8AF400FF095FECDF830801A903C
:10C50800AB68032205936B68244904932B680025C4
:10C518000393254B28460293CDE900552B4611F08D
:10C52800B3FD32460AA90EA809F0BEFF044690B131
:10C538001E4B0390CDE9015300952B467AE71C4B1F
:10C5480003900293002301221846CDE900331349D2
:10C5580011F09AFDD4E7174B0322CDE901030F49E7
:10C568000346009011F090FD0999079809F096F993
:10C57800044610B1104B0390DCE7104B0322CDE9C1
:10C58800010306490346009011F07EFD57E700BFFE
:10C5980002F9002055E30020D24002007430020066
:10C5A80002F10020A03102001741020054410200AC
:10C5B800F4400200784102008E410200B6410200B8
:10C5C800014B1878704700BF55E300202DE9F04F64
:10C5D80091B0009302F004030293C2F3C203013343
:10C5E800840705460E46DDF868800392059340F0FF
:10C5F800BD81041D30B1072909D86FF01B0011B0A7
:10C60800BDE8F08F01F00706341DC6F10806009B4F
:10C618004FF000094FF0040A591E4FF0FF334F4600
:10C628000193CB465346CDF810900DB10098206089
:10C638000598002800F3EB809948009A824203D3BA
:10C6480098488242C0F0E380039AA4EB050E920753
:10C658004FEA9E0000F106810F2F00F2B480002DF2
:10C6680000F0088107F140020DEB020C019A0CF86A
:10C67800200C0CF8102C049801300490EAE07A2879
:10C6880060D84B280ED847285CD829282FD82528C9
:10C6980055D057D820287DD02338D0F1000B4BEB4C
:10C6A800000B77E0A0F14C0CBCF12E0F4AD8DFE864
:10C6B8000CF07149494949494949494949494C494D
:10C6C800494949494949495A494C4C5A5A5A714C5D
:10C6D8006E497149184C18494983804C49494C495D
:10C6E800800000204FF0000B4FF0040A39E00122CF
:10C6F800A0F12A0C5FFA8CFC02FA0CFC1CEA0E0F63
:10C7080048D11CF062502ED11CEA020B42D0013CE9
:10C718005444CAF1000C04EA0C04002D61D0A3EBC8
:10C72800050CA4446645FFF468AF002868D1042BC3
:10C7380047D158F8043B2360042304342AE0019AC3
:10C74800013A01924FF0000B24E011F8010C6C281B
:10C7580034D1002011F8023C83466C2BC4D14FF031
:10C76800080A5346D3E708F1070828F007080734F2
:10C7780024F00704F8E802AB35B106982044B0422B
:10C788003FF63BAFC4E900AB4FF0000B08344FF065
:10C79800080A534611F8010F002878D0BBF1000FA2
:10C7A8007FF46DAF2528F5D14FF0010B019B0133C4
:10C7B80001934FF0040AECE7584693E700208346BC
:10C7C800A5E7082B02D06FF0150018E708F1070855
:10C7D80028F00708B8EC027B84ED007B08230834B6
:10C7E800D8E768B9042B02D108F10408A4E7082B9C
:10C7F800E9D108F1070828F0070808F10808EDE76B
:10C8080005980138059058F8040B00900DE7039A35
:10C81800900720D54FF0010CA4EB050E4FEA9E00BF
:10C82800BEF5007FCFD20F2FCDD8F5B107F140026A
:10C838000DEB020E019AC0B20EF8200C0EF8102C67
:10C84800BCF1000F3FF417AF60F07F000EF8200C2A
:10C8580009F101090137C5F108024FF6DA7E0434FF
:10C86800069297E74FF0000CDAE7BCF1000F01D011
:10C878000136EFE7029A0236002AEBD10098CDE99B
:10C888000631FCF758FBDDE906310644E2E7631B95
:10C89800B3F5806F97D23DB9A6F10804E018AEE66B
:10C8A800B82C0200BC800200029A9B0828602B70FA
:10C8B8009DF81030C2B1EB7085F80290B9F1000F05
:10C8C80005D0002208A8C5F1010C97420ED14FF0FF
:10C8D800000AC5F101030DF1200801930DF1300B99
:10C8E800574512D1601B8AE66B70E5E710F8013BEB
:10C8F800190608D504EB0C0E764503F07F03FFF408
:10C908007CAE04F8013B0132DFE7B9F1000F03D038
:10C9180098F90020002A17DB029BD3B11AF80B20E4
:10C9280004F8012B0022019B981820448642FFF44A
:10C9380064AE98F80000009904F8010B20460392B1
:10C9480015F026FA039A14440AF1010A08F10108BD
:10C95800C6E798F8002055F822300093029B00980B
:10C9680045F82230FCF7E7FA421CDCE76FF00D00CF
:10C9780045E600BF032808B506D912F01DFA0923B9
:10C9880003604FF0FF3008BD044B03EB4013D3E8BE
:10C99800AF3F002BF1D00020F5E700BF6CDB002093
:10C9A80070B504460E461546FFF7E4FF00280CDB79
:10C9B800074B610103EB4414626832601DB101F159
:10C9C8000C021A442A60585870BD0020FCE700BFCA
:10C9D80064DB002010B500244FF0FF334FF0FF3226
:10C9E80014480DF0D9FE144BD3E8AF2F7AB10134B7
:10C9F800042C03F12003F7D112F0DEF917234FF0CE
:10CA0800FF3403600B480DF041FF204610BDD3E80A
:10CA1800EF0F0130C3E8E10F0029F8D1074863019F
:10CA280000EB4411C2504A600C33184414F0AAFDBC
:10CA3800E8E700BFE0C900206CDB002064DB0020D1
:10CA480010B4044610460A4B620103EB4414995093
:10CA5800606048B1C4683CB10C3213445DF8044BC3
:10CA680040F2051211F052BB5DF8044B704700BF4D
:10CA780064DB002030B50D49400100F108030B4488
:10CA8800D3E8AF2F82B1541ED3E8EF5F954204D1AB
:10CA9800C3E8EC4FBCF1000FF6D1F1D1012A01BF78
:10CAA80000230A180B50536030BD00BF64DB002020
:10CAB800014B1860704700BFD8C5002030B500256D
:10CAC80087B0CDE903010446009503A905480595FB
:10CAD800FCF73AFADDE904309842B8BF255407B0AC
:10CAE80030BD00BFD7E101002DE9F84340F26C7377
:10CAF80044690569E1170135E41841F10001022D87
:10CB08008CBF00230123E41AC76861F100010029E2
:10CB1800064607F1FF374EDA6FF4C7704FF4C87254
:10CB28000023201861F10001FCF70EF8244B4FF0A8
:10CB38003C0E03FB0044D6E900834FEAE37C9946A8
:10CB48006346022D02468CBF6FF002000920B668CA
:10CB58000544C6FB0E93A9FB0EC60EFB036640F206
:10CB68006D1E9920A3080EFB04333B4464274543FC
:10CB78000520B4FBF7F40235B5FBF0F51B1B114C8F
:10CB88001CEB080CA2FB042004FB01012B4446EB20
:10CB9800E87698180C4A41F1000380180B4A63F1B3
:10CBA8000003A0FB020102FB031110EB0C0041EB98
:10CBB8000601BDE8F8834FF4C87200232046B3E7A6
:10CBC80070FEFFFFB13A02009405F5FF80510100A5
:10CBD8002DE9F047058B04462807904611D4022911
:10CBE80005F0070540F0CD80204611F0F1FC78B142
:10CBF8000138218B042811D8DFE800F0C3106D85B7
:10CC0800950001290CBF45F0100545F02005258346
:10CC180088F31188BFF36F8FBDE8F08701F0070A2A
:10CC2800AA4500F0A6800027B9463E46A368002B17
:10CC380000F0BD8041F00801218388F31188BFF31B
:10CC48006F8FA168002900F0BB800D68002900F0F3
:10CC5800B780334652462046D1F80480C047002D9D
:10CC680076D02B6829461D46F0E701F007035A1FC6
:10CC7800012A1BD8002221F00701062B276889B258
:10CC8800C4E9002209D13B4603E0628B013262838A
:10CC98001B68002BF9D141F002012046218311F0D5
:10CCA80097FC00287BD041F0200177E0042B0AD1C3
:10CCB80021F0070189B22046218311F089FC10B1C7
:10CCC80041F020012183218B01F0070AAA4550D0A9
:10CCD8000027B946AAE7236921F0070141F00601B8
:10CCE800062DD3F8009021832DD1B9F1000F40D043
:10CCF80041F00801218388F31188BFF36F8F204624
:10CD08003949C84729E021F00701236941F00401A6
:10CD180089B2042DD3F804902183E6D000274FF080
:10CD2800040A3E4682E721F00701236941F0050124
:10CD380089B2052DD3F808902183D6D000274FF06B
:10CD4800050A3E4672E700274FF0060A3E466DE7A1
:10CD58002B4687E7B9F1000FD1D14FF02003EFF34D
:10CD6800118883F31288BFF36F8F238B23F0080396
:10CD78002383258BEA062ED525F01003238305F09F
:10CD880007056669218B002EBFF66FAF0023276861
:10CD9800C4E9003321F0070141F001012183218B0F
:10CDA8004FF0000901F0070AAA457FF43FAF002FB2
:10CDB8009BD041F00801218388F31188BFF36F8F5E
:10CDC800002FC7D03D68394633465246204611F0F9
:10CDD8002BFC2F46F4E7AB067FF51AAF25F02003AE
:10CDE800238305F00705FFE65DE60100F0B502467E
:10CDF80001680A270020074E0B461C780131355D73
:10CE08006D0701D41360F0BD07FB0043A3F13000A8
:10CE1800F2E700BF687D02002DE9F84F15469A46F3
:10CE2800D378224A6F2B12F803B080460F460BF0D6
:10CE3800030B29D024D8582B0CBF10260A26DDF85E
:10CE480028903246002340463946FBF7CDFE092A92
:10CE5800D4B21ED83034B045E4B277F1000709F8EF
:10CE6800014D01D3D14511D82B789B0605D5082E45
:10CE780015D1AB7843F00803AB704846BDE8F88F8E
:10CE880003F0F703702BD7E70826D8E780460F464C
:10CE9800D7E7BBF1010F0CBF37345734DBE7102E4F
:10CEA800EBD1AB7843F01003E6E700BF687D0200E2
:10CEB8004FF02002EFF3118382F31288BFF36F8FD4
:10CEC8000121044AC2F8401583F31188BFF36F8F1C
:10CED800002070470090034020B1034B800143F0CD
:10CEE80001031847704700BFF03102000AF0D6B9B5
:10CEF8002DE9F84F81462F480F4611F0AFFC064642
:10CF080070B92D4C0546A0464FF0010BDFF8ACA0D8
:10CF1800544507D3B9F1000F02D04FF0010AE5B923
:10CF2800BDE8F88F237B73B12368DB680BB120461B
:10CF3800984723681B6943B9636804222046196827
:10CF480000F0C4F801361034E2E72046984700287C
:10CF5800F2D00BFA06F31D43F4E7A94695FAA5F4B7
:10CF6800B4FA84F40AFA04F3260108EB04146FEA0D
:10CF7800030B25EA0305237B63B158F806301B69C8
:10CF880093B94644736804222046196809EA0B09D4
:10CF980000F09CF8002DE1D127B14FF4A4700021D6
:10CFA8000EF0C0F84D46BAE7204698470028F1D160
:10CFB800E7E700BFECDB0020843102009431020077
:10CFC800014B53F8200070471033020008B50346A0
:10CFD80008462BB1044A136000F07CFA002008BD13
:10CFE8006FF01500FBE700BFDCC500200023054AF1
:10CFF8004FF400411370044A04481360044A136054
:10D00800FFF7E4BF5AFB0020E4DB002061E80100E1
:10D01800E8DB002070B50B4D297841B90120FFF7F6
:10D0280067FF094C094EB44202D301232B7070BD2F
:10D0380063685B791BB1236820469B689847103466
:10D04800F1E700BF5AFB002084310200943102004E
:10D0580010B50446064811F001FC3CB1054BD3E875
:10D06800EF1F0139C3E8E21F002AF8D110BD00BF45
:10D07800E4DB0020E8DB002070B50A4B05461B689E
:10D088009847094C094EA860B44200D370BD636844
:10D098005B7923B12368294620461B6898471034DA
:10D0A800F2E700BFDCC500208431020094310200A1
:10D0B800044A054B9B1AB1EBD30F34BF52F8310029
:10D0C800002070472C30020084310200084B10B455
:10D0D800C31A44681B110133237143689A710122F2
:10D0E8004368196043685A715DF8044B11F0D4BB6A
:10D0F800843102002DE9F04F85B002AF0446D7E92C
:10D108000EA90E46934698463D6BBAF1000F33D0F0
:10D11800C7F80490CDF800901021534600207A6B90
:10D12800FFF754FA0146154A04F007040BF0070B01
:10D13800E40044EA8B1402EA4122144344EA055409
:10D1480017350D4425F00705ADEB050D02ADBAF115
:10D15800000F07D0CDF8009053467A6B05F1100008
:10D16800FFF734FA434622463146284611F097FB2A
:10D178000C37BD46BDE8F08F5146D4E700FE0F00DE
:10D188000EB403B503AB53F8042B014604480193CE
:10D1980011F0C7FB02B05DF804EB03B0704700BFA5
:10D1A800D9E80100CA0605D48B064CBF02490349D9
:10D1B800FFF7E6BF704700BFC04002000C780200CE
:10D1C8002DE9F04F8BB09A46DDE915739DF850B004
:10D1D8000693179B04460D46189E08920593BBF1CB
:10D1E800000F00F0858006F00103099306F008039C
:10D1F800079311F052FB06F002090246002847D0B7
:10D2080020468449FFF7BCFF8046B9F1000F08D0DB
:10D2180016F0440F3ED12A4620467F49FFF7B0FF5B
:10D228008044099B53B17D4B204653F82B207C4BFF
:10D238007C49002A08BF1A46FFF7A2FF079B002B6C
:10D2480054D0794B204653F82B207849FFF798FFA4
:10D258000546089B2BB11A4620467549FFF790FFF3
:10D268000544BAF1000F05D0524620467149FFF730
:10D2780087FF05444544002F48D1059B002B4ED11C
:10D28800F30700F1C08031462046FFF78BFFB4E07A
:10D298008046BAE7684B18680028C1D0674B4FF43E
:10D2A8007A791B684FF46161B5FBF3F5B5FBF0F3D0
:10D2B80000FB135509FB05F5B3FBF1F2B5FBF0FED6
:10D2C8004FF03C0C01FB123100FB1E55B1FBFCF387
:10D2D80009FB05F5B5FBF0F50CFB13112046009191
:10D2E800CDE901E55649FFF74BFF99E7079DB0E700
:10D2F800BAF1010F06D1002F65D1059B002B7CD018
:10D3080000250CE0002FF8D04E485DE04E483B4623
:10D3180022464E4910F0C9FE059B002B69D0DFF864
:10D328004081DFF84091059F3146102F204628BFE5
:10D3380010274FF0000AFFF735FF554546DC069BDE
:10D34800494620461A78FFF71BFF4FF0010A1AF0EA
:10D35800070F03D141462046FFF712FF57453CD936
:10D36800069B4946204613F80A20FFF709FF0AF1F1
:10D37800010ABAF1100FEAD14FF0000A20463449E9
:10D38800FFF7FEFE5246069B20469A5C314B995C9D
:10D3980011F0970F08BF2E222F49FFF7F1FE0AF16F
:10D3A800010ABAF1100F1DD01AF0070F03D1414638
:10D3B8002046FFF7E5FE57455246E4D84146204649
:10D3C800FFF7DEFEEBE720485D46A0E74146204632
:10D3D800FFF7D6FE0AF1010AAFE720461F49FFF71B
:10D3E800CFFEC4E7069B3B440693059BDB1B0593D6
:10D3F80099D1BBF1000F7FF443AF20460BB0BDE8D5
:10D40800F04F11F095BA2046054A0649FFF7B8FED5
:10D4180039E700BFF4410200F8410200203302005E
:10D42800EF410200476B0200343302001D42020044
:10D438002342020027420200F4DB0020F0DB002038
:10D4480001420200F5E80100D9E801002BE90100DA
:10D4580036420200687D0200F8590200324202009A
:10D46800344202002C4202002DE9F0410F884B683B
:10D4780005460C4690468E6886B0C7F382175BB1A6
:10D48800134A9B1A43F3CF0100291FDB2078C0F30E
:10D49800C200FFF70DFE0346214651F8102B6088A5
:10D4A800C2F34A22002A01EB020408BF0021C0F39C
:10D4B8000B10CDE90308CDE90114002231462846B6
:10D4C8000097FFF77DFE06B0BDE8F0810023E3E793
:10D4D8002C30020000210123064A904206D8064A51
:10D4E80001B901231360054B1860704701214008FA
:10D4F8005B00F2E740420F00F0DB0020F4DB002085
:10D50800014B0020196070470CDC00200122024BFF
:10D5180002481A7011F00CBA5CFB00206433020058
:10D5280010B5064B0C461868FFF74AFD2146BDE8C2
:10D53800104003460F220248184700BF0CDC0020A9
:10D5480064330200F8B50D460446064F4618B44247
:10D5580001D12846F8BD14F8011BBB6801485B6877
:10D568009847F4E7982D02002DE9F84305464FF057
:10D578002003EFF3118683F31288BFF36F8F4FF008
:10D588000C090D4B0D4F1C68DFF834802CB986F35D
:10D598001188BFF36F8FBDE8F883D4E90123002D0C
:10D5A80018BF13462BB198F8102009FB02F2B85C9B
:10D5B80098472468EAE700BF28DC00201CDC00202C
:10D5C800FCE20020012270B5164B1C7C04F01F03FE
:10D5D8009A40D043144B610903EB8103D3E8EF1F52
:10D5E80001EA0005C3E8E65F002EF7D10A4213D02E
:10D5F8000E4B0F4D8BB10C236343EA185178E85C4E
:10D6080011F022F90020FFF7AFFF0C235C43002341
:10D618002A192B51C2E9013370BD83F31188BFF376
:10D628006F8FEFE7FCE2002030DC002051E80100BA
:10D638001CDC00202DE9F041324B07461D7C4FF0E1
:10D648002003EFF3118883F31288BFF36F8F0C2444
:10D658006C432D4B2D4E195D1A19002947D007CA66
:10D6680006EB040C8CE8070000221A5588F3118891
:10D67800BFF36F8F0C236B43F05CF218A8B37B1CCD
:10D6880010D04FF400400021D2F808C0204C0023ED
:10D69800ECFB00411F4A2046FBF7A6FA0121381A85
:10D6A80003F0C6FD0DF084FC0120FFF75DFF1A4B67
:10D6B8006A0903EB8203012205F01F018A40D3E8BF
:10D6C800EF0F1043C3E8E10F0029F8D1134B3BB12A
:10D6D8000C2303FB05F033185978305C11F0A8F8D7
:10D6E800FFF770FF0DF078FC0120BDE8F0810146DE
:10D6F800284600F015F80028B8D007C8344484E854
:10D708000700B3E7FCE2002010DC00201CDC00204E
:10D718003F420F0040420F0030DC002039E8010092
:10D728002DE9F04F85B00E4603A900F043F84FF4F9
:10D73800004704464FF0000B1B4B039DD3F800A095
:10D74800431E1BB203EB4303DFF8648005EB83053C
:10D7580024B9A146484605B0BDE8F08FC4465946ED
:10D7680068680023E0FB07C1104A6046FBF73CFAF3
:10D77800C44659460190A8680023E0FB07C10B4A3C
:10D788006046FBF731FABAF1FF3FA94601D082455E
:10D7980005D9731CDED0019B1844B042DAD9013C8C
:10D7A800A4B20C3DD4E700BFE0C5002040420F0002
:10D7B8003F420F0008B9024B0B600020704700BFC2
:10D7C80074330200F0B504469BB00F46164600219C
:10D7D800302202A814F003FB002C7BD0002E79D055
:10D7E8001B238DF8083014F001F94FF47A720025E4
:10D7F800A0FB020302FB0131C00B4FF47A72002335
:10D8080040EA41402946FBF7EFF9344B03442361D2
:10D818001BBA23F0FF0343F08303E0680C93302224
:10D828002B46CDE9005502A911F047F900280FDB76
:10D83800294630220EA814F0D2FAA1683A462046AA
:10D8480011F0A3F9A84205DA11F0B6FA00684042CF
:10D858001BB0F0BD35D0E06830222B46CDE900552D
:10D868000EA911F05EF90028EEDB30282CD1149BAC
:10D8780022691BBA9A4202D06FF01500E8E79DF8BA
:10D88800383003F00703042BF6D19DF83930F3B193
:10D89800189B199A1BBA12BA53EA0201ECD0002B52
:10D8A800B2600ADA0E4A9342E6D90E4A9A1863EB36
:10D8B80003030020C6E90023CAE70A4A1A440023E2
:10D8C800F7E76FF07300C3E76FF07900C0E76FF018
:10D8D8000F00BDE76FF00D00BAE700BF807EAA8396
:10D8E8007F7EAA838081557C2DE9F04105460E464E
:10D8F8001746104CDFF84080444507D311F05CFA16
:10D908006A2303604FF0FF30BDE8F0812368AB4223
:10D9180000D063B93A4631462846A368984730B1E3
:10D928003A4631462846E368BDE8F04118471034C6
:10D93800E2E700BF1C3002002C300200014B1860E7
:10D94800704700BF34DC002010B4034C24682468FE
:10D95800A4465DF8044B604734DC0020014B1B688B
:10D968005B68184734DC0020014910220A607047C0
:10D9780010ED00E072B6404080F31188BFF36F8F5E
:10D98800BFF34F8F30BF62B6BFF36F8F704700BFD2
:10D9980072B6494081F31188BFF34F8F20BF80F3DF
:10D9A800118862B6704700BF2DE9F04780460D46E2
:10D9B8008CB0002977D000248B68012205934B682E
:10D9C800204604930B683B4903933B4BCDE9004445
:10D9D8000293234611F029F96B69012205932B69FB
:10D9E80020460493EB6833490393344B0094CDE904
:10D9F8000143234611F019F9EB6901220393304BD7
:10DA08002046CDE901432B492346009411F00DF936
:10DA18002F462646DFF8B490DFF898A0D7ED0B7AAA
:10DA2800FCEEE77AE31C0993CDED0A7AD7ED0A7A82
:10DA3800FCEEE77AA31C0793CDED087AD7ED097AB7
:10DA4800FCEEE77A631C0593CDED067AD7ED087AEC
:10DA58000023FCEEE77ACDE90294CDED047A0122A9
:10DA680051461846CDE90066043411F0DEF8102C52
:10DA780007F11007D2D12B6E01220393114B0D49E8
:10DA8800CDE9016300230096184611F0CEF8AB6982
:10DA9800012203930C4B0749CDE90163002300964B
:10DAA800184611F0C2F8294640460CB0BDE8F047C8
:10DAB8000CF074BB5C310200004302002F430200EB
:10DAC8005E430200B0430200BF4302006D43020000
