:020000040000FA
:10000000C0880020993D0000D5AC00006D3D000087
:100010006D3D00006D3D00006D3D000000000000E2
:10002000000000000000000000000000813A000015
:100030006D3D0000000000002D3A00006D3D000005
:10004000313B0000313B0000313B0000313B000000
:10005000313B0000313B0000313B0000313B0000F0
:10006000313B0000313B0000313B0000313B0000E0
:10007000313B0000313B0000313B0000313B0000D0
:10008000313B0000313B0000313B0000313B0000C0
:10009000313B0000313B0000313B0000313B0000B0
:1000A000313B0000313B0000313B0000313B0000A0
:1000B000313B0000313B0000313B0000313B000090
:1000C000313B0000313B0000313B0000313B000080
:1000D000313B0000313B0000313B0000313B000070
:1000E000313B0000313B0000313B0000313B000060
:1000F000313B0000313B0000313B0000313B000050
:1001000053B94AB9002908BF00281CBF4FF0FF317E
:100110004FF0FF3000F00CB8ADF1080C6DE904CEE3
:1001200000F008F8DDF804E0DDE9022304B07047D0
:10013000704700BF2DE9F04786468C460846089E6A
:10014000154674461946002B40F0C2808542B2FA2B
:1001500082F245D94AB1C2F1200300FA02FC2EFA1C
:1001600003F3954043EA0C0C94404FEA154EA8B2B5
:10017000BCFBFEF8230C0EFB18CC08FB00F943EA8D
:100180000C43994528D9EB1808F1FF3704D299455B
:1001900002D9A8F102072B44A3EB0903A4B2B3FBD5
:1001A000FEFC0EFB1C330CFB00F044EA0344A042AF
:1001B00014D92C190CF1FF3304D2A04202D9ACF1AE
:1001C00002032C44241A43EA07401EB1D440002302
:1001D00034607360BDE8F0874746DDE76346F1E7CA
:1001E00092BB431B01214FEA154EAFB2B3FBFEFC9D
:1001F000200C0EFB1C330CFB07F840EA0343984528
:1002000062D9EB180CF1FF3004D2984502D9ACF159
:1002100002002B44A3EB0803A4B2B3FBFEFC0EFBCD
:100220001C330CFB07F744EA0344A7424ED92C19B0
:100230000CF1FF3304D2A74202D9ACF102032C44E3
:10024000E41B43EA0040C0E7C2F1200320FA03F1B7
:10025000954090402EFA03F303434FEA154EAFB298
:10026000B1FBFEFC0EFB1C10190C0CFB07F841EA5D
:100270000041884504FA02F422D969180CF1FF30D4
:1002800004D2884502D9ACF102002944A1EB08014F
:100290009BB2B1FBFEFC0EFB1C110CFB07F743EA03
:1002A00001439F420ED9EB180CF1FF3104D29F425B
:1002B00002D9ACF102012B44DB1B41EA004192E779
:1002C0006046E3E76146F7E76046A3E76346B7E7C2
:1002D000834206D916B9002108467BE7C6E900E04B
:1002E000F9E7B3FA83F78FB9834201D3724508D88F
:1002F000BEEB020460EB030301209C461EB9002103
:1003000068E73846FAE7C6E9004CF8E7C7F1200C81
:10031000BB4022FA0CF41C432EFA0CF120FA0CF329
:10032000B84001434FEA14490EFA07F5B3FBF9F858
:100330001FFA84FE09FB18300B0C08FB0EFA43EA87
:1003400000439A4502FA07F240D9E31808F1FF305A
:1003500004D29A4502D9A8F102002344A3EB0A0370
:1003600089B2B3FBF9F809FB183308FB0EFE41EA2A
:1003700003418E452CD9611808F1FF3304D28E4514
:1003800002D9A8F10203214443EA0040A0FB0298ED
:10039000A1EB0E014145CE46434602D306D14D4561
:1003A00004D2B9EB020E68EB04030138002EA6D08C
:1003B000B5EB0E0261EB030101FA0CFC22FA07F324
:1003C0004CEA0303F940C6E9003198E74046C5E727
:1003D0004346D9E7F0B5354B354AC3F8002685B01A
:1003E000C3F80426C3F80826C3F80C26C3F8102661
:1003F000C3F81426C3F81826C3F81C2600F072F8B8
:100400002C4C20460CF076FE00B32569A6682B68BC
:10041000294A43F400532B6033680D212046984746
:10042000736801A92046984720B92A68019B534068
:100430009A040BD54FF08043D3F800340BB1DB079F
:1004400004D502F0ABFD1D4803F0D2F801A800F07E
:100450005DFC1B4B1B68834200D0FEE74FF49031DC
:1004600000200BF05BF8044600B1FEE769469DF8FA
:10047000080009F08EF8009B039D1D44019B1E8916
:1004800001F08CFDAF1900F0E1FD00F0B5FD03F0C7
:10049000ADFCAB5983F3088884F31488BFF36F8FE6
:1004A000BFF36F8F7B689847FEE700BF00000140F5
:1004B0003546526EDCD7000011000100C8DA00009A
:1004C000000700201FB50C46014601AA04480AF0A7
:1004D000FEFD18B9019B2360029B636004B010BD50
:1004E00054D8000002484FF4C05105F065BD00BF6C
:1004F000922C00202DE9F04FF9B0DDE98448DFF8B7
:10050000E0A138A8DAF8006017461D460CF0C1FBE0
:10051000002138A805F064FE3CB1B8F1000F04DDFD
:100520004246214638A80CF0B8FB7B89B7F8088012
:100530009844FB684FF000099844C84521D80DA99C
:1005400038A80CF0E3FB869B23B120220DA91846A6
:100550000AF0F5FB002300932A464FF6FF73394655
:1005600007A809F027F8044638B928460C9F09F077
:10057000F1F887421BD94FF0FF34204679B0BDE82F
:10058000F08F839B829AA8EB090B9B4528BF9B4663
:100590005B46494628460AF050F804460028ECD14C
:1005A00082995A4638A80CF078FBD944C5E7DFF8A1
:1005B00034914FF0FF370DF1160305AA06A907A8DD
:1005C00009F046F8B0F10008C0F288807BD1BDF890
:1005D00016B0BBF1100F18D1BDF81440202CCAD1B1
:1005E0000699234638AA28460AF027F880460028AC
:1005F00074D1224638A90DA809F076F804463A4B82
:100600001B688342B9D10124D5E7BBF1010F37D173
:10061000BDF81430202BAED8069938AA28460AF027
:100620000CF88046002859D19DF814B0BBF1200F7A
:1006300003D94FF0FF384746BDE7D9F800302B4FBC
:100640000393039B9845F4DA1DA80CF022FB0021CC
:100650001DA805F0C5FD7A6857F8081B12681DA88B
:100660000CF01BFB15A91DA80CF050FB5A4638A92D
:1006700015A80AF03DFB0028DDD008F10108E0E7ED
:10068000BBF1200F97D17B1C95D0D9F80030BB422D
:1006900016DDBDF81430B3F5807F7FF46CAF06999A
:1006A00038AA284609F0C9FF8046B8B9FFB2BDF89C
:1006B0001430009738AA59460DA800F019F80646DC
:1006C0004FF0FF3777E73CB1074B1B68B34218BFC9
:1006D000DAF80060344650E74FF0010844464CE732
:1006E00000000020D0DA000000070020D4DA00006B
:1006F0002DE9F04F1F46ADF54B7D6A4B9DF85063D9
:100700001D68804627A88A4691460CF07FFA664B02
:1007100053F83640029403EBC6038AAA5B681B6851
:100720001C442146302302A80BF003F868BB029B4F
:100730008A9A13449C4228D129AA214602A80BF088
:100740000CF810BB0DF1B00B5A46214602A80BF075
:1007500004F80646C8B929A80BF020FB029B289094
:100760009C4212D1CDE9006B3346324629A927A815
:100770000CF009FA48B927A805F0C4FC28B929A843
:100780000BF00CFB874228900AD027A80CF048FAFF
:1007900027A80CF045FA28460DF54B7DBDE8F08FF3
:1007A000B7F5807F02D04FF0FF35F1E7BAF1200FA7
:1007B000F9D18AAA494627A805F0CAFC04460028B0
:1007C000F1D19DF82733BC2BEDD152AF0390DF263A
:1007D0003D460CA80CF05DFA00210CA805F000FDC8
:1007E00020220DF207310CA80CF057FA042203A9BD
:1007F0000CA80CF052FA04A90CA80CF087FA202ED1
:100800009DF80F30B146A8BF4FF02009013338469C
:100810004A4604A9A6EB09068DF80F300AF08FFAB4
:10082000002E4F44D5DC2F468AAB2946002208789B
:1008300013F8016B01327040DF2A01F8010BF6D189
:100840002B7803F07F032B7017F8016B002EAAD1D1
:100850000134BE2CF8D195F8BE30012BA3D10CA8E1
:100860000CF017FA31460CA805F0BAFC0F49082223
:100870000CA80CF012FA414620220CA80CF00DFA3C
:1008800020220DF207210CA80CF007FA04A90CA8ED
:100890000CF03CFA20220DF2073104A808F024FFE6
:1008A000054682E700000020D4DA000094DF000053
:1008B0002DE9F04186B00223DFF86C80ADF80030FE
:1008C0000D466F46002617F8010B01A902F07AF9D0
:1008D0000446A0B901988168102302AA103909F0D2
:1008E000ACFE0446019809F0A7FE44B91022414627
:1008F00002A80AF0FDF940B12EB14FF0FF342046B6
:1009000006B0BDE8F0810126DDE701980AF018FE87
:100910000423A0F108012A46019809F08EFE04463E
:10092000019809F089FEEAE760DF00002DE9F04157
:10093000324B88B0064600200C461D6808F02FFE9A
:1009400006A9C0B202F03EF9002852D1214608F0B3
:1009500026FE2C2507A9C0B205FB046502F032F97A
:1009600000282ED02C27674306EB0708069BD8F8F3
:10097000101011F0100133D14FF480720192204A0F
:100980000092CDE903112A4602910846FFF7B2FD15
:1009900005461C4BF25906989A420CD1D8F80C2007
:1009A000B8F808309B1806D28268934203D2164BDF
:1009B0001B68AB421AD0C4B18268002109F067FEFF
:1009C00013E0079809F07EFE0746079809F034FE09
:1009D0006B1EEA1C13F8011FB942C3D19342F9D12F
:1009E000069914B1304608F084FF0125069809F0F5
:1009F00023FE284608B0BDE8F08100BF00000020BB
:100A0000924400203DB8F3960007002073B50D46D0
:100A1000044600212846CDE9001108F029FFF0B175
:100A2000124E2368B34203D101AA204608F0B5FE56
:100A3000E36AB34204D16A460121204608F0ADFEC4
:100A4000DDE90032934288BF0193019BAB602046F1
:100A5000019A294600F0E0F9002002B070BD05F1CE
:100A60000801FFF725FFAB680193F0E73DB8F39667
:100A70002DE9F84FDFF870B01C4C1D4D88469146AB
:100A80009A4600260B9B9E4201D300200FE00B9B51
:100A9000154A9F1BB7F5806F28BF4FF480673B4610
:100AA00006EB0A01404609F0C8FD10B10120BDE87F
:100AB000F88F0A993B465A467118484609F0D2FD0C
:100AC0000028F3D1C4F800563E44C4F80456C4F8D4
:100AD0000856C4F80C56C4F81056C4F81456C4F896
:100AE0001856C4F81C56CDE7040F00200000014042
:100AF0003546526E2DE9FF41814B43620E46814BD4
:100B0000036500210446084608F049FD04F1200170
:100B1000C0B202F057F80121002008F040FD04F1B6
:100B20004C01C0B202F04EF80546204608F076FEB1
:100B3000002848D100221146204608F018FE00285F
:100B400058D1204608F0F5FF002853D0684608F039
:100B500086FE6946204608F020FF00284AD16846F4
:100B600008F086FE80F001016A46C9B2204608F00E
:100B7000FEFD0246F0BB684608F07AFE0746E8BB79
:100B800069462046FFF742FF9DF8073084F8583049
:100B9000033B012B06D8384608F04DFF10B1FF2368
:100BA00084F858309DF80730023B022B06D800200D
:100BB00008F02FFF10B1FF2384F8583094F8583014
:100BC000FF2B12D1FEE70123984284F85830B1D1AF
:100BD00094F858308DF80730042B36D8012B3AD8CA
:100BE00051D0FF2384F858304DE06A46002120465A
:100BF00008F0BDFD012384F85830E9E79DF807802F
:100C0000B8F1010F15D1104605F032F8831E022B02
:100C100007460BD841462046FFF788FE3A4B1B6833
:100C2000984203D0012814BF0527012784F8587083
:100C3000CEE701212046FFF779FE334B1B6898422F
:100C40000CBF9DF807300523D5E7052BC9D100203F
:100C500008F0F1FE12E069462046FFF7D7FE94F84F
:100C60005830DA1E012A05460BD8002008F0E3FEB2
:100C700005460028B5D1002008F0CBFE054610B18E
:100C8000AFE7022BF7D094F85830FF2B00D1FEE7E6
:100C9000012B10D06A460021204608F068FD054669
:100CA00048B1E06C09F0C8FC206A09F0C5FC284690
:100CB00004B0BDE8F08100212046FFF737FE07466B
:100CC000DFF84480D8F8003083420FD11022002191
:100CD00068460AF03FF8206A08F06AFC3071236A1F
:100CE0005B683460D8F80050B360DAE7E06C09F074
:100CF000A3FC206A09F0A0FC002D08BF3D46D6E702
:100D0000040B0020040700200007002038B5064D22
:100D100004466022002128460AF01CF82146284695
:100D2000FFF7E8FE38BD00BF0413002073B5164678
:100D30001D4643B15B79012B07D121B9204B2A68AD
:100D40001B689A4217D8002418E0022BFBD12B68AD
:100D5000012B07D91A4A12689342F4D8B1FA81F1EB
:100D60004909F0E7EFD131B10129ECD129790239F4
:100D700018BF0121E7E7436A5C680021002008F002
:100D80000EFC01A9C0B201F01DFF30B10124019891
:100D900009F052FC204602B070BD21460198202384
:100DA000324609F04AFC04460028EFD1002DEED06F
:100DB0003468044BE41A18BF4FF0FF34E7E700BF74
:100DC000040000203DB8F39673B54B681446114AF1
:100DD00003F0FF23934206460D4618D10B68012B02
:100DE00015D16946204604F0EDFE9DF80030032B36
:100DF0000DD12146304608F07CFD20460AF019FC52
:100E0000A968204608F097FC204604F0BBFE02B01B
:100E100070BD00BF000100042DE9F04F436A0C468D
:100E20005E6889B005460121002333449342084699
:100E300001F10101F9D3DFF8B881C8F800002046BC
:100E400008F016FD98B1E86D08F050FCAB6A00227E
:100E5000013B3244904201D9013BFAE7D8F8002027
:100E60009A4204D30123E37109B0BDE8F08F06A9CB
:100E7000022001F0A7FE07A9052001F0A3FE079AB2
:100E800021462846FFF7A0FF6379012B0AD1D8F845
:100E90000070DFF860B1D8F80030DDF818908FB935
:100EA00001232360022363710127D8F80030DDF8A5
:100EB00018A0BB4248D2504609F0BEFB079809F083
:100EC000BBFBD1E7226801339B1ABB423AD36B6A62
:100ED000196853F8370003EBC703012A53F8083C9D
:100EE000A3EB0103A0EB010A049311D1079B039329
:100EF000E368022B08D04946284608F0FAFC22464F
:100F00004946284608F02AFD0399284608F0F1FCD6
:100F100032465146484608F0EAFC049B4A46494698
:100F2000CDE900A62846FFF7A3FD2146284608F094
:100F3000ACFC23680133236020B1DBF800300133BF
:100F4000CBF80030013FA6E72368BB424DD86A6A60
:100F5000DDF81CB052F837100491FB00083B116813
:100F60000391D1582A6DD0581368A0EB0309237957
:100F7000012B38D1039B3246C91A5046059108F01F
:100F8000B6FC059900914B465246594601962846B3
:100F9000FFF76EFD2146284608F077FC02232371F7
:100FA00018B1144A13680133136032464946584653
:100FB00008F09DFCDDE9032351469B1ACDE900961C
:100FC0005A462846FFF754FD2146284608F05DFCA6
:100FD0002368013323600123237130B1054A13686C
:100FE0000133136001E0022BDFD001375DE700BF62
:100FF0000400002064130020BFF36F8F72B6124B01
:101000004FF0FF32C3F88020C3F88420C3F8882053
:10101000C3F88C20C3F89020C3F89420C3F898201C
:10102000C3F89C20C3F88021C3F88421C3F8882129
:10103000C3F88C21C3F89021C3F89421C3F89821F8
:10104000C3F89C21704700BF00E100E0164A4FF052
:10105000FF3301215160C2F84833C2F8083302F56A
:10106000C0425160C2F84833C2F8083302F59832E2
:101070005160C2F84833C2F80833A2F508320021A3
:10108000C2F80015C2F8083302F51832C2F800158C
:10109000C2F80833A2F51042C2F808354FF080427A
:1010A000C2F80833704700BF00B000402DE9F0439C
:1010B000079D15B91560002012E00324B5FBF4F478
:1010C00004EB4407BD4218BF0134B4F1804F09D28C
:1010D000A40001348C4200D838B914606FF00B00C2
:1010E000BDE8F0834FF0FF34F7E7DFF8BCE00446DB
:1010F0000021B94203F1030C04F104062CD3A942E8
:10110000274624D21F7801F1010CAC45264938BF8F
:101110005B784FEAA70E28BF002311F80EE084F891
:1011200000E0AC4501EB131E3CBF9B0003F03C0309
:101130004FEA071707F0300738BFCB5C1EF807707F
:10114000677028BF3D23A3703D23E3703746381AEC
:10115000002310603B70AEE71CF8034C1CF8023C07
:101160001CF8018C4FEAA40924011EF8099006F826
:10117000049C04F030040EEB13199B0019F8044092
:1011800006F8034C03F03C030EEB981408F03F08FC
:10119000E35C06F8023C1EF8083006F8013C033117
:1011A00034466346A5E700BF2AE100002DE9F0437D
:1011B000DDF81CE0DFF82C8100273C463D467545F4
:1011C0001FD3E4BB14600020BDE8F08301367645F0
:1011D00033D013F806C0BCF1200FF7D0AEEB0609F0
:1011E000B9F1010FA6EB05050DD0BCF10D0F0AD129
:1011F00003EB060999F80190B9F10A0F6ED1751C3D
:10120000DDE72E46E3E7BCF10A0FF8D02DB9BCF1BB
:101210003D0F05D10137022F0DD96FF01500D3E72F
:101220001CF0800FF9D118F80C507F2DF5D03F2D10
:1012300001D8002FF1D10134E1E73546C1E704F0D0
:1012400007064FF0060CE4080CFB06F60CFB04F452
:101250000736E41B04EBD60470B18C420CD800278F
:10126000DFF880E0DFF880801D44014603263C461D
:101270009D4205D10C1AA5E714606FF00B00A3E79F
:1012800013F8019BA9F10A0C5FFA8CFCBCF1160F54
:1012900004D848FA0CFC1CF0010FE9D01EF809C074
:1012A0000134BCF1400F08BF013E0CF03F0C042C90
:1012B0004CEA8717DCD17EB13C0C012E0C7002D1B8
:1012C00001310024D4E7022E4FEA17244C7016BFD8
:1012D0008F7002310331F4E73446C9E7002DA2D004
:1012E0009BE700BFAAE00000F6FFBFFF014B1B68B1
:1012F000184700BF0800002007B50B460021024632
:101300000091034800F014F903B05DF804FB00BF3E
:10131000ED1200002DE9F047058B044628079046A2
:1013200011D4022905F0070540F0CD80204608F0D1
:101330003DFE78B10138218B042811D8DFE800F098
:10134000C3106D85950001290CBF45F0100545F0CF
:101350002005258388F31188BFF36F8FBDE8F087E0
:1013600001F0070AAA4500F0A6800027B9463E46CC
:10137000A368002B00F0BD8041F00801218388F3B1
:101380001188BFF36F8FA168002900F0BB800D6842
:10139000002900F0B780D1F8048033465246204639
:1013A000C047002D76D02B6829461D46F0E701F096
:1013B00007035A1F012A1BD8002221F00701062B20
:1013C000276889B2C4E9002209D13B4603E0628B59
:1013D000013262831B68002BF9D141F002012183A5
:1013E000204608F0E3FD00287BD041F0200177E0A3
:1013F000042B0AD121F0070189B22183204608F08D
:10140000D5FD10B141F020012183218B01F0070AA5
:10141000AA4550D00027B946AAE7236921F0070161
:1014200041F00601062DD3F8009021832DD1B9F1AA
:10143000000F40D041F00801218388F31188BFF3E9
:101440006F8F3A492046C84729E021F007012369F8
:1014500041F0040189B2042DD3F804902183E6D031
:1014600000273E464FF0040A82E721F00701236976
:1014700041F0050189B2052DD3F808902183D6D01B
:1014800000273E464FF0050A72E700273E464FF020
:10149000060A6DE72B4687E7B9F1000FD1D14FF06F
:1014A0002003EFF3118883F31288BFF36F8F238B30
:1014B00023F008032383258BEA062ED525F010039D
:1014C000238305F007056669218B002EBFF66FAFF9
:1014D00000232768C4E9003321F0070141F001012E
:1014E0002183218B01F0070AAA454FF000097FF400
:1014F0003FAF002F9BD041F00801218388F3118872
:10150000BFF36F8F002FC7D03D6839463346524630
:10151000204608F077FD2F46F4E7AB067FF51AAFBB
:1015200025F02003238305F00705FFE631A0000026
:101530002DE9F04F8DB01D46531E82460191039355
:101540004FF00009039B5878252803F1010419D1B5
:101550001E4600204FF0FF380236034602904446F4
:1015600031780396392954D81F2914D8002900F05E
:10157000F08101992520D04701993078D04709F1B1
:101580000209DFE7002800F0E4810199D04709F162
:1015900001090394D6E7A1F12002192AE9D801A78D
:1015A00057F822F00D1600007315000073150000A7
:1015B0000D160000731500008D1600007315000055
:1015C000731500007315000073150000D916000094
:1015D0000D16000073150000ED16000099160000AE
:1015E00073150000A7160000C7160000C7160000FC
:1015F000C7160000C7160000C7160000C716000077
:10160000C7160000C7160000C716000008460136BE
:10161000A6E7582900F0EE80A1F16302D7B2172F98
:10162000A7D8172AA5D801A757F822F09B180000C1
:1016300013170000731500007315000073150000E8
:10164000F316000013170000731500007315000057
:10165000F3160000731500007315000073150000E9
:10166000CF17000073150000731500006F180000FD
:1016700073150000131700007315000073150000A8
:10168000CF17000073150000F31600000199252004
:10169000D04709F1010955E7029A02F0FE020292D1
:1016A0004FF00008B3E7002C0DDAB8F1000F0DDAA7
:1016B000029A002A00F0458124EAE4740A2202FB1F
:1016C0000414303CA3E7B8F1000FF5DB0A2202FB5B
:1016D0000812A2F130089AE7B8F1000F55F8042B70
:1016E00080F23181002A80F230815442022202923B
:1016F0008DE7682903D1682B06D1482387E76C2939
:1017000002D16C2B00F02381002B7FF432AF0B460B
:101710007DE77A2B06D1752955F8046B14D14FF06B
:10172000000B0CE06C2BF6D04C2BF4D1073525F0D8
:1017300007037529D3E9006B03F1080506D12028BA
:101740003ED1864F013C09E04FEAE67BBBF1000F3A
:10175000F5DA7642824F6BEB4B0B013C0DF12D031A
:10176000059300230493304659460A220023FEF7CE
:10177000C7FC049B03F1FF3CCDF810C0DDF814C09A
:1017800030320CF8012DCDF814C0B4465A46BCF1E5
:101790000A0F72F1000206468B46E4D2C3F1010B38
:1017A00030330DEB0306B8F1000FA6F104066DDA35
:1017B000029BD9077CD4A8EB0B03A4EB0B0413E02A
:1017C0002B280ABF674F684F04F1FF34C6E7702922
:1017D0000FD155F8042B0023FAB9644E053C6FF085
:1017E00004034FF0050B604F029A92076FD4A04696
:1017F00065E078216C2B03D155F8042B002308E019
:101800004C2BF9D1073525F007031D465B6855F8C9
:10181000082B232825D1880621D5554F023C01F0FD
:101820006001A1F1390B0DF12D0E002602F00F0120
:10183000092988BF594430310EF8011D102A4FEA9A
:10184000121141EA03714FEA131073F1000306F11C
:10185000FF3C08D2C6F1010B06F13003A1E7454F6A
:10186000DCE7414FDBE766460A460346DEE755F80C
:10187000046B304609F035FAB8F1000F834602DBFD
:101880004045A8BFC346384F4FF00008A8EB0B03F4
:10189000002B92DDA4EB0804A6E755F8043B8DF875
:1018A0001830013C4FF0FF334FF0010B06AE9AE7C2
:1018B000A046EBE7029301992020D047029BB8F1A4
:1018C0000108F7D524EAE472013C9144A41AB84611
:1018D00006E0049302920199D047029A049B904635
:1018E000424612F8010B0028F3D11A46013A15D5E9
:1018F000002BACBFC7EB03077F425B46013B15D50E
:10190000BBF1000FA8BF5F444F442646013E14D5EB
:10191000002CA8BF3F1907EB080913E604930292B5
:1019200001993020D047049B029ADFE70293019986
:1019300016F8010BD047029BE0E701992020D04721
:10194000E4E70122D3E6904661E614465FE64C23C5
:101950005DE648460DB0BDE8F08F00BF7DE10000B8
:101960007BE100007FE1000010E4000087E100005F
:1019700081E1000084E1000008B54FF02002EFF3A0
:10198000118382F31288BFF36F8F02F083FB034849
:1019900008F015F901F0AEFFFCE700BF8DE1000093
:1019A00004F036BDF0B40C4B0C4E5F6A0C4BB342E6
:1019B00003D36FF08500F0BC70475D68BD4209D36A
:1019C0001C693CB195F802C00579AC4502D12346AB
:1019D000F0BC18472433EAE768130020F80300201E
:1019E000D40300202DE9F047134CDFF85080DFF8D6
:1019F000509005460E461746444503D36FF08500C8
:101A0000BDE8F0876268D9F824309A4212D3A369FE
:101A100083B190782979884205D13A4631462846E3
:101A2000BDE8F04718475279012A03D13A463146BA
:101A3000284698472434DFE7D4030020F803002029
:101A4000681300202DE9F0410B4CDFF8308005468B
:101A50000E461746444502D36FF0850009E06369DE
:101A60000BB92434F6E73A46314628469847002811
:101A7000F7D1BDE8F08100BFD4030020F8030020B7
:101A800010B5044609F0ABF910F1780F00D050B949
:101A9000054A204608F061FCD2F8C43023EA00036E
:101AA000C2F8C430002010BD68130020024808228C
:101AB000002109F04FB900BF2314002070B50B4B73
:101AC0000B4CA34201D3002070BD196A1E7F002277
:101AD0000439D5B2AE4201D82433F2E7013211F80D
:101AE00032508542F5D10120EEE700BFD40300203B
:101AF000F803002008B509480378C3F341130A33FB
:101B000050F823303BB100F1080200F11001984772
:101B1000C043C00F08BD1846FCE700BF6813002093
:101B200004282DE9F14FDFF8AC9004460F4617D199
:101B3000FFF7BCFF284B93F8B930CBB100F01CFE87
:101B4000264DDFF894A04D4534D2D5F820B04FF0A3
:101B500000082B7F5FFA88F6B34218D82435F2E7E5
:101B6000052811D11C4B93F8B9300BB100F004FEDD
:101B70001A4D4D4523D3184B1B6A43B339462046B3
:101B800001B0BDE8F04F18470128F1D1D2E70BEBC7
:101B9000C60608F10108307909F021F902463079CA
:101BA00008F0DBFBDAF8C430002A23EA0003CAF8A5
:101BB000C430CEDA084B002283F8B920D8E7EB68AE
:101BC0001BB13A462146284698472435D1E701B053
:101BD000BDE8F08FF803002068130020D403002034
:101BE00073B5C4B263060D468DF8074007D0204692
:101BF000FFF764FF78B10D4B93F8BA0058B10B4E64
:101C0000204655B102F05EFEF3691BB10DF10701EC
:101C100008209847012002B070BD02F07BFEF369F6
:101C2000002BF7D00DF107010920F2E7681300201F
:101C300073B586788DF80060037942791B4C43EACE
:101C40000223ADF80230C378304603F003038DF869
:101C5000043008F082FBD4F8C4301842054608D09E
:101C6000304600F06BFD3046FFF70AFF962007F084
:101C70005BF8684602F002FE10F1780F03D010B155
:101C8000002002B070BD9DF8000002F07FFE10F150
:101C9000780F01D00028F3D1D4F8C43001202B43B1
:101CA00084F8B900C4F8C430EBE700BF6813002023
:101CB0002DE9F047A34EB36904460F461546FBB91C
:101CC000237803F01F03012B00F09D80022B00F00E
:101CD000048133BB94F900002A686178002834DA63
:101CE000062912D008292BD0D9B9012313705170BD
:101CF00096F8C3305B0043F00103137002232AE11E
:101D000098470028DCD100200DE06288100A011FEE
:101D10000129844605D9072803D8716AD2B20C7804
:101D20001CB96FF01500BDE8F0874E78664503D109
:101D30009A4200F00B8101332144F0E70B780AE16D
:101D400096F8BA301370012305E101390829E8D863
:101D500001A353F821F000BFF11D0000231D000076
:101D6000FF1D0000231D00007D1D0000231D00003D
:101D7000231D0000231D0000891D0000A07802F033
:101D80006BFD0028BFD0CCE76388756A63BBFFF7A3
:101D90008DFE638886F8BA30F369002BB3D06A49A8
:101DA00003209847AFE76B78042B10D0052B11D098
:101DB000022B04D16F796388BB4208BF01202B78C6
:101DC0001D442B78002BEED10028AAD0DFE795F830
:101DD0000380F4E76388BB42F1D1B8F1000FEED184
:101DE0002846FFF725FFEAE7FF270020B846E8E787
:101DF0006388012B95D1002386F8C33083E763887D
:101E0000012B8ED1F8E796F8BA30D5F800C0002B38
:101E100087D0756AA38894F804E02A4610780028D1
:101E20003FF47FAF5178022904D192F80480F04545
:101E300000F293800244F1E78CF800208CF8012036
:101E4000396060E7154494E00B2A7FF46AAF0027FD
:101E50004FF0FF08C146BA4606E06B78042B0FD05E
:101E6000052B21D02B781D442B78002BF5D1F3695D
:101E700013B1514607209847002F7FF444AF50E735
:101E800095F80280A38895F803909845EAD1638875
:101E90009945E7D1B8F1070F1CD806EB0803AA460D
:101EA00083F8BB900127DDE7A3884345DAD1A37807
:101EB0004B450AD0AF78384600F040FC3846FFF773
:101EC000DFFDB0FA80F77F09CCE72846FFF7B0FEC8
:101ED0000746C7E7AA460027C4E794F900206378BD
:101EE000002A18DA002B7FF41CAF24792D686306D2
:101EF0000AD02046FFF7E2FD00283FF412AF96F823
:101F0000BA30002B3FF40DAF2946204602F022FDE7
:101F100000236B70F2E6012B08D0032B7FF401AF96
:101F20006388002B7FF4FDAE012103E06188002966
:101F30007FF4F7AEA088FFF753FE00287FF4E3AEEE
:101F4000EFE600BF68130020221400200228296059
:101F50007FF4F4AE4B883B60D5E694F900006278DC
:101F60000028BFF671AF002A3FF466AF0A2A7FF45B
:101F7000D8AE2A78002A3FF4D4AE697804297FF4D9
:101F800061AFA9788B427FF45DAF072B96BF9B1999
:101F9000002393F8BB308CF80030D4E670B5164DB2
:101FA00095F8B830FBB102F037FC002822DB00F0D6
:101FB000E3FB0024D5F8C430E340DA07E6B214D4DA
:101FC000D5F8C43004F11002D340DB0705D546F044
:101FD0008000FFF755FD00280CDB0134102CE9D1FF
:101FE000002385F8B830002004E03046FFF748FDB4
:101FF0000028E5DA70BD00BF6813002013B5134C4C
:10200000237DCBB9E268A168019201AB802008F082
:10201000B2F9019AA3681344A360E3689B1AE360D2
:1020200043B93AB12369E2889A4203DD9B0601D1A4
:102030000123237502B010BD00231A4619468020E3
:10204000237502B0BDE8104002F0CABC681300203E
:1020500030B585B0002302460D460193002858D1C3
:10206000002935D108220B460DEB020108F0D0FE05
:10207000002804DA802002F025FC05B030BD2A4C8F
:10208000029A2260039A626004F13802A2609DF90C
:102090000820BDF80E302575002AC4E903550ADB77
:1020A000802B04D9802002F00DFC0020E3E713B15F
:1020B000C4E90333E1E7FFF71DFD0028DAD0E28829
:1020C00023699A42D4BFE260E360FFF797FFD4E749
:1020D000154CD4E90215002D01AB04DC08F098FE84
:1020E0000028CADAC6E72A4608F092FE0028D9DBA3
:1020F000019AA3681344A360E3689B1AE360002B72
:10210000BBD104F13803A360FFF7F4FC0028DCD155
:10211000B0E78028B1D1044BDA68002AD5D11B7D05
:10212000002BD2D1A9E700BF68130020054B064A57
:102130009A62064ADA62064A1A63064A58629A6145
:102140000020704768130020B11C0000A519000092
:10215000451A0000E519000010B5084B93F8B84087
:1021600034B900F0D7F830B1FFF7E0FF204610BDDA
:102170006FF07700FBE74FF0FF30F8E768130020BF
:102180002DE9F34104463B4D3B484FF0FF324FF001
:10219000FF3306F087F895F8B860002E67D137480E
:1021A0002C62E86102F036FD02F004FB041E42DB03
:1021B00000F006FB041E3EDB40236846ADF802300B
:1021C0008DF804608DF8006002F058FB041E32DBCD
:1021D000802768468DF8007002F050FB041E2ADB51
:1021E0002749304602F002FD041E24DB244938460C
:1021F00002F0FCFC041E1EDB224CDFF88C80444500
:1022000020D3002002F0C2FB041E14DBD5F8C4303A
:10221000802043F00103C5F8C43002F0B7FB041E70
:1022200009DBD5F8C43043F48033C5F8C43001234A
:1022300085F8B8300024104806F0AEF8204602B009
:10224000BDE8F081276A0026227FF3B29A4201D8C6
:102250002434D4E707EBC30257F83310107902F0A7
:10226000C5FC01360028EFD04FF0FF34E3E76FF0F4
:102270007704E0E768130020F0020020211B000033
:1022800051200000D4030020F803002030B51F4B7C
:102290008BB005AA03F1100518685968144603C4E9
:1022A0000833AB422246F7D11B782370102200215D
:1022B00001A808F04FFD12220021154808F04AFD40
:1022C000102101A808F099FE00281BDD0828B8BFDE
:1022D0000820093801AB0E491A18002012F8013FF6
:1022E0000AAC04EB131403F00F0328336B440130E2
:1022F00014F8144C13F8143C0C7008284B7001F1BE
:102300000201EBD102480BB030BD00BFC1E10000BB
:10231000924500202DE9F04F644C85B000264FF027
:10232000011BB1463546B24623782BB9604B0234C7
:102330009C42F3D15D481CE06378052B05D8DFE8AB
:1023400003F07B04037B0725A24623781C44EBE7BC
:10235000E378002BF9D1A37873B109F101095FFA91
:1023600089F9F2E76A68944209D024359D42F9D38D
:10237000002005B0BDE8F08F4E4D4F4BF6E7AB683F
:10238000002BEAD0494620469847E6E7002DEFD0DB
:10239000002301212A7F9342EAD22A6AA77802EB1E
:1023A000C3021079874201D00133F3E70127E078B7
:1023B00000F003008DF80C00207994F805C040EA85
:1023C0000C20ADF80A0094F9020000285FFA87F8A3
:1023D00027DA07F1100001FA00F010EA0B0F27D1FD
:1023E00048F080008DF8080002A8CDE9003208F01E
:1023F000DEFCDDE900320121D0B99DF80830A37080
:1024000013F0800F18BF08F11008137118BF5FFA9E
:1024100088F80B460CBFBB4001FA08F34BEA030BEC
:1024200093E701FA07F010EA0B0F01D14046D9E714
:102430000137102FBBD1B7E7032E1DD1FFF726FFC1
:10244000074668B108F04DFC804648B11B4808F0CB
:1024500048FC804504D142463946A01C08F06FFC78
:1024600023786FF00201E218091B04EB5303D142F9
:1024700013D50136F6B268E7002EF1D1BAF1000F9C
:102480003FF476AFA4EB0A038AF80230C3F30723C4
:102490008AF803308AF80490EBE74FF0000002F866
:1024A000010C13F8010902F8020DE0E71403002003
:1024B000D3030020D4030020F8030020C1E1000072
:1024C00010B5094B00211A461C78844204D15C687F
:1024D00014B102EB811010BD0131042903F1400356
:1024E000F2D10020F7E700BF301400202DE9F341BE
:1024F00050F8283C10F82C6C1033044610D10369B6
:1025000050F8202C99073CD502BB13F0040304D1EA
:102510001A461946304607F02EFF002344F8283C9F
:1025200054F8283C10330ED054F8185C5DB154F8C0
:102530001C7C54F8148C0AF054FE00284CD02E4811
:1025400021460AF028FF02B0BDE8F08150F8241CB3
:1025500001AB304607F00FFF10B16FF01503DDE758
:10256000019A54F8243C134444F8243C54F8203C89
:102570009B1A44F8203C54F81C3C134444F81C3C7F
:10258000CEE750F8241C01AB304602F0A5FA002833
:10259000E3D1019D54F8243C2B4444F8243C54F8E6
:1025A000203C5B1B44F8203C54F81C3C2B4444F872
:1025B0001C3C002DB1D0304602F032FBB5FBF0F3ED
:1025C00003FB1055002DA8D154F8203C002BA4D0BB
:1025D000304602F0C9FAA3E744F8180CA4F1100041
:1025E00005F04AFF54F8283C8C33ACD042463946BB
:1025F0003046A847A7E700BFF80300204B1E012B79
:1026000073B506460D460FD8FFF75AFF044668B962
:10261000012D09D101AB01220DF10301304602F079
:102620005BFA019B002BF5D102B070BD0AF0D9FD19
:1026300004F12C0108B1012D05D1084602B0BDE816
:102640007040FFF753BF034802B0BDE870400AF086
:10265000A2BE00BFF80300202DE9F74F0646019106
:102660001546984607F0CFFE044600285CD14FF08F
:102670002003EFF3118A83F31288BFF36F8FDFF823
:10268000B0B000220023584605F016FF70B9DFF8FD
:10269000A490A70109EB8414636813F1100F14D1FF
:1026A0000193584605F0E8FE019B06E00134042C36
:1026B0000BF1400BE5D16FF00B038AF31188BFF3E8
:1026C0006F8F184603B0BDE8F08F019B2061C4E90D
:1026D00002350C9B63610D9BA3616FF00F0309F83A
:1026E0000760C4F83C806360304602F099FA58B144
:1026F000304602F095FAB5FBF0F303FB10551DB11F
:10270000E36B43F00403E36318F0020F07D007F113
:102710002C01094849440AF03EFE0023CDE730462B
:1027200002F022FA0346C8E76FF00F03C9E700BFC3
:102730004C14002030140020F803002010B54FF096
:102740002003EFF3118483F31288BFF36F8FFFF739
:10275000B7FE50B14368103307D16FF08B0343606D
:1027600000F12C0103480AF016FE84F31188BFF330
:102770006F8F10BDF803002070B50F4C04254FF08B
:102780002003EFF3118683F31288BFF36F8F636822
:10279000103307D16FF08B030848636004F12C01FC
:1027A0000AF0F9FD86F31188BFF36F8F013D04F144
:1027B0004004E4D170BD00BF30140020F8030020B5
:1027C00070B50A4C0A4E0025314620460AF0C6FD77
:1027D0000122A4F11000114601350AF0A1FD042DDB
:1027E00004F14004F0D1002070BD00BF5C14002053
:1027F000ED24000070B504460E46017912481546D6
:1028000007F0DDFDE8B194F900206378002A11DBC0
:10281000202B04D0222B09D06FF0850005E0296819
:102820000722103808F08BFA002070BD638800F88A
:10283000093CF9E7212BEFD11038072328603360DA
:10284000F2E76FF01200F0E73015002008B50146FE
:10285000034807F0C2FD10B1012300F8073C08BD92
:10286000301500200169012381F82B300B6833B14A
:1028700091F829301BB1024808310AF08CBD70472D
:10288000F80300200169012381F82A300B6833B175
:1028900091F828301BB1024808310AF07CBD70471E
:1028A000F80300200C4A0346002101851068586790
:1028B00090889279A3F8780083F87A2083F87C10C6
:1028C00083F87B10A3F87E1083F88010402203F178
:1028D0002C0008F03FBA00BFB0DA000038B5056937
:1028E00095F87E0070B195F87F3063B985F828308F
:1028F000286F07F0BDFC05F11801044603480AF0F3
:102900004AFD204638BD0020FCE700BFF803002048
:1029100013B504698DF8071094F87E308BB194F8E4
:102920007F3073B90DF10701206F84F82830012240
:1029300007F09EFC014630B10A4804F118010AF084
:102940002AFD02B010BD206F012207F0E5FC00282F
:10295000F7D0206F01220DF1070107F089FC002854
:10296000EAD1EEE7F8030020F0B5C36E5B681B6A9E
:102970001F7D85B00546384607F045FD0646D8B9A7
:10298000A86D4FF4806203A907F091FC044698B14A
:102990008306A5F1180308BF00F1FF342E740193DC
:1029A000064B03990093224602233846FFF754FE54
:1029B000A86D214607F09BFC05B0F0BDC1290000C1
:1029C00010B5012382F82830136814463BB192F801
:1029D0002A3023B1084802F108010AF0DCFC236F19
:1029E0009A681B699A4206D004F118010248BDE8B2
:1029F00010400AF0D0BC10BDF803002010B50469E7
:102A00000023C4F888300C4BC4F88400596804F1E2
:102A1000880269B9C3E9002204F1080007490AF0F5
:102A20009DFC04F1180006490AF098FC002010BD36
:102A30000A605A60F0E700BF3015002031A40000A2
:102A40006929000030B54FF40033426805690D4C28
:102A500085B042F2A100CDE90103002385F87D3065
:102A6000106AADF80C1000790A2201A907F083FC66
:102A700095F87D3023B901200AF0B9FD013CF7D16A
:102A800005B030BDA186010073B5144602F12C06D5
:102A90000A1E05461DDDE06E314607F0E9FB012305
:102AA00084F8293023683BB194F82B3023B10E48C9
:102AB00004F108010AF06FFCE16E4B684A699A1A4A
:102AC000CB699B1A3F2B04D8012384F8803002B0D5
:102AD00070BD064B009301940123402231462846E5
:102AE000FFF7BAFDF3E700BFF8030020892A0000D2
:102AF00038B50D460146244807F055FC044680B31E
:102B00000246691E52F884395B68052929D8DFE836
:102B100001F020280320252914F8061C31B91B6A6E
:102B2000187BFFF7B1FF012304F8063C14F85C3C66
:102B3000BBB9012304F85C3C54F8843C8BB114F815
:102B40005A3C73B1A4F17C011048BDE838400AF04A
:102B500022BCBDE838401046FFF7A4BE012304F8AC
:102B6000053C38BD14F8051C0029FAD014F8060CF1
:102B7000002104F8051C0028F3D01B6A187BBDE86F
:102B80003840FFF781BF00BF30150020F803002058
:102B900037B5094D0949002400944FF0FF334FF435
:102BA0008062284605F0A6FD054928460AF01FFB6D
:102BB000204603B030BD00BFF8030020804E002047
:102BC00008E2000070B5114B1C680D46DCB1104BDB
:102BD000196800238B4202DB6FF0010070BD2246B2
:102BE00012F8106B864202D001331446F2E7E06817
:102BF00010B96FF01200F1E70AF07CFA0028F8D063
:102C00002C600020EAE76FF00C00E7E7F0000020FE
:102C100034DB000070B588B005460C46C0B269468A
:102C20001646FFF7CFFF00281BDB0098C8B14368AA
:102C30000293836822680195CDE903360023CDE92C
:102C400006230593C56807F0F7FC6DB128460849CF
:102C500001AA08F040FA079808B9059B236008B05C
:102C600070BD6FF01500FAE76FF01200F7E700BFD4
:102C7000D3A60000014806F0DDBA00BFA8DB0000C3
:102C800038B5044618B90F4B0F485B689847616820
:102C9000B1F5683F0FD0B1F5680F0CD00B4DA942CC
:102CA00009D011F4686107D0094821460AF070FA8A
:102CB00000232360656038BD2068142208F04AF8BC
:102CC000F8E700BF1402002011E200002C5F5CA9AD
:102CD000381A002008B520B34368B3F5683F10D117
:102CE00001220368BFF35B8F53E8001F002903D163
:102CF00043E800200028F7D1BFF35B8F0DD10020FF
:102D000008BD094A93420AD000684FF0FF324FF0E5
:102D1000FF3305F0C7FA0028F1D00448F0E7044873
:102D2000EEE76FF4E040EBE72C5F5CA9E98FFFFF73
:102D3000EA8FFFFF08B5D8B14368B3F5683F10D1FB
:102D400000220368BFF35B8F53E8001F012903D102
:102D500043E800200028F7D1BFF35B8F0BD10020A0
:102D600008BD074A934208D0006805F015FBF6E756
:102D70006FF4E040F4E70348F2E70348F0E700BFF0
:102D80002C5F5CA9E98FFFFFEA8FFFFF10B50446B7
:102D900018B91D4B1D485B6898476368B3F5683FD9
:102DA0002FD0B3F5680F2CD0194A934219D123685C
:102DB00003BB18484FF0FF324FF0FF33214605F0B8
:102DC00089F908B923681BB90F4B13485B6898470A
:102DD00020681422002107F0BDFF4FF46863636090
:102DE00008E0B3F5683F0DD83A2B03D040F6BA623D
:102DF0009342DED120680AF013FA636843F03A0385
:102E0000636010BD054AF3E71402002011E20000E0
:102E10002C5F5CA9381A002037E200003A00003A23
:102E200008B506490648402314220AF0A3F9BDE874
:102E300008400449044806F06FBA00BF3815002066
:102E4000381A0020B0DB0000C4DB0000F7B5234EC9
:102E5000306883685B6C03B19847306883685B6B4C
:102E6000002B32D11E4C1F4D306883689B69002BAC
:102E70002ED001220DF107019847012828D123689F
:102E800043B92B6823B369681A682A608B4208BF6C
:102E90006A602360144A9DF807001188B1F5007F2D
:102EA00004D223680B444F1C178018720A28DBD108
:102EB00023681188596000200C4918604D684DB98D
:102EC000C1E9003310802060CDE798470028C9D1C0
:102ED00003B0F0BD2B604B60F4E700BF7C1E002008
:102EE000541A0020641A0020902C00205C1A002044
:102EF00010B5044B044618688368E1B25B689847D4
:102F0000204610BD7C1E0020F8B505461646084632
:102F10004FF02003EFF3118783F31288BFF36F8F15
:102F20001B490B684BB11B4C62689A4205D00022CA
:102F30001A60626862B9C4E90033174A136853B96A
:102F400087F31188BFF36F8F0B6018463360F8BDAD
:102F500013606360F1E7D2F804C01C681460634535
:102F600008BF546087F31188BFF36F8F5C680B60F4
:102F7000A042D8BF00F1FF3403F1080122462846E1
:102F800007F0DDFE00232B55601C0123DEE700BFA8
:102F9000581A0020641A00205C1A0020204B37B514
:102FA0000024C3E900441F4B1F4A204D20481360F2
:102FB00003F50271C3F808421960516028600AF0F5
:102FC00099F820B94FF0FF34204603B030BD2046B9
:102FD000FFF7D6F804460028F4D12868836823B1A7
:102FE0009B6C13B1134922469847286883685B6B32
:102FF0000BB1984748B1286883689B69002BFAD0C9
:1030000001220DF107019847F4E70B4B28680022D5
:103010001A8083689B6A002BD6D09847D4E700BFFC
:103020005C1A00206C1A0020641A00207C1E00200C
:103030000CD800004D2E0000902C00202DE9F0430C
:10304000D9B040F60613ADF80830DFF8E490394BFC
:10305000D9F800101B68384E384DA3EB06080B78E2
:1030600001330B7098FA98F34B808B8800205BBA81
:103070008B804870082207F0B3F842463146ADF81D
:103080000C0007F0ADF82B6840BA1FFA88F4ADF8D1
:103090000C005B6802A80221984704F10A035BBA9E
:1030A0000DF10E01022205A8ADF80E30022707F03F
:1030B00046FED9F80010ADF80E7008220DF116008A
:1030C00007F03DFEBDF80E00083005AB80B2ADF84C
:1030D0000E0042463146184407F031FEBDF80E306E
:1030E000E01880B205ABADF80E003A4603A91844CB
:1030F00007F025FEBDF80E303B449BB204AAADF8A4
:103100000E300093BD2105AB28A8FDF7CFFF049931
:103110002B68ADF80E1028A85B6889B298472B6819
:1031200007485B680121984759B0BDE8F08300BFAC
:10313000C41E0020941E0020A4450020C81E0020AC
:103140000FE40000F0B50C68164F174B85B002383D
:103150000D46C4F58061009003AA38190131FEF7CD
:1031600025F80446D0B92B68039A1344022B2B6030
:1031700011D93E8876BAB6B2023B9E420BD1324696
:10318000B91C07F02DF830B9022E04D92B689A1E0D
:103190002A60FC540124204605B0F0BD4FF0FF34F6
:1031A000F9E700BF25460020284A002007B5CDE9F1
:1031B00000016946024807F0D0FC03B05DF804FB4B
:1031C000941E002038B50B4C05460A21204607F016
:1031D000D6FC09480221FFF7E9FF2946204607F0FF
:1031E000ACFC20460A2107F0E8FCBDE83840FFF7B8
:1031F00025BF00BF941E002064E2000007B5064A08
:10320000064800230093022102F1800307F0D7FC57
:1032100003B05DF804FB00BFA4450020941E00200D
:103220002DE9F0470729A8B0044640F294800378BE
:1032300013F0FD0640F08F8043885BBAA1F10805CA
:103240009BB2AB42C0F087809D4B186083885BBA0D
:103250008380FFF7D3FFA088012840F0AF81E77992
:103260003FB1012F7CD0082028B0BDE8F047FFF720
:10327000A9BF01469348DFF85082DFF8509207F06B
:103280007EFC93480621FFF791FF8E48052107F049
:1032900067FC3C468F4F2146002006F080F907A9C5
:1032A000C0B2FFF78FFC0546002849D120230DEB63
:1032B00003020146079807F0C0F9089B3E684345A2
:1032C0000DD14023019318AB0093CDE90355079B23
:1032D000029508AA29462846FDF70CF906460798E4
:1032E00007F0AAF9D9F80030B34229D11421754862
:1032F00007F045FC78480421FFF758FF2146714844
:1033000007F01FFC75480721FFF750FF0E9B029343
:10331000BDF8363001939DF83530714A0093402155
:103320009DF8343018A800F083FE18A807F0D9FCE7
:10333000014618A8FFF73AFF6248142107F03DFC48
:1033400064B105215F4807F029FC01215D4807F0C1
:1033500034FCFFF773FE28B0BDE8F08701249AE73C
:1033600007AB08AA294604F10800069600F01AFAED
:1033700000B303240A21534807F001FC59480221F5
:10338000FFF714FF4F48214607F0D7FB44B95648D2
:103390000321FFF70BFF554B4A48196807F0D1FB93
:1033A0000A21484807F009FCFFF748FE069807F095
:1033B00043F9D0E7079B9D42DBD14FF0FF39179CC3
:1033C00008AB02464D4606460746A2425AD16B1C40
:1033D000CFD0002FCDD0002106F0E1F806A9C0B271
:1033E000FFF7F0FB04460028C3D1DFF80081002D71
:1033F0005BD10698C8F80040856806F089F93C4919
:10340000FDF760F8002840F0D7804D45B1D3394B27
:103410001C60394BC3F80090D8F80020354D069851
:103420002968013A324407F088F900282860A0DBB7
:103430000698DFF8C49007F03EF9B6FBF0F303FB03
:103440001060D8F80030D9F800203344C5B2934258
:1034500038BF0020751BC6B2069807F02CF901286A
:1034600006D9069807F027F90138074240F0828014
:10347000D8F8001006982B463A4607F0F3F80028D3
:1034800064D076E7197A032904D8DFE801F0020650
:10349000090C186801320C3397E7D3E90076F9E795
:1034A000D3F80090F6E71D68F4E7D8F80030AB4297
:1034B0007FF460AF104A126873199342ACD958E791
:1034C000C41E0020941E00203DB8F3960007002083
:1034D00067E20000000000206EE2000073E20000DE
:1034E0007BE2000064E200008AE20000901E0020FF
:1034F000881E0020841E0020801E0020AA450698F9
:1035000088BF5FFA85FA07F0DDF84022014618A867
:1035100007F020FC5246394618A807F010FCD8F8EE
:1035200000100698534618AA07F09CF800287FF46C
:1035300020AFD8F800305344C8F800305744A5EB0A
:103540000A05069807F0B7F88542D7D2AEB9D8F881
:103550000030D9F8002033442B449342C8F800309F
:103560007FF408AF214B06981A68114607F0E5F87A
:10357000C40FFFE64FF0400AE3E7069807F0A2F811
:103580000822014618A807F0E5FB3246791918A869
:1035900007F0D5FBDDF818A0D8F8001050466F18DA
:1035A00007F089F818AA03463946504607F05AF83A
:1035B00000287FF4DEAECAE70124DBE600287FF4B2
:1035C00052AEE379012B3FF44FAE052B03D0002B15
:1035D0007FF449AEBFE6FFF7F5FD4FF40050002140
:1035E00005F088FB0120FEF7C7F900BF881E002008
:1035F0002DE9F341274FDFF8A080284E01233B70CF
:10360000274B00240546009418603B7813B902B09C
:10361000BDE8F081234BC4F58061C3F80086C3F890
:103620000486C3F80886C3F80C86C3F81086C3F86E
:103630001486C3F81886C3F81C862B6801AA0131CA
:10364000301998470028019B01DC002BDDD0044491
:103650002BB940F201439C42D7D10024D5E73378FF
:10366000062B09D17378092B0BD1002300936946EF
:10367000A01EFFF767FD04E0042B02D17378142B22
:10368000F5D00128E9D1009907480239FFF7C8FDB4
:10369000E3E700BF244600203546526E264A00204C
:1036A000C81E0020000001402746002073B50446D4
:1036B0000D4607F0D7FA002868D0354B00936946CD
:1036C00005232046019307F0A3F960B1294620465F
:1036D00007F07FF938B100232B72204607F0C9FAB2
:1036E000012002B070BD204607F0BFFA78B1294B27
:1036F0000093694604232046019307F089F930B10D
:103700002946204607F081F908B10123E4E7204665
:1037100007F0ABFA78B1204B0093694603232046AB
:10372000019307F075F930B12946204607F051F9A9
:1037300008B10223D0E7204607F097FA78B1174B7B
:103740000093032669462046019607F061F930B1DF
:103750002946204607F03DF908B12E72BDE7204604
:1037600007F083FA78B10E4B009369460323204695
:10377000019307F04DF930B12946204607F045F98D
:1037800008B10423A8E7204607F073FA0020A8E751
:103790008EE2000094E2000099E200008AE200005C
:1037A0009DE200002DE9F0439DB004AC4FF001090B
:1037B00007460E4690461D4602460B46CDF8009041
:1037C0000421204607F059FA204607F024F970B189
:1037D0000C23CDE901830094114B08F13C02052133
:1037E000484607F038F960B9204607F02FF9099BE1
:1037F000D86800229042DA6008BF1F201DB0BDE8E3
:10380000F083204607F020F90028F0D00DB9002001
:10381000F4E7049BDB1BB34294BF2B602E60F6E7FA
:10382000AD36000002464B1E0846D15C51B102285D
:103830000FD9084B0344012013F8023C9840C0B252
:1038400070472BB11846013BD15C0029F9D0EEE757
:1038500018467047A1E20000F8B505460F4610462D
:1038600019461646FFF7DEFF01282A68E968044674
:103870001CD13378172B04D9931C99421AD30023F7
:1038800025E0501C814215D300248A4212D2511CDB
:1038900003F01F03296043EA471111703444B44216
:1038A00018D1AB680133AB60012007E0431C13441F
:1038B000994204D26B690822DA600020F8BD08B989
:1038C0003378E2E7831E062BD9D80648C35C183349
:1038D000DBB2DAE72B685A1C2A6014F8012D1A7043
:1038E000DDE700BFA1E20000014910220A60704735
:1038F00010ED00E072B6404080F31188BFF36F8F87
:10390000BFF34F8F30BF62B6BFF36F8F704700BFFA
:1039100072B6494081F31188BFF34F8F20BF80F307
:10392000118862B6704700BF40B2002807DB044A26
:103930004109012300F01F00834042F82130704705
:1039400000E100E040B200280CDB4309064900F02A
:103950001F0020330122824041F82320BFF34F8F04
:10396000BFF36F8F704700BF00E100E0054B4209D5
:1039700000F01F0053F82220012303FA00F010404A
:10398000704700BF00E100E040B20028A8BF00F18E
:10399000604001F10101B8BF064B4FEA4111ACBFD5
:1039A00000F5614000F00F00C9B2B4BF195480F8AF
:1039B0000013704714ED00E030BFFFF7FDBF00BFFC
:1039C0000B4A08B50B4B22F07F029A60BFF34F8F72
:1039D000BFF36F8FD3F8882022F47002C3F88820D9
:1039E00004F0B4FA05F032FA00F0CAF904F0F2FA81
:1039F0000000000000ED00E0094A0A4993680968E8
:103A00009967094958674B6843F080534B6000231E
:103A100083F31188BFF36F8F9368986F704700BF6F
:103A20007C2A0020BCDE000000ED00E012498A681C
:103A30004FF030001044EFF3098C80E8F01F202095
:103A400080F31288BFF36F8F0C4F4FF000668A69C6
:103A50008A603E60506F0023536780F3118804B57D
:103A6000104600F029FABDE8044002F1300090E869
:103A7000F01F8CF3098870477C2A002004ED00E0D9
:103A80001EF0040F0CBFEFF30880EFF3098081698B
:103A900011F8021C0229FFD001B507F013F901BD8E
:103AA00042F8203C009B42F81C3C0A49019B42F82A
:103AB000183C029B42F8143C21F001014FF0807346
:103AC00042F8043C42F8081C0023203A0265436790
:103AD000704700BFD99B0000094A0346906870B147
:103AE00013F1160F406E05D0A0F140029A4205D89E
:103AF000834203D2814228BF0020704700207047D4
:103B00007C2A002008B5094B98600D46144600F049
:103B1000D3F9204685F30988002163B681F3118823
:103B2000BFF36F8F0022002306F056F87C2A002096
:103B300001B5EFF30580A0F110004FEAC000044981
:103B4000014409C99847BDE80140024908470000FF
:103B50006CD80000593B0000044B99689869884272
:103B600003D003494FF080520A6070477C2A00203E
:103B700004ED00E070B51D4B15469A6A9A6A9A6A80
:103B80009207064622D5586B9A6A14061ED519B1BB
:103B90009A6A22F080029A629A6A9A6A9A6A134C26
:103BA00012F0100F15D19B6A990712D40020A36A56
:103BB0000E4A9B0642BF636A23F400536362936A12
:103BC00043F0FF03936200232B7070BD6FF015006C
:103BD000E2E763681A05E9D53146FFF77DFF002863
:103BE000E4D080F309880220E1E700BF00ED00E0A7
:103BF0000D4B9A6A9A6A9A6A920508D59A6B9A6AE4
:103C0000120404D518B19A6A22F400429A629A6AA0
:103C10009A6AD205044A58BF9B6A936A002043F40B
:103C20007F4393620870704700ED00E070B54A4B27
:103C30005B688AB00546C3F30803002686F3118843
:103C4000BFF36F8F02F07F40B0F17F4F11D102F0D0
:103C50000C0008280DD010074CBF0D46012600228D
:103C6000033B8DF80720032B4DD8DFE803F00465F4
:103C7000696D3546F3E7384BDA6A910743D4DA6A5F
:103C8000002A40DBDA6A52003DD55A69A96942F43C
:103C900080725A61BFF34F8FBFF36F8F5A6931F84B
:103CA000021C22F480725A61BFF34F8FBFF36F8FF3
:103CB0004DF60272914209D09A6AD2B242B10DF128
:103CC000070201212846FFF755FF0AE02C681BE098
:103CD0009A6A12F47F4F06D00DF107010120FFF719
:103CE00087FF044610E09A6AB2F5803F0BD39A6AC8
:103CF0009A6A9A6A9A6A9A6A9A6A9A6A6FEA02420F
:103D00006FEA12429A6200249DF8073093B920228C
:103D1000294602A807F013F8099BBEB1C3F30802B5
:103D200022B96FEA53236FEA4323099302A920467D
:103D300006F0C6FF0AB070BD0DF107020021C1E711
:103D40000DF107010020CAE7034BD0E723F4FF730E
:103D500023F00103E9E700BF00ED00E0024A5369E8
:103D600043F010035361704700ED00E0EFF308806B
:103D7000EFF3098101B57246FFF758FF01BD00BF9F
:103D8000044800232021C2180133302B82F800138D
:103D9000F9D1704700E100E0002080F31488BFF300
:103DA0006F8FFDF7FDFD00200D490860BFF34F8FB9
:103DB0000C4880F3088800F02BF8202080F311884D
:103DC00009484FF40461401880F30988EFF3148028
:103DD0000221084380F31488BFF36F8FFFF7F0FDD3
:103DE00094ED00E0C0880020005700200749D1F87A
:103DF00090200023C2F307221846934200DB70474D
:103E0000C1F89830C1F8A0000133F6E700ED00E0FA
:103E100008B572B6002383F31388FFF7E7FF144B4E
:103E20004FF0FF32C3F88020C3F88420C3F8882005
:103E3000C3F88C20C3F89020C3F89420C3F89820CE
:103E4000C3F89C20C3F88021C3F88421C3F88821DB
:103E5000C3F88C21C3F89021C3F89421C3F89821AA
:103E6000C3F89C2162B6BFF34F8FBFF36F8F08BDBD
:103E700000E100E0084B9B6883420BD1EFF3058320
:103E800043B1064B5A6842F080525A605A6A22F493
:103E900000425A6204F068BF7C2A002000ED00E076
:103EA000024B034A0348012100F070B800000420CF
:103EB00000000020D4DB0000426E054B403A1A603F
:103EC000044A4021C3E901121846012100F068B8F4
:103ED000CC1E002000000B15F0B5204E00258D42B1
:103EE00039DA446874B353B104F1FF3C14EA0C0F9F
:103EF0002FD11F2C2DD907681CEA070F29D1202CA0
:103F00000768D0F808C05FFA82FE1ED9B4F1004FEE
:103F10001DD8013CB4FA84F4C4F11F046400BEF15E
:103F2000070F4CEA040C14D827F01F04144344F084
:103F30001004C6F89820C6F89C404CF00104C6F85E
:103F4000A040013201350C30C9E70824E7E73E24E0
:103F5000E5E76FF015021046F0BD00BF00ED00E090
:103F6000044B0522C3F89420BFF34F8FBFF36F8F2C
:103F7000704700BF00ED00E0BFF35F8F024B0022EF
:103F8000C3F89420704700BF00ED00E010B5034C6B
:103F900001232278FFF7A0FF207010BD274E0020DC
:103FA00008B5094A00231278FFF796FF10F1160FA3
:103FB00002D0064A072800DD08BDC2F89800C2F802
:103FC000A0300130F6E700BF274E002000ED00E0F2
:103FD00014490868082810B521D8FFF7CDFF124C06
:103FE00049680022904201F10C0105D10F4B187075
:103FF000FFF7B6FF002010BDC4F8982051F80C3C24
:1040000023F01F03134343F01003C4F89C3051F80E
:10401000043C43F00103C4F8A0300132E2E74FF062
:10402000FF30E8E7E0DB000000ED00E0274E002075
:104030000CB410B586B009B90DF10B000024CDE920
:10404000040109AB089A009404A905480393FDF7FD
:104050006FFA049B1C7006B0BDE8104002B07047B8
:1040600067AD00004FF02003EFF3118283F3128855
:10407000BFF36F8F06490123C1F840354FF08041EF
:10408000C1F8783582F31188BFF36F8F0020704735
:1040900000E001404FF08043C0B2C3F81C05BFF3FD
:1040A0004F8F0549054BCA6802F4E0621343CB60A9
:1040B000BFF34F8F00BFFDE700ED00E00400FA05FD
:1040C00020B1034B800143F001031847704700BF44
:1040D000C0DA0000020600F07F0312D5082B05D1DC
:1040E000010700F00F0306D50E48704710F0780F57
:1040F00012D100F00F034C2000EB43100A4B184480
:104100007047082B05D1020700F00F0306D50748BA
:10411000704710F0780FF6D000207047044800EB8D
:104120004310704724200020D81E00204421002086
:10413000442000200149024809F02DB9001F002049
:10414000980400200146014809F0DFB8040300206C
:1041500002480022002304F05BB900BF04030020E2
:1041600010B5054CFFF7F4FF20B1011D204609F002
:104170000FF8F7E710BD00BF8402002007B5002349
:104180000E48002201A903F0A5FF90B1FFF7E8FF58
:104190000A480022002301A903F09CFF38B90198C6
:1041A000042340600374FFF7CDFFFFF7C3FF002037
:1041B00001E00198406003B05DF804FB8402002038
:1041C000022810B511D8094B1C5CFFF7D7FF60B16E
:1041D000002202740472FFF7B5FF054B93F82430F8
:1041E0001BB1BDE81040FFF7A5BF10BDCAE200003B
:1041F000D81E0020F8B5877806463846FFF76AFFD4
:104200003B06F578044612D5002D43D1FFF7B6FFE3
:10421000034600283ED00122A577027403220273D0
:104220009C60FFF78FFFBDE8F840FFF783BF4DB1FB
:10423000012D2FD1FFF7A2FF034658B36577057410
:104240000573EDE7FFF79AFF20B3B278124B12F037
:10425000800F02F0080111D041B1D3F8A836E36015
:1042600001230374022303738460DAE702F00F0270
:10427000142101FB0233D3F80836F0E711B1D3F86B
:10428000A837ECE702F00F02142101FB0233D3F848
:104290000837E4E7F8BD00BF0070024013B51248CC
:1042A00003F064F9114B98421AD1114802F0FEFD57
:1042B0000024104802F040FE0F49104800944FF0CF
:1042C000FF334FF4806204F015FA0D490B4808F0F3
:1042D0008EFF0C480C4909F041F8204602B010BD91
:1042E0006FF00400FAE700BF4D4300000000AD0B83
:1042F000CDE2000000DC0000C05200209804002045
:10430000BFE20000001F0020D144000010B50E499C
:10431000BFF35B8F002351E8002F012A03D141E84E
:1043200000300028F7D1BFF35B8F0CD151F8044C5B
:104330001439204605F01AFF783004D12046BDE834
:10434000104005F0EEBE10BDF81E0020F0B5064688
:1043500089B01422002103A806F0FCFC3378013B4D
:10436000052B21D8DFE803F07A0314146A1603231F
:104370008DF814300024FFF701FF0346A0B1047448
:1043800000F10802DDE9050182E8030018461DE09E
:104390000423EDE7B7783846FFF79CFE837A04469E
:1043A00023B1013B022B43D909B0F0BD3B06F578A0
:1043B00013D5002DF8D1FFF7E1FE03460028F3D016
:1043C0000122A5770274032202739C60FFF7BAFEF4
:1043D00009B0BDE8F040FFF7ADBE55B1012DE3D106
:1043E000FFF7CCFE03460028DED065770574057321
:1043F000EBE7FFF7C3FE07460028D5D0012303747F
:1044000002230373846004F10C01B07808F043FECA
:10441000134AE168B2F88C328B4206D95B1AA2F8D3
:104420008C3203F0DFFA3846D0E7A2F88C52FAE774
:10443000304609B0BDE8F040FFF7DCBE01A803F04C
:10444000ABFA9DF80530052B04D19DF8043013F02C
:10445000600FA9D0034B059301248CE702248AE75F
:10446000D81E00204420002038B5002464F07F00CE
:10447000C0B2FFF72FFE013406F082FC082CF5D104
:104480000E4D0024E0B2FFF725FE036903B9056174
:10449000013406F075FC082C05F14005F2D10848FE
:1044A00006F06EFC074BD3F87C2212B9064AC3F81B
:1044B0007C22064806F064FC002038BD68250020F8
:1044C00024200020D81E0020682100204421002044
:1044D0002DE9F043A74CDFF8A08285B00746FFF72F
:1044E00037FE10B905B0BDE8F08394F82530027CA2
:1044F00000F104093BB9002A00F088809E48494633
:1045000008F046FEEBE7042A44D8DFE812F07F000B
:104510000500020118014101037B8568032B39D88E
:10452000DFE803F0023F5C616E690822002130463B
:1045300006F010FC914B9248D3F880243270D3F8E7
:1045400084247270D3F88824D3F88C1442EA0122B0
:104550007280D3F89024D3F8941442EA0122B280F6
:10456000D3F89824D3F89C3442EA03230822F3803A
:104570003146EA6006F0E3FB2B68687A0021984731
:1045800096F90030002B08DBF38833B1A4F88C32A5
:1045900003F028FA49464046B2E70023A4F88C32DB
:1045A000F8E76B7F002BF5D02B7F002BF2D0002695
:1045B0006E774FF0FF3273482E774FF0FF3306F0DF
:1045C000F2FB6B6901936B68CDE9023601A9687A49
:1045D00003F00EF86B4806F0E8FBDBE72B680121DF
:1045E000687A9847D6E7AB7A6BB9EB7F5BB96548D9
:1045F0004FF0FF324FF0FF3306F0D5FB03F022FA05
:10460000604806F0D2FB2B680221E9E7027A042A0F
:10461000C0D8DFE802F059032367730002F09CFF63
:1046200005460028B6D102F0D3FEBFF35B8F564992
:10463000012351E8002F002A03D141E8003000286F
:10464000F7D1BFF35B8FA5D141F8085C41F8105C4E
:10465000E0696361143905F00CFD9BE7002565F006
:104660007F00C0B2FFF736FD037A13B1407A03F042
:10467000CDFB0135082DF2D194F854311BB194F8DB
:10468000550103F0C3FB0025E8B2FFF723FD037AD1
:1046900013B1407A03F0BAFB0135082DF4D194F838
:1046A00074321BB194F8750203F0B0FB012002F0E4
:1046B00035FF012384F825302368002B3FF46AAFCF
:1046C00000210220984765E7002584F8255003F073
:1046D0002BFBFFF71BFE2368002B3FF45BAF294643
:1046E0000420EFE7002B3FF455AF03F035FB2368C0
:1046F000002B3FF44FAF00210520E3E72268002A9A
:104700003FF448AF002B3FF445AF0021062090470F
:1047100040E707F110054FF0FF334FF0FF32284616
:1047200006F041FBFFF7A0FE284606F03EFB57F8D7
:10473000283C002B3FF42EAF00210120C2E794F863
:1047400074327BB1012584F8895284F88852FFF7CE
:1047500015FD38B10D4A057405738260FFF7F2FC50
:10476000FFF7E8FC57F8283C002B3FF413AF00217B
:104770000A20A7E7D81E0020840200200070024013
:10478000DC1E0020101F0020F81E00204421002005
:1047900008F0F8FB03F0C8FA02F010FEFFF7E0FCA7
:1047A000FFF762FE08F0E7FB014802F0DFFEF1E6EA
:1047B0004D43000038B5164D95F824402CBB05F14B
:1047C000380008F02DFD204600F030FB2246012184
:1047D000E8612720FFF7D8F808F0CDFBFFF744FE8B
:1047E000044610B9012385F824300A4B1B680BB12D
:1047F000FFF7A0FC4FF08043D3F83834DB0702D535
:104800000020FFF7DDFC204638BD0024FBE700BF99
:10481000D81E00200403002010B50D484FF0FF32D1
:104820004FF0FF3306F0BFFAFFF79AFC02F094FE58
:1048300008B103F079FAFFF769FD08F0A3FB05481A
:10484000002480F82440383006F0AFFA204610BD2E
:10485000101F0020D81E0020074B93F824203AB1E7
:1048600093F82530002B14BF00206FF01200704722
:104870006FF01200704700BFD81E002038B5104BF3
:1048800093F824300446C3B105782846FFF722FC8C
:1048900010B96FF0150038BD4572237983726388B3
:1048A00043602078618810F0080F02D14B1E0B4244
:1048B000EFD108F0EBFB0020EDE76FF01200EAE724
:1048C000D81E002038B5124B93F824200546CAB1F3
:1048D00093F82530B3B1FFF7FDFB0446A8B1837A06
:1048E000012B12D007D9023B012B07D96369A361C1
:1048F0000020E06038BD03F0ADF8F7E7284603F08C
:104900001DF8F3E76FF01200F4E76FF01500F1E720
:10491000D81E002038B50E4B93F82420054682B1EE
:1049200093F825306BB1FFF7D5FB68B115F008049B
:104930000AD1284603F024F8284603F0BBFA2046A3
:1049400038BD6FF01200FBE76FF01500F8E700BF0D
:10495000D81E002038B50C4B93F8242005460C4691
:1049600062B193F825304BB1FFF7B4FB48B144B1C5
:10497000284602F0EBFF2070002038BD6FF01200D7
:10498000FBE76FF01500F8E7D81E002070B5134E56
:1049900096F824300446C3B1FFF79CFB0546B8B136
:1049A000230705D4204602F0EBFF204603F082FAED
:1049B0002B7A83B901232B7296F825300BB900208E
:1049C00070BD204603F022FAF9E76FF01200F7E716
:1049D0006FF01500F4E76FF07700F1E7D81E0020C4
:1049E0002DE9F043DFF8E4801E4698F8243085B0C6
:1049F000074689461546002B61D098F82530002BD4
:104A00005DD003065ED5FFF765FB0446002859D04C
:104A1000037A002B56D04FF0FF334FF0FF3208F1EE
:104A2000380006F0C0F9A37F4BB108F1380006F05A
:104A3000BCF96FF00A04204605B0BDE8F083A37A04
:104A4000C5B13BB30123A3774FF0000801A9384655
:104A5000CDE90195CDF80C8002F0CAFD1C4B9842BF
:104A600029D084F81E801EBB6FF00404194806F09C
:104A70009CF9E0E7E27F02B1E577002BE2D102F09A
:104A8000F1FFB842DED002F0DDFF124806F08DF9EA
:104A90000024D0E7B8F80A30AB42F0D96268B5FB21
:104AA000F2F302FB1353002BE9D10123E377E6E78E
:104AB000C6F80080D8E706B135600024D6E76FF06D
:104AC0001204B8E76FF01504B5E700BFD81E002048
:104AD0000000AD0B101F00202DE9F0411D46204BBA
:104AE000174693F824200E46002A33D093F8253039
:104AF00083B3030631D401B97FBBFFF7EBFA044659
:104B000058B3037A4BB34FF0FF3316484FF0FF32E0
:104B100006F049F9E3689F42B84628BF984646B96F
:104B20003FB905B12B600F4806F03FF90020BDE802
:104B3000F081A1694246304606F001F9A369434479
:104B4000A361E368A3EB0803E360002DEBD0C5F895
:104B50000080E8E76FF01200E9E76FF01500E6E784
:104B6000D81E0020101F002070B51E4D95F824207F
:104B7000034682B395F825206AB31B062ED4FFF7AF
:104B8000A9FA044650B3037A43B34FF0FF334FF012
:104B9000FF3205F1380006F006F9E368B3B90126E3
:104BA00063692677A361637F83B1FFF7E7FA30B9C2
:104BB00005F1380006F0F9F86FF00B0070BD0674CF
:104BC00084600673FFF7BEFAFFF7B4FA064806F0F2
:104BD000ECF80020F2E76FF01200EFE76FF015003D
:104BE000ECE700BFD81E0020101F002010B5084BB6
:104BF00093F824300C462BB1FFF76CFA28B104600F
:104C0000002010BD6FF01200FBE76FF01500F8E711
:104C1000D81E0020014B1860704700BFD81E00202E
:104C200008B5074B93F8243023B1FFF753FA20B1AE
:104C3000406808BD6FF01200FBE76FF01500F8E761
:104C4000D81E0020084B70B5C31A0D4607499B10AB
:104C5000044659430648402206F005F92B46014612
:104C60002046BDE8704018477C270020B76DDBB6B2
:104C7000C4D7000073B50C4C0C4A4023041B0093AE
:104C80000D460B460A49A41061430646094806F042
:104C900017F9011E05DA30462B4602B0BDE8704018
:104CA000184702B070BD00BF7C2700202DAF000068
:104CB000B76DDBB6C4D70000002270B501210446F1
:104CC0001046FEF761FE0F4801F0F8FC0E4B9842CB
:104CD00015D101F003FD26690C49304605F0B6F9FF
:104CE00000280BDB012535642469084904F11C0008
:104CF00005F0ACF9002801DBE564002070BD6FF021
:104D00000400FBE7454D00000000AD0B04DC000093
:104D100070B501460C2309484B43C418D4E90E561C
:104D200000224033A263184406F08AF82DB13246BF
:104D30002B460348BDE87040184770BD7C27002013
:104D4000C4D7000010B1012804D07047034B1B6C7E
:104D50005B0701D1FFF7DCBF704700BF7C27002055
:104D600008B54FF02003EFF3118183F31288BFF3EE
:104D70006F8F124A136843F002001060DA0708D4FC
:104D800081F31188BFF36F8F0120BDE8084008F060
:104D900042B84FF08043D3F80C24D3F80C34D30737
:104DA000EED5074806F04CF881F31188BFF36F8FFA
:104DB0000020BDE80840FFF7ABBF00BFCC270020B4
:104DC000BC2700201FB500220123CDE90223094A98
:104DD000CDF800D06B46CDF804D006F0A0F800283E
:104DE00005DB4FF480420023684603F065FB05B005
:104DF0005DF804FB4BAF000010B54FF02003EFF35C
:104E0000118483F31288BFF36F8F074A136823F06E
:104E10000201DB07116002D4012008F038F884F3A6
:104E20001188BFF36F8F10BDCC270020024AC3B298
:104E30001C2003FB002070477C2700202DE9F04157
:104E40003849BFF35B8F0746012251E8003F41E834
:104E500000200028F9D1BFF35B8F33B932493348C2
:104E60004B60CB608A6005F004F97B1E012B2BD8C8
:104E7000012F07D14FF08043D3F81C3403F0030314
:104E8000012B21D008F0ADF90546F8B9284B1B7865
:104E9000E3B14FF080430222C3F808230646DFF84F
:104EA00094804FF08044D4F81834D4F81824D203F6
:104EB00016D503F00303012B01D0012F10D15DB3F0
:104EC00086F31188BFF36F8FBDE8F0814FF02003A8
:104ED000EFF3118683F31288BFF36F8F0125DEE7AE
:104EE000ADB13046FEF714FDD4F81835002BDAD1F9
:104EF000D4F80421002AD6D0C4F80431D4F80431FF
:104F00000123C4F81835C8F88031A360CBE700212D
:104F1000212003F0EFFEE7E74FF080430222C3F8C1
:104F20000423D1E778270020682700209827002055
:104F3000734E002000E100E030B54068057B01F0D1
:104F40001F04B2F5001F85B044EA451405D1204680
:104F500001F048FE002005B030BD0025B2F5800FFD
:104F6000CDE9025514D1B3F1007F0CBF0423052312
:104F70008DF808300023194602AA204601F070FC83
:104F80001F4B984239D10121204601F0E3FDE1E7B2
:104F9000B3F1C06F26D0B3F1007F14BF0123022309
:104FA0008DF808308368CB40D907E3D4B2F1A07FF5
:104FB000E0D16209012A04F01F03124A03F5E073ED
:104FC00018BF4FF0A04252F82330DB07D2D40DF1C6
:104FD00007052946204601F069FD0B4B984203D096
:104FE0000395C7E70323DBE7284601F0ADFD044B3B
:104FF0009842F5D06FF00B00ADE76FF01500AAE70F
:105000000000AD0B000300500400AD0B10B501F023
:105010008BFD044668B901F05FFD084B98420AD148
:105020000748214601F03CFD224605210620FEF7F7
:10503000ABFC002010BD6FF00400FBE70000AD0BDF
:1050400045500000420970B5034602D0012A17D02E
:1050500070BD0D4E326951680029F9D003F01F036D
:1050600001250C689D400029F2D08A682A4002D0B0
:105070004B68304698472CB1236821461C46F2E71E
:10508000024EE7E72346F8E7F4D70000DCD700003C
:105090002DE9FF4147683B7B01F01F0545EA4315B9
:1050A0000E4628460DF10301144601F0FFFC14F4EE
:1050B000403F80460BD1284601F0BCFD3D4B984552
:1050C00003D19DF8030001F039FD00200CE000231E
:1050D000194602AA2846CDE9023301F0C1FB354B3F
:1050E000984204D06FF0150004B0BDE8F08180450F
:1050F00003D19DF8030001F021FDA3034BD540F23D
:1051000006332340B3F5837F19D00CD8062B17D074
:1051100004D8ABB1022BE5D1042311E0B3F5807FB5
:10512000E0D101230CE040F20222934227D0B3F5F4
:10513000407F26D0B3F5007FD4D1022300E00723BF
:105140008DF8043084F48033C3F30043E0068DF817
:10515000053054BFC4F34013032321038DF80630F8
:1051600011D57A680123B340C2F80835002201A99D
:10517000284601F023FC0F4B9842A6D0B2E7052346
:10518000DEE70323DCE7620341BF01237A68B34013
:10519000C2F80C35EAE7E3064FF0000354BFC4F34E
:1051A000401403241A4601A928468DF8044001F052
:1051B00057FBE0E70000AD0B024B0B6001231360CF
:1051C000704700BFE82700200048704794DC0000CB
:1051D00010B5012211460648064C08F0A1F807F068
:1051E000BAFE206007F0B3FE6060002010BD00BF73
:1051F000F0270020E82700204FF08042D2F8101559
:10520000D2F8103501F01E0123F01F030B4343F0C9
:105210000103C2F81035024B00221A70704700BF1C
:10522000284E00204FF08053D3F83031082B20D186
:105230004FF08042D2F81015CB071AD5D2F81035AE
:1052400001F01E0123F01F030B43C2F81035D2F802
:1052500008315BB1D2F8103523F01F030B4343F044
:105260000103C2F810356FF08B007047024B01222A
:105270001A700020704700BF284E00202DE9F04131
:105280000D46164607F063FE31460746284605F0F0
:10529000C8FE78B3B5FBF7F307FB135353BBB6FB5C
:1052A000F7F407FB14642CBBB7421DD84FF0FF3254
:1052B0004FF0FF331148DFF8488003F0FDF807F0A6
:1052C00046FE0746FFF7AEFF044680B9284601F0C8
:1052D000BFFD98F800300BB1FFF78EFFF61B3D4481
:1052E000F0D1064803F0C8F82046BDE8F0816FF021
:1052F0008B04F6E76FF01504F6E700BFF0270020F7
:10530000284E00202DE9F8430E4630461946174630
:105310001C4605F086FE88B344EA060515F0030531
:105320002CD1BCB11748DFF860904FF0FF324FF03E
:10533000FF3303F0C1F824F00304AC4206EB050888
:105340000BD1124AD2F80034DB07FBD500240D48FC
:1053500003F092F82046BDE8F883FFF763FF50B9E9
:105360007959404601F094FD99F800300BB1FFF7F0
:1053700043FF0435E1E76FF08B04E8E76FF01504B5
:10538000E8E700BFF0270020284E002000E00140A1
:10539000F0B54B79012B26D0032B21D110258B7929
:1053A000032B1DD1CE790EB1012E19D10A7912B17C
:1053B000022A15D10E220B684468B3F5164F2768F0
:1053C00067D02DD8B3F5165F66D016D8B3F5966FB3
:1053D00064D00AD8B3F5967F63D0B3F5167F63D057
:1053E0006FF0850054E00025D9E7B3F5166F5ED065
:1053F000B3F5965FF4D1384B3CE0B3F5E14F59D0AB
:1054000007D8B3F5615F57D0B3F5964FE8D1334B6A
:1054100030E047F61224A342E2D14FF4000329E022
:10542000B3F5613F4AD013D8B3F5963F49D009D8B8
:105430004DF6C024A34246D0B3F5614FD0D14FF40E
:105440006B0317E0B3F5E13FCAD14FF0EB7311E006
:10545000B3F5612F3AD008D8214CA34239D0B3F527
:10546000E12FBDD14FF0E86304E01E4CA342B7D159
:105470004FF080530469C7F82435436835431B68EF
:105480002A43C3F86C2503C9231D83E803000020C9
:10549000F0BD4FF41D03EDE7134BEBE74FF49E23F4
:1054A000E8E74FF4A033E5E74FF41C33E2E74FF4AD
:1054B0001D23DFE70D4BDDE70D4BDBE74FF06C7392
:1054C000D8E70C4BD6E74FF46503D3E74FF0706392
:1054D000D0E74FF08063CDE700B0130000A04E008E
:1054E00090D0030040420F000050270000C075001C
:1054F00000F03A0000903A012DE9F7434768066949
:105500003C680021C4F800153060D7F80C90804644
:1055100001AA484605F0B0FF051E54DB019BD9F8EF
:1055200000201979186800F0B1FA051E4BDB311D17
:105530004046FFF72DFF0546002844D17B689907B8
:105540001AD506F11C0001F051FD224B98423ED1C4
:10555000337FDB0003F1804303F5F83304F10C02E1
:1055600004F59071C3F81015C3F81425327F012398
:105570009340194AC2F804350823C4F800353B7A31
:1055800053B9C4F81031D4F81031B369C4F83435C4
:105590000123C4F8383523607B689A075CBF4FF459
:1055A0008073C4F804337B68DB0644BF4FF4800388
:1055B000C4F804337369C4F844350023C4F848358B
:1055C0000123A360E360284603B0BDE8F0836FF0D9
:1055D0000405F8E70000AD0B00F00140F8B5044603
:1055E00007690D4607F0FDFDB0B9214B1B789BB153
:1055F0006426606805F06AFE00BB012007F009FC24
:10560000013EF6D10021212003F074FBF0E781F385
:105610001188BFF36F8FF5E74FF02003EFF311818F
:1056200083F31288BFF36F8F60680E4605F04EFE5D
:1056300090B981F31188BFF36F8FEDE74FF020032E
:10564000EFF3118183F31288BFF36F8F60680E460A
:1056500005F03CFE0028DAD07B691D7079690122D3
:10566000204605F073FD86F31188BFF36F8FF8BDF8
:10567000734E002070B5012383400E4ABFF35B8F49
:10568000DC4352E8001F01EA040542E80056002E00
:10569000F7D1BFF35B8F4FF4803282400648C0F8E9
:1056A0000823BFF35F8FBFF36F8F0B4214BF01203E
:1056B000002070BD042800200010014070B40E4985
:1056C000D1E90034D01AC31844F1000422F07F4617
:1056D000C1E90034A6F50013B3F5400F09D2074B1A
:1056E0001B681A0A1B069C19054B42F10005C3E909
:1056F000004570BC03F090BC48050020082800203D
:105700005005002011B3BFF35B8F0123104A834083
:1057100052E800CF4CEA030C42E800C10029F7D15F
:10572000BFF35B8F0B4A4FF480338340C2F80433DE
:10573000094BBFF35B8F1B68BFF35B8FC340DB0775
:1057400042BF064B4FF40032C3F80021704700BF40
:1057500004280020001001400028002000E100E0A3
:105760000D4B1868010A0006BFF35F8F0B4BD3F88F
:105770000435181841F10001B3F5801F0AD2084B17
:10578000D3E90023904271EB030303D210F1807040
:1057900041F10001704700BF0828002000100140BF
:1057A000500500202DE9F74F16461F460446FFF727
:1057B00061FF0090FFF7D4FFB04271EB070351D2B5
:1057C0003A4B301A67EB0101984271F100016AD23D
:1057D000374B03EB0413D3E902239F4208BF9642E1
:1057E0004ED034494FF4803904F1500509FA04F9D8
:1057F000AD00C1F848932046ADB205F031FE26F069
:105800007F4B05F1804504F5A8732B4A019305F5FC
:105810008835DC464FF0030A019B2CF07F4041F8AD
:105820002300C1F84493D1F804856FF00200A0EB87
:105830000800604420F07F40904221D9286860B180
:10584000D1F80485A8EB0B0020F07F40B0F5000FE5
:1058500016D9204605F004FE174A0AEB080C0AF197
:10586000010AD9E70123154ABFF35B8FA34052E831
:10587000000F184342E800010029F8D1BFF35B8F05
:105880000B490C98230101EB0412C2E90267C850CE
:105890000D9B5360002520460099FFF733FF2846F3
:1058A00003B0BDE8F08F6FF01505F4E7010080004C
:1058B0003805002000100140FDFF7F000028002077
:1058C00073B5194B194D00244FF0FF304FF0FF31E5
:1058D000C5F80845C3E902014FF48033C5F8043325
:1058E000134B02264FF400320121C5F80463112046
:1058F000C3F880212246FEF747F81120FEF714F87E
:105900000C4A0123AB602B6013600B4B0B4A0093D6
:10591000019400232046FFF745FF3046FFF78EFA3B
:10592000204602B070BD00BF3805002000100140C5
:1059300000E100E004280020BD560000FFFF7F00CA
:105940002DE9F7432F4CD4F8043399070BD5D4F83D
:10595000043143B12C4A0023C4F80431D4F8043193
:10596000136801331360D4F80433DA032AD5BFF384
:105970005B8F264B53E8002F22F0010143E8001013
:105980000028F7D1BFF35B8FD30702D4D4F840319E
:10599000C3B10025C4F84051D4F84031FFF7E0FE10
:1059A0004FF02003EFF3118283F31288BFF36F8F60
:1059B000174BD3E90267B042B94106D282F311888E
:1059C000BFF36F8F03B0BDE8F0834FF0FF384FF0A7
:1059D000FF39C3E90289D3E900101D604FF4803319
:1059E000C4F84833C4F84051D4F8403182F31188E8
:1059F000BFF36F8F0029E5D0009032463B46284622
:105A00008847DFE700100140082800200028002018
:105A100038050020431C13B522D0012822DD124A8C
:105A2000124B9042D4BF04461C46FFF799FE104B20
:105A30000E49D3E90023801AB0F5000F28BF0024D7
:105A400004448C4228BF0C46A2180A4900914FF02A
:105A50000000019043F10003FFF7A4FE02B010BD67
:105A6000024CE2E70124E0E7FEFF7F00FFFF7F003A
:105A700048050020BD56000008B5FFF771FE024B37
:105A80001B68C01A08BD00BF480500202DE9F0437F
:105A90002C4E00EB81010127814202D10020BDE89C
:105AA000F083056805F07F03C5F343247F2B4FEA9D
:105AB000154508BF4FF0FF33032D40D8DFE805F050
:105AC0000214393CC2F80C354FEA531CBCF1010FEB
:105AD00003F01F0514BF4FF0A04CB44607FA05F5BC
