:1080000020DB00205196000035E00000259600009E
:108010002596000025960000259600002596000074
:10802000000000000000000000000000BD92000001
:1080300025960000000000005D92000025960000DB
:1080400041930000419300004193000041930000E0
:1080500041930000419300004193000041930000D0
:1080600041930000419300004193000041930000C0
:1080700041930000419300004193000041930000B0
:1080800041930000419300004193000041930000A0
:108090004193000041930000419300004193000090
:1080A0004193000041930000419300004193000080
:1080B0004193000041930000419300004193000070
:1080C0004193000041930000419300004193000060
:1080D0004193000041930000419300004193000050
:1080E0004193000041930000419300004193000040
:1080F0004193000041930000419300004193000030
:10810000419300004193000041930000419300001F
:10811000419300004193000041930000419300000F
:1081200041930000419300004193000041930000FF
:1081300041930000419300004193000041930000EF
:048140004193000067
:1081440053B94AB9002908BF00281CBF4FF0FF31BA
:108154004FF0FF3000F00CB8ADF1080C6DE904CE1F
:1081640000F008F8DDF804E0DDE9022304B070470C
:10817400704700BF2DE9F04786468C460846089EA6
:10818400154674461946002B40F0C1808542B2FA68
:1081940082F245D94AB1C2F1200300FA02FC9540AB
:1081A40094402EFA03F343EA0C0C4FEA154EA8B29E
:1081B400230CBCFBFEF80EFB18CC08FB00F943EAC9
:1081C4000C43994528D9EB1808F1FF3704D2994597
:1081D40002D9A8F102072B44A3EB0903A4B2B3FB11
:1081E400FEFC0EFB1C330CFB00F044EA0344A042EB
:1081F40014D92C190CF1FF3304D2A04202D9ACF1EA
:1082040002032C44241A43EA07401EB1D44000233D
:1082140034607360BDE8F0874746DDE76346F1E705
:1082240092BB431B01214FEA154EAFB2200CB3FBA6
:10823400FEFC0EFB1C330CFB07F840EA0343984595
:1082440061D9EB180CF1FF3004D2984502D9ACF196
:1082540002002B44A3EB0803A4B2B3FBFEFC0EFB09
:108264001C330CFB07F744EA0344A7424DD92C19ED
:108274000CF1FF3304D2A74202D9ACF102032C441F
:10828400E41B43EA0040C0E7C2F120039540944058
:1082940020FA03F12EFA03F34FEA154E9040AFB2E1
:1082A4000343B1FBFEFC0EFB1C10190C0CFB07F87E
:1082B40041EA0041884522D969180CF1FF3004D203
:1082C400884502D9ACF102002944A1EB08019BB214
:1082D400B1FBFEFC0EFB1C110CFB07F743EA014348
:1082E4009F420ED9EB180CF1FF3104D29F4202D900
:1082F400ACF102012B44DB1B41EA004193E76046E9
:10830400E3E76146F7E76046A4E76346B8E78342DC
:1083140006D916B9002108467CE7C6E900E0F9E76A
:10832400B3FA83F78FB9834201D3724508D8BEEB01
:10833400020460EB030301209C461EB9002169E797
:108344003846FAE7C6E9004CF8E7C7F1200CBB4011
:108354000EFA07F522FA0CF42EFA0CF1BA401C437B
:1083640020FA0CF3B8404FEA144901431FFA84FE83
:10837400B3FBF9F809FB18300B0C08FB0EFA43EABF
:1083840000439A4540D9E31808F1FF3004D29A45D6
:1083940002D9A8F102002344A3EB0A0389B2B3FB78
:1083A400F9F809FB183308FB0EFE41EA03418E4538
:1083B4002CD9611808F1FF3304D28E4502D9A8F1F3
:1083C4000203214443EA0040A1EB0E01A0FB029802
:1083D4004145CE46434602D306D14D4504D2013829
:1083E400B9EB020E68EB0403002EA7D0B5EB0E0226
:1083F40061EB030101FA0CFC22FA07F3F9404CEAA1
:108404000303C6E9003199E74046C5E74346D9E787
:10841400034613F8012B002AFBD1181A01387047C0
:1084240008B5054C204605F015FB00214FF48030BB
:1084340004F0A8FDF6E700BF2CF50000014B1B6813
:10844400184700BF80C50020014B1860704700BF6B
:1084540080C5002007B50B46002102460091034861
:1084640000F076F903B05DF804FB00BF418400001E
:108474002DE9F047058B04462807904611D40229BC
:1084840005F0070540F0CD80204605F0C4FC78B126
:108494000138218B042811D8DFE800F0C3106D8562
:1084A400950001290CBF45F0100545F020052583F2
:1084B40088F31188BFF36F8FBDE8F08701F0070AD6
:1084C400AA4500F0A6800027B9463E46A368002BC3
:1084D40000F0BD8041F00801218388F31188BFF3C7
:1084E4006F8FA168002900F0BB800D68002900F09F
:1084F400B780334652462046D1F80480C047002D49
:1085040076D02B6829461D46F0E701F007035A1F71
:10851400012A1BD8002221F00701062B276889B203
:10852400C4E9002209D13B4603E0628B0132628335
:108534001B68002BF9D141F002012046218305F08C
:108544006AFC00287BD041F0200177E0042B0AD19B
:1085540021F0070189B22046218305F05CFC10B1AB
:1085640041F020012183218B01F0070AAA4550D054
:108574000027B946AAE7236921F0070141F0060163
:10858400062DD3F8009021832DD1B9F1000F40D0EE
:1085940041F00801218388F31188BFF36F8F2046CF
:1085A4003949C84729E021F00701236941F0040152
:1085B40089B2042DD3F804902183E6D000274FF02C
:1085C400040A3E4682E721F00701236941F00501D0
:1085D40089B2052DD3F808902183D6D000274FF017
:1085E400050A3E4672E700274FF0060A3E466DE74D
:1085F4002B4687E7B9F1000FD1D14FF02003EFF3F9
:10860400118883F31288BFF36F8F238B23F0080341
:108614002383258BEA062ED525F01003238305F04A
:1086240007056669218B002EBFF66FAF002327680C
:10863400C4E9003321F0070141F001012183218BBA
:108644004FF0000901F0070AAA457FF43FAF002F5D
:108654009BD041F00801218388F31188BFF36F8F09
:10866400002FC7D03D68394633465246204605F0B0
:10867400FEFB2F46F4E7AB067FF51AAF25F0200387
:10868400238305F00705FFE69FDE0000F0B50246F0
:1086940001680A270020074E0B461C780131355D1E
:1086A4006D0701D41360F0BD07FB0043A3F1300054
:1086B400F2E700BF8EF600002DE9F84F15469A4602
:1086C400D378224A6F2B12F803B080460F460BF082
:1086D400030B29D024D8582B0CBF10260A26DDF80A
:1086E40028903246002340463946FFF729FD092ADF
:1086F400D4B21ED83034B045E4B277F1000709F89B
:10870400014D01D3D14511D82B789B0605D5082EF0
:1087140015D1AB7843F00803AB704846BDE8F88F39
:1087240003F0F703702BD7E70826D8E780460F46F7
:10873400D7E7BBF1010F0CBF37345734DBE7102EFA
:10874400EBD1AB7843F01003E6E700BF8EF60000F0
:108754002DE9F04F8A4616461C46002597B0039033
:10876400307808B928464AE3731C2528049307D0B7
:108774005146039B98470028C0F241830135F0E13C
:108784001822002110A806F0E5F97378252B00F0D3
:10879400A380002398469E469C461846711C0F46AB
:1087A40011F8012B2B2A00F0C68000F2BD80202A8C
:1087B40000F0C480232A00F0C4802BB19DF8483017
:1087C40043F040038DF84830B8F1000F05D09DF810
:1087D400483043F020038DF84830BEF1000F05D037
:1087E4009DF8483043F010038DF84830BCF1000F79
:1087F40005D09DF8483043F008038DF8483028B17F
:108804009DF8483043F004038DF848309DF8483013
:1088140003F04401442903D16FF386138DF84830E3
:108824009DF848302A2A43F0800309978DF8483090
:1088340040F08C809DF8493043F001038DF84930B5
:108844007B1C1A782E2A0CBF012100219DF8492097
:1088540061F341028DF849200CD15A1C09925A78CF
:108864002A2A40F083809DF84920023342F0040212
:108874008DF849201A786C2A00F0A48000F28680D2
:10888400682A00F08C806A2A00F0A5804C2A00F047
:10889400AA801A4612F8013B782B04928DF84B30CB
:1088A4009DF8492000F217816D2B00F2A980692BF5
:1088B40000F21181572B00F2BE80412B03D0453BBF
:1088C400022B00F2088104229DF84A3062F302036D
:1088D4008DF84A300123CAE0B21C04928DF84B3063
:1088E4009DF84930D90740F1FD8054F8048BB8F164
:1088F400000F07DA9DF84820C8F1000842F004028E
:108904008DF848205A0740F1F68054F804BBBBF1B7
:10891400000F80F2F5809DF849306FF341038DF824
:1089240049304FF0FF3BEBE02D2A0DD0302A7FF485
:1089340044AF012333E74FF0010C30E74FF0010E51
:108944002DE74FF001082AE7012028E709A8FFF7DF
:108954009DFE099BBB423FF474AF9DF848201390E1
:10896400C00F60F341028DF848206AE709A8FFF7B9
:108974008DFE9DF848301490C3F3400242EAD07251
:1089840062F341038DF84830099B73E7742A26D0BB
:108994007A2A7FF47EAF06219DF849200CE05A78AC
:1089A400682A9DF8492006D1012161F3C6028DF899
:1089B400492002336DE7022161F3C6028DF8492094
:1089C400013366E75A786C2A9DF8492001D10421C5
:1089D400EBE70321F0E705219DF84920ECE70721A7
:1089E4009DF84920E8E7BDF8482022F4F04222F03F
:1089F400020242F4804242F00202ADF84820DFE76E
:108A04006E3BD9B201238B4040F282410B4238D1F4
:108A140013F0240F52D1DF075DD503219DF84A30AE
:108A240061F302038DF84A3002F07803A3F14000A9
:108A3400434243411BE00120A3F15801C9B200FAAB
:108A440001F111F4624F7FF43EAF40F60107394261
:108A54001DD111F4043F3ED09DF84A3060F3020367
:108A640002F07802402A8DF84A3034D000239DF871
:108A74004820C2F340010B4363F341028DF84820C0
:108A84002EE702219DF84A3061F30203E8E7022051
:108A94009DF84A1002F0780260F30201402A8DF832
:108AA4004A1002BF9DF8481041F001018DF84810AA
:108AB400632BDBD1131E18BF0123D8E703219DF8D4
:108AC4004A3012F0780F61F302038DF84A3014BF74
:108AD40001230023CBE79DF8483043F001038DF8D0
:108AE4004830C3E79DF94820002AACBF4FF0FF3857
:108AF400DDF84C8006E79F077FF513AFDDF850B033
:108B04000023CDE913339DF84A309DF8491003F052
:108B14000703012BC1F3C30133D1CB1E042B04D8AB
:108B2400DFE803F0214646212100236801294FEAAA
:108B3400E372CDE910321CD19DF94030DA17CDE94A
:108B4400103204349DF8483013F0030750D03246F5
:108B54005146049B039805F037FA0028C0F24F8170
:108B64000544049EFCE554F8043BDA17CDE91032C1
:108B7400E8E70229E5D11AB243F3C033CDE9102363
:108B8400DFE7022B24D1CB1E042B04D8DFE803F04B
:108B940018101018180001294FF0000254F8043B73
:108BA40014D00229CDE91032CCD19BB21093C9E77D
:108BB400073424F00704F4E80223CDE91023C1E7C5
:108BC40054F8043B109300231193BBE7DBB2CDE7C9
:108BD400042B08D1073424F00704D4E90023083413
:108BE400CDE91023AEE7032BACD154F8043BDDE709
:108BF4009DF84B007828B4D862281DD825283FF466
:108C0400B7AD5828ADD1DDE910010DF13E03009355
:108C140012AA0AABFFF750FDBBF1000F814680F2A8
:108C24009880B9F1000F9CD00DF13E06A6EB090324
:108C3400002F50D001334EE06338152891D801A29B
:108C440052F820F0C98C00002D8D0000678B0000C5
:108C5400678B0000678B0000678B00002D8D000080
:108C6400678B0000678B0000678B0000678B000038
:108C7400B78D0000518D0000798D0000678B0000D6
:108C8400678B0000A18C0000678B0000518D0000F1
:108C9400678B0000678B0000518D0000BBF1000F53
:108CA400DDF840900ADB5946484605F06EFFB9F1FD
:108CB400000F3FF456AF09EB000676E04846FFF795
:108CC400A7FBF8E7109B00278DF8283001230DF14E
:108CD40029060DF128099DF84A1011F01002069298
:108CE40000F081800233139A134405924A0644BF6C
:108CF40014995B18B8F1000F40F38E80A8EB0308B9
:108D04009DF848305807C3F3800B00F1858059065D
:108D140078D53FB151463846039B984700286EDB0F
:108D24005F46013530236EE01E075ABFC3F30013BC
:108D34005F012B27DDE91023002BBFF664AF5242FD
:108D440063EB43032D27CDE910235CE700275AE7A3
:108D540000279DF848100DF13E03A3EB09036FF3C0
:108D640086119B458DF848107FF65BAFABEB030390
:108D7400139356E7109880B30DF13E060AAB002119
:108D8400009612AAFFF798FCBDF84A30BBF1000F19
:108D940003F0EF0343F4F04343F010038146ADF8CE
:108DA4004A30D5DA00283FF4DCAE0027A6EB0903ED
:108DB40091E7109B07293FF6D4AEDFE801F00C04DD
:108DC400060C08080C0C1D70CBE61D80C9E6EA17DA
:108DD400C3E90052C5E61D60C3E6314E07460523CC
:108DE400A6F1050977E7080748BF01337BE7184672
:108DF40007935146039B98470028079B04DA17B052
:108E0400BDE8F08F2023C346594600290BF1FF3BF0
:108E1400EDDC4544D8466D1A37B151463846039BBC
:108E240098470028EBDB01359DF84A30DA0601D477
:108E34001B0706D551463020039B98470028DEDBEC
:108E44000135069B3BB151469DF84B00039B984767
:108E54000028D4DB0135059F2F4406E0514630201D
:108E6400039B98470028CADB01357B1B002BF5DCEC
:108E740033464A465146039805F0A6F80028BEDB5F
:108E84000544A844A8EB0503002B7FF76AAE5146BE
:108E94002020039B98470028B1DB0135F2E700BF8F
:108EA40051F500004FF02002EFF3118382F3128892
:108EB400BFF36F8F0121044AC2F8401583F3118870
:108EC400BFF36F8F002070470090034020B1034B25
:108ED400800143F001031847704700BFD0F1000040
:108EE40005F098BA2DE9F84305464FF02003EFF357
:108EF400118683F31288BFF36F8F4FF00C090D4B6B
:108F04000D4F1C68DFF834802CB986F31188BFF349
:108F14006F8FBDE8F883D4E90123002D18BF1346F1
:108F24002BB198F8102009FB02F2B85C984724682A
:108F3400EAE700BF40C8002034C8002084CD0020E8
:108F4400012270B5164B1C7C04F01F039A40D043D9
:108F5400144B610903EB8103D3E8EF1F01EA000519
:108F6400C3E8E65F002EF7D10A4213D00E4B0F4D33
:108F74008BB10C236343EA185178E85C05F048F898
:108F84000020FFF7AFFF0C235C4300232A192B5169
:108F9400C2E9013370BD83F31188BFF36F8FEFE72C
:108FA40084CD002048C8002015E0000034C800200B
:108FB4002DE9F041324B07461D7C4FF02003EFF3BF
:108FC400118883F31288BFF36F8F0C246C432D4BED
:108FD4002D4E195D1A19002947D007CA06EB040C57
:108FE4008CE8070000221A5588F31188BFF36F8FAD
:108FF4000C236B43F05CF218A8B37B1C10D04FF425
:1090040000400021D2F808C0204C0023ECFB0041B2
:109014001F4A2046FFF794F80121381A01F0DEFBBD
:1090240003F0F6FE0120FFF75DFF1A4B6A0903EB1C
:109034008203012205F01F018A40D3E8EF0F104399
:10904400C3E8E10F0029F8D1134B3BB10C2303FB18
:1090540005F033185978305C04F0CEFFFFF770FF49
:1090640003F0EAFE0120BDE8F0810146284600F045
:1090740015F80028B8D007C8344484E80700B3E7DB
:1090840084CD002028C8002034C800203F420F00AF
:1090940040420F0048C80020FDDF00002DE9F04FDA
:1090A40085B00E4603A900F043F84FF40047044688
:1090B4004FF0000B1B4B039DD3F800A0431E1BB2C3
:1090C40003EB4303DFF8608005EB830524B9A14675
:1090D400484605B0BDE8F08FC44659466868002389
:1090E400E0FB07C1114A6046FFF72AF8C446594617
:1090F4000190A8680023E0FB07C10C4A6046FFF713
:109104001FF8BAF1FF3FA94601D0824505D9731C67
:10911400DED0019B1844B042DAD9013CA4B20C3D24
:10912400D4E700BF84C500203F420F0040420F0037
:1091340008B9024B0B600020704700BFD8F1000053
:10914400014910220A60704710ED00E072B64040F9
:1091540080F31188BFF36F8FBFF34F8F30BF62B6B8
:10916400BFF36F8F704700BF72B6494081F3118817
:10917400BFF34F8F20BF80F3118862B6704700BFE2
:1091840040B2002807DB01234109034A00F01F0015
:10919400834042F82130704700E100E0054B42096A
:1091A40053F82220012300F01F0003FA00F01040BE
:1091B400704700BF00E100E040B2002801F1010166
:1091C400ACBF00F16040064B4FEA4111C9B2ABBFDE
:1091D40000F5614000F00F0080F800131954704747
:1091E40014ED00E030BFFFF7FDBF00BF0B4A08B528
:1091F4000B4B22F07F029A60BFF34F8FBFF36F8F48
:10920400D3F8882022F47002C3F8882003F090F980
:1092140003F038FF00F00EFA03F0CAF900800000F2
:1092240000ED00E0094A0A4993680968586799679C
:1092340008494B6843F080534B60002383F3118843
:10924400BFF36F8F9368986F704700BF84CD002081
:10925400B0F4000000ED00E015498A6882F87DE072
:109264004FF030001044EFF3098C80E8F01F202009
:1092740080F31288BFF36F8F0E4F4FF000668A6938
:109284008A603E6092F97DE0506F0023536780F35B
:10929400118802F1300090E8F01F8CF3098802F184
:1092A400000004B504F0CBFEBDE8044070470000A4
:1092B40084CD002004ED00E01EF0040F0CBFEFF39A
:1092C4000880EFF30980816911F8021C0229FFD09C
:1092D40001B504F0A5FE01BD42F8203C009B0C49F9
:1092E40042F81C3C019B21F0010142F8183C029B0E
:1092F40042F8081C42F8143C4FF0807342F8043CD6
:10930400002343674FF43C43203A0265C367704728
:1093140073DA0000084B9860436E83F30B881046A1
:1093240081F30988002163B681F31188BFF36F8F3D
:109334000022002304F09BFB84CD002001B572B60B
:109344000B4A506900281EBF0021516105F0BDFA87
:1093540062B6EFF30580A0F110004FEAC0000549A2
:10936400014409C99847BDE8014003490847000082
:1093740084CD00202CEF000081930000044B9968F9
:109384009869884203D003494FF080520A607047BD
:1093940084CD002004ED00E0154B9A6A12F0007FA2
:1093A4009A6A14BF1E201D2012F0807F9A6A18BF8B
:1093B4001F2012F4801F9A6A18BF022012F4002F93
:1093C4009A6A18BF212012F4802F9A6A18BF2220AB
:1093D40012F4003F9A6A18BF232012F4803F9A6A5D
:1093E40018BF24206FEA02426FEA12429A62704761
:1093F40000ED00E010B5194B0246986A9C6A10F41F
:10940400805F14BF1720162014F4006F9C6A18BFE5
:109414001820A40509D5986B986A000404D51AB1DC
:109424009A6A22F400429A6219200C4B9A6A12F446
:10943400806F9A6A18BF1A20D2050CD49B6A13F461
:10944400005F18BF1C20054A936A43F47F4393626C
:1094540000230B7010BD1B20F5E700BF00ED00E0FA
:1094640010B51C4B0246986A9C6A10F0100F14BF8A
:109474001120102014F0080F9C6A18BF1220A407B2
:1094840009D5586B986A000604D51AB19A6A22F075
:1094940080029A6213200F4B9A6A12F0010F9A6AA3
:1094A40018BF142012F0200F9A6A18BF1520D40692
:1094B40058BF9B6A074B9A6A920642BF5A6A22F4C3
:1094C40000525A629A6A42F0FF029A6200230B70B9
:1094D40010BD00BF00ED00E0F0B54A4B04465B68E8
:1094E40000258BB0C3F3080385F31188BFF36F8F96
:1094F40002F07F40B0F17F4F16D1D60714D4550641
:1095040003D4100704D4012504E012F0040200D0AF
:109514000C4600250022033B8DF80720032B05D8B9
:10952400DFE803F02462665F2C46F3E700239DF82E
:109534000720CAB902AE04F12007324620686168E8
:10954400083403C2BC421646F7D1099A002D53D001
:10955400C2F3080121B96FEA52226FEA422209924A
:10956400184602A904F05AFD0BB0F0BD254BDA6A87
:109574009107DBD4DA6A002AD8DBDA6A5200D5D53F
:109584005A69A16942F480725A61BFF34F8FBFF3E5
:109594006F8F5A6931F8021C22F480725A61BFF34A
:1095A4004F8FBFF36F8F4DF60272914201D1236842
:1095B400BDE79A6AD2B232B101200DF10701FFF77B
:1095C4004FFF0346B3E79A6A12F47F4F05D0012098
:1095D4000DF10701FFF70EFFF3E79B6AB3F5803F38
:1095E400A4D3FFF7D9FEECE700200DF10701E6E76D
:1095F40000200DF10701EDE722F4FF7222F00102D1
:10960400ADE700BF00ED00E0044B5A6942F01002E0
:109614005A615A6942F480625A61704700ED00E071
:10962400EFF30880EFF3098101B57246FFF754FFA9
:1096340001BD00BF002320210348C2180133412B80
:1096440082F80013F9D1704700E100E0002080F3B4
:109654001488BFF36F8F002080F30A8880F30B888F
:10966400FFF73EFC00200E490860BFF34F8F0D4802
:1096740080F3088800F03EF8202080F311880A481F
:109684004FF40061401880F30988EFF3148002213D
:10969400084380F31488BFF36F8FFFF7A7FD000022
:1096A40094ED00E020DB0020E0CD0020BFF34F8FDD
:1096B4000549064BCA6802F4E0621343CB60BFF36A
:1096C4004F8F00BFFDE700BF00ED00E00400FA0586
:1096D400002318460649D1F89020C2F3072293428A
:1096E40000DB7047C1F89830C1F8A0000133F6E7F9
:1096F40000ED00E010B572B6002484F31388FFF780
:10970400E7FF23464FF0FF300C4A03F120010133F9
:10971400102B42F82100F8D100234FF0FF30074A04
:1097240003F160010133102B42F82100F8D162B635
:10973400BFF34F8FBFF36F8F10BD00BF00E100E098
:10974400084B9B6883420BD1EFF3058343B1064B6F
:109754005A6842F080525A605A6A22F400425A62AD
:1097640003F030BC84CD002000ED00E01FB5094CAF
:10977400094A23460121094800F0EAF8002303932B
:10978400074B0121E41A01A80193029400F0EAF8BE
:1097940004B010BD0000042080C50020D8F10000F2
:1097A400E8C6002010B50C7A0B6804F01F0223F001
:1097B4001F031A43CB68640923F01F03054943EAD6
:1097C400440343F00103C1F89800C1F89C20C1F898
:1097D400A03010BD00ED00E02DE9F04F0F46144617
:1097E40006464FF000084E4D85B0B84580F294808F
:1097F400D6F80490B9F1000F36D0B9F11F0F40F23A
:10980400898019F01F0F40F08580D6F800A01AF067
:109814001F0F7FD1504604F018FC834609EB0A0061
:10982400013804F012FC834574D11BF1160F71D07A
:109834005C456FDDC5F898B0D5F89C10C5F898B0B4
:10984400D5F8A03021F01F0143F01F0AD6E90032F9
:109854001A44994202F1FF391ED1CA4508D1314652
:109864005FFA8BF004F0FAFB08F101080C36BCE750
:109874003146C5F898B0D5F89C3022F01F0203F0A9
:109884001F031343C5F89C30E0B204F0E7FB10F16A
:10989400160F3FD0441CE7E7C5F898B0D5F8A020D0
:1098A400013B23F01F0302F01F021343CA45314654
:1098B400E0B2C5F8A030E8D004F0D0FB10F1160FE8
:1098C40028D0C5F898B0D5F89C209DF808300AF146
:1098D400FF3A62F304038DF80830D5F8A0309DF800
:1098E40008205B0863F347128DF80820D6E900329C
:1098F4001344009323F01F03411C5344A3EB0903B7
:10990400C8B223F01F030F28039303D86946FFF757
:1099140049FFBFE76FF01504204605B0BDE8F08F9E
:1099240000ED00E00522044BC3F89420BFF34F8FF1
:10993400BFF36F8F704700BF00ED00E0BFF35F8F90
:109944000022024BC3F89420704700BF00ED00E0F2
:1099540010B5034C2278FFF73FFF207010BD00BF05
:10996400C8CD00202DE9F74F294D8A4606464FF011
:109974000008AB46274FD0451BDAD6F80490B9F15E
:10998400000F3FD031680846019104F05EFB019955
:10999400044609EB0100013804F057FB84424FF000
:1099A40014021D4B08D002FB08F36FF015024BF8AC
:1099B400032003B0BDE8F08F14F1160F2C60F8D02B
:1099C4001978A142F5DD02FB08B0C7F89840C7F842
:1099D4009840D7F89C4000F10801007B64F3040030
:1099E4000871D7F8A0000C79400860F347140C7193
:1099F400D7F89C1021F01F016960D7F8A01021F05E
:109A04001F01296108F1010814350C36B3E700BFC2
:109A14004CC8002000ED00E0C8CD002038B50E4D44
:109A24002C68102C15D80020FFF788FF0B4B0C4A2C
:109A3400C3F8C020844205D10A4B00201C70FFF7F4
:109A440071FF38BD696801EB0011FFF7ABFE01300F
:109A5400F0E74FF0FF30F4E7E4F1000000ED00E040
:109A6400AAFF4400C8CD0020014B1860704700BF16
:109A740088C5002010B5074C2368C2180648C0F1F9
:109A8400005101F580218A4236BF22604FF0FF3039
:109A9400C01810BD60C8002020DD0020084B70B540
:109AA400C31A0D4607499B100446594340220648F1
:109AB40004F01CFB2B4601462046BDE870401847C5
:109AC40078C80020B76DDBB6CCEE0000402373B538
:109AD4000B4C0093041B0B460D460A49A41061432A
:109AE4000646094A094804F02EFB011E05DA3046F1
:109AF4002B4602B0BDE87040184702B070BD00BFED
:109B040078C80020B76DDBB6B7E10000CCEE0000EA
:109B140070B50022012104460520FFF74DFB0F48D4
:109B240001F0F4F80E4B984215D101F0FFF82669C4
:109B34000C49304604F0BFF900280BDB01253564DD
:109B44002469084904F11C0004F0B5F9002801DB7C
:109B54000020E56470BD6FF00400FBE7A19B0000EA
:109B64000000AD0B0CF2000001460C2300224B4315
:109B740070B50848C41840331844D4E90E56A2639B
:109B840004F0A1FA2DB132462B46BDE870400248DC
:109B9400184770BD78C80020CCEE000010B1012831
:109BA40004D07047034B1B6C5B0701D1FFF7DCBF8C
:109BB400704700BF78C8002008B54FF02003EFF3CA
:109BC400118183F31288BFF36F8F114A136843F036
:109BD40002001060DA0708D481F31188BFF36F8F95
:109BE400BDE80840012001F0B1B80A4BD3F80C24B9
:109BF400D3F80C34D307EFD5074804F064FA81F3A3
:109C04001188BFF36F8FBDE808400020FFF7ACBF99
:109C1400C8C8002000500040B8C800201FB500226A
:109C24000123CDE902236B46084ACDF800D0CDF8D4
:109C340004D004F0B7FA002805DB4FF48042002377
:109C4400684602F0B5FE05B05DF804FBD5E10000FE
:109C540010B54FF02003EFF3118483F31288BFF3A0
:109C64006F8F074A136823F00201DB07116002D4E7
:109C7400012004F0D3FB84F31188BFF36F8F10BD70
:109C8400C8C800202DE9F041012207463549D1E832
:109C9400EF3FC1E8E02F0028F9D133B93249334806
:109CA4004B60CB608A6004F019F97B1E012B28D825
:109CB400012F06D12E4BD3F81C3403F00303022BDF
:109CC4001FD004F0FCFD0546E8B92A4B1B78D3B13C
:109CD40002220646264BC3F80823254CDFF8988059
:109CE400D4F81834D4F81824D20316D503F0030397
:109CF400022B01D0012F10D175B386F31188BFF365
:109D04006F8FBDE8F0814FF02003EFF3118683F3EA
:109D14001288BFF36F8F0125DFE7C5B13046FFF727
:109D240023FAD4F81835DBB2012BD9D1D4F80421A5
:109D3400002AD5D00022C4F80421D4F80421022238
:109D4400C4F818252022C8F88021A360C8E70021A0
:109D5400212003F017F9E4E70222054BC3F804239A
:109D6400CFE700BF74C8002064C8002094C8002056
:109D740000500040D7CD002000E100E008B50748BE
:109D840004F0F7FC38B10648FFF76EFE0448FEF70E
:109D94005BFB002008BD6FF01200FBE714EF00002E
:109DA400A99D00000A2838B50446074D04D1AB68C4
:109DB4000D2128465B689847AB6803485B68E1B2AD
:109DC4009847204638BD00BF14EF000030B5406806
:109DD40001F01F04057BB2F5001F85B044EA451469
:109DE40005D1204601F076FA002005B030BD0025EB
:109DF400B2F5800FCDE9025514D1B3F1007F0CBF49
:109E0400042305238DF8083000232046194602AAAE
:109E140001F096F81C4B984233D10121204601F001
:109E240015FAE1E7B3F1C06F20D0B3F1007F14BF9E
:109E3400012302238DF808308368CB40D907E3D48B
:109E4400B2F1A07FE0D1114A04F01F03803352F82D
:109E54002330DB07D8D40DF107052946204601F04D
:109E6400A1F90B4B984203D00395CDE70323E1E717
:109E7400284601F0E5F9044B9842F5D06FF00B0049
:109E8400B3E76FF01500B0E70000AD0B0025844088
:109E94000400AD0B10B501F0C3F9044668B901F034
:109EA40097F9084B98420AD12146074801F074F902
:109EB400224605213120FFF77FF9002010BD6FF005
:109EC4000400FBE70000AD0BD19E0000430970B510
:109ED40007D10B4B596821B101250C68094E854007
:109EE40001B970BD8A682A4002D030464B68984751
:109EF4001CB1236821461C46F2E72346FAE700BF5B
:109F0400CCC80020E4EE00002DE9FF41476801F0D1
:109F14001F053B7B144645EA43150E4628460DF1C2
:109F2400030101F03FF914F4403F80460BD1284669
:109F340001F0F8F93C4B984503D19DF8030001F07A
:109F440079F900200CE000232846194602AACDE93D
:109F5400023300F0F5FF344B984204D06FF0150043
:109F640004B0BDE8F081804503D19DF8030001F001
:109F740061F9A30349D540F206332340B3F5837F47
:109F840019D00CD8062B17D004D8ABB1022BE5D1CD
:109F9400042311E0B3F5807FE0D101230CE040F20B
:109FA4000222934226D0B3F5407F25D0B3F5007F3B
:109FB400D4D1022300E007238DF8043084F48033E5
:109FC400C3F30043E0068DF805304CBF0323C4F30C
:109FD400401321038DF8063010D501237A68B3406D
:109FE40093600022284601A901F056F80E4B9842CE
:109FF400A7D0B3E70523DFE70323DDE7620341BF0F
:10A0040001237A68B340D360EBE7E3064FF0000323
:10A014004CBF0324C4F340141A46284601A98DF802
:10A02400044000F08DFFE1E70000AD0B2DE9F041A5
:10A0340001273F4E00EB8101814202D10020BDE89F
:10A04400F081056805F07F03C5F343247F2B4FEAB5
:10A05400154508BF4FF0FF33192D66D8DFE805F02A
:10A064000D161B1E212D1E656565653151656565DF
:10A07400656565656565545C5F62C2F80C3503F01F
:10A084001F0507FA05F5B560012502E0C2F814358D
:10A094000025AC461CE0C2F80835F0E7C2F81035DC
:10A0A400F6E70025C2F8083503F01F0C07FA0CFC8C
:10A0B400C6F80CC04FF0010C0AE0C2F80C350125BB
:10A0C400F2E7C2F80835002CE2D100250624AC469C
:10A0D40050F804EB24020EF40058B8F1000F1CBF32
:10A0E4004FF0000C0125CEF3C11E44EA8E0403F0A8
:10A0F4001F0344EA0C0444EA4504803346F8234031
:10A104009AE7C2F80C35DEE7C2F860350568C5F396
:10A114008035002DD3D0B2E7C2F86435F6E7C2F833
:10A124006835F3E7C2F86C35F0E76FF0850086E731
:10A1340000258440F0B54B79012B26D0032B21D187
:10A1440010258B79032B1DD1CE790EB1012E19D197
:10A154000A7912B1022A15D10E220B684468B3F5AC
:10A16400164F276867D02DD8B3F5165F66D016D87A
:10A17400B3F5966F64D00AD8B3F5967F63D0B3F580
:10A18400167F63D06FF0850054E00025D9E7B3F55E
:10A19400166F5ED0B3F5965FF4D1384B3CE0B3F55F
:10A1A400E14F59D007D8B3F5615F57D0B3F5964F57
:10A1B400E8D1334B30E047F61224A342E2D14FF406
:10A1C400000329E0B3F5613F4AD013D8B3F5963FB5
:10A1D40049D009D84DF6C024A34246D0B3F5614F07
:10A1E400D0D14FF46B0317E0B3F5E13FCAD14FF080
:10A1F400EB7311E0B3F5612F3AD008D8214CA34298
:10A2040039D0B3F5E12FBDD14FF0E86304E01E4C23
:10A21400A342B7D14FF080530469C7F8243543688B
:10A2240035431B682A43C3F86C25231D03C983E8FF
:10A2340003000020F0BD4FF41D03EDE7134BEBE7E3
:10A244004FF49E23E8E74FF4A033E5E74FF41C33C3
:10A25400E2E74FF41D23DFE70D4BDDE70D4BDBE7B2
:10A264004FF06C73D8E70C4BD6E74FF46503D3E794
:10A274004FF07063D0E74FF08063CDE700B0130078
:10A2840000A04E0090D0030040420F000050270071
:10A2940000C0750000F03A0000903A012DE9F74340
:10A2A4008046002201210820FEF786FF0820FEF7E1
:10A2B40067FF0021D8F80470D8F810603C6801AA40
:10A2C400C4F80015C6F80080D7F80C90484603F08F
:10A2D400E1FF051E4DDB019BD9F8002019791868B0
:10A2E400FFF7A4FE051E44DB4046311DFFF722FFA5
:10A2F400054600283DD17B68990713D506F118005F
:10A3040000F098FD1E4B984237D1337E43F0004352
:10A31400C4F8A031C4F88C300123327E9340194A2A
:10A32400C2F804350823C4F800353B7A53B9C4F89D
:10A334001031D4F810317369C4F834350123C4F8EA
:10A34400383523607B689A075CBF4FF48073C4F888
:10A3540004337B68DB0644BF4FF48003C4F8043342
:10A364003369C4F844350023C4F848350123A36095
:10A37400E360284603B0BDE8F0836FF00405F8E716
:10A384000000AD0B00700140F8B504460D460769A6
:10A3940004F095FAB0B92E4B1B789BB16426606823
:10A3A40003F0AEFF00BB012004F036F8013EF6D105
:10A3B4000021212002F0E6FDF0E786F31188BFF3C7
:10A3C4006F8FF5E74FF02003EFF3118683F31288C4
:10A3D400BFF36F8F6068314603F092FF90B986F344
:10A3E4001188BFF36F8FEDE74FF02003EFF3118671
:10A3F40083F31288BFF36F8F6068314603F080FFE8
:10A404000028DAD03B691D70626838691368C3F8A4
:10A4140044050120C3F848050020C3F82001D3F8FF
:10A424002051C3F858015268D3F85801D20608D510
:10A43400082062681268C2F800054FF48002C3F86D
:10A44400042301229A6081F31188BFF36F8FF8BD52
:10A45400D7CD00200123834070B5DC430B4AD2E8FA
:10A46400EF1F01EA0405C2E8E65F002EF7D14FF4BE
:10A47400803282400648C0F80823BFF35F8FBFF3E1
:10A484006F8F0B4214BF0120002070BDDCC8002078
:10A494000050014070B40E4922F07F46D1E90034E7
:10A4A400D01AC31844F10004C1E90034A6F500131E
:10A4B400B3F5400F09D2074B1B681A0A1B069C19F7
:10A4C400054B42F10005C3E9004570BC02F0B0BE83
:10A4D400F8C60020E0C8002000C70020D9B101233D
:10A4E4000D4A8340D2E8EFCF4CEA030CC2E8E1CF37
:10A4F4000029F7D14FF48033084A8340C2F804336B
:10A50400074BD3E8AF3FC340DB0742BF4FF4001211
:10A51400044BC3F800217047DCC800200050014000
:10A52400D8C8002000E100E00D4B1868010A0006BD
:10A53400BFF35F8F0B4BD3F80435181841F10001BA
:10A54400B3F5801F0AD2084BD3E90023904271EB84
:10A55400030303D210F1807041F10001704700BF82
:10A56400E0C800200050014000C700202DE9F74F4B
:10A5740016461F460446FFF76DFF0090FFF7D4FF11
:10A58400B04271EB070350D2384B301A67EB01012C
:10A59400984271F1000165D2354B03EB0413D3E902
:10A5A40002239F4208BF964249D04FF48039314973
:10A5B40009FA04F9204626F07F4BC1F8489303F0CA
:10A5C400E9FE4FF0030A584604F15005AD00ADB260
:10A5D40005F1804504F5A873274A05F5A8350193CC
:10A5E400DDF804C020F07F4341F82C30C1F84493D7
:10A5F400D1F80485A0EB0800033820F07F40904296
:10A604001DD9286860B1D1F80485A8EB0B0020F0AF
:10A614007F40B0F5000F12D9204603F0BBFE164A66
:10A624000AEB08000AF1010ADAE70123134AA340FE
:10A63400D2E8EF0F1843C2E8E10F0029F8D1002552
:10A644000B490C98230101EB0412C850C2E90267BC
:10A654000D9B536020460099FFF740FF284603B046
:10A66400BDE8F08F6FF01505F4E700BF010080002E
:10A67400E8C6002000500140FDFF7F00D8C800203C
:10A6840073B500254FF0FF304FF0FF31184C194BD4
:10A694000226C4F80833C4F84833174BC4F80855E5
:10A6A400C3E902014FF480334FF40012C4F80433B9
:10A6B400124B0121C4F804631520C3F880212A46F3
:10A6C400FEF77AFD1520FEF75BFD01230C4AA3601B
:10A6D400236013600B4B0C4A00932846002301951A
:10A6E400FFF744FF3046FFF7CDFA284602B070BDAD
:10A6F4000050014003000F00E8C6002000E100E024
:10A70400DCC8002099A40000FFFF7F002DE9F74377
:10A714002E4BD3F8042390070BD5D3F8042142B170
:10A724000022C3F804212A4AD3F804311368013300
:10A734001360264AD2F80433D90327D5254BD3E82E
:10A74400EF1F21F00100C3E8E40F002CF7D1CB0781
:10A7540002D4D2F84031CBB100251C4CC4F840518E
:10A76400D4F84031FFF7E0FE4FF02003EFF31182FD
:10A7740083F31288BFF36F8F174BD3E90267B0429C
:10A78400B94106D282F31188BFF36F8F03B0BDE8DD
:10A79400F0834FF0FF38D3E900104FF0FF391D600C
:10A7A400C3E902894FF48033C4F84833C4F84051F4
:10A7B400D4F8403182F31188BFF36F8F0029E5D0BC
:10A7C400009032463B4628468847DFE70050014068
:10A7D400E0C80020D8C80020E8C60020431C13B5F8
:10A7E40021D0012821DD124A124B9042D4BF0446E5
:10A7F4001C46FFF799FE104B0E49D3E90023801A3B
:10A80400B0F5000F28BF002404448C4228BF0C4636
:10A8140000200A49A2180190009143F10003FFF7B8
:10A82400A5FE02B010BD034CE3E70124E1E700BF3D
:10A83400FEFF7F00FFFF7F00F8C6002099A4000000
:10A8440008B5FFF771FE024B1B68C01A08BD00BFB4
:10A85400F8C60020F0B50F4B01461A680E4B0B25C5
:10A86400002618461F46B84201D3013D04D11846BC
:10A87400013A19605A60F0BD04688C42FBD03CB1C7
:10A884004468141BA642BCBF034626460830EAE7C8
:10A894000346ECE754C9002060C900200020054BA2
:10A8A400C3E90000044BD3E8EF2FC3E8E10F00290C
:10A8B400F9D1704758C9002054C900202DE9F04748
:10A8C40086B005460E4603F051FF20B96FF06D00C7
:10A8D40006B0BDE8F08704F007F933680446002B9E
:10A8E4000F4604D102F0CCFA6FF00A00F0E7BCBFC7
:10A8F4004FF0FF3333600122002101A803F0F4FF7D
:10A90400E84605954FF02003EFF3118A83F312888C
:10A91400BFF36F8F02F050FBFFF79CFFDFF8189135
:10A924004268D9F800309A426DD10023434D009318
:10A934006B68002B6ED1C5E900888AF31188BFF3D8
:10A944006F8F33685A1C6AD04FF4004E40F2E730E0
:10A95400002123EAE37C4FF47A720023CCFB0E013E
:10A96400FDF7EEFB02460B4601A802F021F84FF07A
:10A974002003EFF3118A83F31288BFF36F8F002251
:10A984002B685BB1434554D10099002A4BD16A68C6
:10A9940029609A4200D169600023009302F00CFB05
:10A9A400FFF758FFD9F8003043608AF31188BFF3EA
:10A9B4006F8F03F0DBFE002888D035686B1C27D02E
:10A9C40004F092F84FF47A7EA0FB0E320EFB0121C4
:10A9D400A4FB0E420EFB0722DB0BE40B43EA4143CC
:10A9E40044EA42441B1B4FEAD1314FEAE57C61EB58
:10A9F400D231ED1A6CEB010CBCF1000FB8BF00258D
:10AA040035602DB970E743608AF31188BFF36F8F07
:10AA140000205DE7C3F80080C5F804808DE74FF09F
:10AA2400FF321346A0E711606968994208BF6A6063
:10AA3400B2E71A461B68A4E754C9002058C900208D
:10AA440070B40468094B2CB19C4203D303F1700524
:10AA5400AC4206D3064D2C78661C03EB04132E700F
:10AA64000360006870BC03F03FBF00BFE4C800206F
:10AA7400CBCD002038B505460A4BD3E8EF1F013192
:10AA8400C3E8E21F002AF8D1074B1C6804B938BD9B
:10AA94006369AB4200D015B9201D01F069FF246839
:10AAA400F4E700BF54C9002058C900200146002221
:10AAB4000023014803F0DCBEB0C900200146014870
:10AAC40003F0E0BEB0C90020014600220023014883
:10AAD40003F0CEBEC4C900200146014803F0D2BE33
:10AAE400C4C9002008B548B90549064801F004F96D
:10AAF400BDE808400449034801F0FEB808BD00BFA2
:10AB0400C9F50000E8F50000EBF500002DE9F0417F
:10AB14001F46154B044693F800800D461646A2B016
:10AB2400B8F1000F15D1684603F08DFA3A46314664
:10AB34002846289BA0470446684603F085FAB8F1E6
:10AB4400000F02D0094801F0D7FE204622B0BDE82C
:10AB5400F0814FF0FF324FF0FF33044801F052FE12
:10AB64000028E0D01F24F0E7D7CD0020D0C6002075
:10AB740070B5302692B006AB05460C46324600212D
:10AB8400184603F0E7FFCDE90454CDE9020654B1B9
:10AB9400012304AA009200210448019302AA00F0B0
:10ABA40007F812B070BD2046FBE700BF000100406B
:10ABB40030B401F50045B5F5803F039C0DD243EA5E
:10ABC4000405FF2D09D844EA0324134644EA01424C
:10ABD400014630BC0348FFF799BF6FF0800030BCDA
:10ABE400704700BF117C000070B501250268B2FAFD
:10ABF40082F3C3F11F03DBB205FA03F422EA04046F
:10AC0400D0E8EF6F964204D1C0E8EC4FBCF1000FDE
:10AC1400F6D1EBD101480B7070BD00BF0000AD0B45
:10AC240010B50368CB40DB0710D401238B400268C6
:10AC340043EA0201D0E8EF4F944204D1C0E8EC1F8C
:10AC4400BCF1000FF6D1F2D1014810BD0148FCE778
:10AC54000000AD0B0400AD0BF7B5044618B1012894
:10AC64001ED003B0F0BD0222274B0746C3F80823C9
:10AC7400C3F80401D3F804210122DA60012342F26B
:10AC84001075214E8DF80730B4B1012CE9D187B38A
:10AC9400D6F80C3403F001033B70D6F80C3413E0FF
:10ACA4000022194B0DF10707C3F80803C3F800216C
:10ACB400D3F800215860E1E78FB1D6F8183403F0D7
:10ACC40003033B70D6F81834DA03CAD59DF807009D
:10ACD4000128C6D103F0A0FB013DD5D1C1E7D6F8C8
:10ACE4001834D903BDD5012003F096FB013DF6D1FC
:10ACF400B7E7D6F80C34DB03B3D5012003F08CFBA3
:10AD0400013DF6D1ADE700BF00500040044B1A7975
:10AD140022B9012218601A7102487047024870472C
:10AD2400D8C900200000AD0B0C00AD0B08B5052000
:10AD3400FEF734FA10B90520FEF722FA0122024B7D
:10AD4400C3F8182508BD00BF0050004008B510B175
:10AD540001282ED008BD1C4AD2F81834D2F8181491
:10AD6400C9030ED4D2F81434DB0713D5D2F81C343B
:10AD740003F00303013B012B09D80223C2F8043377
:10AD8400E8E703F00303022B05D0012B02D00020D7
:10AD9400FFF762FF01230C4AC2F818350023C2F8FA
:10ADA4000431D2F804310223C2F80433012393603E
:10ADB400D0E70022044BC3F80021D3F80021C3F8E4
:10ADC40004031860C6E700BF0050004010B5174BDD
:10ADD400D3F8002152B10020C3F80001D3F80021B8
:10ADE4000122C3F80823124B1B6898470F4BD3F872
:10ADF40004218AB10022C3F80421D3F80421D3F832
:10AE04001824D3F8181402F00302012A4FF00201A7
:10AE140003D1C3F818159A6010BDC3F80813044B86
:10AE24000120BDE810401B68184700BF00500040D7
:10AE3400D8C9002001460148FFF7D6BEA8C50020A6
:10AE4400064A00F01F0002EB8002D2F8003223F41D
:10AE5400403343EA0143C2F800327047002584407E
:10AE6400034B083033F81000C0F34010704700BFA4
:10AE7400ACC5002070B50D4C00F1080334F8133054
:10AE84000546DA050E4607D5C3F3432304EBC30294
:10AE9400526854F833309847A3682BB1314628469A
:10AEA400E268BDE87040184770BD00BFACC5002023
:10AEB40010B4124A083032F81030D9051BD5C3F348
:10AEC400432123F4F85322F81030002002F10E0439
:10AED40034F8023F13F4807F03D0C3F34323994231
:10AEE40009D001302028F3D1002342F8313004483E
:10AEF40010BCFFF795BE10BC704700BFACC5002066
:10AF040000C6002038B50246FFF7AAFF0B4C02F139
:10AF1400080560B1002134F815305B0B9B0003F188
:10AF2400804303F54433C3F81015C3F810151046D5
:10AF3400FFF7BEFF002324F8153038BDACC5002050
:10AF44002DE9F34104461D4609B34E4F00F10808AC
:10AF540037F81860B30706D5FFF782FF18B14A48DF
:10AF640002B0BDE8F081494804F01F0300EB830000
:10AF7400D0F80032097823F00F0326F0020643EAE2
:10AF8400810346F00106C0F8003227F818609AB130
:10AF94003C4E04F1080736F81710137811F0020F2D
:10AFA40050680CD00028DAD136F8172022F01C02A1
:10AFB40042EA830326F81730D5BB3548D0E721F0A1
:10AFC4002001C904C90C26F817100028ECD0032B63
:10AFD400C5D8526892F800C06246920002F18042DD
:10AFE40002F5443223B9C2F81035C2F81035DBE754
:10AFF400D2F8100541EA4C3120F00300C2F81005E4
:10B00400D2F8100541F0200120F4473020F44070BC
:10B01400C2F810052002D2F810E500F4F85040EA16
:10B02400034040EA0E00C2F8100526F81710BBE7EB
:10B034002046D5E90067FFF73BFF002EBDD0114D38
:10B04400D5E90023964201D19F4218D011480DF151
:10B054000701FFF7C9FD0E4B984281D19DF80720E7
:10B0640005EBC20308345F6035F8143045F83260EC
:10B0740043EA422343F4807325F814309DE7002209
:10B08400EEE700BFACC500200400AD0B00258440F2
:10B094000000AD0B00C60020F8B5044679B33A4E63
:10B0A40000F1080736F81750AB0704D4FFF7D8FEB1
:10B0B40008B13648F8BD15F01C0F4B7822D104F0C6
:10B0C4001F00DFF8CCC000F1800E5CF82EC091F8B0
:10B0D40002E05B002CF4E16C097843EA8E032CF067
:10B0E400070C43EA0C0343EA0123294943F0010313
:10B0F400803045F0030541F8203026F8175022B976
:10B104002448D7E7012BDAD1D3E71F4E04F108070F
:10B1140036F817008307CCD592F800C000236146A7
:10B1240020F02000890001F18041C00401F5443180
:10B13400C00CC1F8103526F81700C1F81035557841
:10B14400002DDDD0D1F81035927823F4981323F430
:10B15400F853C1F81035D1F810E5230203F4F8537D
:10B164002D0443EA0E0305F4403512052B4302F483
:10B17400801240EA4C30134340F02000C1F81035EF
:10B1840026F81700BCE700BFACC500200400AD0BD7
:10B19400002584400000AD0B014BC3E90201704758
:10B1A400ACC5002008B50246FFF75AFE38B1054B7E
:10B1B400083233F8123004485B0B0B7008BD0348A7
:10B1C400FCE700BFACC500200000AD0B0400AD0BD4
:10B1D40038B50F4C94F85850BDB94022294604F1B3
:10B1E400100003F0B7FC3120FDF7CAFF094B0A48F1
:10B1F400C3F87C51D3F87C214FF00042C3F80423F8
:10B20400012384F85830636538BD0448FCE700BF67
:10B21400ACC50020001003400000AD0B0500AD0BD1
:10B22400034B93F85800003818BF0120704700BF43
:10B23400ACC5002001460148FFF7F2BCFCC5002064
:10B2440001460148FFF7D0BCFCC50020024610B5FA
:10B25400FFF706FE1B4B02F1080433F81430C8B1A3
:10B2640013F0020416D118485B0B9A0084508058DE
:10B2740002F1804202F54432D2F8100540F0010098
:10B28400C2F8100529B1012202FA03F30F4AC2F8E9
:10B29400043310BDC3F38203042B0ED0052B0ED050
:10B2A4000B4B196902F01F03D94001F0010102316F
:10B2B4001046BDE81040FFF7C3BD0321F8E70221A3
:10B2C400F6E700BFACC500200011034000100340A6
:10B2D4000025844008B50246FFF7C2FDC0B10F4BFC
:10B2E40002F1080133F81130990711D401225B0BE4
:10B2F4009A400B499B0003F18043C1F8082303F5EE
:10B304004433D3F8102522F00302C3F8102508BDF6
:10B314000021BDE808401046FFF792BDACC50020EF
:10B324000010034010B50C4B00F1080233F8123042
:10B334000446DB070DD5FFF7CDFF2046FFF7E2FDFE
:10B344000222064B04F01F048034054843F82420ED
:10B3540010BD0448FCE700BFACC5002000258440B4
:10B364000000AD0B0400AD0B2DE9F04F00250122C8
:10B374002C464D4B4D484E4985B01E6836B1D0F829
:10B38400046316421EBF1C601E68154304338B42BF
:10B394004FEA4202F1D1454FD7F87C3193B1454E83
:10B3A4000DF10C09336A039333624FF0010A0398D9
:10B3B40070B9C7F87C01D7F87C31336A03933362E0
:10B3C400002BF2D10124002D56D105B0BDE8F08F39
:10B3D40090FAA0FBBBFA8BFB374A0BF108034FEA48
:10B3E400DB0C32F813100BF0070419F80C300AFACE
:10B3F40004F423EA040309F80C3006EB8B03D3F8B6
:10B404000042C1F38202C9069046C4F3014418D530
:10B41400114658460193FFF72DFD019BE4B2D3F882
:10B424000032C3F301439C4207D100215846FFF781
:10B4340007FD21465846FFF703FD0AFA0BF0306278
:10B44400B5E7022C0CD103215846FFF7F9FC08F0AC
:10B454000503012BF1D141465846FFF70BFDECE7FC
:10B46400022158460192FFF7EBFC019A032AF2D01D
:10B47400032CE2D18A42EDE795FAA5F3B3FA83F3FC
:10B4840004FA03F29B0003F1804303F54433D3F839
:10B494001005D3F81015C0F30420C1F3014125EAC7
:10B4A4000205FFF7E7FC8EE700110340001003409C
:10B4B4002011034000258440ACC5002070B5084C21
:10B4C4000E462379154643B92A20FDF759FE012378
:10B4D400044823712660A56070BD0348FCE700BFE3
:10B4E400E0C900200000AD0B0C00AD0B002330B50B
:10B4F4000D4A50F8234003F5A2710133082B42F89A
:10B504002140F6D10023084A00F11C0103F5B2746E
:10B5140051F8045F0133082B42F82450F6D1036C30
:10B52400C2F8043330BD00BF00A0024000234FF036
:10B53400FF31134AC2F81035C2F81435C2F8183571
:10B54400C2F81C35C2F82035C2F82435C2F82835B3
:10B55400C2F82C35C2F89035C2F89435C2F8983543
:10B56400C2F89C35C2F8A035C2F8A435C2F8A83593
:10B57400C2F8AC35C2F80813024A1371704700BF11
:10B5840000A00240E0C900200123024A8340C2F81F
:10B594000433704700A002400123024A8340C2F8EA
:10B5A4000833704700A00240F8B5012600270B4B72
:10B5B4000B4DD3F80C4304B9F8BD94FAA4F0B0FAD7
:10B5C40080F006FA00F324EA0304064B82009F503D
:10B5D4002B68002BEFD0A9689847ECE700A0024045
:10B5E400E0C9002000A1024070B503680446033B93
:10B5F400DBB2042B03D8094A52F823502DB9A068B2
:10B6040008B100F019F8002070BD02F05EFF216857
:10B614002B46BDE87040090C184700BFC8F2000073
:10B62400014B1B68184700BF08C60020014BDB68AC
:10B63400184700BF08C60020014B5B69184700BFCC
:10B6440008C60020014B9B68184700BF08C60020AD
:10B65400014B1B68D8687047ECC90020002330B543
:10B6640010490A681468A3420BD100234A68116880
:10B674008B4215D002EBC304A468A04208D0013366
:10B68400F6E702EBC305AD68A84201D00133EAE74F
:10B6940002EBC302536823F0FF0343F00303536038
:10B6A40030BD00BF0CCA0020002230B50B4B196816
:10B6B4000C6894420FD001EBC2039D68A8420BD1E1
:10B6C4004FF003020433D3E8CF1F002903D1C3E8AA
:10B6D400C02F0028F7D130BD0132EAE704CA0020A8
:10B6E4002DE9F041002506460F462846DFF8648020
:10B6F4003368AB4201D8BDE8F08106EBC50463684A
:10B70400DBB2012B17D16268B8F80030B3EB124FEB
:10B7140011D1022FA06810D1FFF766FF90B96368BA
:10B7240023F0FF0343F0030363600120B8F8003003
:10B734000133A8F800300135DAE70168090C02F09A
:10B744006FFEEBE70128F0D1636823F0FF0343F0B9
:10B754000203E9E7C4CD002038B5074D012128686C
:10B76400FFF7BEFF022104466868FFF7B9FF00280F
:10B77400F4D1002CF2D138BD0CCA002070B50728D2
:10B7840068D8DFE800F00B674F674B67400400F0B0
:10B7940027FE0320BDE87040FFF76CB903202E4B51
:10B7A400D3F81446D3F818662C4B1D78187000F0A3
:10B7B400EDFD2B4BEDB2186802F002FE012D1CD1F9
:10B7C400284B9C4210D009D8023B9C420FD0013335
:10B7D4009C420FD0244B1C600020DBE7234B9C428F
:10B7E400F8D16FF00C04F5E76FF00B04F2E76FF09B
:10B7F4001504EFE76FF08504ECE73146C4F30B0062
:10B8040000F0B8FDE8E70222144B00201A7000F0A3
:10B81400BDFD134B186802F0D3FDDDE7FFF79CFF75
:10B824000220B7E70D4B1A78012AD0B20ED1104A84
:10B834001168104A8C6854604968116000221A70BB
:10B8440000F0A4FD064B186802F0BAFDFFF784FF70
:10B8540001209FE770BD00BF00A00240CDCD0020B5
:10B86400F4C900202200010008CA0020323001007F
:10B87400F0C900200CCA002070B5164B42681B6842
:10B8840022F0FF0242F00202C31A42601248134A35
:10B894000168C3F38913D2E8DF4F651CC2E8D65FA1
:10B8A400002EF8D101EBC3014A6892B242EA044285
:10B8B4004A600268032002EBC302536823F0FF03CB
:10B8C40043F00103536002F071FD0122044BDA607E
:10B8D40070BD00BFFCC9002004CA0020C6CD0020F2
:10B8E40000A002400A23F7B54FF47A750C4E0D4FB1
:10B8F40001933168386802F0C3FD044640B902F090
:10B904005DFD40B9012001A9FEF7D8FF6E30F0D1EA
:10B91400204603B0F0BD0198684302F047FDE8E714
:10B92400F8C9002000CA0020054B1B782BB9054B31
:10B934001968054B186802F0A3BD0020704700BFCA
:10B94400CCCD0020FCC9002004CA00202DE9F04F12
:10B9540095B038220021064603A803F0FBF8022321
:10B964000493082306932023089304230D931023A0
:10B9740040250F9380230122CDE91153D5230021C3
:10B9840055480B921393FFF75BF80546002840F0E7
:10B994009F80024651493079FFF790FD03A8FFF7D5
:10B9A400A5FD34686268B2F59D6F40F089806169D5
:10B9B400E3680B44E16903F59D630B44B3F5003F71
:10B9C4007ED82068294603F0C5F833681C68D3F88C
:10B9D4001C9004F53A72019204F16007404A04F1A4
:10B9E400A40804F1200BB9F1000F5CD1C2F800B037
:10B9F40000254FF0010A2570657084F802A0E570F7
:10BA0400336840461B69636033685B69C4F814B0EB
:10BA1400A360344BC4F81890C3F80080324BE7603D
:10BA24001F600823C4F8108084F8A43088F80150FB
:10BA340088F8025088F8035084F860307D70BD7037
:10BA4400FD7002F005FD384602F002FD274B04F5B7
:10BA54003A721A60264B04F1E8021A603168254BE9
:10BA64001960254B2549C3F81046C3F81456244BD6
:10BA7400244C1D80244B25601D80244B83F800A09A
:10BA8400234B02951D611B690293029B124B18689C
:10BA940002F098FCC8B92468A4B91E4B1C70204657
:10BAA40015B0BDE8F08F9B6904F140096364336805
:10BAB4004846DB69C2F800B0236400F075FC97E7E0
:10BAC4006FF01504FFF732FDE9E76FF07304F9E74F
:10BAD4006FF02D04E3E700BFF4C9002081B7000034
:10BAE400F0C9002004CA002000CA0020FCC90020BC
:10BAF400F8C90020ECC9002000A00240F04902006F
:10BB0400C6CD002008CA0020C4CD0020CDCD002021
:10BB140000560040CCCD002070B5164B42681B681F
:10BB240022F0FF0242F00102C31A42601248134A93
:10BB34000168C3F38913D2E8DF4F651CC2E8D65FFE
:10BB4400002EF8D101EBC3014A6892B242EA0442E2
:10BB54004A600268032002EBC302536823F0FF0328
:10BB640043F00103536002F021FC0122044B5A60AC
:10BB740070BD00BFF8C9002000CA0020C6CD002057
:10BB840000A0024010B5FFF7ADFE012400220321FE
:10BB9400047081704270C270FFF7BEFF054B1C70C9
:10BBA40002F069FCBDE81040034B47F230511868BD
:10BBB40002F008BCCCCD0020F4C9002010B50A4B1B
:10BBC40004461B78032B0ED0FFF78CFE58B10121DD
:10BBD400002201700221846042708170C270BDE84D
:10BBE4001040FFF799BF10BDCDCD00202DE9F341E2
:10BBF40005460020174688461E4602F068FC0246A9
:10BC040040B915B1284602F08CFC6FF00B0002B06D
:10BC1400BDE8F0816FF0580300240373042305602A
:10BC24000E4D037244738473C47344728472C47279
:10BC3400C0F80480394603202C7002F064FC4FF0F5
:10BC4400FF3301932B78B34201D10020DFE70220B8
:10BC540001A9FEF733FE0028F4D0D8E7CECD0020AA
:10BC6400F8B5054600240F4F57F8046B28463146B3
:10BC740002F097FF28B90134042CF5D14FF4803039
:10BC84000DE06CB1A31E012BF8D83046FCF7C0FBC5
:10BC94000A220021284401F08DFC40EA0440F8BD4A
:10BCA4002046FCE7DCF200002DE9F743002581463D
:10BCB4000F461048294690461E46019301F084FC25
:10BCC400041E11DB0134204602F029FCC9F80000EF
:10BCD40068B1334642462146019601F075FC284678
:10BCE4003C6003B0BDE8F0836FF01500F9E76FF036
:10BCF4000B00F6E7C0F100000FB47FB5089C00F01C
:10BD04004BFB002839D0002C3AD0224609AB03A9BA
:10BD140002A80193FFF7C8FF044660B91A4E4FF01A
:10BD2400FF31306802F04EFB034602984BB102F03B
:10BD3400F8FB6FF00A04204604B0BDE8704004B07C
:10BD44007047022301220399FFF750FF044618B1FC
:10BD5400306802F035FBEEE70C4D2B681868FFF7EE
:10BD64007FFF0446306802F02BFB2B68186802F052
:10BD7400D4FB286802F0CEFBDDE74FF0FF34DAE7AE
:10BD84006FF00D04D7E700BF20CA00201CCA0020B2
:10BD940038B5C3680446A72B03D0206802F0BDFB66
:10BDA40008E0032908D0042921D0022902BF012276
:10BDB400124B1A70002038BD114D2B683BB100683E
:10BDC4009847002320682B6002F0A7FB06E00B4B8A
:10BDD4001A78022A05D100680028F5D10020C0B2E3
:10BDE400E9E7084A1060022201201A70F7E7064BBF
:10BDF4001B68002BD1D000689847CEE7CECD002039
:10BE040014CA00201CCA002018CA002030B50246FB
:10BE140000236425054905FB03F460180C5994427A
:10BE240003D00133082BF6D1002030BD24CA0020F2
:10BE34002DE9F843021E104C18BF012206460025C6
:10BE4400A0464FF064090D4B0D4F1A702368BB4296
:10BE54000AD009FB05831A7F66F386121A77636B8F
:10BE640013B1204602F09EFB0135082D04F1640451
:10BE7400ECD1BDE8F88300BF24CA0020CFCD002058
:10BE84001EF1AD1B0123034A1370034A10601846C8
:10BE9400704700BFD0CD002044CD0020F8B548F253
:10BEA4000F03994206460D463BD022D848F20D03B3
:10BEB40099422FD048F20E0399422FD00069FFF720
:10BEC400A5FF044608B3B5F5004F1ED9A5F50045F6
:10BED400013D0B2D19D8DFE815F09000B300940054
:10BEE40094009400EE00EE009400990018001800ED
:10BEF400D20049F20403994216D0B1F5104F24D967
:10BF0400C068FFF783FF044670BB3068B0B102F02D
:10BF140004FB13E0FFF7B6FFC0B2F8BD02F0CAFBA2
:10BF2400FAE702F0C5FBF7E70369032B06D8DFE85D
:10BF340003F0020A02070020FFF77AFF0020ECE773
:10BF44000122654B1A700120F6E70069FFF75EFFD6
:10BF540004460028D9D048F281039D42D5D1014638
:10BF6400304600F0BBF84FE049F202039D4200F076
:10BF74009E8035D802F065FB0746E0B91020FEF735
:10BF840095FD0546B8B13946102202F0E3FD336849
:10BF94006B6073682B81718A002900F09780328A64
:10BFA40006F1140002F0C5FAE860002840F08E8023
:10BFB4002846FEF783FD306802F0AFFA204602F00F
:10BFC40013FB48B1204602F03CFB28B90C23A361C3
:10BFD400237F63F07E032377204602F00AFB25E0EB
:10BFE40049F203039D4218D049F282039D428CD149
:10BFF4000146304600F086F806E073690BB9B36970
:10C004000360304602F0A3FB054610E0037F23F0F3
:10C01400030343F003030377F3E7037F43F00103D0
:10C0240003773069692812D16823A361002520466B
:10C0340002F011FB10B1204602F0B4FAE8B26CE74A
:10C04400037FF5686FF382030377706918B100F01A
:10C05400EBF8A061EAE7204602F0D0FA18B9237F92
:10C0640043F008032377204602F0C8FA0028CBD017
:10C07400002DDCD00021204600F05EF8D6E7437F97
:10C08400013B43777369002BBBD1304602F05DFB63
:10C09400B26943681A604268137F43F00803137758
:10C0A400436822691A61436862695A61A9E7437F58
:10C0B40001334377BAE7304602F047FB736913B99B
:10C0C400B36943609DE74FF0FF33FAE72946204602
:10C0D40002F080FAAAE700BFD1CD002010B5436971
:10C0E4000C465BB10B7F6FF304130B77406900F0D0
:10C0F4009BF8034BA061186802F062F9002010BDA0
:10C1040048CD002010B50B7F0C466FF304130B775A
:10C11400006958B9DBB223F0280343F028030B77F6
:10C12400044B186802F04CF9002010BD00F07CF8B4
:10C13400A061F5E748CD00202DE9F341DFF8E48064
:10C144000546D8F80000019102F03CF9074650B1C9
:10C15400019B002B63D11023AB614FF0FF373846AE
:10C1640002B0BDE8F081286CA8B1FCF751F9461C77
:10C17400304602F0ACF9044678B9284602F04EFA8B
:10C1840008B16923AB61D8F8000002F019F96920FD
:10C1940002F00EF9E1E73E46EAE72B680422036168
:10C1A4000023027243728372C37295F8472005F12B
:10C1B4004401013292008260143002F0BEFCE6B108
:10C1C4003246296C206802F0CDFC66602B7F042087
:10C1D40043F01003224647F281012B7702F093F9D2
:10C1E400284602F01BFA0028B9D1284602F012FAB8
:10C1F40040B9A8690028B2D0CAE726706670A67054
:10C20400E670E2E7022001A9FEF758FB10F10B0FDC
:10C2140005D00028E9D00028B8BF4042B8E7742010
:10C22400B6E700BF48CD002070289ABF024B53F8F0
:10C2340020000248704700BFECF20000ADBAADBA6E
:10C24400F8B5046806463CB101F47043B3F5005FE9
:10C2540004D1414BC3E900140020F8BD3F4D2B68C5
:10C26400002B6FD044F2040291420BD8B1F5804FF9
:10C2740068D9A1F58041023902292AD8DFE801F002
:10C284004750590044F2011399422ED044F201233D
:10C29400994257D1324E306808B102F03EF9022279
:10C2A400304B346094F851401A702F4E14F0080744
:10C2B4002B68327825D01AB90520984701233370AA
:10C2C400E30702D502202B68984701202B68984782
:10C2D400C2E7234E306808B102F01FF90022214B57
:10C2E40034601A7094F83D40DFE71D4E306808B1A1
:10C2F40002F013F901221B4B34601A7094F8414088
:10C30400D3E7002ADCD0062098473770D8E7174EC9
:10C31400306808B102F001F903202B683460D6E7D5
:10C32400134E306808B102F0F8F804202B6834602A
:10C33400CDE72278032A05D8DFE802F002080A0CC8
:10C3440007209847306802F0E8F885E70820F8E706
:10C354000920F6E70A20F4E75CCD00204CCD00204C
:10C3640058CD0020D2CD0020D3CD002054CD0020C4
:10C3740050CD002007B5044BCDE900011B68684689
:10C38400984703B05DF804FB64CD0020014B18709E
:10C39400704700BFD4CD0020024B1878431E58428A
:10C3A40058417047D4CD00200021074B0122197059
:10C3B400064B1970064B1960064B1960064B186042
:10C3C4000648FEF73DBB00BFD5CD0020D6CD0020EA
:10C3D4006CCD002070CD002080CD002068CD0020E1
:10C3E40070B42D4B1B68196958691A7C00221A74A1
:10C3F4005C7C5A749C7C9A74DC7CDA741C7D1A759F
:10C404005C7D5A759C7D03299A75DC7DDA7529D08B
:10C41400042933D001292FD18568204E954210D1AB
:10C4240001211A7A00221972597A5A72997A9A72E7
:10C43400DA7A6FF05F02DA72194B70BC186801F097
:10C44400BFBF911C00EB81014C682178622907D0A1
:10C45400633918BF0121490046F821400132DDE764
:10C464000121F9E7187A1972597A5A72997A9A72EB
:10C47400DA7A6FF05F02DA7270BC7047187A197258
:10C48400597A5A72997A9A72DA7A6FF05F02DA728A
:10C494000122044B1A70EFE780CD002074CD0020F8
:10C4A40068CD0020D6CD0020014B986860307047DD
:10C4B40084CD0020104B70B553F82040013053F860
:10C4C4002060A64200D870BDD4E900358DB128465D
:10C4D400984738B10028B8BF4042FF28A8BFFF20C2
:10C4E400EB681870EA68537843F00103537008341A
:10C4F400E7E79847FBE700BFB4F40000012208B562
:10C50400094B03201A70FFF7D5FF00F01BFF04202E
:10C51400FFF7D0FF00F0FEF8FBF782FF034A137B1E
:10C5240023F00103137308BDD7CD002088C7002072
:10C5340008B50348034A0021121A02F040F908BD65
:10C54400E8C60020DCCD00200023012270B586B0AF
:10C55400CDE904230F220193CDE9023214234FF4D1
:10C56400A0720E4D0E4E03FB00550E4906EBC0168D
:10C57400044602FB00110C4B3046009500F09AF87B
:10C58400737B2C7423F004037373084B013403EBA3
:10C59400C423EE606B6006B070BD00BF84CD002084
:10C5A40008C70020E0D50020D1C70000E0CD00205E
:10C5B40080B50020A6B0FFF77DFF2E4B03F5006287
:10C5C40082F3088883F30A880024E0232A4D2B4E43
:10C5D40085F82230EC772C766C76AC7685F82040A2
:10C5E4006B6A274F43F4E0236B6285F82340FDF721
:10C5F4000BF8FCF7A5FD4FF0FF33AB62EB62FDF7E0
:10C604000DFAFDF7B3F840F2011306AD2846ADF874
:10C614002430CDE91F4400F08FFEB56002F0A8F885
:10C624000120FFF747FF0220164DFFF743FF00F0FC
:10C634001FFC154BB5610593012314494FF4806227
:10C64400CDE9034328463B46CDE90144009400F07C
:10C6540031F806466A7B284622F004026A7302F027
:10C6640089F92046FFF770FF3A4631462846FCF721
:10C6740051FE00BFE0CD002000ED00E084CD00209D
:10C6840001C5000088C7002057F6000020D700200D
:10C6940038B5064C064DAC4201D3002038BD2046C7
:10C6A400D4E9011202F08FF81434F4E7A8C600208C
:10C6B400BCC600202DE9FF410E9E00F1580506730B
:10C6C4000426C0E916550025044646730D9EC0E9AC
:10C6D40006558673D61D0C9A26F00706C0E919166E
:10C6E4008560C573C56602920B9A01EB0608019238
:10C6F4000A9A00924246FCF7EFFD054B65659B687C
:10C7040003B11B6F4046236704B0BDE8F08100BF4E
:10C7140084CD00202DE9F043294C2A4D87B02646CC
:10C72400AE4204F12C040FD300F072FB4FF4004628
:10C7340040F2E737224CDFF89090AC4220D307B0A8
:10C74400BDE8F04300F078BB54F8043C059354F87A
:10C754000C3C049354F8103C039354F8143C029397
:10C7640054F8183C019354F81C3C009354E90923F1
:10C7740054E90B01FFF79EFF54F82C3C5E65CEE7AD
:10C78400636A5A1C0DD00021384623EAE373C3FBC5
:10C79400060151EAC333D4F8008004D1404600F0C6
:10C7A400E7FA2C34C9E74FF47A720023FBF7C8FC8C
:10C7B40002460B4608F11800494600F0C3FCF0E7B6
:10C7C40034F1000034F10000DDE9000008B50B4C41
:10C7D4000B4D4FF02002EFF3118382F31288BFF365
:10C7E4006F8F02F06DF92B78606113B9FCF7AEFC22
:10C7F400EFE7FCF7DDFB0028EBD1F7E784CD002061
:10C80400D7CD00202DE9F341044617461E464FF0CC
:10C814002003EFF3118883F31288BFF36F8FC3688B
:10C82400334A7BB180689168884219D057EA06037D
:10C8340018D188F31188BFF36F8F6FF00F0002B027
:10C84400BDE8F081916891F90E100133E3609368BB
:10C854002161A36088F31188BFF36F8F0020EEE796
:10C864002169F2E791F90E1090F90E306FF07E0213
:10C874009942A8BF19469142B8BF11468B422EDD9A
:10C8840002F02AF8054622464146CDE900761948C9
:10C8940000F0F8F90028E1D04FF02003EFF31186FF
:10C8A40083F31288BFF36F8FA068D0B12368216926
:10C8B4009C420AD04BB193F90E309942A8BF194655
:10C8C4006FF07E039942B8BF194602F005F840B1F3
:10C8D4003146084800F03AFA6FF00A00AFE7002545
:10C8E400D1E7002DF4D186F31188BFF36F8FF3E7FE
:10C8F40084CD0020D8CD002038B5836804466BB3BE
:10C90400194A926893422CD1C368012B03D9013B85
:10C91400C360002038BD4FF02003EFF3118583F38B
:10C924001288BFF36F8F0169806801F0D5FF20463C
:10C9340002F056F8A06058B190F90E20226100224E
:10C94400826702F017F82946084800F0FFF9E0E78B
:10C95400E06085F31188BFF36F8FDAE76FF015009D
:10C96400D8E74FF0FF30D5E784CD0020D8CD0020A4
:10C9740038B504464FF02003EFF3118583F3128892
:10C98400BFF36F8F02F02CF848B10022826701F0E8
:10C99400F1FF2946BDE83840044800F0D7B9D4E98E
:10C9A40002329A4218BF0133A360F2E7D8CD0020C7
:10C9B40013B54FF02004EFF3118184F31288BFF311
:10C9C4006F8F846844B1013C846081F31188BFF3A4
:10C9D4006F8F002002B010BD52EA030406D181F328
:10C9E4001188BFF36F8F6FF00F00F3E7CDE90023D9
:10C9F4000246024800F046F9ECE700BFD8CD00201B
:10CA0400C3897F2B12D80A4B1B6863B1094B90F979
:10CA14000E201B689A4209DB437BDB0606D1064BDA
:10CA2400C31A18BF012303F0010070470023FAE77B
:10CA3400B0CD0020ACCD002008C700200122044B5B
:10CA4400C01A044BC0105843034B1A54704700BF1C
:10CA540008C80020ABAAAAAAD8CD002070B50E4BF6
:10CA64000E4C1E7C054606EB460304EBC30420462D
:10CA740002F010F800220A4B28469A55FFF7C0FF2F
:10CA840048B1084B2046BDE870401A680649013A8F
:10CA9400D31700F057BB70BD84CD002008C8002018
:10CAA400D8CD0020B0CD002041CA000038B50D4DCE
:10CAB4002B4653F81C4F9C4200D004B9EC68AB6879
:10CAC40038B95A7BD20604D1A26912B9DA897F2A0D
:10CAD40005D89C4202D02046FFF7C0FF2346AB6135
:10CAE40038BD00BF84CD002070B590F90D200146FB
:10CAF400002A437B04DA03F07F03437301F000FF51
:10CB0400154A4B7B104663F07F034B7350F81C3F70
:10CB1400146A834208BF002323B9C1E900042160D9
:10CB240011620CE091F90E5093F90E60B5420ED0EB
:10CB3400AE420CDD5868C1E900300160596090686C
:10CB4400BDE87040431A58425841FFF7AFBF9C42BA
:10CB5400E3D01B68E0E700BF84CD002070B490F9F7
:10CB64000D30427B002B29DBD30627D183692BBBF5
:10CB7400134962F07F0242730A4652F81C4F9442F2
:10CB840018BF23460C6A23B9C0E900242060086258
:10CB94000CE090F90E5093F90E60B5420AD0AE4203
:10CBA40008DD5A68C0E9003210605860002070BC8B
:10CBB400FFF77CBFA342E7D01B68E4E770BC704773
:10CBC40084CD002008B590F90D200146002A437B4E
:10CBD40004DA03F07F03437301F092FE044B986878
:10CBE400431A58425841BDE80840FFF75FBF00BFF1
:10CBF40084CD002070B515461C46064601F092FE11
:10CC0400B4F1FF3F08BFB5F1FF3F08D02A462346E1
:10CC140006F118000249BDE8704000F093BA70BDF7
:10CC2400DDE9000038B54FF02003EFF3118583F3FD
:10CC34001288BFF36F8F104B104A9C681068A04293
:10CC440006D1FFF70BFF85F31188BFF36F8F38BD53
:10CC540000211B7C11600A4AD35C002BF3D02046D0
:10CC6400FFF7CEFE0028EED0637BDB0602D1204620
:10CC7400FFF73AFF2046E4E784CD0020A8CD00204A
:10CC8400D8CD002070B50C480C4D86680C462E603B
:10CC94001146DDE904234FF02006EFF3118586F3F6
:10CCA4001288BFF36F8F8068FFF7A4FF2046BDE8AA
:10CCB4007040FCF7B7BA00BF84CD0020A8CD002097
:10CCC400F8B504464FF02003EFF3118683F312887E
:10CCD400BFF36F8F437B49B2DA0619D18569BDB9B9
:10CCE40003F07F03437301F00BFE437B164A63F0AA
:10CCF4007F0343731346817353F81C0F984218BF84
:10CD04000546106A5DB9C4E900300460146211E09C
:10CD14000020A17386F31188BFF36F8FF8BD95F9D6
:10CD24000E70B9420BD08F4209DD6B68C4E9005321
:10CD34001C606C600120FFF7B9FE0120EAE7A842FD
:10CD4400E1D02D68DEE700BF84CD002049B9EFF3C0
:10CD5400058030B9054B9A699B689A4201D0FCF76B
:10CD640061BA81F31188BFF36F8F704784CD0020BF
:10CD740010B54FF02002EFF3118482F31288BFF351
:10CD84006F8F427B510704D484F31188BFF36F8FF4
:10CD940010BD22F004024273FFF7E0FE2146BDE815
:10CDA40010400148FFF7D2BFD9CD002070B504462A
:10CDB400183001F06FFE4FF02003EFF3118683F378
:10CDC4001288BFF36F8F94F90D20637B002A05DA74
:10CDD40003F07F032046637301F092FD0B4D637BE8
:10CDE400A86843F010036373031B58425841FFF7CC
:10CDF4005DFE86F31188BFF36F8FAB68A34203D146
:10CE0400BDE8704001F02CBE70BD00BF84CD002091
:10CE14004FF02003EFF3118183F31288BFF36F8F78
:10CE2400044B9A68D37B013BD37381F31188BFF31E
:10CE34006F8F704784CD002010B54FF02003EFF3BF
:10CE4400118483F31288BFF36F8F084B00209A6814
:10CE5400D37B0133D373FFF729FE84F31188BFF327
:10CE64006F8FBDE8104001F0FBBD00BF84CD0020F2
:10CE7400024B03F11C02C3E90722704784CD002052
:10CE8400F8B54FF02003EFF3118583F31288BFF355
:10CE94006F8F19498868437B03F07F03437301F064
:10CEA4002FFD08468B685A7B62F07F025A7350F854
:10CEB4001C2F0C6A824208BF002222B9C3E9000475
:10CEC40023600B620CE093F90E6092F90E70BE427F
:10CED4000ED0B7420CDD5168C3E900210B605360EA
:10CEE4000120FFF7E3FD2846BDE8F840FCF79AB9B6
:10CEF400A242E3D01268E0E784CD002050EA0103A7
:10CF04002DE9F04105460E4603D1FFF7B9FF002095
:10CF14002CE0831C71F1FF332ADB01F0E1FD2C18B6
:10CF24004FF02003EFF3118883F31288BFF36F8F60
:10CF3400114F124BB8681860FFF744FEB8681049E7
:10CF44002A463346183000F0FDF8BA684046537B51
:10CF540043F010035373FCF765F901F0C1FD201A87
:10CF640063EB0303012873F10003D0DBBDE8F08118
:10CF74006FF00104241AD3E784CD0020A8CD00204B
:10CF8400DDE90000B1F1FF3F08BFB0F1FF3F08B594
:10CF940006D1084B9868FFF709FF4FF0FF3008BD32
:10CFA400FFF7ACFF4FF47A7380FB0303C00B40EA36
:10CFB4004340F4E784CD0020014B9868704700BFDC
:10CFC40084CD00202DE9F04104464FF02003EFF317
:10CFD400118683F31288BFF36F8F037BD9070BD5B8
:10CFE40086F31188BFF36F8F404080F311884FF0B0
:10CFF400040002DFBDE8F081437B1A0704D586F301
:10D004001188BFF36F8FF5E723F0200242F0080187
:10D01400D20920D14173A36813B1204601F078FCF2
:10D0240004F1180001F036FD4FF0000804F1580730
:10D03400A56DBD4200D0B5B90120FFF737FD104BF7
:10D044009B68A342DBD1EFF30583002BD7D1304695
:10D05400FCF7E8F8D3E703F05F0343F008034373F6
:10D0640001F04EFCD7E7284601F052FC05F1180008
:10D0740001F010FD2846C5F87880FFF76FFDD7E76B
:10D0840084CD002008B50648064A0749121A01F063
:10D0940098FBBDE80840054A0549064801F091BBE4
:10D0A40080C50020E4C60020E4F700000000000072
:10D0B400CCF7000080C50020034B1B680BB9FDF7BB
:10D0C400BFBB0020704700BFB4CD002010B50E4B8D
:10D0D4001C689C4204D1FFF7EFFF6FF0004010BDC5
:10D0E400FFF7EAFF002CF8D0D4E904321B1A62EBF4
:10D0F400E072B3F1004F72F10001EEDA002AACBF26
:10D1040018460020EBE700BF34C6002030B570B1EC
:10D114000B4B5B6898420AD0036843B1D3E90421FE
:10D12400D0E90445121941EB0501C3E90421D0E912
:10D13400003213605A600023C0E9003330BD00BFE1
:10D1440034C60020B3F1FF3F08BFB2F1FF3FF8B58A
:10D1540004461D4616465CD081604FF02003EFF371
:10D16400118783F31288BFF36F8F013275F1FF3398
:10D1740024DA6FF001032C49D1E900209B1A4FF007
:10D18400FF3262EB00009E1B60EB0500012E70F184
:10D19400000301DA01260020C4E90460234ED6F816
:10D1A40000C07568B44508BF4FF0000CBCF1000F17
:10D1B4000DD1C4E900652C6074601CE0FFF77CFFAE
:10D1C400013645F10005361845EBE070E4E7DCE98B
:10D1D4000420D4E90431934271EB000E1ADAD21A16
:10D1E400DCF8043060EB0100CCE90420C4E900C39E
:10D1F4001C60CCF804403368B34206D09C4204D18E
:10D20400FFF764FF0021FDF7E9FA87F31188BFF304
:10D214006F8FF8BD9B1A61EB0001AC45C4E9043182
:10D22400C7D0DCF800C0C1E720C8002034C6002005
:10D234002DE9F84F4FF02003EFF3118C83F312889C
:10D24400BFF36F8FDFF8B0A0DFF8B0900024C9F807
:10D254000000DAF800000025504508BF0020284FE0
:10D26400E046D7E90021D9F8003080B3D0E9046C56
:10D274004FEAE37EB3427EEB0C0B05DAF61A6CEB55
:10D284000E04C0E9046422E0B21841EBE671C0E97F
:10D294000445C7E90021FFF739FF88F31188BFF37C
:10D2A4006F8F836898474FF02003EFF3118883F35F
:10D2B4001288BFF36F8FD9F80030DAF800009B1B97
:10D2C4005045C446C9F80030CAD1D7E9002100242A
:10D2D4009A1841EBE373C7E90023C9F80040FFF74C
:10D2E400F5FE2146FDF77AFA88F31188BFF36F8FB4
:10D2F400BDE8F84FFFF796BC34C60020B4CD00203B
:10D3040020C8002010B54FF02003EFF3118483F3FD
:10D314001288BFF36F8FFFF7CFFE0346054AD2E9A9
:10D324000001181841EBE37184F31188BFF36F8F88
:10D3340010BD00BF20C80020014B0367704700BF29
:10D34400A8C60020014800F085BB00BF5FF60000BE
:10D3540038B50546002941D051F8043C0C1F002B78
:10D36400B8BFE41800F03EF91D4A136833B963608E
:10D3740014602846BDE8384000F03AB9A34208D901
:10D38400206821188B4201BF19685B680918216065
:10D39400EDE71A465B680BB1A342FAD9116850183D
:10D3A400A0420BD120680144501811608342E0D19F
:10D3B40018685B68084453601060DAE702D90C23EC
:10D3C4002B60D6E7206821188B4202BF19685B687E
:10D3D4000918636008BF21605460CAE738BD00BF04
:10D3E400BCCD0020F8B5CD1C064625F00305083554
:10D3F4000C2D38BF0C25002D01DBA94203D90C23C9
:10D4040033600020F8BD00F0EDF821490A681446A5
:10D414009CB9204F3B6823B92146304600F03CF8C4
:10D4240038602946304600F037F8431C23D10C23DA
:10D434003046336000F0DCF8E3E723685B1B17D465
:10D444000B2B03D923601C44256004E06368A242CB
:10D454000CBF0B605360304600F0CAF804F10B00B7
:10D46400231D20F00700C21A1CBF1B1AA350C9E7D2
:10D4740022466468CCE7C41C24F00304A042E3D031
:10D48400211A304600F008F80130DDD1CFE700BFA3
:10D49400BCCD0020B8CD002038B50023054D04468E
:10D4A40008462B60FCF7E6FA431C02D12B6803B153
:10D4B400236038BDC0CD0020242B2DE9F0478646DB
:10D4C400904601D8012B06D100F0F2FD162303602B
:10D4D4000020BDE8F0870D4635482A4615F8014B73
:10D4E400065D16F00806F8D12D2C24D12C780126DF
:10D4F400951C2BBB302C30D00A2306F1004C0022A3
:10D504000CF1FF3C1046BCFBF3F903FB19CAA4F170
:10D514003007092F28D83C46A34234DD571C07D0D6
:10D5240081452DD301D1A2452ADB00FB0340012212
:10D5340015F8014BEBE72B2C04BF2C78951CD8E78E
:10D54400102BDAD1302CD8D12A7802F0DF02582AF5
:10D55400D3D16C7810230235CFE72B7803F0DF03A7
:10D56400582BF6D00823C8E7A4F14107192F01D896
:10D57400373CD1E7A4F16107192F04D8573CCBE716
:10D584004FF0FF32D4E7531C08D122236046CEF873
:10D594000030B8F1000F9CD0691E06E006B140428D
:10D5A400B8F1000F95D0002AF6D1C8F8001090E722
:10D5B4008EF6000013460A46014602480068FFF74B
:10D5C4007BBF00BF3CC6002007B5009313460A4644
:10D5D40001460348006801F0FAFA03B05DF804FB61
:10D5E4003CC60020014800F05BBD00BFBCC6002063
:10D5F400014800F05BBD00BFBCC600202DE9F04F20
:10D6040098468B899DB007461B060D46144610D5D7
:10D614000B6973B94021FFF7E5FE2860286130B932
:10D624000C233B604FF0FF301DB0BDE8F08F40236A
:10D634006B610023CDF80C804FF00109DFF8A08165
:10D64400099320238DF8293030238DF82A3023467E
:10D654009A4613F8012B0AB1252AF9D1BAEB040B27
:10D664000BD05B4622462946384601F0DBFA0130EE
:10D6740000F0A780099A5A4409929AF80030002BC6
:10D6840000F09F8000234FF0FF320AF1010A049357
:10D6940007938DF853301A93CDE905235446052298
:10D6A4004F4814F8011B01F08AFB049AD8B9D0063C
:10D6B40044BF20238DF85330110744BF2B238DF82A
:10D6C40053309AF800302A2B15D0079A544600207C
:10D6D4004FF00A0C214611F8013B303B092B4BD982
:10D6E400B0B1079214E0A0EB0803A24609FA03F3D1
:10D6F40013430493D2E7039B191D1B68002B03916A
:10D70400BBBF5B4242F0020207930793B8BF049287
:10D7140023782E2B0AD163782A2B32D1039B02342F
:10D724001A1D1B6843EAE37303920593DFF8B4A060
:10D7340003222178504601F042FB38B1A0EB0A00E5
:10D744004022049B013482401343049314F8011BC8
:10D75400062225488DF8281001F031FB002836D028
:10D76400224B1BBB039B073323F0070308330393AC
:10D77400099B334409936AE70CFB02320C460120EF
:10D78400A8E7002301344FF00A0C194605932046FC
:10D7940010F8012B303A092A03D9002BC6D0059181
:10D7A400C4E70CFB012104460123F0E703AB2A463E
:10D7B40004A9384600930E4BAFF30080421C064682
:10D7C400D6D1AB895B063FF52DAF09982CE703ABA7
:10D7D4002A4604A938460093054B00F00BF8EDE700
:10D7E4008EF7000094F7000098F700000000000096
:10D7F40029EC00002DE9FF470F7E914680460C4638
:10D80400782F9A460C9D01F1430207D8622F0AD85B
:10D81400002F00F0E080582F00F0BB8004F1420696
:10D8240084F842703AE0A7F16303152BF6D801A1FE
:10D8340051F823F091D80000A5D8000021D80000A9
:10D8440021D8000021D8000021D80000A5D800006C
:10D8540021D8000021D8000021D8000021D80000E0
:10D86400C1D9000035D9000077D9000021D80000C3
:10D8740021D80000E3D9000021D8000035D90000E8
:10D8840021D8000021D800007FD900002B6804F1C2
:10D8940042061A1D1B682A6084F842300123ABE05B
:10D8A400236829681F0601F10400286001D50D686A
:10D8B40003E05E06FBD5B1F90050002D61687ADA09
:10D8C4002D200029A16084F843002DDA6D425E48C2
:10D8D4000A231646B5FBF3F103FB1157C75D06F89F
:10D8E400017D2F460D46BB42F4D9082B0BD123688A
:10D8F400DF0708D5236961689942DEBF302306F843
:10D90400013C06F1FF36921B22614B4603AA2146D5
:10D914004046CDF800A001F0E0F9013071D14FF09C
:10D92400FF3004B0BDE8F08723F004032360CDE7A3
:10D934002B682068191D2960050601D51D6802E0C1
:10D944004106FBD51D886F2F3F4814BF0A230823C7
:10D95400002184F843106668002EA660B9DB2168B4
:10D9640021F004012160002DB3D1002EB1D116465F
:10D97400BBE7236843F0200323607827334884F807
:10D984004570296823680E1D2E601E0603D50D6898
:10D9940004E02D48F3E75D06F9D50D88D90744BFA7
:10D9A40043F0200323600DB11023D1E7236823F053
:10D9B40020032360F8E724480A23CCE72B68266871
:10D9C400181D6169286035061B6801D5196002E0DD
:10D9D4007006FBD5198000231646236195E72B6852
:10D9E40000211A1D2A601E686268304601F0E7F9BA
:10D9F40008B1801B606063682361002384F84330AE
:10DA040083E72369324649464046D047013086D0F1
:10DA140023689B0714D4E068039B9842B8BF184658
:10DA24007FE70123324649464046D04701303FF460
:10DA340076AF0135E36803995B1AAB42F1DCEAE7A0
:10DA4400002504F11906F5E79FF70000B0F7000080
:10DA5400002070470FB407B504A951F8040B0191D5
:10DA6400FAF7F8FC03B05DF804EB04B07047044621
:10DA740008B5084611461A46A047FFF79DFAFBF77A
:10DA84005FFE00EBC100408840087047F8B50346CC
:10DA9400FFF7F7FFB0FA80F0C0F11F0003EB800C32
:10DAA400DCF81060CA00171D0C4606328DB256B958
:10DAB400012101FA00F0D9680143D960CCF8104083
:10DAC400DD539D52F8BDF1000431585AD85303EB8D
:10DAD400C0009E52C5805D52F4E710B500EBC1044E
